{"abi":[{"inputs":[{"internalType":"string","name":"_description","type":"string"},{"internalType":"uint256","name":"_minInvest","type":"uint256"},{"internalType":"uint256","name":"_maxInvest","type":"uint256"},{"internalType":"uint256","name":"_goal","type":"uint256"},{"internalType":"address","name":"_owner","type":"address"}],"stateMutability":"nonpayable","type":"constructor"},{"inputs":[{"internalType":"uint256","name":"index","type":"uint256"}],"name":"approvePayment","outputs":[],"stateMutability":"nonpayable","type":"function"},{"inputs":[],"name":"contribute","outputs":[],"stateMutability":"payable","type":"function"},{"inputs":[{"internalType":"string","name":"_description","type":"string"},{"internalType":"uint256","name":"_amount","type":"uint256"},{"internalType":"address payable","name":"_receiver","type":"address"}],"name":"createPayment","outputs":[],"stateMutability":"nonpayable","type":"function"},{"inputs":[],"name":"description","outputs":[{"internalType":"string","name":"","type":"string"}],"stateMutability":"view","type":"function"},{"inputs":[{"internalType":"uint256","name":"index","type":"uint256"}],"name":"doPayment","outputs":[],"stateMutability":"nonpayable","type":"function"},{"inputs":[],"name":"getSummary","outputs":[{"internalType":"string","name":"","type":"string"},{"internalType":"uint256","name":"","type":"uint256"},{"internalType":"uint256","name":"","type":"uint256"},{"internalType":"uint256","name":"","type":"uint256"},{"internalType":"uint256","name":"","type":"uint256"},{"internalType":"uint256","name":"","type":"uint256"},{"internalType":"uint256","name":"","type":"uint256"},{"internalType":"address","name":"","type":"address"}],"stateMutability":"view","type":"function"},{"inputs":[],"name":"goal","outputs":[{"internalType":"uint256","name":"","type":"uint256"}],"stateMutability":"view","type":"function"},{"inputs":[],"name":"investorCount","outputs":[{"internalType":"uint256","name":"","type":"uint256"}],"stateMutability":"view","type":"function"},{"inputs":[{"internalType":"address","name":"","type":"address"}],"name":"investors","outputs":[{"internalType":"uint256","name":"","type":"uint256"}],"stateMutability":"view","type":"function"},{"inputs":[],"name":"maxInvest","outputs":[{"internalType":"uint256","name":"","type":"uint256"}],"stateMutability":"view","type":"function"},{"inputs":[],"name":"minInvest","outputs":[{"internalType":"uint256","name":"","type":"uint256"}],"stateMutability":"view","type":"function"},{"inputs":[],"name":"owner","outputs":[{"internalType":"address","name":"","type":"address"}],"stateMutability":"view","type":"function"},{"inputs":[{"internalType":"uint256","name":"","type":"uint256"}],"name":"payments","outputs":[{"internalType":"string","name":"description","type":"string"},{"internalType":"uint256","name":"amount","type":"uint256"},{"internalType":"address payable","name":"receiver","type":"address"},{"internalType":"bool","name":"completed","type":"bool"},{"internalType":"uint256","name":"voterCount","type":"uint256"}],"stateMutability":"view","type":"function"}],"devdoc":{"kind":"dev","methods":{},"version":1},"evm":{"assembly":"    /* \"Project.sol\":74:2930  contract Project {... */\n  mstore(0x40, 0x80)\n    /* \"Project.sol\":735:1057  constructor(... */\n  callvalue\n  dup1\n  iszero\n  tag_1\n  jumpi\n  0x00\n  dup1\n  revert\ntag_1:\n  pop\n  mload(0x40)\n  sub(codesize, bytecodeSize)\n  dup1\n  bytecodeSize\n  dup4\n  codecopy\n  dup2\n  dup2\n  add\n  0x40\n  mstore\n  dup2\n  add\n  swap1\n  tag_2\n  swap2\n  swap1\n  tag_3\n  jump\t// in\ntag_2:\n    /* \"Project.sol\":917:923  _owner */\n  dup1\n    /* \"Project.sol\":909:914  owner */\n  0x00\n  dup1\n    /* \"Project.sol\":909:923  owner = _owner */\n  0x0100\n  exp\n  dup2\n  sload\n  dup2\n  0xffffffffffffffffffffffffffffffffffffffff\n  mul\n  not\n  and\n  swap1\n  dup4\n  0xffffffffffffffffffffffffffffffffffffffff\n  and\n  mul\n  or\n  swap1\n  sstore\n  pop\n    /* \"Project.sol\":948:960  _description */\n  dup5\n    /* \"Project.sol\":934:945  description */\n  0x01\n    /* \"Project.sol\":934:960  description = _description */\n  swap1\n  dup1\n  mload\n  swap1\n  0x20\n  add\n  swap1\n  tag_6\n  swap3\n  swap2\n  swap1\n  tag_7\n  jump\t// in\ntag_6:\n  pop\n    /* \"Project.sol\":983:993  _minInvest */\n  dup4\n    /* \"Project.sol\":971:980  minInvest */\n  0x02\n    /* \"Project.sol\":971:993  minInvest = _minInvest */\n  dup2\n  swap1\n  sstore\n  pop\n    /* \"Project.sol\":1016:1026  _maxInvest */\n  dup3\n    /* \"Project.sol\":1004:1013  maxInvest */\n  0x03\n    /* \"Project.sol\":1004:1026  maxInvest = _maxInvest */\n  dup2\n  swap1\n  sstore\n  pop\n    /* \"Project.sol\":1044:1049  _goal */\n  dup2\n    /* \"Project.sol\":1037:1041  goal */\n  0x04\n    /* \"Project.sol\":1037:1049  goal = _goal */\n  dup2\n  swap1\n  sstore\n  pop\n    /* \"Project.sol\":735:1057  constructor(... */\n  pop\n  pop\n  pop\n  pop\n  pop\n    /* \"Project.sol\":74:2930  contract Project {... */\n  jump(tag_8)\ntag_7:\n  dup3\n  dup1\n  sload\n  tag_9\n  swap1\n  tag_10\n  jump\t// in\ntag_9:\n  swap1\n  0x00\n  mstore\n  keccak256(0x00, 0x20)\n  swap1\n  0x1f\n  add\n  0x20\n  swap1\n  div\n  dup2\n  add\n  swap3\n  dup3\n  tag_12\n  jumpi\n  0x00\n  dup6\n  sstore\n  jump(tag_11)\ntag_12:\n  dup3\n  0x1f\n  lt\n  tag_13\n  jumpi\n  dup1\n  mload\n  not(0xff)\n  and\n  dup4\n  dup1\n  add\n  or\n  dup6\n  sstore\n  jump(tag_11)\ntag_13:\n  dup3\n  dup1\n  add\n  0x01\n  add\n  dup6\n  sstore\n  dup3\n  iszero\n  tag_11\n  jumpi\n  swap2\n  dup3\n  add\ntag_14:\n  dup3\n  dup2\n  gt\n  iszero\n  tag_15\n  jumpi\n  dup3\n  mload\n  dup3\n  sstore\n  swap2\n  0x20\n  add\n  swap2\n  swap1\n  0x01\n  add\n  swap1\n  jump(tag_14)\ntag_15:\ntag_11:\n  pop\n  swap1\n  pop\n  tag_16\n  swap2\n  swap1\n  tag_17\n  jump\t// in\ntag_16:\n  pop\n  swap1\n  jump\t// out\ntag_17:\ntag_18:\n  dup1\n  dup3\n  gt\n  iszero\n  tag_19\n  jumpi\n  0x00\n  dup2\n  0x00\n  swap1\n  sstore\n  pop\n  0x01\n  add\n  jump(tag_18)\ntag_19:\n  pop\n  swap1\n  jump\t// out\n    /* \"#utility.yul\":7:82   */\ntag_20:\n    /* \"#utility.yul\":40:46   */\n  0x00\n    /* \"#utility.yul\":73:75   */\n  0x40\n    /* \"#utility.yul\":67:76   */\n  mload\n    /* \"#utility.yul\":57:76   */\n  swap1\n  pop\n    /* \"#utility.yul\":7:82   */\n  swap1\n  jump\t// out\n    /* \"#utility.yul\":88:205   */\ntag_21:\n    /* \"#utility.yul\":197:198   */\n  0x00\n    /* \"#utility.yul\":194:195   */\n  dup1\n    /* \"#utility.yul\":187:199   */\n  revert\n    /* \"#utility.yul\":211:328   */\ntag_22:\n    /* \"#utility.yul\":320:321   */\n  0x00\n    /* \"#utility.yul\":317:318   */\n  dup1\n    /* \"#utility.yul\":310:322   */\n  revert\n    /* \"#utility.yul\":334:451   */\ntag_23:\n    /* \"#utility.yul\":443:444   */\n  0x00\n    /* \"#utility.yul\":440:441   */\n  dup1\n    /* \"#utility.yul\":433:445   */\n  revert\n    /* \"#utility.yul\":457:574   */\ntag_24:\n    /* \"#utility.yul\":566:567   */\n  0x00\n    /* \"#utility.yul\":563:564   */\n  dup1\n    /* \"#utility.yul\":556:568   */\n  revert\n    /* \"#utility.yul\":580:682   */\ntag_25:\n    /* \"#utility.yul\":621:627   */\n  0x00\n    /* \"#utility.yul\":672:674   */\n  0x1f\n    /* \"#utility.yul\":668:675   */\n  not\n    /* \"#utility.yul\":663:665   */\n  0x1f\n    /* \"#utility.yul\":656:661   */\n  dup4\n    /* \"#utility.yul\":652:666   */\n  add\n    /* \"#utility.yul\":648:676   */\n  and\n    /* \"#utility.yul\":638:676   */\n  swap1\n  pop\n    /* \"#utility.yul\":580:682   */\n  swap2\n  swap1\n  pop\n  jump\t// out\n    /* \"#utility.yul\":688:868   */\ntag_26:\n    /* \"#utility.yul\":736:813   */\n  0x4e487b7100000000000000000000000000000000000000000000000000000000\n    /* \"#utility.yul\":733:734   */\n  0x00\n    /* \"#utility.yul\":726:814   */\n  mstore\n    /* \"#utility.yul\":833:837   */\n  0x41\n    /* \"#utility.yul\":830:831   */\n  0x04\n    /* \"#utility.yul\":823:838   */\n  mstore\n    /* \"#utility.yul\":857:861   */\n  0x24\n    /* \"#utility.yul\":854:855   */\n  0x00\n    /* \"#utility.yul\":847:862   */\n  revert\n    /* \"#utility.yul\":874:1155   */\ntag_27:\n    /* \"#utility.yul\":957:984   */\n  tag_50\n    /* \"#utility.yul\":979:983   */\n  dup3\n    /* \"#utility.yul\":957:984   */\n  tag_25\n  jump\t// in\ntag_50:\n    /* \"#utility.yul\":949:955   */\n  dup2\n    /* \"#utility.yul\":945:985   */\n  add\n    /* \"#utility.yul\":1087:1093   */\n  dup2\n    /* \"#utility.yul\":1075:1085   */\n  dup2\n    /* \"#utility.yul\":1072:1094   */\n  lt\n    /* \"#utility.yul\":1051:1069   */\n  0xffffffffffffffff\n    /* \"#utility.yul\":1039:1049   */\n  dup3\n    /* \"#utility.yul\":1036:1070   */\n  gt\n    /* \"#utility.yul\":1033:1095   */\n  or\n    /* \"#utility.yul\":1030:1118   */\n  iszero\n  tag_51\n  jumpi\n    /* \"#utility.yul\":1098:1116   */\n  tag_52\n  tag_26\n  jump\t// in\ntag_52:\n    /* \"#utility.yul\":1030:1118   */\ntag_51:\n    /* \"#utility.yul\":1138:1148   */\n  dup1\n    /* \"#utility.yul\":1134:1136   */\n  0x40\n    /* \"#utility.yul\":1127:1149   */\n  mstore\n    /* \"#utility.yul\":917:1155   */\n  pop\n    /* \"#utility.yul\":874:1155   */\n  pop\n  pop\n  jump\t// out\n    /* \"#utility.yul\":1161:1290   */\ntag_28:\n    /* \"#utility.yul\":1195:1201   */\n  0x00\n    /* \"#utility.yul\":1222:1242   */\n  tag_54\n  tag_20\n  jump\t// in\ntag_54:\n    /* \"#utility.yul\":1212:1242   */\n  swap1\n  pop\n    /* \"#utility.yul\":1251:1284   */\n  tag_55\n    /* \"#utility.yul\":1279:1283   */\n  dup3\n    /* \"#utility.yul\":1271:1277   */\n  dup3\n    /* \"#utility.yul\":1251:1284   */\n  tag_27\n  jump\t// in\ntag_55:\n    /* \"#utility.yul\":1161:1290   */\n  swap2\n  swap1\n  pop\n  jump\t// out\n    /* \"#utility.yul\":1296:1604   */\ntag_29:\n    /* \"#utility.yul\":1358:1362   */\n  0x00\n    /* \"#utility.yul\":1448:1466   */\n  0xffffffffffffffff\n    /* \"#utility.yul\":1440:1446   */\n  dup3\n    /* \"#utility.yul\":1437:1467   */\n  gt\n    /* \"#utility.yul\":1434:1490   */\n  iszero\n  tag_57\n  jumpi\n    /* \"#utility.yul\":1470:1488   */\n  tag_58\n  tag_26\n  jump\t// in\ntag_58:\n    /* \"#utility.yul\":1434:1490   */\ntag_57:\n    /* \"#utility.yul\":1508:1537   */\n  tag_59\n    /* \"#utility.yul\":1530:1536   */\n  dup3\n    /* \"#utility.yul\":1508:1537   */\n  tag_25\n  jump\t// in\ntag_59:\n    /* \"#utility.yul\":1500:1537   */\n  swap1\n  pop\n    /* \"#utility.yul\":1592:1596   */\n  0x20\n    /* \"#utility.yul\":1586:1590   */\n  dup2\n    /* \"#utility.yul\":1582:1597   */\n  add\n    /* \"#utility.yul\":1574:1597   */\n  swap1\n  pop\n    /* \"#utility.yul\":1296:1604   */\n  swap2\n  swap1\n  pop\n  jump\t// out\n    /* \"#utility.yul\":1610:1917   */\ntag_30:\n    /* \"#utility.yul\":1678:1679   */\n  0x00\n    /* \"#utility.yul\":1688:1801   */\ntag_61:\n    /* \"#utility.yul\":1702:1708   */\n  dup4\n    /* \"#utility.yul\":1699:1700   */\n  dup2\n    /* \"#utility.yul\":1696:1709   */\n  lt\n    /* \"#utility.yul\":1688:1801   */\n  iszero\n  tag_63\n  jumpi\n    /* \"#utility.yul\":1787:1788   */\n  dup1\n    /* \"#utility.yul\":1782:1785   */\n  dup3\n    /* \"#utility.yul\":1778:1789   */\n  add\n    /* \"#utility.yul\":1772:1790   */\n  mload\n    /* \"#utility.yul\":1768:1769   */\n  dup2\n    /* \"#utility.yul\":1763:1766   */\n  dup5\n    /* \"#utility.yul\":1759:1770   */\n  add\n    /* \"#utility.yul\":1752:1791   */\n  mstore\n    /* \"#utility.yul\":1724:1726   */\n  0x20\n    /* \"#utility.yul\":1721:1722   */\n  dup2\n    /* \"#utility.yul\":1717:1727   */\n  add\n    /* \"#utility.yul\":1712:1727   */\n  swap1\n  pop\n    /* \"#utility.yul\":1688:1801   */\n  jump(tag_61)\ntag_63:\n    /* \"#utility.yul\":1819:1825   */\n  dup4\n    /* \"#utility.yul\":1816:1817   */\n  dup2\n    /* \"#utility.yul\":1813:1826   */\n  gt\n    /* \"#utility.yul\":1810:1911   */\n  iszero\n  tag_64\n  jumpi\n    /* \"#utility.yul\":1899:1900   */\n  0x00\n    /* \"#utility.yul\":1890:1896   */\n  dup5\n    /* \"#utility.yul\":1885:1888   */\n  dup5\n    /* \"#utility.yul\":1881:1897   */\n  add\n    /* \"#utility.yul\":1874:1901   */\n  mstore\n    /* \"#utility.yul\":1810:1911   */\ntag_64:\n    /* \"#utility.yul\":1659:1917   */\n  pop\n    /* \"#utility.yul\":1610:1917   */\n  pop\n  pop\n  pop\n  jump\t// out\n    /* \"#utility.yul\":1923:2344   */\ntag_31:\n    /* \"#utility.yul\":2012:2017   */\n  0x00\n    /* \"#utility.yul\":2037:2103   */\n  tag_66\n    /* \"#utility.yul\":2053:2102   */\n  tag_67\n    /* \"#utility.yul\":2095:2101   */\n  dup5\n    /* \"#utility.yul\":2053:2102   */\n  tag_29\n  jump\t// in\ntag_67:\n    /* \"#utility.yul\":2037:2103   */\n  tag_28\n  jump\t// in\ntag_66:\n    /* \"#utility.yul\":2028:2103   */\n  swap1\n  pop\n    /* \"#utility.yul\":2126:2132   */\n  dup3\n    /* \"#utility.yul\":2119:2124   */\n  dup2\n    /* \"#utility.yul\":2112:2133   */\n  mstore\n    /* \"#utility.yul\":2164:2168   */\n  0x20\n    /* \"#utility.yul\":2157:2162   */\n  dup2\n    /* \"#utility.yul\":2153:2169   */\n  add\n    /* \"#utility.yul\":2202:2205   */\n  dup5\n    /* \"#utility.yul\":2193:2199   */\n  dup5\n    /* \"#utility.yul\":2188:2191   */\n  dup5\n    /* \"#utility.yul\":2184:2200   */\n  add\n    /* \"#utility.yul\":2181:2206   */\n  gt\n    /* \"#utility.yul\":2178:2290   */\n  iszero\n  tag_68\n  jumpi\n    /* \"#utility.yul\":2209:2288   */\n  tag_69\n  tag_24\n  jump\t// in\ntag_69:\n    /* \"#utility.yul\":2178:2290   */\ntag_68:\n    /* \"#utility.yul\":2299:2338   */\n  tag_70\n    /* \"#utility.yul\":2331:2337   */\n  dup5\n    /* \"#utility.yul\":2326:2329   */\n  dup3\n    /* \"#utility.yul\":2321:2324   */\n  dup6\n    /* \"#utility.yul\":2299:2338   */\n  tag_30\n  jump\t// in\ntag_70:\n    /* \"#utility.yul\":2018:2344   */\n  pop\n    /* \"#utility.yul\":1923:2344   */\n  swap4\n  swap3\n  pop\n  pop\n  pop\n  jump\t// out\n    /* \"#utility.yul\":2364:2719   */\ntag_32:\n    /* \"#utility.yul\":2431:2436   */\n  0x00\n    /* \"#utility.yul\":2480:2483   */\n  dup3\n    /* \"#utility.yul\":2473:2477   */\n  0x1f\n    /* \"#utility.yul\":2465:2471   */\n  dup4\n    /* \"#utility.yul\":2461:2478   */\n  add\n    /* \"#utility.yul\":2457:2484   */\n  slt\n    /* \"#utility.yul\":2447:2569   */\n  tag_72\n  jumpi\n    /* \"#utility.yul\":2488:2567   */\n  tag_73\n  tag_23\n  jump\t// in\ntag_73:\n    /* \"#utility.yul\":2447:2569   */\ntag_72:\n    /* \"#utility.yul\":2598:2604   */\n  dup2\n    /* \"#utility.yul\":2592:2605   */\n  mload\n    /* \"#utility.yul\":2623:2713   */\n  tag_74\n    /* \"#utility.yul\":2709:2712   */\n  dup5\n    /* \"#utility.yul\":2701:2707   */\n  dup3\n    /* \"#utility.yul\":2694:2698   */\n  0x20\n    /* \"#utility.yul\":2686:2692   */\n  dup7\n    /* \"#utility.yul\":2682:2699   */\n  add\n    /* \"#utility.yul\":2623:2713   */\n  tag_31\n  jump\t// in\ntag_74:\n    /* \"#utility.yul\":2614:2713   */\n  swap2\n  pop\n    /* \"#utility.yul\":2437:2719   */\n  pop\n    /* \"#utility.yul\":2364:2719   */\n  swap3\n  swap2\n  pop\n  pop\n  jump\t// out\n    /* \"#utility.yul\":2725:2802   */\ntag_33:\n    /* \"#utility.yul\":2762:2769   */\n  0x00\n    /* \"#utility.yul\":2791:2796   */\n  dup2\n    /* \"#utility.yul\":2780:2796   */\n  swap1\n  pop\n    /* \"#utility.yul\":2725:2802   */\n  swap2\n  swap1\n  pop\n  jump\t// out\n    /* \"#utility.yul\":2808:2930   */\ntag_34:\n    /* \"#utility.yul\":2881:2905   */\n  tag_77\n    /* \"#utility.yul\":2899:2904   */\n  dup2\n    /* \"#utility.yul\":2881:2905   */\n  tag_33\n  jump\t// in\ntag_77:\n    /* \"#utility.yul\":2874:2879   */\n  dup2\n    /* \"#utility.yul\":2871:2906   */\n  eq\n    /* \"#utility.yul\":2861:2924   */\n  tag_78\n  jumpi\n    /* \"#utility.yul\":2920:2921   */\n  0x00\n    /* \"#utility.yul\":2917:2918   */\n  dup1\n    /* \"#utility.yul\":2910:2922   */\n  revert\n    /* \"#utility.yul\":2861:2924   */\ntag_78:\n    /* \"#utility.yul\":2808:2930   */\n  pop\n  jump\t// out\n    /* \"#utility.yul\":2936:3079   */\ntag_35:\n    /* \"#utility.yul\":2993:2998   */\n  0x00\n    /* \"#utility.yul\":3024:3030   */\n  dup2\n    /* \"#utility.yul\":3018:3031   */\n  mload\n    /* \"#utility.yul\":3009:3031   */\n  swap1\n  pop\n    /* \"#utility.yul\":3040:3073   */\n  tag_80\n    /* \"#utility.yul\":3067:3072   */\n  dup2\n    /* \"#utility.yul\":3040:3073   */\n  tag_34\n  jump\t// in\ntag_80:\n    /* \"#utility.yul\":2936:3079   */\n  swap3\n  swap2\n  pop\n  pop\n  jump\t// out\n    /* \"#utility.yul\":3085:3211   */\ntag_36:\n    /* \"#utility.yul\":3122:3129   */\n  0x00\n    /* \"#utility.yul\":3162:3204   */\n  0xffffffffffffffffffffffffffffffffffffffff\n    /* \"#utility.yul\":3155:3160   */\n  dup3\n    /* \"#utility.yul\":3151:3205   */\n  and\n    /* \"#utility.yul\":3140:3205   */\n  swap1\n  pop\n    /* \"#utility.yul\":3085:3211   */\n  swap2\n  swap1\n  pop\n  jump\t// out\n    /* \"#utility.yul\":3217:3313   */\ntag_37:\n    /* \"#utility.yul\":3254:3261   */\n  0x00\n    /* \"#utility.yul\":3283:3307   */\n  tag_83\n    /* \"#utility.yul\":3301:3306   */\n  dup3\n    /* \"#utility.yul\":3283:3307   */\n  tag_36\n  jump\t// in\ntag_83:\n    /* \"#utility.yul\":3272:3307   */\n  swap1\n  pop\n    /* \"#utility.yul\":3217:3313   */\n  swap2\n  swap1\n  pop\n  jump\t// out\n    /* \"#utility.yul\":3319:3441   */\ntag_38:\n    /* \"#utility.yul\":3392:3416   */\n  tag_85\n    /* \"#utility.yul\":3410:3415   */\n  dup2\n    /* \"#utility.yul\":3392:3416   */\n  tag_37\n  jump\t// in\ntag_85:\n    /* \"#utility.yul\":3385:3390   */\n  dup2\n    /* \"#utility.yul\":3382:3417   */\n  eq\n    /* \"#utility.yul\":3372:3435   */\n  tag_86\n  jumpi\n    /* \"#utility.yul\":3431:3432   */\n  0x00\n    /* \"#utility.yul\":3428:3429   */\n  dup1\n    /* \"#utility.yul\":3421:3433   */\n  revert\n    /* \"#utility.yul\":3372:3435   */\ntag_86:\n    /* \"#utility.yul\":3319:3441   */\n  pop\n  jump\t// out\n    /* \"#utility.yul\":3447:3590   */\ntag_39:\n    /* \"#utility.yul\":3504:3509   */\n  0x00\n    /* \"#utility.yul\":3535:3541   */\n  dup2\n    /* \"#utility.yul\":3529:3542   */\n  mload\n    /* \"#utility.yul\":3520:3542   */\n  swap1\n  pop\n    /* \"#utility.yul\":3551:3584   */\n  tag_88\n    /* \"#utility.yul\":3578:3583   */\n  dup2\n    /* \"#utility.yul\":3551:3584   */\n  tag_38\n  jump\t// in\ntag_88:\n    /* \"#utility.yul\":3447:3590   */\n  swap3\n  swap2\n  pop\n  pop\n  jump\t// out\n    /* \"#utility.yul\":3596:4746   */\ntag_3:\n    /* \"#utility.yul\":3712:3718   */\n  0x00\n    /* \"#utility.yul\":3720:3726   */\n  dup1\n    /* \"#utility.yul\":3728:3734   */\n  0x00\n    /* \"#utility.yul\":3736:3742   */\n  dup1\n    /* \"#utility.yul\":3744:3750   */\n  0x00\n    /* \"#utility.yul\":3793:3796   */\n  0xa0\n    /* \"#utility.yul\":3781:3790   */\n  dup7\n    /* \"#utility.yul\":3772:3779   */\n  dup9\n    /* \"#utility.yul\":3768:3791   */\n  sub\n    /* \"#utility.yul\":3764:3797   */\n  slt\n    /* \"#utility.yul\":3761:3881   */\n  iszero\n  tag_90\n  jumpi\n    /* \"#utility.yul\":3800:3879   */\n  tag_91\n  tag_21\n  jump\t// in\ntag_91:\n    /* \"#utility.yul\":3761:3881   */\ntag_90:\n    /* \"#utility.yul\":3941:3942   */\n  0x00\n    /* \"#utility.yul\":3930:3939   */\n  dup7\n    /* \"#utility.yul\":3926:3943   */\n  add\n    /* \"#utility.yul\":3920:3944   */\n  mload\n    /* \"#utility.yul\":3971:3989   */\n  0xffffffffffffffff\n    /* \"#utility.yul\":3963:3969   */\n  dup2\n    /* \"#utility.yul\":3960:3990   */\n  gt\n    /* \"#utility.yul\":3957:4074   */\n  iszero\n  tag_92\n  jumpi\n    /* \"#utility.yul\":3993:4072   */\n  tag_93\n  tag_22\n  jump\t// in\ntag_93:\n    /* \"#utility.yul\":3957:4074   */\ntag_92:\n    /* \"#utility.yul\":4098:4172   */\n  tag_94\n    /* \"#utility.yul\":4164:4171   */\n  dup9\n    /* \"#utility.yul\":4155:4161   */\n  dup3\n    /* \"#utility.yul\":4144:4153   */\n  dup10\n    /* \"#utility.yul\":4140:4162   */\n  add\n    /* \"#utility.yul\":4098:4172   */\n  tag_32\n  jump\t// in\ntag_94:\n    /* \"#utility.yul\":4088:4172   */\n  swap6\n  pop\n    /* \"#utility.yul\":3891:4182   */\n  pop\n    /* \"#utility.yul\":4221:4223   */\n  0x20\n    /* \"#utility.yul\":4247:4311   */\n  tag_95\n    /* \"#utility.yul\":4303:4310   */\n  dup9\n    /* \"#utility.yul\":4294:4300   */\n  dup3\n    /* \"#utility.yul\":4283:4292   */\n  dup10\n    /* \"#utility.yul\":4279:4301   */\n  add\n    /* \"#utility.yul\":4247:4311   */\n  tag_35\n  jump\t// in\ntag_95:\n    /* \"#utility.yul\":4237:4311   */\n  swap5\n  pop\n    /* \"#utility.yul\":4192:4321   */\n  pop\n    /* \"#utility.yul\":4360:4362   */\n  0x40\n    /* \"#utility.yul\":4386:4450   */\n  tag_96\n    /* \"#utility.yul\":4442:4449   */\n  dup9\n    /* \"#utility.yul\":4433:4439   */\n  dup3\n    /* \"#utility.yul\":4422:4431   */\n  dup10\n    /* \"#utility.yul\":4418:4440   */\n  add\n    /* \"#utility.yul\":4386:4450   */\n  tag_35\n  jump\t// in\ntag_96:\n    /* \"#utility.yul\":4376:4450   */\n  swap4\n  pop\n    /* \"#utility.yul\":4331:4460   */\n  pop\n    /* \"#utility.yul\":4499:4501   */\n  0x60\n    /* \"#utility.yul\":4525:4589   */\n  tag_97\n    /* \"#utility.yul\":4581:4588   */\n  dup9\n    /* \"#utility.yul\":4572:4578   */\n  dup3\n    /* \"#utility.yul\":4561:4570   */\n  dup10\n    /* \"#utility.yul\":4557:4579   */\n  add\n    /* \"#utility.yul\":4525:4589   */\n  tag_35\n  jump\t// in\ntag_97:\n    /* \"#utility.yul\":4515:4589   */\n  swap3\n  pop\n    /* \"#utility.yul\":4470:4599   */\n  pop\n    /* \"#utility.yul\":4638:4641   */\n  0x80\n    /* \"#utility.yul\":4665:4729   */\n  tag_98\n    /* \"#utility.yul\":4721:4728   */\n  dup9\n    /* \"#utility.yul\":4712:4718   */\n  dup3\n    /* \"#utility.yul\":4701:4710   */\n  dup10\n    /* \"#utility.yul\":4697:4719   */\n  add\n    /* \"#utility.yul\":4665:4729   */\n  tag_39\n  jump\t// in\ntag_98:\n    /* \"#utility.yul\":4655:4729   */\n  swap2\n  pop\n    /* \"#utility.yul\":4609:4739   */\n  pop\n    /* \"#utility.yul\":3596:4746   */\n  swap3\n  swap6\n  pop\n  swap3\n  swap6\n  swap1\n  swap4\n  pop\n  jump\t// out\n    /* \"#utility.yul\":4752:4932   */\ntag_40:\n    /* \"#utility.yul\":4800:4877   */\n  0x4e487b7100000000000000000000000000000000000000000000000000000000\n    /* \"#utility.yul\":4797:4798   */\n  0x00\n    /* \"#utility.yul\":4790:4878   */\n  mstore\n    /* \"#utility.yul\":4897:4901   */\n  0x22\n    /* \"#utility.yul\":4894:4895   */\n  0x04\n    /* \"#utility.yul\":4887:4902   */\n  mstore\n    /* \"#utility.yul\":4921:4925   */\n  0x24\n    /* \"#utility.yul\":4918:4919   */\n  0x00\n    /* \"#utility.yul\":4911:4926   */\n  revert\n    /* \"#utility.yul\":4938:5258   */\ntag_10:\n    /* \"#utility.yul\":4982:4988   */\n  0x00\n    /* \"#utility.yul\":5019:5020   */\n  0x02\n    /* \"#utility.yul\":5013:5017   */\n  dup3\n    /* \"#utility.yul\":5009:5021   */\n  div\n    /* \"#utility.yul\":4999:5021   */\n  swap1\n  pop\n    /* \"#utility.yul\":5066:5067   */\n  0x01\n    /* \"#utility.yul\":5060:5064   */\n  dup3\n    /* \"#utility.yul\":5056:5068   */\n  and\n    /* \"#utility.yul\":5087:5105   */\n  dup1\n    /* \"#utility.yul\":5077:5158   */\n  tag_101\n  jumpi\n    /* \"#utility.yul\":5143:5147   */\n  0x7f\n    /* \"#utility.yul\":5135:5141   */\n  dup3\n    /* \"#utility.yul\":5131:5148   */\n  and\n    /* \"#utility.yul\":5121:5148   */\n  swap2\n  pop\n    /* \"#utility.yul\":5077:5158   */\ntag_101:\n    /* \"#utility.yul\":5205:5207   */\n  0x20\n    /* \"#utility.yul\":5197:5203   */\n  dup3\n    /* \"#utility.yul\":5194:5208   */\n  lt\n    /* \"#utility.yul\":5174:5192   */\n  dup2\n    /* \"#utility.yul\":5171:5209   */\n  sub\n    /* \"#utility.yul\":5168:5252   */\n  tag_102\n  jumpi\n    /* \"#utility.yul\":5224:5242   */\n  tag_103\n  tag_40\n  jump\t// in\ntag_103:\n    /* \"#utility.yul\":5168:5252   */\ntag_102:\n    /* \"#utility.yul\":4989:5258   */\n  pop\n    /* \"#utility.yul\":4938:5258   */\n  swap2\n  swap1\n  pop\n  jump\t// out\n    /* \"Project.sol\":74:2930  contract Project {... */\ntag_8:\n  dataSize(sub_0)\n  dup1\n  dataOffset(sub_0)\n  0x00\n  codecopy\n  0x00\n  return\nstop\n\nsub_0: assembly {\n        /* \"Project.sol\":74:2930  contract Project {... */\n      mstore(0x40, 0x80)\n      jumpi(tag_1, lt(calldatasize, 0x04))\n      shr(0xe0, calldataload(0x00))\n      dup1\n      0x7284e416\n      gt\n      tag_15\n      jumpi\n      dup1\n      0xd2b8b867\n      gt\n      tag_16\n      jumpi\n      dup1\n      0xd2b8b867\n      eq\n      tag_11\n      jumpi\n      dup1\n      0xd7bb99ba\n      eq\n      tag_12\n      jumpi\n      dup1\n      0xd7e64c00\n      eq\n      tag_13\n      jumpi\n      dup1\n      0xde14c818\n      eq\n      tag_14\n      jumpi\n      jump(tag_1)\n    tag_16:\n      dup1\n      0x7284e416\n      eq\n      tag_8\n      jumpi\n      dup1\n      0x87d81789\n      eq\n      tag_9\n      jumpi\n      dup1\n      0x8da5cb5b\n      eq\n      tag_10\n      jumpi\n      jump(tag_1)\n    tag_15:\n      dup1\n      0x03120d46\n      eq\n      tag_2\n      jumpi\n      dup1\n      0x3110235a\n      eq\n      tag_3\n      jumpi\n      dup1\n      0x40193883\n      eq\n      tag_4\n      jumpi\n      dup1\n      0x4051ddac\n      eq\n      tag_5\n      jumpi\n      dup1\n      0x63fd9e38\n      eq\n      tag_6\n      jumpi\n      dup1\n      0x6f7bc9be\n      eq\n      tag_7\n      jumpi\n    tag_1:\n      0x00\n      dup1\n      revert\n        /* \"Project.sol\":1378:1876  function createPayment(... */\n    tag_2:\n      callvalue\n      dup1\n      iszero\n      tag_17\n      jumpi\n      0x00\n      dup1\n      revert\n    tag_17:\n      pop\n      tag_18\n      0x04\n      dup1\n      calldatasize\n      sub\n      dup2\n      add\n      swap1\n      tag_19\n      swap2\n      swap1\n      tag_20\n      jump\t// in\n    tag_19:\n      tag_21\n      jump\t// in\n    tag_18:\n      stop\n        /* \"Project.sol\":434:458  uint256 public maxInvest */\n    tag_3:\n      callvalue\n      dup1\n      iszero\n      tag_22\n      jumpi\n      0x00\n      dup1\n      revert\n    tag_22:\n      pop\n      tag_23\n      tag_24\n      jump\t// in\n    tag_23:\n      mload(0x40)\n      tag_25\n      swap2\n      swap1\n      tag_26\n      jump\t// in\n    tag_25:\n      mload(0x40)\n      dup1\n      swap2\n      sub\n      swap1\n      return\n        /* \"Project.sol\":465:484  uint256 public goal */\n    tag_4:\n      callvalue\n      dup1\n      iszero\n      tag_27\n      jumpi\n      0x00\n      dup1\n      revert\n    tag_27:\n      pop\n      tag_28\n      tag_29\n      jump\t// in\n    tag_28:\n      mload(0x40)\n      tag_30\n      swap2\n      swap1\n      tag_26\n      jump\t// in\n    tag_30:\n      mload(0x40)\n      dup1\n      swap2\n      sub\n      swap1\n      return\n        /* \"Project.sol\":2580:2927  function getSummary() public view returns (string memory, uint, uint, uint, uint, uint, uint, address) {... */\n    tag_5:\n      callvalue\n      dup1\n      iszero\n      tag_31\n      jumpi\n      0x00\n      dup1\n      revert\n    tag_31:\n      pop\n      tag_32\n      tag_33\n      jump\t// in\n    tag_32:\n      mload(0x40)\n      tag_34\n      swap9\n      swap8\n      swap7\n      swap6\n      swap5\n      swap4\n      swap3\n      swap2\n      swap1\n      tag_35\n      jump\t// in\n    tag_34:\n      mload(0x40)\n      dup1\n      swap2\n      sub\n      swap1\n      return\n        /* \"Project.sol\":403:427  uint256 public minInvest */\n    tag_6:\n      callvalue\n      dup1\n      iszero\n      tag_36\n      jumpi\n      0x00\n      dup1\n      revert\n    tag_36:\n      pop\n      tag_37\n      tag_38\n      jump\t// in\n    tag_37:\n      mload(0x40)\n      tag_39\n      swap2\n      swap1\n      tag_26\n      jump\t// in\n    tag_39:\n      mload(0x40)\n      dup1\n      swap2\n      sub\n      swap1\n      return\n        /* \"Project.sol\":562:606  mapping(address => uint256) public investors */\n    tag_7:\n      callvalue\n      dup1\n      iszero\n      tag_40\n      jumpi\n      0x00\n      dup1\n      revert\n    tag_40:\n      pop\n      tag_41\n      0x04\n      dup1\n      calldatasize\n      sub\n      dup2\n      add\n      swap1\n      tag_42\n      swap2\n      swap1\n      tag_43\n      jump\t// in\n    tag_42:\n      tag_44\n      jump\t// in\n    tag_41:\n      mload(0x40)\n      tag_45\n      swap2\n      swap1\n      tag_26\n      jump\t// in\n    tag_45:\n      mload(0x40)\n      dup1\n      swap2\n      sub\n      swap1\n      return\n        /* \"Project.sol\":371:396  string public description */\n    tag_8:\n      callvalue\n      dup1\n      iszero\n      tag_46\n      jumpi\n      0x00\n      dup1\n      revert\n    tag_46:\n      pop\n      tag_47\n      tag_48\n      jump\t// in\n    tag_47:\n      mload(0x40)\n      tag_49\n      swap2\n      swap1\n      tag_50\n      jump\t// in\n    tag_49:\n      mload(0x40)\n      dup1\n      swap2\n      sub\n      swap1\n      return\n        /* \"Project.sol\":613:638  Payment[] public payments */\n    tag_9:\n      callvalue\n      dup1\n      iszero\n      tag_51\n      jumpi\n      0x00\n      dup1\n      revert\n    tag_51:\n      pop\n      tag_52\n      0x04\n      dup1\n      calldatasize\n      sub\n      dup2\n      add\n      swap1\n      tag_53\n      swap2\n      swap1\n      tag_54\n      jump\t// in\n    tag_53:\n      tag_55\n      jump\t// in\n    tag_52:\n      mload(0x40)\n      tag_56\n      swap6\n      swap5\n      swap4\n      swap3\n      swap2\n      swap1\n      tag_57\n      jump\t// in\n    tag_56:\n      mload(0x40)\n      dup1\n      swap2\n      sub\n      swap1\n      return\n        /* \"Project.sol\":344:364  address public owner */\n    tag_10:\n      callvalue\n      dup1\n      iszero\n      tag_58\n      jumpi\n      0x00\n      dup1\n      revert\n    tag_58:\n      pop\n      tag_59\n      tag_60\n      jump\t// in\n    tag_59:\n      mload(0x40)\n      tag_61\n      swap2\n      swap1\n      tag_62\n      jump\t// in\n    tag_61:\n      mload(0x40)\n      dup1\n      swap2\n      sub\n      swap1\n      return\n        /* \"Project.sol\":2172:2572  function doPayment(uint256 index) public ownerOnly {... */\n    tag_11:\n      callvalue\n      dup1\n      iszero\n      tag_63\n      jumpi\n      0x00\n      dup1\n      revert\n    tag_63:\n      pop\n      tag_64\n      0x04\n      dup1\n      calldatasize\n      sub\n      dup2\n      add\n      swap1\n      tag_65\n      swap2\n      swap1\n      tag_54\n      jump\t// in\n    tag_65:\n      tag_66\n      jump\t// in\n    tag_64:\n      stop\n        /* \"Project.sol\":1065:1370  function contribute() public payable {... */\n    tag_12:\n      tag_67\n      tag_68\n      jump\t// in\n    tag_67:\n      stop\n        /* \"Project.sol\":527:555  uint256 public investorCount */\n    tag_13:\n      callvalue\n      dup1\n      iszero\n      tag_69\n      jumpi\n      0x00\n      dup1\n      revert\n    tag_69:\n      pop\n      tag_70\n      tag_71\n      jump\t// in\n    tag_70:\n      mload(0x40)\n      tag_72\n      swap2\n      swap1\n      tag_26\n      jump\t// in\n    tag_72:\n      mload(0x40)\n      dup1\n      swap2\n      sub\n      swap1\n      return\n        /* \"Project.sol\":1884:2164  function approvePayment(uint256 index) public {... */\n    tag_14:\n      callvalue\n      dup1\n      iszero\n      tag_73\n      jumpi\n      0x00\n      dup1\n      revert\n    tag_73:\n      pop\n      tag_74\n      0x04\n      dup1\n      calldatasize\n      sub\n      dup2\n      add\n      swap1\n      tag_75\n      swap2\n      swap1\n      tag_54\n      jump\t// in\n    tag_75:\n      tag_76\n      jump\t// in\n    tag_74:\n      stop\n        /* \"Project.sol\":1378:1876  function createPayment(... */\n    tag_21:\n        /* \"Project.sol\":701:706  owner */\n      0x00\n      dup1\n      sload\n      swap1\n      0x0100\n      exp\n      swap1\n      div\n      0xffffffffffffffffffffffffffffffffffffffff\n      and\n        /* \"Project.sol\":687:706  msg.sender == owner */\n      0xffffffffffffffffffffffffffffffffffffffff\n      and\n        /* \"Project.sol\":687:697  msg.sender */\n      caller\n        /* \"Project.sol\":687:706  msg.sender == owner */\n      0xffffffffffffffffffffffffffffffffffffffff\n      and\n      eq\n        /* \"Project.sol\":679:707  require(msg.sender == owner) */\n      tag_78\n      jumpi\n      0x00\n      dup1\n      revert\n    tag_78:\n        /* \"Project.sol\":1535:1556  uint256 paymentsCount */\n      0x00\n        /* \"Project.sol\":1559:1567  payments */\n      0x07\n        /* \"Project.sol\":1559:1574  payments.length */\n      dup1\n      sload\n      swap1\n      pop\n        /* \"Project.sol\":1535:1574  uint256 paymentsCount = payments.length */\n      swap1\n      pop\n        /* \"Project.sol\":1585:1593  payments */\n      0x07\n        /* \"Project.sol\":1585:1600  payments.push() */\n      0x01\n      dup2\n      0x01\n      dup2\n      sload\n      add\n      dup1\n      dup3\n      sstore\n      dup1\n      swap2\n      pop\n      pop\n      sub\n      swap1\n      0x00\n      mstore\n      keccak256(0x00, 0x20)\n      swap1\n      pop\n      pop\n        /* \"Project.sol\":1613:1639  Payment storage newPayment */\n      0x00\n        /* \"Project.sol\":1642:1650  payments */\n      0x07\n        /* \"Project.sol\":1651:1664  paymentsCount */\n      dup3\n        /* \"Project.sol\":1642:1665  payments[paymentsCount] */\n      dup2\n      sload\n      dup2\n      lt\n      tag_81\n      jumpi\n      tag_82\n      tag_83\n      jump\t// in\n    tag_82:\n    tag_81:\n      swap1\n      0x00\n      mstore\n      keccak256(0x00, 0x20)\n      swap1\n      0x05\n      mul\n      add\n        /* \"Project.sol\":1613:1665  Payment storage newPayment = payments[paymentsCount] */\n      swap1\n      pop\n        /* \"Project.sol\":1701:1713  _description */\n      dup5\n        /* \"Project.sol\":1676:1686  newPayment */\n      dup2\n        /* \"Project.sol\":1676:1698  newPayment.description */\n      0x00\n      add\n        /* \"Project.sol\":1676:1713  newPayment.description = _description */\n      swap1\n      dup1\n      mload\n      swap1\n      0x20\n      add\n      swap1\n      tag_85\n      swap3\n      swap2\n      swap1\n      tag_86\n      jump\t// in\n    tag_85:\n      pop\n        /* \"Project.sol\":1744:1751  _amount */\n      dup4\n        /* \"Project.sol\":1724:1734  newPayment */\n      dup2\n        /* \"Project.sol\":1724:1741  newPayment.amount */\n      0x01\n      add\n        /* \"Project.sol\":1724:1751  newPayment.amount = _amount */\n      dup2\n      swap1\n      sstore\n      pop\n        /* \"Project.sol\":1784:1793  _receiver */\n      dup3\n        /* \"Project.sol\":1762:1772  newPayment */\n      dup2\n        /* \"Project.sol\":1762:1781  newPayment.receiver */\n      0x02\n      add\n      0x00\n        /* \"Project.sol\":1762:1793  newPayment.receiver = _receiver */\n      0x0100\n      exp\n      dup2\n      sload\n      dup2\n      0xffffffffffffffffffffffffffffffffffffffff\n      mul\n      not\n      and\n      swap1\n      dup4\n      0xffffffffffffffffffffffffffffffffffffffff\n      and\n      mul\n      or\n      swap1\n      sstore\n      pop\n        /* \"Project.sol\":1827:1832  false */\n      0x00\n        /* \"Project.sol\":1804:1814  newPayment */\n      dup2\n        /* \"Project.sol\":1804:1824  newPayment.completed */\n      0x02\n      add\n      0x14\n        /* \"Project.sol\":1804:1832  newPayment.completed = false */\n      0x0100\n      exp\n      dup2\n      sload\n      dup2\n      0xff\n      mul\n      not\n      and\n      swap1\n      dup4\n      iszero\n      iszero\n      mul\n      or\n      swap1\n      sstore\n      pop\n        /* \"Project.sol\":1867:1868  0 */\n      0x00\n        /* \"Project.sol\":1843:1853  newPayment */\n      dup2\n        /* \"Project.sol\":1843:1864  newPayment.voterCount */\n      0x04\n      add\n        /* \"Project.sol\":1843:1868  newPayment.voterCount = 0 */\n      dup2\n      swap1\n      sstore\n      pop\n        /* \"Project.sol\":1524:1876  {... */\n      pop\n      pop\n        /* \"Project.sol\":1378:1876  function createPayment(... */\n      pop\n      pop\n      pop\n      jump\t// out\n        /* \"Project.sol\":434:458  uint256 public maxInvest */\n    tag_24:\n      sload(0x03)\n      dup2\n      jump\t// out\n        /* \"Project.sol\":465:484  uint256 public goal */\n    tag_29:\n      sload(0x04)\n      dup2\n      jump\t// out\n        /* \"Project.sol\":2580:2927  function getSummary() public view returns (string memory, uint, uint, uint, uint, uint, uint, address) {... */\n    tag_33:\n        /* \"Project.sol\":2623:2636  string memory */\n      0x60\n        /* \"Project.sol\":2638:2642  uint */\n      0x00\n        /* \"Project.sol\":2644:2648  uint */\n      dup1\n        /* \"Project.sol\":2650:2654  uint */\n      0x00\n        /* \"Project.sol\":2656:2660  uint */\n      dup1\n        /* \"Project.sol\":2662:2666  uint */\n      0x00\n        /* \"Project.sol\":2668:2672  uint */\n      dup1\n        /* \"Project.sol\":2674:2681  address */\n      0x00\n        /* \"Project.sol\":2716:2727  description */\n      0x01\n        /* \"Project.sol\":2742:2751  minInvest */\n      sload(0x02)\n        /* \"Project.sol\":2766:2775  maxInvest */\n      sload(0x03)\n        /* \"Project.sol\":2790:2794  goal */\n      sload(0x04)\n        /* \"Project.sol\":2809:2830  address(this).balance */\n      selfbalance\n        /* \"Project.sol\":2845:2858  investorCount */\n      sload(0x05)\n        /* \"Project.sol\":2873:2881  payments */\n      0x07\n        /* \"Project.sol\":2873:2888  payments.length */\n      dup1\n      sload\n      swap1\n      pop\n        /* \"Project.sol\":2903:2908  owner */\n      0x00\n      dup1\n      sload\n      swap1\n      0x0100\n      exp\n      swap1\n      div\n      0xffffffffffffffffffffffffffffffffffffffff\n      and\n        /* \"Project.sol\":2694:2919  return (... */\n      dup8\n      dup1\n      sload\n      tag_88\n      swap1\n      tag_89\n      jump\t// in\n    tag_88:\n      dup1\n      0x1f\n      add\n      0x20\n      dup1\n      swap2\n      div\n      mul\n      0x20\n      add\n      mload(0x40)\n      swap1\n      dup2\n      add\n      0x40\n      mstore\n      dup1\n      swap3\n      swap2\n      swap1\n      dup2\n      dup2\n      mstore\n      0x20\n      add\n      dup3\n      dup1\n      sload\n      tag_90\n      swap1\n      tag_89\n      jump\t// in\n    tag_90:\n      dup1\n      iszero\n      tag_91\n      jumpi\n      dup1\n      0x1f\n      lt\n      tag_92\n      jumpi\n      0x0100\n      dup1\n      dup4\n      sload\n      div\n      mul\n      dup4\n      mstore\n      swap2\n      0x20\n      add\n      swap2\n      jump(tag_91)\n    tag_92:\n      dup3\n      add\n      swap2\n      swap1\n      0x00\n      mstore\n      keccak256(0x00, 0x20)\n      swap1\n    tag_93:\n      dup2\n      sload\n      dup2\n      mstore\n      swap1\n      0x01\n      add\n      swap1\n      0x20\n      add\n      dup1\n      dup4\n      gt\n      tag_93\n      jumpi\n      dup3\n      swap1\n      sub\n      0x1f\n      and\n      dup3\n      add\n      swap2\n    tag_91:\n      pop\n      pop\n      pop\n      pop\n      pop\n      swap8\n      pop\n      swap8\n      pop\n      swap8\n      pop\n      swap8\n      pop\n      swap8\n      pop\n      swap8\n      pop\n      swap8\n      pop\n      swap8\n      pop\n      swap8\n      pop\n        /* \"Project.sol\":2580:2927  function getSummary() public view returns (string memory, uint, uint, uint, uint, uint, uint, address) {... */\n      swap1\n      swap2\n      swap3\n      swap4\n      swap5\n      swap6\n      swap7\n      swap8\n      jump\t// out\n        /* \"Project.sol\":403:427  uint256 public minInvest */\n    tag_38:\n      sload(0x02)\n      dup2\n      jump\t// out\n        /* \"Project.sol\":562:606  mapping(address => uint256) public investors */\n    tag_44:\n      mstore(0x20, 0x06)\n      dup1\n      0x00\n      mstore\n      keccak256(0x00, 0x40)\n      0x00\n      swap2\n      pop\n      swap1\n      pop\n      sload\n      dup2\n      jump\t// out\n        /* \"Project.sol\":371:396  string public description */\n    tag_48:\n      0x01\n      dup1\n      sload\n      tag_94\n      swap1\n      tag_89\n      jump\t// in\n    tag_94:\n      dup1\n      0x1f\n      add\n      0x20\n      dup1\n      swap2\n      div\n      mul\n      0x20\n      add\n      mload(0x40)\n      swap1\n      dup2\n      add\n      0x40\n      mstore\n      dup1\n      swap3\n      swap2\n      swap1\n      dup2\n      dup2\n      mstore\n      0x20\n      add\n      dup3\n      dup1\n      sload\n      tag_95\n      swap1\n      tag_89\n      jump\t// in\n    tag_95:\n      dup1\n      iszero\n      tag_96\n      jumpi\n      dup1\n      0x1f\n      lt\n      tag_97\n      jumpi\n      0x0100\n      dup1\n      dup4\n      sload\n      div\n      mul\n      dup4\n      mstore\n      swap2\n      0x20\n      add\n      swap2\n      jump(tag_96)\n    tag_97:\n      dup3\n      add\n      swap2\n      swap1\n      0x00\n      mstore\n      keccak256(0x00, 0x20)\n      swap1\n    tag_98:\n      dup2\n      sload\n      dup2\n      mstore\n      swap1\n      0x01\n      add\n      swap1\n      0x20\n      add\n      dup1\n      dup4\n      gt\n      tag_98\n      jumpi\n      dup3\n      swap1\n      sub\n      0x1f\n      and\n      dup3\n      add\n      swap2\n    tag_96:\n      pop\n      pop\n      pop\n      pop\n      pop\n      dup2\n      jump\t// out\n        /* \"Project.sol\":613:638  Payment[] public payments */\n    tag_55:\n      0x07\n      dup2\n      dup2\n      sload\n      dup2\n      lt\n      tag_99\n      jumpi\n      0x00\n      dup1\n      revert\n    tag_99:\n      swap1\n      0x00\n      mstore\n      keccak256(0x00, 0x20)\n      swap1\n      0x05\n      mul\n      add\n      0x00\n      swap2\n      pop\n      swap1\n      pop\n      dup1\n      0x00\n      add\n      dup1\n      sload\n      tag_101\n      swap1\n      tag_89\n      jump\t// in\n    tag_101:\n      dup1\n      0x1f\n      add\n      0x20\n      dup1\n      swap2\n      div\n      mul\n      0x20\n      add\n      mload(0x40)\n      swap1\n      dup2\n      add\n      0x40\n      mstore\n      dup1\n      swap3\n      swap2\n      swap1\n      dup2\n      dup2\n      mstore\n      0x20\n      add\n      dup3\n      dup1\n      sload\n      tag_102\n      swap1\n      tag_89\n      jump\t// in\n    tag_102:\n      dup1\n      iszero\n      tag_103\n      jumpi\n      dup1\n      0x1f\n      lt\n      tag_104\n      jumpi\n      0x0100\n      dup1\n      dup4\n      sload\n      div\n      mul\n      dup4\n      mstore\n      swap2\n      0x20\n      add\n      swap2\n      jump(tag_103)\n    tag_104:\n      dup3\n      add\n      swap2\n      swap1\n      0x00\n      mstore\n      keccak256(0x00, 0x20)\n      swap1\n    tag_105:\n      dup2\n      sload\n      dup2\n      mstore\n      swap1\n      0x01\n      add\n      swap1\n      0x20\n      add\n      dup1\n      dup4\n      gt\n      tag_105\n      jumpi\n      dup3\n      swap1\n      sub\n      0x1f\n      and\n      dup3\n      add\n      swap2\n    tag_103:\n      pop\n      pop\n      pop\n      pop\n      pop\n      swap1\n      dup1\n      0x01\n      add\n      sload\n      swap1\n      dup1\n      0x02\n      add\n      0x00\n      swap1\n      sload\n      swap1\n      0x0100\n      exp\n      swap1\n      div\n      0xffffffffffffffffffffffffffffffffffffffff\n      and\n      swap1\n      dup1\n      0x02\n      add\n      0x14\n      swap1\n      sload\n      swap1\n      0x0100\n      exp\n      swap1\n      div\n      0xff\n      and\n      swap1\n      dup1\n      0x04\n      add\n      sload\n      swap1\n      pop\n      dup6\n      jump\t// out\n        /* \"Project.sol\":344:364  address public owner */\n    tag_60:\n      0x00\n      dup1\n      sload\n      swap1\n      0x0100\n      exp\n      swap1\n      div\n      0xffffffffffffffffffffffffffffffffffffffff\n      and\n      dup2\n      jump\t// out\n        /* \"Project.sol\":2172:2572  function doPayment(uint256 index) public ownerOnly {... */\n    tag_66:\n        /* \"Project.sol\":701:706  owner */\n      0x00\n      dup1\n      sload\n      swap1\n      0x0100\n      exp\n      swap1\n      div\n      0xffffffffffffffffffffffffffffffffffffffff\n      and\n        /* \"Project.sol\":687:706  msg.sender == owner */\n      0xffffffffffffffffffffffffffffffffffffffff\n      and\n        /* \"Project.sol\":687:697  msg.sender */\n      caller\n        /* \"Project.sol\":687:706  msg.sender == owner */\n      0xffffffffffffffffffffffffffffffffffffffff\n      and\n      eq\n        /* \"Project.sol\":679:707  require(msg.sender == owner) */\n      tag_107\n      jumpi\n      0x00\n      dup1\n      revert\n    tag_107:\n        /* \"Project.sol\":2256:2261  owner */\n      0x00\n      dup1\n      sload\n      swap1\n      0x0100\n      exp\n      swap1\n      div\n      0xffffffffffffffffffffffffffffffffffffffff\n      and\n        /* \"Project.sol\":2242:2261  msg.sender == owner */\n      0xffffffffffffffffffffffffffffffffffffffff\n      and\n        /* \"Project.sol\":2242:2252  msg.sender */\n      caller\n        /* \"Project.sol\":2242:2261  msg.sender == owner */\n      0xffffffffffffffffffffffffffffffffffffffff\n      and\n      eq\n        /* \"Project.sol\":2234:2262  require(msg.sender == owner) */\n      tag_109\n      jumpi\n      0x00\n      dup1\n      revert\n    tag_109:\n        /* \"Project.sol\":2275:2298  Payment storage payment */\n      0x00\n        /* \"Project.sol\":2301:2309  payments */\n      0x07\n        /* \"Project.sol\":2310:2315  index */\n      dup3\n        /* \"Project.sol\":2301:2316  payments[index] */\n      dup2\n      sload\n      dup2\n      lt\n      tag_110\n      jumpi\n      tag_111\n      tag_83\n      jump\t// in\n    tag_111:\n    tag_110:\n      swap1\n      0x00\n      mstore\n      keccak256(0x00, 0x20)\n      swap1\n      0x05\n      mul\n      add\n        /* \"Project.sol\":2275:2316  Payment storage payment = payments[index] */\n      swap1\n      pop\n        /* \"Project.sol\":2338:2345  payment */\n      dup1\n        /* \"Project.sol\":2338:2355  payment.completed */\n      0x02\n      add\n      0x14\n      swap1\n      sload\n      swap1\n      0x0100\n      exp\n      swap1\n      div\n      0xff\n      and\n        /* \"Project.sol\":2337:2355  !payment.completed */\n      iszero\n        /* \"Project.sol\":2329:2356  require(!payment.completed) */\n      tag_113\n      jumpi\n      0x00\n      dup1\n      revert\n    tag_113:\n        /* \"Project.sol\":2400:2407  payment */\n      dup1\n        /* \"Project.sol\":2400:2414  payment.amount */\n      0x01\n      add\n      sload\n        /* \"Project.sol\":2375:2396  address(this).balance */\n      selfbalance\n        /* \"Project.sol\":2375:2414  address(this).balance >= payment.amount */\n      lt\n      iszero\n        /* \"Project.sol\":2367:2415  require(address(this).balance >= payment.amount) */\n      tag_114\n      jumpi\n      0x00\n      dup1\n      revert\n    tag_114:\n        /* \"Project.sol\":2472:2473  2 */\n      0x02\n        /* \"Project.sol\":2456:2469  investorCount */\n      sload(0x05)\n        /* \"Project.sol\":2456:2473  investorCount / 2 */\n      tag_115\n      swap2\n      swap1\n      tag_116\n      jump\t// in\n    tag_115:\n        /* \"Project.sol\":2434:2441  payment */\n      dup2\n        /* \"Project.sol\":2434:2452  payment.voterCount */\n      0x04\n      add\n      sload\n        /* \"Project.sol\":2434:2474  payment.voterCount > (investorCount / 2) */\n      gt\n        /* \"Project.sol\":2426:2475  require(payment.voterCount > (investorCount / 2)) */\n      tag_117\n      jumpi\n      0x00\n      dup1\n      revert\n    tag_117:\n        /* \"Project.sol\":2488:2495  payment */\n      dup1\n        /* \"Project.sol\":2488:2504  payment.receiver */\n      0x02\n      add\n      0x00\n      swap1\n      sload\n      swap1\n      0x0100\n      exp\n      swap1\n      div\n      0xffffffffffffffffffffffffffffffffffffffff\n      and\n        /* \"Project.sol\":2488:2513  payment.receiver.transfer */\n      0xffffffffffffffffffffffffffffffffffffffff\n      and\n        /* \"Project.sol\":2488:2529  payment.receiver.transfer(payment.amount) */\n      0x08fc\n        /* \"Project.sol\":2514:2521  payment */\n      dup3\n        /* \"Project.sol\":2514:2528  payment.amount */\n      0x01\n      add\n      sload\n        /* \"Project.sol\":2488:2529  payment.receiver.transfer(payment.amount) */\n      swap1\n      dup2\n      iszero\n      mul\n      swap1\n      mload(0x40)\n      0x00\n      mload(0x40)\n      dup1\n      dup4\n      sub\n      dup2\n      dup6\n      dup9\n      dup9\n      call\n      swap4\n      pop\n      pop\n      pop\n      pop\n      iszero\n      dup1\n      iszero\n      tag_119\n      jumpi\n      returndatasize\n      0x00\n      dup1\n      returndatacopy\n      revert(0x00, returndatasize)\n    tag_119:\n      pop\n        /* \"Project.sol\":2560:2564  true */\n      0x01\n        /* \"Project.sol\":2540:2547  payment */\n      dup2\n        /* \"Project.sol\":2540:2557  payment.completed */\n      0x02\n      add\n      0x14\n        /* \"Project.sol\":2540:2564  payment.completed = true */\n      0x0100\n      exp\n      dup2\n      sload\n      dup2\n      0xff\n      mul\n      not\n      and\n      swap1\n      dup4\n      iszero\n      iszero\n      mul\n      or\n      swap1\n      sstore\n      pop\n        /* \"Project.sol\":2223:2572  {... */\n      pop\n        /* \"Project.sol\":2172:2572  function doPayment(uint256 index) public ownerOnly {... */\n      pop\n      jump\t// out\n        /* \"Project.sol\":1065:1370  function contribute() public payable {... */\n    tag_68:\n        /* \"Project.sol\":1134:1143  minInvest */\n      sload(0x02)\n        /* \"Project.sol\":1121:1130  msg.value */\n      callvalue\n        /* \"Project.sol\":1121:1143  msg.value >= minInvest */\n      lt\n      iszero\n        /* \"Project.sol\":1113:1144  require(msg.value >= minInvest) */\n      tag_121\n      jumpi\n      0x00\n      dup1\n      revert\n    tag_121:\n        /* \"Project.sol\":1176:1185  maxInvest */\n      sload(0x03)\n        /* \"Project.sol\":1163:1172  msg.value */\n      callvalue\n        /* \"Project.sol\":1163:1185  msg.value <= maxInvest */\n      gt\n      iszero\n        /* \"Project.sol\":1155:1186  require(msg.value <= maxInvest) */\n      tag_122\n      jumpi\n      0x00\n      dup1\n      revert\n    tag_122:\n        /* \"Project.sol\":1242:1246  goal */\n      sload(0x04)\n        /* \"Project.sol\":1229:1238  msg.value */\n      callvalue\n        /* \"Project.sol\":1205:1226  address(this).balance */\n      selfbalance\n        /* \"Project.sol\":1205:1238  address(this).balance + msg.value */\n      tag_123\n      swap2\n      swap1\n      tag_124\n      jump\t// in\n    tag_123:\n        /* \"Project.sol\":1205:1246  address(this).balance + msg.value <= goal */\n      gt\n      iszero\n        /* \"Project.sol\":1197:1247  require(address(this).balance + msg.value <= goal) */\n      tag_125\n      jumpi\n      0x00\n      dup1\n      revert\n    tag_125:\n        /* \"Project.sol\":1324:1333  msg.value */\n      callvalue\n        /* \"Project.sol\":1300:1309  investors */\n      0x06\n        /* \"Project.sol\":1300:1321  investors[msg.sender] */\n      0x00\n        /* \"Project.sol\":1310:1320  msg.sender */\n      caller\n        /* \"Project.sol\":1300:1321  investors[msg.sender] */\n      0xffffffffffffffffffffffffffffffffffffffff\n      and\n      0xffffffffffffffffffffffffffffffffffffffff\n      and\n      dup2\n      mstore\n      0x20\n      add\n      swap1\n      dup2\n      mstore\n      0x20\n      add\n      0x00\n      keccak256\n        /* \"Project.sol\":1300:1333  investors[msg.sender] = msg.value */\n      dup2\n      swap1\n      sstore\n      pop\n        /* \"Project.sol\":1361:1362  1 */\n      0x01\n        /* \"Project.sol\":1344:1357  investorCount */\n      0x05\n      0x00\n        /* \"Project.sol\":1344:1362  investorCount += 1 */\n      dup3\n      dup3\n      sload\n      tag_126\n      swap2\n      swap1\n      tag_124\n      jump\t// in\n    tag_126:\n      swap3\n      pop\n      pop\n      dup2\n      swap1\n      sstore\n      pop\n        /* \"Project.sol\":1065:1370  function contribute() public payable {... */\n      jump\t// out\n        /* \"Project.sol\":527:555  uint256 public investorCount */\n    tag_71:\n      sload(0x05)\n      dup2\n      jump\t// out\n        /* \"Project.sol\":1884:2164  function approvePayment(uint256 index) public {... */\n    tag_76:\n        /* \"Project.sol\":1941:1964  Payment storage payment */\n      0x00\n        /* \"Project.sol\":1967:1975  payments */\n      0x07\n        /* \"Project.sol\":1976:1981  index */\n      dup3\n        /* \"Project.sol\":1967:1982  payments[index] */\n      dup2\n      sload\n      dup2\n      lt\n      tag_128\n      jumpi\n      tag_129\n      tag_83\n      jump\t// in\n    tag_129:\n    tag_128:\n      swap1\n      0x00\n      mstore\n      keccak256(0x00, 0x20)\n      swap1\n      0x05\n      mul\n      add\n        /* \"Project.sol\":1941:1982  Payment storage payment = payments[index] */\n      swap1\n      pop\n        /* \"Project.sol\":2027:2028  0 */\n      0x00\n        /* \"Project.sol\":2003:2012  investors */\n      0x06\n        /* \"Project.sol\":2003:2024  investors[msg.sender] */\n      0x00\n        /* \"Project.sol\":2013:2023  msg.sender */\n      caller\n        /* \"Project.sol\":2003:2024  investors[msg.sender] */\n      0xffffffffffffffffffffffffffffffffffffffff\n      and\n      0xffffffffffffffffffffffffffffffffffffffff\n      and\n      dup2\n      mstore\n      0x20\n      add\n      swap1\n      dup2\n      mstore\n      0x20\n      add\n      0x00\n      keccak256\n      sload\n        /* \"Project.sol\":2003:2028  investors[msg.sender] > 0 */\n      gt\n        /* \"Project.sol\":1995:2029  require(investors[msg.sender] > 0) */\n      tag_131\n      jumpi\n      0x00\n      dup1\n      revert\n    tag_131:\n        /* \"Project.sol\":2049:2056  payment */\n      dup1\n        /* \"Project.sol\":2049:2063  payment.voters */\n      0x03\n      add\n        /* \"Project.sol\":2049:2075  payment.voters[msg.sender] */\n      0x00\n        /* \"Project.sol\":2064:2074  msg.sender */\n      caller\n        /* \"Project.sol\":2049:2075  payment.voters[msg.sender] */\n      0xffffffffffffffffffffffffffffffffffffffff\n      and\n      0xffffffffffffffffffffffffffffffffffffffff\n      and\n      dup2\n      mstore\n      0x20\n      add\n      swap1\n      dup2\n      mstore\n      0x20\n      add\n      0x00\n      keccak256\n      0x00\n      swap1\n      sload\n      swap1\n      0x0100\n      exp\n      swap1\n      div\n      0xff\n      and\n        /* \"Project.sol\":2048:2075  !payment.voters[msg.sender] */\n      iszero\n        /* \"Project.sol\":2040:2076  require(!payment.voters[msg.sender]) */\n      tag_132\n      jumpi\n      0x00\n      dup1\n      revert\n    tag_132:\n        /* \"Project.sol\":2118:2122  true */\n      0x01\n        /* \"Project.sol\":2089:2096  payment */\n      dup2\n        /* \"Project.sol\":2089:2103  payment.voters */\n      0x03\n      add\n        /* \"Project.sol\":2089:2115  payment.voters[msg.sender] */\n      0x00\n        /* \"Project.sol\":2104:2114  msg.sender */\n      caller\n        /* \"Project.sol\":2089:2115  payment.voters[msg.sender] */\n      0xffffffffffffffffffffffffffffffffffffffff\n      and\n      0xffffffffffffffffffffffffffffffffffffffff\n      and\n      dup2\n      mstore\n      0x20\n      add\n      swap1\n      dup2\n      mstore\n      0x20\n      add\n      0x00\n      keccak256\n      0x00\n        /* \"Project.sol\":2089:2122  payment.voters[msg.sender] = true */\n      0x0100\n      exp\n      dup2\n      sload\n      dup2\n      0xff\n      mul\n      not\n      and\n      swap1\n      dup4\n      iszero\n      iszero\n      mul\n      or\n      swap1\n      sstore\n      pop\n        /* \"Project.sol\":2155:2156  1 */\n      0x01\n        /* \"Project.sol\":2133:2140  payment */\n      dup2\n        /* \"Project.sol\":2133:2151  payment.voterCount */\n      0x04\n      add\n      0x00\n        /* \"Project.sol\":2133:2156  payment.voterCount += 1 */\n      dup3\n      dup3\n      sload\n      tag_133\n      swap2\n      swap1\n      tag_124\n      jump\t// in\n    tag_133:\n      swap3\n      pop\n      pop\n      dup2\n      swap1\n      sstore\n      pop\n        /* \"Project.sol\":1930:2164  {... */\n      pop\n        /* \"Project.sol\":1884:2164  function approvePayment(uint256 index) public {... */\n      pop\n      jump\t// out\n    tag_86:\n      dup3\n      dup1\n      sload\n      tag_134\n      swap1\n      tag_89\n      jump\t// in\n    tag_134:\n      swap1\n      0x00\n      mstore\n      keccak256(0x00, 0x20)\n      swap1\n      0x1f\n      add\n      0x20\n      swap1\n      div\n      dup2\n      add\n      swap3\n      dup3\n      tag_136\n      jumpi\n      0x00\n      dup6\n      sstore\n      jump(tag_135)\n    tag_136:\n      dup3\n      0x1f\n      lt\n      tag_137\n      jumpi\n      dup1\n      mload\n      not(0xff)\n      and\n      dup4\n      dup1\n      add\n      or\n      dup6\n      sstore\n      jump(tag_135)\n    tag_137:\n      dup3\n      dup1\n      add\n      0x01\n      add\n      dup6\n      sstore\n      dup3\n      iszero\n      tag_135\n      jumpi\n      swap2\n      dup3\n      add\n    tag_138:\n      dup3\n      dup2\n      gt\n      iszero\n      tag_139\n      jumpi\n      dup3\n      mload\n      dup3\n      sstore\n      swap2\n      0x20\n      add\n      swap2\n      swap1\n      0x01\n      add\n      swap1\n      jump(tag_138)\n    tag_139:\n    tag_135:\n      pop\n      swap1\n      pop\n      tag_140\n      swap2\n      swap1\n      tag_141\n      jump\t// in\n    tag_140:\n      pop\n      swap1\n      jump\t// out\n    tag_141:\n    tag_142:\n      dup1\n      dup3\n      gt\n      iszero\n      tag_143\n      jumpi\n      0x00\n      dup2\n      0x00\n      swap1\n      sstore\n      pop\n      0x01\n      add\n      jump(tag_142)\n    tag_143:\n      pop\n      swap1\n      jump\t// out\n        /* \"#utility.yul\":7:82   */\n    tag_144:\n        /* \"#utility.yul\":40:46   */\n      0x00\n        /* \"#utility.yul\":73:75   */\n      0x40\n        /* \"#utility.yul\":67:76   */\n      mload\n        /* \"#utility.yul\":57:76   */\n      swap1\n      pop\n        /* \"#utility.yul\":7:82   */\n      swap1\n      jump\t// out\n        /* \"#utility.yul\":88:205   */\n    tag_145:\n        /* \"#utility.yul\":197:198   */\n      0x00\n        /* \"#utility.yul\":194:195   */\n      dup1\n        /* \"#utility.yul\":187:199   */\n      revert\n        /* \"#utility.yul\":211:328   */\n    tag_146:\n        /* \"#utility.yul\":320:321   */\n      0x00\n        /* \"#utility.yul\":317:318   */\n      dup1\n        /* \"#utility.yul\":310:322   */\n      revert\n        /* \"#utility.yul\":334:451   */\n    tag_147:\n        /* \"#utility.yul\":443:444   */\n      0x00\n        /* \"#utility.yul\":440:441   */\n      dup1\n        /* \"#utility.yul\":433:445   */\n      revert\n        /* \"#utility.yul\":457:574   */\n    tag_148:\n        /* \"#utility.yul\":566:567   */\n      0x00\n        /* \"#utility.yul\":563:564   */\n      dup1\n        /* \"#utility.yul\":556:568   */\n      revert\n        /* \"#utility.yul\":580:682   */\n    tag_149:\n        /* \"#utility.yul\":621:627   */\n      0x00\n        /* \"#utility.yul\":672:674   */\n      0x1f\n        /* \"#utility.yul\":668:675   */\n      not\n        /* \"#utility.yul\":663:665   */\n      0x1f\n        /* \"#utility.yul\":656:661   */\n      dup4\n        /* \"#utility.yul\":652:666   */\n      add\n        /* \"#utility.yul\":648:676   */\n      and\n        /* \"#utility.yul\":638:676   */\n      swap1\n      pop\n        /* \"#utility.yul\":580:682   */\n      swap2\n      swap1\n      pop\n      jump\t// out\n        /* \"#utility.yul\":688:868   */\n    tag_150:\n        /* \"#utility.yul\":736:813   */\n      0x4e487b7100000000000000000000000000000000000000000000000000000000\n        /* \"#utility.yul\":733:734   */\n      0x00\n        /* \"#utility.yul\":726:814   */\n      mstore\n        /* \"#utility.yul\":833:837   */\n      0x41\n        /* \"#utility.yul\":830:831   */\n      0x04\n        /* \"#utility.yul\":823:838   */\n      mstore\n        /* \"#utility.yul\":857:861   */\n      0x24\n        /* \"#utility.yul\":854:855   */\n      0x00\n        /* \"#utility.yul\":847:862   */\n      revert\n        /* \"#utility.yul\":874:1155   */\n    tag_151:\n        /* \"#utility.yul\":957:984   */\n      tag_188\n        /* \"#utility.yul\":979:983   */\n      dup3\n        /* \"#utility.yul\":957:984   */\n      tag_149\n      jump\t// in\n    tag_188:\n        /* \"#utility.yul\":949:955   */\n      dup2\n        /* \"#utility.yul\":945:985   */\n      add\n        /* \"#utility.yul\":1087:1093   */\n      dup2\n        /* \"#utility.yul\":1075:1085   */\n      dup2\n        /* \"#utility.yul\":1072:1094   */\n      lt\n        /* \"#utility.yul\":1051:1069   */\n      0xffffffffffffffff\n        /* \"#utility.yul\":1039:1049   */\n      dup3\n        /* \"#utility.yul\":1036:1070   */\n      gt\n        /* \"#utility.yul\":1033:1095   */\n      or\n        /* \"#utility.yul\":1030:1118   */\n      iszero\n      tag_189\n      jumpi\n        /* \"#utility.yul\":1098:1116   */\n      tag_190\n      tag_150\n      jump\t// in\n    tag_190:\n        /* \"#utility.yul\":1030:1118   */\n    tag_189:\n        /* \"#utility.yul\":1138:1148   */\n      dup1\n        /* \"#utility.yul\":1134:1136   */\n      0x40\n        /* \"#utility.yul\":1127:1149   */\n      mstore\n        /* \"#utility.yul\":917:1155   */\n      pop\n        /* \"#utility.yul\":874:1155   */\n      pop\n      pop\n      jump\t// out\n        /* \"#utility.yul\":1161:1290   */\n    tag_152:\n        /* \"#utility.yul\":1195:1201   */\n      0x00\n        /* \"#utility.yul\":1222:1242   */\n      tag_192\n      tag_144\n      jump\t// in\n    tag_192:\n        /* \"#utility.yul\":1212:1242   */\n      swap1\n      pop\n        /* \"#utility.yul\":1251:1284   */\n      tag_193\n        /* \"#utility.yul\":1279:1283   */\n      dup3\n        /* \"#utility.yul\":1271:1277   */\n      dup3\n        /* \"#utility.yul\":1251:1284   */\n      tag_151\n      jump\t// in\n    tag_193:\n        /* \"#utility.yul\":1161:1290   */\n      swap2\n      swap1\n      pop\n      jump\t// out\n        /* \"#utility.yul\":1296:1604   */\n    tag_153:\n        /* \"#utility.yul\":1358:1362   */\n      0x00\n        /* \"#utility.yul\":1448:1466   */\n      0xffffffffffffffff\n        /* \"#utility.yul\":1440:1446   */\n      dup3\n        /* \"#utility.yul\":1437:1467   */\n      gt\n        /* \"#utility.yul\":1434:1490   */\n      iszero\n      tag_195\n      jumpi\n        /* \"#utility.yul\":1470:1488   */\n      tag_196\n      tag_150\n      jump\t// in\n    tag_196:\n        /* \"#utility.yul\":1434:1490   */\n    tag_195:\n        /* \"#utility.yul\":1508:1537   */\n      tag_197\n        /* \"#utility.yul\":1530:1536   */\n      dup3\n        /* \"#utility.yul\":1508:1537   */\n      tag_149\n      jump\t// in\n    tag_197:\n        /* \"#utility.yul\":1500:1537   */\n      swap1\n      pop\n        /* \"#utility.yul\":1592:1596   */\n      0x20\n        /* \"#utility.yul\":1586:1590   */\n      dup2\n        /* \"#utility.yul\":1582:1597   */\n      add\n        /* \"#utility.yul\":1574:1597   */\n      swap1\n      pop\n        /* \"#utility.yul\":1296:1604   */\n      swap2\n      swap1\n      pop\n      jump\t// out\n        /* \"#utility.yul\":1610:1764   */\n    tag_154:\n        /* \"#utility.yul\":1694:1700   */\n      dup3\n        /* \"#utility.yul\":1689:1692   */\n      dup2\n        /* \"#utility.yul\":1684:1687   */\n      dup4\n        /* \"#utility.yul\":1671:1701   */\n      calldatacopy\n        /* \"#utility.yul\":1756:1757   */\n      0x00\n        /* \"#utility.yul\":1747:1753   */\n      dup4\n        /* \"#utility.yul\":1742:1745   */\n      dup4\n        /* \"#utility.yul\":1738:1754   */\n      add\n        /* \"#utility.yul\":1731:1758   */\n      mstore\n        /* \"#utility.yul\":1610:1764   */\n      pop\n      pop\n      pop\n      jump\t// out\n        /* \"#utility.yul\":1770:2182   */\n    tag_155:\n        /* \"#utility.yul\":1848:1853   */\n      0x00\n        /* \"#utility.yul\":1873:1939   */\n      tag_200\n        /* \"#utility.yul\":1889:1938   */\n      tag_201\n        /* \"#utility.yul\":1931:1937   */\n      dup5\n        /* \"#utility.yul\":1889:1938   */\n      tag_153\n      jump\t// in\n    tag_201:\n        /* \"#utility.yul\":1873:1939   */\n      tag_152\n      jump\t// in\n    tag_200:\n        /* \"#utility.yul\":1864:1939   */\n      swap1\n      pop\n        /* \"#utility.yul\":1962:1968   */\n      dup3\n        /* \"#utility.yul\":1955:1960   */\n      dup2\n        /* \"#utility.yul\":1948:1969   */\n      mstore\n        /* \"#utility.yul\":2000:2004   */\n      0x20\n        /* \"#utility.yul\":1993:1998   */\n      dup2\n        /* \"#utility.yul\":1989:2005   */\n      add\n        /* \"#utility.yul\":2038:2041   */\n      dup5\n        /* \"#utility.yul\":2029:2035   */\n      dup5\n        /* \"#utility.yul\":2024:2027   */\n      dup5\n        /* \"#utility.yul\":2020:2036   */\n      add\n        /* \"#utility.yul\":2017:2042   */\n      gt\n        /* \"#utility.yul\":2014:2126   */\n      iszero\n      tag_202\n      jumpi\n        /* \"#utility.yul\":2045:2124   */\n      tag_203\n      tag_148\n      jump\t// in\n    tag_203:\n        /* \"#utility.yul\":2014:2126   */\n    tag_202:\n        /* \"#utility.yul\":2135:2176   */\n      tag_204\n        /* \"#utility.yul\":2169:2175   */\n      dup5\n        /* \"#utility.yul\":2164:2167   */\n      dup3\n        /* \"#utility.yul\":2159:2162   */\n      dup6\n        /* \"#utility.yul\":2135:2176   */\n      tag_154\n      jump\t// in\n    tag_204:\n        /* \"#utility.yul\":1854:2182   */\n      pop\n        /* \"#utility.yul\":1770:2182   */\n      swap4\n      swap3\n      pop\n      pop\n      pop\n      jump\t// out\n        /* \"#utility.yul\":2202:2542   */\n    tag_156:\n        /* \"#utility.yul\":2258:2263   */\n      0x00\n        /* \"#utility.yul\":2307:2310   */\n      dup3\n        /* \"#utility.yul\":2300:2304   */\n      0x1f\n        /* \"#utility.yul\":2292:2298   */\n      dup4\n        /* \"#utility.yul\":2288:2305   */\n      add\n        /* \"#utility.yul\":2284:2311   */\n      slt\n        /* \"#utility.yul\":2274:2396   */\n      tag_206\n      jumpi\n        /* \"#utility.yul\":2315:2394   */\n      tag_207\n      tag_147\n      jump\t// in\n    tag_207:\n        /* \"#utility.yul\":2274:2396   */\n    tag_206:\n        /* \"#utility.yul\":2432:2438   */\n      dup2\n        /* \"#utility.yul\":2419:2439   */\n      calldataload\n        /* \"#utility.yul\":2457:2536   */\n      tag_208\n        /* \"#utility.yul\":2532:2535   */\n      dup5\n        /* \"#utility.yul\":2524:2530   */\n      dup3\n        /* \"#utility.yul\":2517:2521   */\n      0x20\n        /* \"#utility.yul\":2509:2515   */\n      dup7\n        /* \"#utility.yul\":2505:2522   */\n      add\n        /* \"#utility.yul\":2457:2536   */\n      tag_155\n      jump\t// in\n    tag_208:\n        /* \"#utility.yul\":2448:2536   */\n      swap2\n      pop\n        /* \"#utility.yul\":2264:2542   */\n      pop\n        /* \"#utility.yul\":2202:2542   */\n      swap3\n      swap2\n      pop\n      pop\n      jump\t// out\n        /* \"#utility.yul\":2548:2625   */\n    tag_157:\n        /* \"#utility.yul\":2585:2592   */\n      0x00\n        /* \"#utility.yul\":2614:2619   */\n      dup2\n        /* \"#utility.yul\":2603:2619   */\n      swap1\n      pop\n        /* \"#utility.yul\":2548:2625   */\n      swap2\n      swap1\n      pop\n      jump\t// out\n        /* \"#utility.yul\":2631:2753   */\n    tag_158:\n        /* \"#utility.yul\":2704:2728   */\n      tag_211\n        /* \"#utility.yul\":2722:2727   */\n      dup2\n        /* \"#utility.yul\":2704:2728   */\n      tag_157\n      jump\t// in\n    tag_211:\n        /* \"#utility.yul\":2697:2702   */\n      dup2\n        /* \"#utility.yul\":2694:2729   */\n      eq\n        /* \"#utility.yul\":2684:2747   */\n      tag_212\n      jumpi\n        /* \"#utility.yul\":2743:2744   */\n      0x00\n        /* \"#utility.yul\":2740:2741   */\n      dup1\n        /* \"#utility.yul\":2733:2745   */\n      revert\n        /* \"#utility.yul\":2684:2747   */\n    tag_212:\n        /* \"#utility.yul\":2631:2753   */\n      pop\n      jump\t// out\n        /* \"#utility.yul\":2759:2898   */\n    tag_159:\n        /* \"#utility.yul\":2805:2810   */\n      0x00\n        /* \"#utility.yul\":2843:2849   */\n      dup2\n        /* \"#utility.yul\":2830:2850   */\n      calldataload\n        /* \"#utility.yul\":2821:2850   */\n      swap1\n      pop\n        /* \"#utility.yul\":2859:2892   */\n      tag_214\n        /* \"#utility.yul\":2886:2891   */\n      dup2\n        /* \"#utility.yul\":2859:2892   */\n      tag_158\n      jump\t// in\n    tag_214:\n        /* \"#utility.yul\":2759:2898   */\n      swap3\n      swap2\n      pop\n      pop\n      jump\t// out\n        /* \"#utility.yul\":2904:3030   */\n    tag_160:\n        /* \"#utility.yul\":2941:2948   */\n      0x00\n        /* \"#utility.yul\":2981:3023   */\n      0xffffffffffffffffffffffffffffffffffffffff\n        /* \"#utility.yul\":2974:2979   */\n      dup3\n        /* \"#utility.yul\":2970:3024   */\n      and\n        /* \"#utility.yul\":2959:3024   */\n      swap1\n      pop\n        /* \"#utility.yul\":2904:3030   */\n      swap2\n      swap1\n      pop\n      jump\t// out\n        /* \"#utility.yul\":3036:3140   */\n    tag_161:\n        /* \"#utility.yul\":3081:3088   */\n      0x00\n        /* \"#utility.yul\":3110:3134   */\n      tag_217\n        /* \"#utility.yul\":3128:3133   */\n      dup3\n        /* \"#utility.yul\":3110:3134   */\n      tag_160\n      jump\t// in\n    tag_217:\n        /* \"#utility.yul\":3099:3134   */\n      swap1\n      pop\n        /* \"#utility.yul\":3036:3140   */\n      swap2\n      swap1\n      pop\n      jump\t// out\n        /* \"#utility.yul\":3146:3284   */\n    tag_162:\n        /* \"#utility.yul\":3227:3259   */\n      tag_219\n        /* \"#utility.yul\":3253:3258   */\n      dup2\n        /* \"#utility.yul\":3227:3259   */\n      tag_161\n      jump\t// in\n    tag_219:\n        /* \"#utility.yul\":3220:3225   */\n      dup2\n        /* \"#utility.yul\":3217:3260   */\n      eq\n        /* \"#utility.yul\":3207:3278   */\n      tag_220\n      jumpi\n        /* \"#utility.yul\":3274:3275   */\n      0x00\n        /* \"#utility.yul\":3271:3272   */\n      dup1\n        /* \"#utility.yul\":3264:3276   */\n      revert\n        /* \"#utility.yul\":3207:3278   */\n    tag_220:\n        /* \"#utility.yul\":3146:3284   */\n      pop\n      jump\t// out\n        /* \"#utility.yul\":3290:3445   */\n    tag_163:\n        /* \"#utility.yul\":3344:3349   */\n      0x00\n        /* \"#utility.yul\":3382:3388   */\n      dup2\n        /* \"#utility.yul\":3369:3389   */\n      calldataload\n        /* \"#utility.yul\":3360:3389   */\n      swap1\n      pop\n        /* \"#utility.yul\":3398:3439   */\n      tag_222\n        /* \"#utility.yul\":3433:3438   */\n      dup2\n        /* \"#utility.yul\":3398:3439   */\n      tag_162\n      jump\t// in\n    tag_222:\n        /* \"#utility.yul\":3290:3445   */\n      swap3\n      swap2\n      pop\n      pop\n      jump\t// out\n        /* \"#utility.yul\":3451:4266   */\n    tag_20:\n        /* \"#utility.yul\":3546:3552   */\n      0x00\n        /* \"#utility.yul\":3554:3560   */\n      dup1\n        /* \"#utility.yul\":3562:3568   */\n      0x00\n        /* \"#utility.yul\":3611:3613   */\n      0x60\n        /* \"#utility.yul\":3599:3608   */\n      dup5\n        /* \"#utility.yul\":3590:3597   */\n      dup7\n        /* \"#utility.yul\":3586:3609   */\n      sub\n        /* \"#utility.yul\":3582:3614   */\n      slt\n        /* \"#utility.yul\":3579:3698   */\n      iszero\n      tag_224\n      jumpi\n        /* \"#utility.yul\":3617:3696   */\n      tag_225\n      tag_145\n      jump\t// in\n    tag_225:\n        /* \"#utility.yul\":3579:3698   */\n    tag_224:\n        /* \"#utility.yul\":3765:3766   */\n      0x00\n        /* \"#utility.yul\":3754:3763   */\n      dup5\n        /* \"#utility.yul\":3750:3767   */\n      add\n        /* \"#utility.yul\":3737:3768   */\n      calldataload\n        /* \"#utility.yul\":3795:3813   */\n      0xffffffffffffffff\n        /* \"#utility.yul\":3787:3793   */\n      dup2\n        /* \"#utility.yul\":3784:3814   */\n      gt\n        /* \"#utility.yul\":3781:3898   */\n      iszero\n      tag_226\n      jumpi\n        /* \"#utility.yul\":3817:3896   */\n      tag_227\n      tag_146\n      jump\t// in\n    tag_227:\n        /* \"#utility.yul\":3781:3898   */\n    tag_226:\n        /* \"#utility.yul\":3922:3985   */\n      tag_228\n        /* \"#utility.yul\":3977:3984   */\n      dup7\n        /* \"#utility.yul\":3968:3974   */\n      dup3\n        /* \"#utility.yul\":3957:3966   */\n      dup8\n        /* \"#utility.yul\":3953:3975   */\n      add\n        /* \"#utility.yul\":3922:3985   */\n      tag_156\n      jump\t// in\n    tag_228:\n        /* \"#utility.yul\":3912:3985   */\n      swap4\n      pop\n        /* \"#utility.yul\":3708:3995   */\n      pop\n        /* \"#utility.yul\":4034:4036   */\n      0x20\n        /* \"#utility.yul\":4060:4113   */\n      tag_229\n        /* \"#utility.yul\":4105:4112   */\n      dup7\n        /* \"#utility.yul\":4096:4102   */\n      dup3\n        /* \"#utility.yul\":4085:4094   */\n      dup8\n        /* \"#utility.yul\":4081:4103   */\n      add\n        /* \"#utility.yul\":4060:4113   */\n      tag_159\n      jump\t// in\n    tag_229:\n        /* \"#utility.yul\":4050:4113   */\n      swap3\n      pop\n        /* \"#utility.yul\":4005:4123   */\n      pop\n        /* \"#utility.yul\":4162:4164   */\n      0x40\n        /* \"#utility.yul\":4188:4249   */\n      tag_230\n        /* \"#utility.yul\":4241:4248   */\n      dup7\n        /* \"#utility.yul\":4232:4238   */\n      dup3\n        /* \"#utility.yul\":4221:4230   */\n      dup8\n        /* \"#utility.yul\":4217:4239   */\n      add\n        /* \"#utility.yul\":4188:4249   */\n      tag_163\n      jump\t// in\n    tag_230:\n        /* \"#utility.yul\":4178:4249   */\n      swap2\n      pop\n        /* \"#utility.yul\":4133:4259   */\n      pop\n        /* \"#utility.yul\":3451:4266   */\n      swap3\n      pop\n      swap3\n      pop\n      swap3\n      jump\t// out\n        /* \"#utility.yul\":4272:4390   */\n    tag_164:\n        /* \"#utility.yul\":4359:4383   */\n      tag_232\n        /* \"#utility.yul\":4377:4382   */\n      dup2\n        /* \"#utility.yul\":4359:4383   */\n      tag_157\n      jump\t// in\n    tag_232:\n        /* \"#utility.yul\":4354:4357   */\n      dup3\n        /* \"#utility.yul\":4347:4384   */\n      mstore\n        /* \"#utility.yul\":4272:4390   */\n      pop\n      pop\n      jump\t// out\n        /* \"#utility.yul\":4396:4618   */\n    tag_26:\n        /* \"#utility.yul\":4489:4493   */\n      0x00\n        /* \"#utility.yul\":4527:4529   */\n      0x20\n        /* \"#utility.yul\":4516:4525   */\n      dup3\n        /* \"#utility.yul\":4512:4530   */\n      add\n        /* \"#utility.yul\":4504:4530   */\n      swap1\n      pop\n        /* \"#utility.yul\":4540:4611   */\n      tag_234\n        /* \"#utility.yul\":4608:4609   */\n      0x00\n        /* \"#utility.yul\":4597:4606   */\n      dup4\n        /* \"#utility.yul\":4593:4610   */\n      add\n        /* \"#utility.yul\":4584:4590   */\n      dup5\n        /* \"#utility.yul\":4540:4611   */\n      tag_164\n      jump\t// in\n    tag_234:\n        /* \"#utility.yul\":4396:4618   */\n      swap3\n      swap2\n      pop\n      pop\n      jump\t// out\n        /* \"#utility.yul\":4624:4723   */\n    tag_165:\n        /* \"#utility.yul\":4676:4682   */\n      0x00\n        /* \"#utility.yul\":4710:4715   */\n      dup2\n        /* \"#utility.yul\":4704:4716   */\n      mload\n        /* \"#utility.yul\":4694:4716   */\n      swap1\n      pop\n        /* \"#utility.yul\":4624:4723   */\n      swap2\n      swap1\n      pop\n      jump\t// out\n        /* \"#utility.yul\":4729:4898   */\n    tag_166:\n        /* \"#utility.yul\":4813:4824   */\n      0x00\n        /* \"#utility.yul\":4847:4853   */\n      dup3\n        /* \"#utility.yul\":4842:4845   */\n      dup3\n        /* \"#utility.yul\":4835:4854   */\n      mstore\n        /* \"#utility.yul\":4887:4891   */\n      0x20\n        /* \"#utility.yul\":4882:4885   */\n      dup3\n        /* \"#utility.yul\":4878:4892   */\n      add\n        /* \"#utility.yul\":4863:4892   */\n      swap1\n      pop\n        /* \"#utility.yul\":4729:4898   */\n      swap3\n      swap2\n      pop\n      pop\n      jump\t// out\n        /* \"#utility.yul\":4904:5211   */\n    tag_167:\n        /* \"#utility.yul\":4972:4973   */\n      0x00\n        /* \"#utility.yul\":4982:5095   */\n    tag_238:\n        /* \"#utility.yul\":4996:5002   */\n      dup4\n        /* \"#utility.yul\":4993:4994   */\n      dup2\n        /* \"#utility.yul\":4990:5003   */\n      lt\n        /* \"#utility.yul\":4982:5095   */\n      iszero\n      tag_240\n      jumpi\n        /* \"#utility.yul\":5081:5082   */\n      dup1\n        /* \"#utility.yul\":5076:5079   */\n      dup3\n        /* \"#utility.yul\":5072:5083   */\n      add\n        /* \"#utility.yul\":5066:5084   */\n      mload\n        /* \"#utility.yul\":5062:5063   */\n      dup2\n        /* \"#utility.yul\":5057:5060   */\n      dup5\n        /* \"#utility.yul\":5053:5064   */\n      add\n        /* \"#utility.yul\":5046:5085   */\n      mstore\n        /* \"#utility.yul\":5018:5020   */\n      0x20\n        /* \"#utility.yul\":5015:5016   */\n      dup2\n        /* \"#utility.yul\":5011:5021   */\n      add\n        /* \"#utility.yul\":5006:5021   */\n      swap1\n      pop\n        /* \"#utility.yul\":4982:5095   */\n      jump(tag_238)\n    tag_240:\n        /* \"#utility.yul\":5113:5119   */\n      dup4\n        /* \"#utility.yul\":5110:5111   */\n      dup2\n        /* \"#utility.yul\":5107:5120   */\n      gt\n        /* \"#utility.yul\":5104:5205   */\n      iszero\n      tag_241\n      jumpi\n        /* \"#utility.yul\":5193:5194   */\n      0x00\n        /* \"#utility.yul\":5184:5190   */\n      dup5\n        /* \"#utility.yul\":5179:5182   */\n      dup5\n        /* \"#utility.yul\":5175:5191   */\n      add\n        /* \"#utility.yul\":5168:5195   */\n      mstore\n        /* \"#utility.yul\":5104:5205   */\n    tag_241:\n        /* \"#utility.yul\":4953:5211   */\n      pop\n        /* \"#utility.yul\":4904:5211   */\n      pop\n      pop\n      pop\n      jump\t// out\n        /* \"#utility.yul\":5217:5581   */\n    tag_168:\n        /* \"#utility.yul\":5305:5308   */\n      0x00\n        /* \"#utility.yul\":5333:5372   */\n      tag_243\n        /* \"#utility.yul\":5366:5371   */\n      dup3\n        /* \"#utility.yul\":5333:5372   */\n      tag_165\n      jump\t// in\n    tag_243:\n        /* \"#utility.yul\":5388:5459   */\n      tag_244\n        /* \"#utility.yul\":5452:5458   */\n      dup2\n        /* \"#utility.yul\":5447:5450   */\n      dup6\n        /* \"#utility.yul\":5388:5459   */\n      tag_166\n      jump\t// in\n    tag_244:\n        /* \"#utility.yul\":5381:5459   */\n      swap4\n      pop\n        /* \"#utility.yul\":5468:5520   */\n      tag_245\n        /* \"#utility.yul\":5513:5519   */\n      dup2\n        /* \"#utility.yul\":5508:5511   */\n      dup6\n        /* \"#utility.yul\":5501:5505   */\n      0x20\n        /* \"#utility.yul\":5494:5499   */\n      dup7\n        /* \"#utility.yul\":5490:5506   */\n      add\n        /* \"#utility.yul\":5468:5520   */\n      tag_167\n      jump\t// in\n    tag_245:\n        /* \"#utility.yul\":5545:5574   */\n      tag_246\n        /* \"#utility.yul\":5567:5573   */\n      dup2\n        /* \"#utility.yul\":5545:5574   */\n      tag_149\n      jump\t// in\n    tag_246:\n        /* \"#utility.yul\":5540:5543   */\n      dup5\n        /* \"#utility.yul\":5536:5575   */\n      add\n        /* \"#utility.yul\":5529:5575   */\n      swap2\n      pop\n        /* \"#utility.yul\":5309:5581   */\n      pop\n        /* \"#utility.yul\":5217:5581   */\n      swap3\n      swap2\n      pop\n      pop\n      jump\t// out\n        /* \"#utility.yul\":5587:5683   */\n    tag_169:\n        /* \"#utility.yul\":5624:5631   */\n      0x00\n        /* \"#utility.yul\":5653:5677   */\n      tag_248\n        /* \"#utility.yul\":5671:5676   */\n      dup3\n        /* \"#utility.yul\":5653:5677   */\n      tag_160\n      jump\t// in\n    tag_248:\n        /* \"#utility.yul\":5642:5677   */\n      swap1\n      pop\n        /* \"#utility.yul\":5587:5683   */\n      swap2\n      swap1\n      pop\n      jump\t// out\n        /* \"#utility.yul\":5689:5807   */\n    tag_170:\n        /* \"#utility.yul\":5776:5800   */\n      tag_250\n        /* \"#utility.yul\":5794:5799   */\n      dup2\n        /* \"#utility.yul\":5776:5800   */\n      tag_169\n      jump\t// in\n    tag_250:\n        /* \"#utility.yul\":5771:5774   */\n      dup3\n        /* \"#utility.yul\":5764:5801   */\n      mstore\n        /* \"#utility.yul\":5689:5807   */\n      pop\n      pop\n      jump\t// out\n        /* \"#utility.yul\":5813:6901   */\n    tag_35:\n        /* \"#utility.yul\":6122:6126   */\n      0x00\n        /* \"#utility.yul\":6160:6163   */\n      0x0100\n        /* \"#utility.yul\":6149:6158   */\n      dup3\n        /* \"#utility.yul\":6145:6164   */\n      add\n        /* \"#utility.yul\":6137:6164   */\n      swap1\n      pop\n        /* \"#utility.yul\":6210:6219   */\n      dup2\n        /* \"#utility.yul\":6204:6208   */\n      dup2\n        /* \"#utility.yul\":6200:6220   */\n      sub\n        /* \"#utility.yul\":6196:6197   */\n      0x00\n        /* \"#utility.yul\":6185:6194   */\n      dup4\n        /* \"#utility.yul\":6181:6198   */\n      add\n        /* \"#utility.yul\":6174:6221   */\n      mstore\n        /* \"#utility.yul\":6238:6316   */\n      tag_252\n        /* \"#utility.yul\":6311:6315   */\n      dup2\n        /* \"#utility.yul\":6302:6308   */\n      dup12\n        /* \"#utility.yul\":6238:6316   */\n      tag_168\n      jump\t// in\n    tag_252:\n        /* \"#utility.yul\":6230:6316   */\n      swap1\n      pop\n        /* \"#utility.yul\":6326:6398   */\n      tag_253\n        /* \"#utility.yul\":6394:6396   */\n      0x20\n        /* \"#utility.yul\":6383:6392   */\n      dup4\n        /* \"#utility.yul\":6379:6397   */\n      add\n        /* \"#utility.yul\":6370:6376   */\n      dup11\n        /* \"#utility.yul\":6326:6398   */\n      tag_164\n      jump\t// in\n    tag_253:\n        /* \"#utility.yul\":6408:6480   */\n      tag_254\n        /* \"#utility.yul\":6476:6478   */\n      0x40\n        /* \"#utility.yul\":6465:6474   */\n      dup4\n        /* \"#utility.yul\":6461:6479   */\n      add\n        /* \"#utility.yul\":6452:6458   */\n      dup10\n        /* \"#utility.yul\":6408:6480   */\n      tag_164\n      jump\t// in\n    tag_254:\n        /* \"#utility.yul\":6490:6562   */\n      tag_255\n        /* \"#utility.yul\":6558:6560   */\n      0x60\n        /* \"#utility.yul\":6547:6556   */\n      dup4\n        /* \"#utility.yul\":6543:6561   */\n      add\n        /* \"#utility.yul\":6534:6540   */\n      dup9\n        /* \"#utility.yul\":6490:6562   */\n      tag_164\n      jump\t// in\n    tag_255:\n        /* \"#utility.yul\":6572:6645   */\n      tag_256\n        /* \"#utility.yul\":6640:6643   */\n      0x80\n        /* \"#utility.yul\":6629:6638   */\n      dup4\n        /* \"#utility.yul\":6625:6644   */\n      add\n        /* \"#utility.yul\":6616:6622   */\n      dup8\n        /* \"#utility.yul\":6572:6645   */\n      tag_164\n      jump\t// in\n    tag_256:\n        /* \"#utility.yul\":6655:6728   */\n      tag_257\n        /* \"#utility.yul\":6723:6726   */\n      0xa0\n        /* \"#utility.yul\":6712:6721   */\n      dup4\n        /* \"#utility.yul\":6708:6727   */\n      add\n        /* \"#utility.yul\":6699:6705   */\n      dup7\n        /* \"#utility.yul\":6655:6728   */\n      tag_164\n      jump\t// in\n    tag_257:\n        /* \"#utility.yul\":6738:6811   */\n      tag_258\n        /* \"#utility.yul\":6806:6809   */\n      0xc0\n        /* \"#utility.yul\":6795:6804   */\n      dup4\n        /* \"#utility.yul\":6791:6810   */\n      add\n        /* \"#utility.yul\":6782:6788   */\n      dup6\n        /* \"#utility.yul\":6738:6811   */\n      tag_164\n      jump\t// in\n    tag_258:\n        /* \"#utility.yul\":6821:6894   */\n      tag_259\n        /* \"#utility.yul\":6889:6892   */\n      0xe0\n        /* \"#utility.yul\":6878:6887   */\n      dup4\n        /* \"#utility.yul\":6874:6893   */\n      add\n        /* \"#utility.yul\":6865:6871   */\n      dup5\n        /* \"#utility.yul\":6821:6894   */\n      tag_170\n      jump\t// in\n    tag_259:\n        /* \"#utility.yul\":5813:6901   */\n      swap10\n      swap9\n      pop\n      pop\n      pop\n      pop\n      pop\n      pop\n      pop\n      pop\n      pop\n      jump\t// out\n        /* \"#utility.yul\":6907:7029   */\n    tag_171:\n        /* \"#utility.yul\":6980:7004   */\n      tag_261\n        /* \"#utility.yul\":6998:7003   */\n      dup2\n        /* \"#utility.yul\":6980:7004   */\n      tag_169\n      jump\t// in\n    tag_261:\n        /* \"#utility.yul\":6973:6978   */\n      dup2\n        /* \"#utility.yul\":6970:7005   */\n      eq\n        /* \"#utility.yul\":6960:7023   */\n      tag_262\n      jumpi\n        /* \"#utility.yul\":7019:7020   */\n      0x00\n        /* \"#utility.yul\":7016:7017   */\n      dup1\n        /* \"#utility.yul\":7009:7021   */\n      revert\n        /* \"#utility.yul\":6960:7023   */\n    tag_262:\n        /* \"#utility.yul\":6907:7029   */\n      pop\n      jump\t// out\n        /* \"#utility.yul\":7035:7174   */\n    tag_172:\n        /* \"#utility.yul\":7081:7086   */\n      0x00\n        /* \"#utility.yul\":7119:7125   */\n      dup2\n        /* \"#utility.yul\":7106:7126   */\n      calldataload\n        /* \"#utility.yul\":7097:7126   */\n      swap1\n      pop\n        /* \"#utility.yul\":7135:7168   */\n      tag_264\n        /* \"#utility.yul\":7162:7167   */\n      dup2\n        /* \"#utility.yul\":7135:7168   */\n      tag_171\n      jump\t// in\n    tag_264:\n        /* \"#utility.yul\":7035:7174   */\n      swap3\n      swap2\n      pop\n      pop\n      jump\t// out\n        /* \"#utility.yul\":7180:7509   */\n    tag_43:\n        /* \"#utility.yul\":7239:7245   */\n      0x00\n        /* \"#utility.yul\":7288:7290   */\n      0x20\n        /* \"#utility.yul\":7276:7285   */\n      dup3\n        /* \"#utility.yul\":7267:7274   */\n      dup5\n        /* \"#utility.yul\":7263:7286   */\n      sub\n        /* \"#utility.yul\":7259:7291   */\n      slt\n        /* \"#utility.yul\":7256:7375   */\n      iszero\n      tag_266\n      jumpi\n        /* \"#utility.yul\":7294:7373   */\n      tag_267\n      tag_145\n      jump\t// in\n    tag_267:\n        /* \"#utility.yul\":7256:7375   */\n    tag_266:\n        /* \"#utility.yul\":7414:7415   */\n      0x00\n        /* \"#utility.yul\":7439:7492   */\n      tag_268\n        /* \"#utility.yul\":7484:7491   */\n      dup5\n        /* \"#utility.yul\":7475:7481   */\n      dup3\n        /* \"#utility.yul\":7464:7473   */\n      dup6\n        /* \"#utility.yul\":7460:7482   */\n      add\n        /* \"#utility.yul\":7439:7492   */\n      tag_172\n      jump\t// in\n    tag_268:\n        /* \"#utility.yul\":7429:7492   */\n      swap2\n      pop\n        /* \"#utility.yul\":7385:7502   */\n      pop\n        /* \"#utility.yul\":7180:7509   */\n      swap3\n      swap2\n      pop\n      pop\n      jump\t// out\n        /* \"#utility.yul\":7515:7828   */\n    tag_50:\n        /* \"#utility.yul\":7628:7632   */\n      0x00\n        /* \"#utility.yul\":7666:7668   */\n      0x20\n        /* \"#utility.yul\":7655:7664   */\n      dup3\n        /* \"#utility.yul\":7651:7669   */\n      add\n        /* \"#utility.yul\":7643:7669   */\n      swap1\n      pop\n        /* \"#utility.yul\":7715:7724   */\n      dup2\n        /* \"#utility.yul\":7709:7713   */\n      dup2\n        /* \"#utility.yul\":7705:7725   */\n      sub\n        /* \"#utility.yul\":7701:7702   */\n      0x00\n        /* \"#utility.yul\":7690:7699   */\n      dup4\n        /* \"#utility.yul\":7686:7703   */\n      add\n        /* \"#utility.yul\":7679:7726   */\n      mstore\n        /* \"#utility.yul\":7743:7821   */\n      tag_270\n        /* \"#utility.yul\":7816:7820   */\n      dup2\n        /* \"#utility.yul\":7807:7813   */\n      dup5\n        /* \"#utility.yul\":7743:7821   */\n      tag_168\n      jump\t// in\n    tag_270:\n        /* \"#utility.yul\":7735:7821   */\n      swap1\n      pop\n        /* \"#utility.yul\":7515:7828   */\n      swap3\n      swap2\n      pop\n      pop\n      jump\t// out\n        /* \"#utility.yul\":7834:8163   */\n    tag_54:\n        /* \"#utility.yul\":7893:7899   */\n      0x00\n        /* \"#utility.yul\":7942:7944   */\n      0x20\n        /* \"#utility.yul\":7930:7939   */\n      dup3\n        /* \"#utility.yul\":7921:7928   */\n      dup5\n        /* \"#utility.yul\":7917:7940   */\n      sub\n        /* \"#utility.yul\":7913:7945   */\n      slt\n        /* \"#utility.yul\":7910:8029   */\n      iszero\n      tag_272\n      jumpi\n        /* \"#utility.yul\":7948:8027   */\n      tag_273\n      tag_145\n      jump\t// in\n    tag_273:\n        /* \"#utility.yul\":7910:8029   */\n    tag_272:\n        /* \"#utility.yul\":8068:8069   */\n      0x00\n        /* \"#utility.yul\":8093:8146   */\n      tag_274\n        /* \"#utility.yul\":8138:8145   */\n      dup5\n        /* \"#utility.yul\":8129:8135   */\n      dup3\n        /* \"#utility.yul\":8118:8127   */\n      dup6\n        /* \"#utility.yul\":8114:8136   */\n      add\n        /* \"#utility.yul\":8093:8146   */\n      tag_159\n      jump\t// in\n    tag_274:\n        /* \"#utility.yul\":8083:8146   */\n      swap2\n      pop\n        /* \"#utility.yul\":8039:8156   */\n      pop\n        /* \"#utility.yul\":7834:8163   */\n      swap3\n      swap2\n      pop\n      pop\n      jump\t// out\n        /* \"#utility.yul\":8169:8311   */\n    tag_173:\n        /* \"#utility.yul\":8272:8304   */\n      tag_276\n        /* \"#utility.yul\":8298:8303   */\n      dup2\n        /* \"#utility.yul\":8272:8304   */\n      tag_161\n      jump\t// in\n    tag_276:\n        /* \"#utility.yul\":8267:8270   */\n      dup3\n        /* \"#utility.yul\":8260:8305   */\n      mstore\n        /* \"#utility.yul\":8169:8311   */\n      pop\n      pop\n      jump\t// out\n        /* \"#utility.yul\":8317:8407   */\n    tag_174:\n        /* \"#utility.yul\":8351:8358   */\n      0x00\n        /* \"#utility.yul\":8394:8399   */\n      dup2\n        /* \"#utility.yul\":8387:8400   */\n      iszero\n        /* \"#utility.yul\":8380:8401   */\n      iszero\n        /* \"#utility.yul\":8369:8401   */\n      swap1\n      pop\n        /* \"#utility.yul\":8317:8407   */\n      swap2\n      swap1\n      pop\n      jump\t// out\n        /* \"#utility.yul\":8413:8522   */\n    tag_175:\n        /* \"#utility.yul\":8494:8515   */\n      tag_279\n        /* \"#utility.yul\":8509:8514   */\n      dup2\n        /* \"#utility.yul\":8494:8515   */\n      tag_174\n      jump\t// in\n    tag_279:\n        /* \"#utility.yul\":8489:8492   */\n      dup3\n        /* \"#utility.yul\":8482:8516   */\n      mstore\n        /* \"#utility.yul\":8413:8522   */\n      pop\n      pop\n      jump\t// out\n        /* \"#utility.yul\":8528:9303   */\n    tag_57:\n        /* \"#utility.yul\":8763:8767   */\n      0x00\n        /* \"#utility.yul\":8801:8804   */\n      0xa0\n        /* \"#utility.yul\":8790:8799   */\n      dup3\n        /* \"#utility.yul\":8786:8805   */\n      add\n        /* \"#utility.yul\":8778:8805   */\n      swap1\n      pop\n        /* \"#utility.yul\":8851:8860   */\n      dup2\n        /* \"#utility.yul\":8845:8849   */\n      dup2\n        /* \"#utility.yul\":8841:8861   */\n      sub\n        /* \"#utility.yul\":8837:8838   */\n      0x00\n        /* \"#utility.yul\":8826:8835   */\n      dup4\n        /* \"#utility.yul\":8822:8839   */\n      add\n        /* \"#utility.yul\":8815:8862   */\n      mstore\n        /* \"#utility.yul\":8879:8957   */\n      tag_281\n        /* \"#utility.yul\":8952:8956   */\n      dup2\n        /* \"#utility.yul\":8943:8949   */\n      dup9\n        /* \"#utility.yul\":8879:8957   */\n      tag_168\n      jump\t// in\n    tag_281:\n        /* \"#utility.yul\":8871:8957   */\n      swap1\n      pop\n        /* \"#utility.yul\":8967:9039   */\n      tag_282\n        /* \"#utility.yul\":9035:9037   */\n      0x20\n        /* \"#utility.yul\":9024:9033   */\n      dup4\n        /* \"#utility.yul\":9020:9038   */\n      add\n        /* \"#utility.yul\":9011:9017   */\n      dup8\n        /* \"#utility.yul\":8967:9039   */\n      tag_164\n      jump\t// in\n    tag_282:\n        /* \"#utility.yul\":9049:9137   */\n      tag_283\n        /* \"#utility.yul\":9133:9135   */\n      0x40\n        /* \"#utility.yul\":9122:9131   */\n      dup4\n        /* \"#utility.yul\":9118:9136   */\n      add\n        /* \"#utility.yul\":9109:9115   */\n      dup7\n        /* \"#utility.yul\":9049:9137   */\n      tag_173\n      jump\t// in\n    tag_283:\n        /* \"#utility.yul\":9147:9213   */\n      tag_284\n        /* \"#utility.yul\":9209:9211   */\n      0x60\n        /* \"#utility.yul\":9198:9207   */\n      dup4\n        /* \"#utility.yul\":9194:9212   */\n      add\n        /* \"#utility.yul\":9185:9191   */\n      dup6\n        /* \"#utility.yul\":9147:9213   */\n      tag_175\n      jump\t// in\n    tag_284:\n        /* \"#utility.yul\":9223:9296   */\n      tag_285\n        /* \"#utility.yul\":9291:9294   */\n      0x80\n        /* \"#utility.yul\":9280:9289   */\n      dup4\n        /* \"#utility.yul\":9276:9295   */\n      add\n        /* \"#utility.yul\":9267:9273   */\n      dup5\n        /* \"#utility.yul\":9223:9296   */\n      tag_164\n      jump\t// in\n    tag_285:\n        /* \"#utility.yul\":8528:9303   */\n      swap7\n      swap6\n      pop\n      pop\n      pop\n      pop\n      pop\n      pop\n      jump\t// out\n        /* \"#utility.yul\":9309:9531   */\n    tag_62:\n        /* \"#utility.yul\":9402:9406   */\n      0x00\n        /* \"#utility.yul\":9440:9442   */\n      0x20\n        /* \"#utility.yul\":9429:9438   */\n      dup3\n        /* \"#utility.yul\":9425:9443   */\n      add\n        /* \"#utility.yul\":9417:9443   */\n      swap1\n      pop\n        /* \"#utility.yul\":9453:9524   */\n      tag_287\n        /* \"#utility.yul\":9521:9522   */\n      0x00\n        /* \"#utility.yul\":9510:9519   */\n      dup4\n        /* \"#utility.yul\":9506:9523   */\n      add\n        /* \"#utility.yul\":9497:9503   */\n      dup5\n        /* \"#utility.yul\":9453:9524   */\n      tag_170\n      jump\t// in\n    tag_287:\n        /* \"#utility.yul\":9309:9531   */\n      swap3\n      swap2\n      pop\n      pop\n      jump\t// out\n        /* \"#utility.yul\":9537:9717   */\n    tag_83:\n        /* \"#utility.yul\":9585:9662   */\n      0x4e487b7100000000000000000000000000000000000000000000000000000000\n        /* \"#utility.yul\":9582:9583   */\n      0x00\n        /* \"#utility.yul\":9575:9663   */\n      mstore\n        /* \"#utility.yul\":9682:9686   */\n      0x32\n        /* \"#utility.yul\":9679:9680   */\n      0x04\n        /* \"#utility.yul\":9672:9687   */\n      mstore\n        /* \"#utility.yul\":9706:9710   */\n      0x24\n        /* \"#utility.yul\":9703:9704   */\n      0x00\n        /* \"#utility.yul\":9696:9711   */\n      revert\n        /* \"#utility.yul\":9723:9903   */\n    tag_176:\n        /* \"#utility.yul\":9771:9848   */\n      0x4e487b7100000000000000000000000000000000000000000000000000000000\n        /* \"#utility.yul\":9768:9769   */\n      0x00\n        /* \"#utility.yul\":9761:9849   */\n      mstore\n        /* \"#utility.yul\":9868:9872   */\n      0x22\n        /* \"#utility.yul\":9865:9866   */\n      0x04\n        /* \"#utility.yul\":9858:9873   */\n      mstore\n        /* \"#utility.yul\":9892:9896   */\n      0x24\n        /* \"#utility.yul\":9889:9890   */\n      0x00\n        /* \"#utility.yul\":9882:9897   */\n      revert\n        /* \"#utility.yul\":9909:10229   */\n    tag_89:\n        /* \"#utility.yul\":9953:9959   */\n      0x00\n        /* \"#utility.yul\":9990:9991   */\n      0x02\n        /* \"#utility.yul\":9984:9988   */\n      dup3\n        /* \"#utility.yul\":9980:9992   */\n      div\n        /* \"#utility.yul\":9970:9992   */\n      swap1\n      pop\n        /* \"#utility.yul\":10037:10038   */\n      0x01\n        /* \"#utility.yul\":10031:10035   */\n      dup3\n        /* \"#utility.yul\":10027:10039   */\n      and\n        /* \"#utility.yul\":10058:10076   */\n      dup1\n        /* \"#utility.yul\":10048:10129   */\n      tag_291\n      jumpi\n        /* \"#utility.yul\":10114:10118   */\n      0x7f\n        /* \"#utility.yul\":10106:10112   */\n      dup3\n        /* \"#utility.yul\":10102:10119   */\n      and\n        /* \"#utility.yul\":10092:10119   */\n      swap2\n      pop\n        /* \"#utility.yul\":10048:10129   */\n    tag_291:\n        /* \"#utility.yul\":10176:10178   */\n      0x20\n        /* \"#utility.yul\":10168:10174   */\n      dup3\n        /* \"#utility.yul\":10165:10179   */\n      lt\n        /* \"#utility.yul\":10145:10163   */\n      dup2\n        /* \"#utility.yul\":10142:10180   */\n      sub\n        /* \"#utility.yul\":10139:10223   */\n      tag_292\n      jumpi\n        /* \"#utility.yul\":10195:10213   */\n      tag_293\n      tag_176\n      jump\t// in\n    tag_293:\n        /* \"#utility.yul\":10139:10223   */\n    tag_292:\n        /* \"#utility.yul\":9960:10229   */\n      pop\n        /* \"#utility.yul\":9909:10229   */\n      swap2\n      swap1\n      pop\n      jump\t// out\n        /* \"#utility.yul\":10235:10415   */\n    tag_177:\n        /* \"#utility.yul\":10283:10360   */\n      0x4e487b7100000000000000000000000000000000000000000000000000000000\n        /* \"#utility.yul\":10280:10281   */\n      0x00\n        /* \"#utility.yul\":10273:10361   */\n      mstore\n        /* \"#utility.yul\":10380:10384   */\n      0x12\n        /* \"#utility.yul\":10377:10378   */\n      0x04\n        /* \"#utility.yul\":10370:10385   */\n      mstore\n        /* \"#utility.yul\":10404:10408   */\n      0x24\n        /* \"#utility.yul\":10401:10402   */\n      0x00\n        /* \"#utility.yul\":10394:10409   */\n      revert\n        /* \"#utility.yul\":10421:10601   */\n    tag_178:\n        /* \"#utility.yul\":10469:10546   */\n      0x4e487b7100000000000000000000000000000000000000000000000000000000\n        /* \"#utility.yul\":10466:10467   */\n      0x00\n        /* \"#utility.yul\":10459:10547   */\n      mstore\n        /* \"#utility.yul\":10566:10570   */\n      0x11\n        /* \"#utility.yul\":10563:10564   */\n      0x04\n        /* \"#utility.yul\":10556:10571   */\n      mstore\n        /* \"#utility.yul\":10590:10594   */\n      0x24\n        /* \"#utility.yul\":10587:10588   */\n      0x00\n        /* \"#utility.yul\":10580:10595   */\n      revert\n        /* \"#utility.yul\":10607:10792   */\n    tag_116:\n        /* \"#utility.yul\":10647:10648   */\n      0x00\n        /* \"#utility.yul\":10664:10684   */\n      tag_297\n        /* \"#utility.yul\":10682:10683   */\n      dup3\n        /* \"#utility.yul\":10664:10684   */\n      tag_157\n      jump\t// in\n    tag_297:\n        /* \"#utility.yul\":10659:10684   */\n      swap2\n      pop\n        /* \"#utility.yul\":10698:10718   */\n      tag_298\n        /* \"#utility.yul\":10716:10717   */\n      dup4\n        /* \"#utility.yul\":10698:10718   */\n      tag_157\n      jump\t// in\n    tag_298:\n        /* \"#utility.yul\":10693:10718   */\n      swap3\n      pop\n        /* \"#utility.yul\":10737:10738   */\n      dup3\n        /* \"#utility.yul\":10727:10762   */\n      tag_299\n      jumpi\n        /* \"#utility.yul\":10742:10760   */\n      tag_300\n      tag_177\n      jump\t// in\n    tag_300:\n        /* \"#utility.yul\":10727:10762   */\n    tag_299:\n        /* \"#utility.yul\":10784:10785   */\n      dup3\n        /* \"#utility.yul\":10781:10782   */\n      dup3\n        /* \"#utility.yul\":10777:10786   */\n      div\n        /* \"#utility.yul\":10772:10786   */\n      swap1\n      pop\n        /* \"#utility.yul\":10607:10792   */\n      swap3\n      swap2\n      pop\n      pop\n      jump\t// out\n        /* \"#utility.yul\":10798:11103   */\n    tag_124:\n        /* \"#utility.yul\":10838:10841   */\n      0x00\n        /* \"#utility.yul\":10857:10877   */\n      tag_302\n        /* \"#utility.yul\":10875:10876   */\n      dup3\n        /* \"#utility.yul\":10857:10877   */\n      tag_157\n      jump\t// in\n    tag_302:\n        /* \"#utility.yul\":10852:10877   */\n      swap2\n      pop\n        /* \"#utility.yul\":10891:10911   */\n      tag_303\n        /* \"#utility.yul\":10909:10910   */\n      dup4\n        /* \"#utility.yul\":10891:10911   */\n      tag_157\n      jump\t// in\n    tag_303:\n        /* \"#utility.yul\":10886:10911   */\n      swap3\n      pop\n        /* \"#utility.yul\":11045:11046   */\n      dup3\n        /* \"#utility.yul\":10977:11043   */\n      0xffffffffffffffffffffffffffffffffffffffffffffffffffffffffffffffff\n        /* \"#utility.yul\":10973:11047   */\n      sub\n        /* \"#utility.yul\":10970:10971   */\n      dup3\n        /* \"#utility.yul\":10967:11048   */\n      gt\n        /* \"#utility.yul\":10964:11071   */\n      iszero\n      tag_304\n      jumpi\n        /* \"#utility.yul\":11051:11069   */\n      tag_305\n      tag_178\n      jump\t// in\n    tag_305:\n        /* \"#utility.yul\":10964:11071   */\n    tag_304:\n        /* \"#utility.yul\":11095:11096   */\n      dup3\n        /* \"#utility.yul\":11092:11093   */\n      dup3\n        /* \"#utility.yul\":11088:11097   */\n      add\n        /* \"#utility.yul\":11081:11097   */\n      swap1\n      pop\n        /* \"#utility.yul\":10798:11103   */\n      swap3\n      swap2\n      pop\n      pop\n      jump\t// out\n\n    auxdata: 0xa2646970667358221220e670e62521160016549aef87c1da4c6c851d765b71c8a04ff481eaaa73abbe7d64736f6c634300080d0033\n}\n","bytecode":{"linkReferences":{},"object":"60806040523480156200001157600080fd5b506040516200168c3803806200168c83398181016040528101906200003791906200039d565b806000806101000a81548173ffffffffffffffffffffffffffffffffffffffff021916908373ffffffffffffffffffffffffffffffffffffffff16021790555084600190805190602001906200008f929190620000b0565b508360028190555082600381905550816004819055505050505050620004a8565b828054620000be9062000473565b90600052602060002090601f016020900481019282620000e257600085556200012e565b82601f10620000fd57805160ff19168380011785556200012e565b828001600101855582156200012e579182015b828111156200012d57825182559160200191906001019062000110565b5b5090506200013d919062000141565b5090565b5b808211156200015c57600081600090555060010162000142565b5090565b6000604051905090565b600080fd5b600080fd5b600080fd5b600080fd5b6000601f19601f8301169050919050565b7f4e487b7100000000000000000000000000000000000000000000000000000000600052604160045260246000fd5b620001c9826200017e565b810181811067ffffffffffffffff82111715620001eb57620001ea6200018f565b5b80604052505050565b60006200020062000160565b90506200020e8282620001be565b919050565b600067ffffffffffffffff8211156200023157620002306200018f565b5b6200023c826200017e565b9050602081019050919050565b60005b83811015620002695780820151818401526020810190506200024c565b8381111562000279576000848401525b50505050565b600062000296620002908462000213565b620001f4565b905082815260208101848484011115620002b557620002b462000179565b5b620002c284828562000249565b509392505050565b600082601f830112620002e257620002e162000174565b5b8151620002f48482602086016200027f565b91505092915050565b6000819050919050565b6200031281620002fd565b81146200031e57600080fd5b50565b600081519050620003328162000307565b92915050565b600073ffffffffffffffffffffffffffffffffffffffff82169050919050565b6000620003658262000338565b9050919050565b620003778162000358565b81146200038357600080fd5b50565b60008151905062000397816200036c565b92915050565b600080600080600060a08688031215620003bc57620003bb6200016a565b5b600086015167ffffffffffffffff811115620003dd57620003dc6200016f565b5b620003eb88828901620002ca565b9550506020620003fe8882890162000321565b9450506040620004118882890162000321565b9350506060620004248882890162000321565b9250506080620004378882890162000386565b9150509295509295909350565b7f4e487b7100000000000000000000000000000000000000000000000000000000600052602260045260246000fd5b600060028204905060018216806200048c57607f821691505b602082108103620004a257620004a162000444565b5b50919050565b6111d480620004b86000396000f3fe6080604052600436106100c25760003560e01c80637284e4161161007f578063d2b8b86711610059578063d2b8b86714610277578063d7bb99ba146102a0578063d7e64c00146102aa578063de14c818146102d5576100c2565b80637284e416146101e057806387d817891461020b5780638da5cb5b1461024c576100c2565b806303120d46146100c75780633110235a146100f0578063401938831461011b5780634051ddac1461014657806363fd9e38146101785780636f7bc9be146101a3575b600080fd5b3480156100d357600080fd5b506100ee60048036038101906100e99190610d1c565b6102fe565b005b3480156100fc57600080fd5b50610105610437565b6040516101129190610d9a565b60405180910390f35b34801561012757600080fd5b5061013061043d565b60405161013d9190610d9a565b60405180910390f35b34801561015257600080fd5b5061015b610443565b60405161016f989796959493929190610e5e565b60405180910390f35b34801561018457600080fd5b5061018d61052c565b60405161019a9190610d9a565b60405180910390f35b3480156101af57600080fd5b506101ca60048036038101906101c59190610f0f565b610532565b6040516101d79190610d9a565b60405180910390f35b3480156101ec57600080fd5b506101f561054a565b6040516102029190610f3c565b60405180910390f35b34801561021757600080fd5b50610232600480360381019061022d9190610f5e565b6105d8565b604051610243959493929190610fb5565b60405180910390f35b34801561025857600080fd5b506102616106d3565b60405161026e919061100f565b60405180910390f35b34801561028357600080fd5b5061029e60048036038101906102999190610f5e565b6106f7565b005b6102a86108a8565b005b3480156102b657600080fd5b506102bf610940565b6040516102cc9190610d9a565b60405180910390f35b3480156102e157600080fd5b506102fc60048036038101906102f79190610f5e565b610946565b005b60008054906101000a900473ffffffffffffffffffffffffffffffffffffffff1673ffffffffffffffffffffffffffffffffffffffff163373ffffffffffffffffffffffffffffffffffffffff161461035657600080fd5b600060078054905090506007600181600181540180825580915050039060005260206000209050506000600782815481106103945761039361102a565b5b90600052602060002090600502019050848160000190805190602001906103bc929190610a8b565b50838160010181905550828160020160006101000a81548173ffffffffffffffffffffffffffffffffffffffff021916908373ffffffffffffffffffffffffffffffffffffffff16021790555060008160020160146101000a81548160ff021916908315150217905550600081600401819055505050505050565b60035481565b60045481565b6060600080600080600080600060016002546003546004544760055460078054905060008054906101000a900473ffffffffffffffffffffffffffffffffffffffff1687805461049290611088565b80601f01602080910402602001604051908101604052809291908181526020018280546104be90611088565b801561050b5780601f106104e05761010080835404028352916020019161050b565b820191906000526020600020905b8154815290600101906020018083116104ee57829003601f168201915b50505050509750975097509750975097509750975097509091929394959697565b60025481565b60066020528060005260406000206000915090505481565b6001805461055790611088565b80601f016020809104026020016040519081016040528092919081815260200182805461058390611088565b80156105d05780601f106105a5576101008083540402835291602001916105d0565b820191906000526020600020905b8154815290600101906020018083116105b357829003601f168201915b505050505081565b600781815481106105e857600080fd5b906000526020600020906005020160009150905080600001805461060b90611088565b80601f016020809104026020016040519081016040528092919081815260200182805461063790611088565b80156106845780601f1061065957610100808354040283529160200191610684565b820191906000526020600020905b81548152906001019060200180831161066757829003601f168201915b5050505050908060010154908060020160009054906101000a900473ffffffffffffffffffffffffffffffffffffffff16908060020160149054906101000a900460ff16908060040154905085565b60008054906101000a900473ffffffffffffffffffffffffffffffffffffffff1681565b60008054906101000a900473ffffffffffffffffffffffffffffffffffffffff1673ffffffffffffffffffffffffffffffffffffffff163373ffffffffffffffffffffffffffffffffffffffff161461074f57600080fd5b60008054906101000a900473ffffffffffffffffffffffffffffffffffffffff1673ffffffffffffffffffffffffffffffffffffffff163373ffffffffffffffffffffffffffffffffffffffff16146107a757600080fd5b6000600782815481106107bd576107bc61102a565b5b906000526020600020906005020190508060020160149054906101000a900460ff16156107e957600080fd5b80600101544710156107fa57600080fd5b60026005546108099190611117565b81600401541161081857600080fd5b8060020160009054906101000a900473ffffffffffffffffffffffffffffffffffffffff1673ffffffffffffffffffffffffffffffffffffffff166108fc82600101549081150290604051600060405180830381858888f19350505050158015610886573d6000803e3d6000fd5b5060018160020160146101000a81548160ff0219169083151502179055505050565b6002543410156108b757600080fd5b6003543411156108c657600080fd5b60045434476108d59190611148565b11156108e057600080fd5b34600660003373ffffffffffffffffffffffffffffffffffffffff1673ffffffffffffffffffffffffffffffffffffffff168152602001908152602001600020819055506001600560008282546109379190611148565b92505081905550565b60055481565b60006007828154811061095c5761095b61102a565b5b906000526020600020906005020190506000600660003373ffffffffffffffffffffffffffffffffffffffff1673ffffffffffffffffffffffffffffffffffffffff16815260200190815260200160002054116109b857600080fd5b8060030160003373ffffffffffffffffffffffffffffffffffffffff1673ffffffffffffffffffffffffffffffffffffffff16815260200190815260200160002060009054906101000a900460ff1615610a1157600080fd5b60018160030160003373ffffffffffffffffffffffffffffffffffffffff1673ffffffffffffffffffffffffffffffffffffffff16815260200190815260200160002060006101000a81548160ff0219169083151502179055506001816004016000828254610a809190611148565b925050819055505050565b828054610a9790611088565b90600052602060002090601f016020900481019282610ab95760008555610b00565b82601f10610ad257805160ff1916838001178555610b00565b82800160010185558215610b00579182015b82811115610aff578251825591602001919060010190610ae4565b5b509050610b0d9190610b11565b5090565b5b80821115610b2a576000816000905550600101610b12565b5090565b6000604051905090565b600080fd5b600080fd5b600080fd5b600080fd5b6000601f19601f8301169050919050565b7f4e487b7100000000000000000000000000000000000000000000000000000000600052604160045260246000fd5b610b9582610b4c565b810181811067ffffffffffffffff82111715610bb457610bb3610b5d565b5b80604052505050565b6000610bc7610b2e565b9050610bd38282610b8c565b919050565b600067ffffffffffffffff821115610bf357610bf2610b5d565b5b610bfc82610b4c565b9050602081019050919050565b82818337600083830152505050565b6000610c2b610c2684610bd8565b610bbd565b905082815260208101848484011115610c4757610c46610b47565b5b610c52848285610c09565b509392505050565b600082601f830112610c6f57610c6e610b42565b5b8135610c7f848260208601610c18565b91505092915050565b6000819050919050565b610c9b81610c88565b8114610ca657600080fd5b50565b600081359050610cb881610c92565b92915050565b600073ffffffffffffffffffffffffffffffffffffffff82169050919050565b6000610ce982610cbe565b9050919050565b610cf981610cde565b8114610d0457600080fd5b50565b600081359050610d1681610cf0565b92915050565b600080600060608486031215610d3557610d34610b38565b5b600084013567ffffffffffffffff811115610d5357610d52610b3d565b5b610d5f86828701610c5a565b9350506020610d7086828701610ca9565b9250506040610d8186828701610d07565b9150509250925092565b610d9481610c88565b82525050565b6000602082019050610daf6000830184610d8b565b92915050565b600081519050919050565b600082825260208201905092915050565b60005b83811015610def578082015181840152602081019050610dd4565b83811115610dfe576000848401525b50505050565b6000610e0f82610db5565b610e198185610dc0565b9350610e29818560208601610dd1565b610e3281610b4c565b840191505092915050565b6000610e4882610cbe565b9050919050565b610e5881610e3d565b82525050565b6000610100820190508181036000830152610e79818b610e04565b9050610e88602083018a610d8b565b610e956040830189610d8b565b610ea26060830188610d8b565b610eaf6080830187610d8b565b610ebc60a0830186610d8b565b610ec960c0830185610d8b565b610ed660e0830184610e4f565b9998505050505050505050565b610eec81610e3d565b8114610ef757600080fd5b50565b600081359050610f0981610ee3565b92915050565b600060208284031215610f2557610f24610b38565b5b6000610f3384828501610efa565b91505092915050565b60006020820190508181036000830152610f568184610e04565b905092915050565b600060208284031215610f7457610f73610b38565b5b6000610f8284828501610ca9565b91505092915050565b610f9481610cde565b82525050565b60008115159050919050565b610faf81610f9a565b82525050565b600060a0820190508181036000830152610fcf8188610e04565b9050610fde6020830187610d8b565b610feb6040830186610f8b565b610ff86060830185610fa6565b6110056080830184610d8b565b9695505050505050565b60006020820190506110246000830184610e4f565b92915050565b7f4e487b7100000000000000000000000000000000000000000000000000000000600052603260045260246000fd5b7f4e487b7100000000000000000000000000000000000000000000000000000000600052602260045260246000fd5b600060028204905060018216806110a057607f821691505b6020821081036110b3576110b2611059565b5b50919050565b7f4e487b7100000000000000000000000000000000000000000000000000000000600052601260045260246000fd5b7f4e487b7100000000000000000000000000000000000000000000000000000000600052601160045260246000fd5b600061112282610c88565b915061112d83610c88565b92508261113d5761113c6110b9565b5b828204905092915050565b600061115382610c88565b915061115e83610c88565b9250827fffffffffffffffffffffffffffffffffffffffffffffffffffffffffffffffff03821115611193576111926110e8565b5b82820190509291505056fea2646970667358221220e670e62521160016549aef87c1da4c6c851d765b71c8a04ff481eaaa73abbe7d64736f6c634300080d0033","opcodes":"PUSH1 0x80 PUSH1 0x40 MSTORE CALLVALUE DUP1 ISZERO PUSH3 0x11 JUMPI PUSH1 0x0 DUP1 REVERT JUMPDEST POP PUSH1 0x40 MLOAD PUSH3 0x168C CODESIZE SUB DUP1 PUSH3 0x168C DUP4 CODECOPY DUP2 DUP2 ADD PUSH1 0x40 MSTORE DUP2 ADD SWAP1 PUSH3 0x37 SWAP2 SWAP1 PUSH3 0x39D JUMP JUMPDEST DUP1 PUSH1 0x0 DUP1 PUSH2 0x100 EXP DUP2 SLOAD DUP2 PUSH20 0xFFFFFFFFFFFFFFFFFFFFFFFFFFFFFFFFFFFFFFFF MUL NOT AND SWAP1 DUP4 PUSH20 0xFFFFFFFFFFFFFFFFFFFFFFFFFFFFFFFFFFFFFFFF AND MUL OR SWAP1 SSTORE POP DUP5 PUSH1 0x1 SWAP1 DUP1 MLOAD SWAP1 PUSH1 0x20 ADD SWAP1 PUSH3 0x8F SWAP3 SWAP2 SWAP1 PUSH3 0xB0 JUMP JUMPDEST POP DUP4 PUSH1 0x2 DUP2 SWAP1 SSTORE POP DUP3 PUSH1 0x3 DUP2 SWAP1 SSTORE POP DUP2 PUSH1 0x4 DUP2 SWAP1 SSTORE POP POP POP POP POP POP PUSH3 0x4A8 JUMP JUMPDEST DUP3 DUP1 SLOAD PUSH3 0xBE SWAP1 PUSH3 0x473 JUMP JUMPDEST SWAP1 PUSH1 0x0 MSTORE PUSH1 0x20 PUSH1 0x0 KECCAK256 SWAP1 PUSH1 0x1F ADD PUSH1 0x20 SWAP1 DIV DUP2 ADD SWAP3 DUP3 PUSH3 0xE2 JUMPI PUSH1 0x0 DUP6 SSTORE PUSH3 0x12E JUMP JUMPDEST DUP3 PUSH1 0x1F LT PUSH3 0xFD JUMPI DUP1 MLOAD PUSH1 0xFF NOT AND DUP4 DUP1 ADD OR DUP6 SSTORE PUSH3 0x12E JUMP JUMPDEST DUP3 DUP1 ADD PUSH1 0x1 ADD DUP6 SSTORE DUP3 ISZERO PUSH3 0x12E JUMPI SWAP2 DUP3 ADD JUMPDEST DUP3 DUP2 GT ISZERO PUSH3 0x12D JUMPI DUP3 MLOAD DUP3 SSTORE SWAP2 PUSH1 0x20 ADD SWAP2 SWAP1 PUSH1 0x1 ADD SWAP1 PUSH3 0x110 JUMP JUMPDEST JUMPDEST POP SWAP1 POP PUSH3 0x13D SWAP2 SWAP1 PUSH3 0x141 JUMP JUMPDEST POP SWAP1 JUMP JUMPDEST JUMPDEST DUP1 DUP3 GT ISZERO PUSH3 0x15C JUMPI PUSH1 0x0 DUP2 PUSH1 0x0 SWAP1 SSTORE POP PUSH1 0x1 ADD PUSH3 0x142 JUMP JUMPDEST POP SWAP1 JUMP JUMPDEST PUSH1 0x0 PUSH1 0x40 MLOAD SWAP1 POP SWAP1 JUMP JUMPDEST PUSH1 0x0 DUP1 REVERT JUMPDEST PUSH1 0x0 DUP1 REVERT JUMPDEST PUSH1 0x0 DUP1 REVERT JUMPDEST PUSH1 0x0 DUP1 REVERT JUMPDEST PUSH1 0x0 PUSH1 0x1F NOT PUSH1 0x1F DUP4 ADD AND SWAP1 POP SWAP2 SWAP1 POP JUMP JUMPDEST PUSH32 0x4E487B7100000000000000000000000000000000000000000000000000000000 PUSH1 0x0 MSTORE PUSH1 0x41 PUSH1 0x4 MSTORE PUSH1 0x24 PUSH1 0x0 REVERT JUMPDEST PUSH3 0x1C9 DUP3 PUSH3 0x17E JUMP JUMPDEST DUP2 ADD DUP2 DUP2 LT PUSH8 0xFFFFFFFFFFFFFFFF DUP3 GT OR ISZERO PUSH3 0x1EB JUMPI PUSH3 0x1EA PUSH3 0x18F JUMP JUMPDEST JUMPDEST DUP1 PUSH1 0x40 MSTORE POP POP POP JUMP JUMPDEST PUSH1 0x0 PUSH3 0x200 PUSH3 0x160 JUMP JUMPDEST SWAP1 POP PUSH3 0x20E DUP3 DUP3 PUSH3 0x1BE JUMP JUMPDEST SWAP2 SWAP1 POP JUMP JUMPDEST PUSH1 0x0 PUSH8 0xFFFFFFFFFFFFFFFF DUP3 GT ISZERO PUSH3 0x231 JUMPI PUSH3 0x230 PUSH3 0x18F JUMP JUMPDEST JUMPDEST PUSH3 0x23C DUP3 PUSH3 0x17E JUMP JUMPDEST SWAP1 POP PUSH1 0x20 DUP2 ADD SWAP1 POP SWAP2 SWAP1 POP JUMP JUMPDEST PUSH1 0x0 JUMPDEST DUP4 DUP2 LT ISZERO PUSH3 0x269 JUMPI DUP1 DUP3 ADD MLOAD DUP2 DUP5 ADD MSTORE PUSH1 0x20 DUP2 ADD SWAP1 POP PUSH3 0x24C JUMP JUMPDEST DUP4 DUP2 GT ISZERO PUSH3 0x279 JUMPI PUSH1 0x0 DUP5 DUP5 ADD MSTORE JUMPDEST POP POP POP POP JUMP JUMPDEST PUSH1 0x0 PUSH3 0x296 PUSH3 0x290 DUP5 PUSH3 0x213 JUMP JUMPDEST PUSH3 0x1F4 JUMP JUMPDEST SWAP1 POP DUP3 DUP2 MSTORE PUSH1 0x20 DUP2 ADD DUP5 DUP5 DUP5 ADD GT ISZERO PUSH3 0x2B5 JUMPI PUSH3 0x2B4 PUSH3 0x179 JUMP JUMPDEST JUMPDEST PUSH3 0x2C2 DUP5 DUP3 DUP6 PUSH3 0x249 JUMP JUMPDEST POP SWAP4 SWAP3 POP POP POP JUMP JUMPDEST PUSH1 0x0 DUP3 PUSH1 0x1F DUP4 ADD SLT PUSH3 0x2E2 JUMPI PUSH3 0x2E1 PUSH3 0x174 JUMP JUMPDEST JUMPDEST DUP2 MLOAD PUSH3 0x2F4 DUP5 DUP3 PUSH1 0x20 DUP7 ADD PUSH3 0x27F JUMP JUMPDEST SWAP2 POP POP SWAP3 SWAP2 POP POP JUMP JUMPDEST PUSH1 0x0 DUP2 SWAP1 POP SWAP2 SWAP1 POP JUMP JUMPDEST PUSH3 0x312 DUP2 PUSH3 0x2FD JUMP JUMPDEST DUP2 EQ PUSH3 0x31E JUMPI PUSH1 0x0 DUP1 REVERT JUMPDEST POP JUMP JUMPDEST PUSH1 0x0 DUP2 MLOAD SWAP1 POP PUSH3 0x332 DUP2 PUSH3 0x307 JUMP JUMPDEST SWAP3 SWAP2 POP POP JUMP JUMPDEST PUSH1 0x0 PUSH20 0xFFFFFFFFFFFFFFFFFFFFFFFFFFFFFFFFFFFFFFFF DUP3 AND SWAP1 POP SWAP2 SWAP1 POP JUMP JUMPDEST PUSH1 0x0 PUSH3 0x365 DUP3 PUSH3 0x338 JUMP JUMPDEST SWAP1 POP SWAP2 SWAP1 POP JUMP JUMPDEST PUSH3 0x377 DUP2 PUSH3 0x358 JUMP JUMPDEST DUP2 EQ PUSH3 0x383 JUMPI PUSH1 0x0 DUP1 REVERT JUMPDEST POP JUMP JUMPDEST PUSH1 0x0 DUP2 MLOAD SWAP1 POP PUSH3 0x397 DUP2 PUSH3 0x36C JUMP JUMPDEST SWAP3 SWAP2 POP POP JUMP JUMPDEST PUSH1 0x0 DUP1 PUSH1 0x0 DUP1 PUSH1 0x0 PUSH1 0xA0 DUP7 DUP9 SUB SLT ISZERO PUSH3 0x3BC JUMPI PUSH3 0x3BB PUSH3 0x16A JUMP JUMPDEST JUMPDEST PUSH1 0x0 DUP7 ADD MLOAD PUSH8 0xFFFFFFFFFFFFFFFF DUP2 GT ISZERO PUSH3 0x3DD JUMPI PUSH3 0x3DC PUSH3 0x16F JUMP JUMPDEST JUMPDEST PUSH3 0x3EB DUP9 DUP3 DUP10 ADD PUSH3 0x2CA JUMP JUMPDEST SWAP6 POP POP PUSH1 0x20 PUSH3 0x3FE DUP9 DUP3 DUP10 ADD PUSH3 0x321 JUMP JUMPDEST SWAP5 POP POP PUSH1 0x40 PUSH3 0x411 DUP9 DUP3 DUP10 ADD PUSH3 0x321 JUMP JUMPDEST SWAP4 POP POP PUSH1 0x60 PUSH3 0x424 DUP9 DUP3 DUP10 ADD PUSH3 0x321 JUMP JUMPDEST SWAP3 POP POP PUSH1 0x80 PUSH3 0x437 DUP9 DUP3 DUP10 ADD PUSH3 0x386 JUMP JUMPDEST SWAP2 POP POP SWAP3 SWAP6 POP SWAP3 SWAP6 SWAP1 SWAP4 POP JUMP JUMPDEST PUSH32 0x4E487B7100000000000000000000000000000000000000000000000000000000 PUSH1 0x0 MSTORE PUSH1 0x22 PUSH1 0x4 MSTORE PUSH1 0x24 PUSH1 0x0 REVERT JUMPDEST PUSH1 0x0 PUSH1 0x2 DUP3 DIV SWAP1 POP PUSH1 0x1 DUP3 AND DUP1 PUSH3 0x48C JUMPI PUSH1 0x7F DUP3 AND SWAP2 POP JUMPDEST PUSH1 0x20 DUP3 LT DUP2 SUB PUSH3 0x4A2 JUMPI PUSH3 0x4A1 PUSH3 0x444 JUMP JUMPDEST JUMPDEST POP SWAP2 SWAP1 POP JUMP JUMPDEST PUSH2 0x11D4 DUP1 PUSH3 0x4B8 PUSH1 0x0 CODECOPY PUSH1 0x0 RETURN INVALID PUSH1 0x80 PUSH1 0x40 MSTORE PUSH1 0x4 CALLDATASIZE LT PUSH2 0xC2 JUMPI PUSH1 0x0 CALLDATALOAD PUSH1 0xE0 SHR DUP1 PUSH4 0x7284E416 GT PUSH2 0x7F JUMPI DUP1 PUSH4 0xD2B8B867 GT PUSH2 0x59 JUMPI DUP1 PUSH4 0xD2B8B867 EQ PUSH2 0x277 JUMPI DUP1 PUSH4 0xD7BB99BA EQ PUSH2 0x2A0 JUMPI DUP1 PUSH4 0xD7E64C00 EQ PUSH2 0x2AA JUMPI DUP1 PUSH4 0xDE14C818 EQ PUSH2 0x2D5 JUMPI PUSH2 0xC2 JUMP JUMPDEST DUP1 PUSH4 0x7284E416 EQ PUSH2 0x1E0 JUMPI DUP1 PUSH4 0x87D81789 EQ PUSH2 0x20B JUMPI DUP1 PUSH4 0x8DA5CB5B EQ PUSH2 0x24C JUMPI PUSH2 0xC2 JUMP JUMPDEST DUP1 PUSH4 0x3120D46 EQ PUSH2 0xC7 JUMPI DUP1 PUSH4 0x3110235A EQ PUSH2 0xF0 JUMPI DUP1 PUSH4 0x40193883 EQ PUSH2 0x11B JUMPI DUP1 PUSH4 0x4051DDAC EQ PUSH2 0x146 JUMPI DUP1 PUSH4 0x63FD9E38 EQ PUSH2 0x178 JUMPI DUP1 PUSH4 0x6F7BC9BE EQ PUSH2 0x1A3 JUMPI JUMPDEST PUSH1 0x0 DUP1 REVERT JUMPDEST CALLVALUE DUP1 ISZERO PUSH2 0xD3 JUMPI PUSH1 0x0 DUP1 REVERT JUMPDEST POP PUSH2 0xEE PUSH1 0x4 DUP1 CALLDATASIZE SUB DUP2 ADD SWAP1 PUSH2 0xE9 SWAP2 SWAP1 PUSH2 0xD1C JUMP JUMPDEST PUSH2 0x2FE JUMP JUMPDEST STOP JUMPDEST CALLVALUE DUP1 ISZERO PUSH2 0xFC JUMPI PUSH1 0x0 DUP1 REVERT JUMPDEST POP PUSH2 0x105 PUSH2 0x437 JUMP JUMPDEST PUSH1 0x40 MLOAD PUSH2 0x112 SWAP2 SWAP1 PUSH2 0xD9A JUMP JUMPDEST PUSH1 0x40 MLOAD DUP1 SWAP2 SUB SWAP1 RETURN JUMPDEST CALLVALUE DUP1 ISZERO PUSH2 0x127 JUMPI PUSH1 0x0 DUP1 REVERT JUMPDEST POP PUSH2 0x130 PUSH2 0x43D JUMP JUMPDEST PUSH1 0x40 MLOAD PUSH2 0x13D SWAP2 SWAP1 PUSH2 0xD9A JUMP JUMPDEST PUSH1 0x40 MLOAD DUP1 SWAP2 SUB SWAP1 RETURN JUMPDEST CALLVALUE DUP1 ISZERO PUSH2 0x152 JUMPI PUSH1 0x0 DUP1 REVERT JUMPDEST POP PUSH2 0x15B PUSH2 0x443 JUMP JUMPDEST PUSH1 0x40 MLOAD PUSH2 0x16F SWAP9 SWAP8 SWAP7 SWAP6 SWAP5 SWAP4 SWAP3 SWAP2 SWAP1 PUSH2 0xE5E JUMP JUMPDEST PUSH1 0x40 MLOAD DUP1 SWAP2 SUB SWAP1 RETURN JUMPDEST CALLVALUE DUP1 ISZERO PUSH2 0x184 JUMPI PUSH1 0x0 DUP1 REVERT JUMPDEST POP PUSH2 0x18D PUSH2 0x52C JUMP JUMPDEST PUSH1 0x40 MLOAD PUSH2 0x19A SWAP2 SWAP1 PUSH2 0xD9A JUMP JUMPDEST PUSH1 0x40 MLOAD DUP1 SWAP2 SUB SWAP1 RETURN JUMPDEST CALLVALUE DUP1 ISZERO PUSH2 0x1AF JUMPI PUSH1 0x0 DUP1 REVERT JUMPDEST POP PUSH2 0x1CA PUSH1 0x4 DUP1 CALLDATASIZE SUB DUP2 ADD SWAP1 PUSH2 0x1C5 SWAP2 SWAP1 PUSH2 0xF0F JUMP JUMPDEST PUSH2 0x532 JUMP JUMPDEST PUSH1 0x40 MLOAD PUSH2 0x1D7 SWAP2 SWAP1 PUSH2 0xD9A JUMP JUMPDEST PUSH1 0x40 MLOAD DUP1 SWAP2 SUB SWAP1 RETURN JUMPDEST CALLVALUE DUP1 ISZERO PUSH2 0x1EC JUMPI PUSH1 0x0 DUP1 REVERT JUMPDEST POP PUSH2 0x1F5 PUSH2 0x54A JUMP JUMPDEST PUSH1 0x40 MLOAD PUSH2 0x202 SWAP2 SWAP1 PUSH2 0xF3C JUMP JUMPDEST PUSH1 0x40 MLOAD DUP1 SWAP2 SUB SWAP1 RETURN JUMPDEST CALLVALUE DUP1 ISZERO PUSH2 0x217 JUMPI PUSH1 0x0 DUP1 REVERT JUMPDEST POP PUSH2 0x232 PUSH1 0x4 DUP1 CALLDATASIZE SUB DUP2 ADD SWAP1 PUSH2 0x22D SWAP2 SWAP1 PUSH2 0xF5E JUMP JUMPDEST PUSH2 0x5D8 JUMP JUMPDEST PUSH1 0x40 MLOAD PUSH2 0x243 SWAP6 SWAP5 SWAP4 SWAP3 SWAP2 SWAP1 PUSH2 0xFB5 JUMP JUMPDEST PUSH1 0x40 MLOAD DUP1 SWAP2 SUB SWAP1 RETURN JUMPDEST CALLVALUE DUP1 ISZERO PUSH2 0x258 JUMPI PUSH1 0x0 DUP1 REVERT JUMPDEST POP PUSH2 0x261 PUSH2 0x6D3 JUMP JUMPDEST PUSH1 0x40 MLOAD PUSH2 0x26E SWAP2 SWAP1 PUSH2 0x100F JUMP JUMPDEST PUSH1 0x40 MLOAD DUP1 SWAP2 SUB SWAP1 RETURN JUMPDEST CALLVALUE DUP1 ISZERO PUSH2 0x283 JUMPI PUSH1 0x0 DUP1 REVERT JUMPDEST POP PUSH2 0x29E PUSH1 0x4 DUP1 CALLDATASIZE SUB DUP2 ADD SWAP1 PUSH2 0x299 SWAP2 SWAP1 PUSH2 0xF5E JUMP JUMPDEST PUSH2 0x6F7 JUMP JUMPDEST STOP JUMPDEST PUSH2 0x2A8 PUSH2 0x8A8 JUMP JUMPDEST STOP JUMPDEST CALLVALUE DUP1 ISZERO PUSH2 0x2B6 JUMPI PUSH1 0x0 DUP1 REVERT JUMPDEST POP PUSH2 0x2BF PUSH2 0x940 JUMP JUMPDEST PUSH1 0x40 MLOAD PUSH2 0x2CC SWAP2 SWAP1 PUSH2 0xD9A JUMP JUMPDEST PUSH1 0x40 MLOAD DUP1 SWAP2 SUB SWAP1 RETURN JUMPDEST CALLVALUE DUP1 ISZERO PUSH2 0x2E1 JUMPI PUSH1 0x0 DUP1 REVERT JUMPDEST POP PUSH2 0x2FC PUSH1 0x4 DUP1 CALLDATASIZE SUB DUP2 ADD SWAP1 PUSH2 0x2F7 SWAP2 SWAP1 PUSH2 0xF5E JUMP JUMPDEST PUSH2 0x946 JUMP JUMPDEST STOP JUMPDEST PUSH1 0x0 DUP1 SLOAD SWAP1 PUSH2 0x100 EXP SWAP1 DIV PUSH20 0xFFFFFFFFFFFFFFFFFFFFFFFFFFFFFFFFFFFFFFFF AND PUSH20 0xFFFFFFFFFFFFFFFFFFFFFFFFFFFFFFFFFFFFFFFF AND CALLER PUSH20 0xFFFFFFFFFFFFFFFFFFFFFFFFFFFFFFFFFFFFFFFF AND EQ PUSH2 0x356 JUMPI PUSH1 0x0 DUP1 REVERT JUMPDEST PUSH1 0x0 PUSH1 0x7 DUP1 SLOAD SWAP1 POP SWAP1 POP PUSH1 0x7 PUSH1 0x1 DUP2 PUSH1 0x1 DUP2 SLOAD ADD DUP1 DUP3 SSTORE DUP1 SWAP2 POP POP SUB SWAP1 PUSH1 0x0 MSTORE PUSH1 0x20 PUSH1 0x0 KECCAK256 SWAP1 POP POP PUSH1 0x0 PUSH1 0x7 DUP3 DUP2 SLOAD DUP2 LT PUSH2 0x394 JUMPI PUSH2 0x393 PUSH2 0x102A JUMP JUMPDEST JUMPDEST SWAP1 PUSH1 0x0 MSTORE PUSH1 0x20 PUSH1 0x0 KECCAK256 SWAP1 PUSH1 0x5 MUL ADD SWAP1 POP DUP5 DUP2 PUSH1 0x0 ADD SWAP1 DUP1 MLOAD SWAP1 PUSH1 0x20 ADD SWAP1 PUSH2 0x3BC SWAP3 SWAP2 SWAP1 PUSH2 0xA8B JUMP JUMPDEST POP DUP4 DUP2 PUSH1 0x1 ADD DUP2 SWAP1 SSTORE POP DUP3 DUP2 PUSH1 0x2 ADD PUSH1 0x0 PUSH2 0x100 EXP DUP2 SLOAD DUP2 PUSH20 0xFFFFFFFFFFFFFFFFFFFFFFFFFFFFFFFFFFFFFFFF MUL NOT AND SWAP1 DUP4 PUSH20 0xFFFFFFFFFFFFFFFFFFFFFFFFFFFFFFFFFFFFFFFF AND MUL OR SWAP1 SSTORE POP PUSH1 0x0 DUP2 PUSH1 0x2 ADD PUSH1 0x14 PUSH2 0x100 EXP DUP2 SLOAD DUP2 PUSH1 0xFF MUL NOT AND SWAP1 DUP4 ISZERO ISZERO MUL OR SWAP1 SSTORE POP PUSH1 0x0 DUP2 PUSH1 0x4 ADD DUP2 SWAP1 SSTORE POP POP POP POP POP POP JUMP JUMPDEST PUSH1 0x3 SLOAD DUP2 JUMP JUMPDEST PUSH1 0x4 SLOAD DUP2 JUMP JUMPDEST PUSH1 0x60 PUSH1 0x0 DUP1 PUSH1 0x0 DUP1 PUSH1 0x0 DUP1 PUSH1 0x0 PUSH1 0x1 PUSH1 0x2 SLOAD PUSH1 0x3 SLOAD PUSH1 0x4 SLOAD SELFBALANCE PUSH1 0x5 SLOAD PUSH1 0x7 DUP1 SLOAD SWAP1 POP PUSH1 0x0 DUP1 SLOAD SWAP1 PUSH2 0x100 EXP SWAP1 DIV PUSH20 0xFFFFFFFFFFFFFFFFFFFFFFFFFFFFFFFFFFFFFFFF AND DUP8 DUP1 SLOAD PUSH2 0x492 SWAP1 PUSH2 0x1088 JUMP JUMPDEST DUP1 PUSH1 0x1F ADD PUSH1 0x20 DUP1 SWAP2 DIV MUL PUSH1 0x20 ADD PUSH1 0x40 MLOAD SWAP1 DUP2 ADD PUSH1 0x40 MSTORE DUP1 SWAP3 SWAP2 SWAP1 DUP2 DUP2 MSTORE PUSH1 0x20 ADD DUP3 DUP1 SLOAD PUSH2 0x4BE SWAP1 PUSH2 0x1088 JUMP JUMPDEST DUP1 ISZERO PUSH2 0x50B JUMPI DUP1 PUSH1 0x1F LT PUSH2 0x4E0 JUMPI PUSH2 0x100 DUP1 DUP4 SLOAD DIV MUL DUP4 MSTORE SWAP2 PUSH1 0x20 ADD SWAP2 PUSH2 0x50B JUMP JUMPDEST DUP3 ADD SWAP2 SWAP1 PUSH1 0x0 MSTORE PUSH1 0x20 PUSH1 0x0 KECCAK256 SWAP1 JUMPDEST DUP2 SLOAD DUP2 MSTORE SWAP1 PUSH1 0x1 ADD SWAP1 PUSH1 0x20 ADD DUP1 DUP4 GT PUSH2 0x4EE JUMPI DUP3 SWAP1 SUB PUSH1 0x1F AND DUP3 ADD SWAP2 JUMPDEST POP POP POP POP POP SWAP8 POP SWAP8 POP SWAP8 POP SWAP8 POP SWAP8 POP SWAP8 POP SWAP8 POP SWAP8 POP SWAP8 POP SWAP1 SWAP2 SWAP3 SWAP4 SWAP5 SWAP6 SWAP7 SWAP8 JUMP JUMPDEST PUSH1 0x2 SLOAD DUP2 JUMP JUMPDEST PUSH1 0x6 PUSH1 0x20 MSTORE DUP1 PUSH1 0x0 MSTORE PUSH1 0x40 PUSH1 0x0 KECCAK256 PUSH1 0x0 SWAP2 POP SWAP1 POP SLOAD DUP2 JUMP JUMPDEST PUSH1 0x1 DUP1 SLOAD PUSH2 0x557 SWAP1 PUSH2 0x1088 JUMP JUMPDEST DUP1 PUSH1 0x1F ADD PUSH1 0x20 DUP1 SWAP2 DIV MUL PUSH1 0x20 ADD PUSH1 0x40 MLOAD SWAP1 DUP2 ADD PUSH1 0x40 MSTORE DUP1 SWAP3 SWAP2 SWAP1 DUP2 DUP2 MSTORE PUSH1 0x20 ADD DUP3 DUP1 SLOAD PUSH2 0x583 SWAP1 PUSH2 0x1088 JUMP JUMPDEST DUP1 ISZERO PUSH2 0x5D0 JUMPI DUP1 PUSH1 0x1F LT PUSH2 0x5A5 JUMPI PUSH2 0x100 DUP1 DUP4 SLOAD DIV MUL DUP4 MSTORE SWAP2 PUSH1 0x20 ADD SWAP2 PUSH2 0x5D0 JUMP JUMPDEST DUP3 ADD SWAP2 SWAP1 PUSH1 0x0 MSTORE PUSH1 0x20 PUSH1 0x0 KECCAK256 SWAP1 JUMPDEST DUP2 SLOAD DUP2 MSTORE SWAP1 PUSH1 0x1 ADD SWAP1 PUSH1 0x20 ADD DUP1 DUP4 GT PUSH2 0x5B3 JUMPI DUP3 SWAP1 SUB PUSH1 0x1F AND DUP3 ADD SWAP2 JUMPDEST POP POP POP POP POP DUP2 JUMP JUMPDEST PUSH1 0x7 DUP2 DUP2 SLOAD DUP2 LT PUSH2 0x5E8 JUMPI PUSH1 0x0 DUP1 REVERT JUMPDEST SWAP1 PUSH1 0x0 MSTORE PUSH1 0x20 PUSH1 0x0 KECCAK256 SWAP1 PUSH1 0x5 MUL ADD PUSH1 0x0 SWAP2 POP SWAP1 POP DUP1 PUSH1 0x0 ADD DUP1 SLOAD PUSH2 0x60B SWAP1 PUSH2 0x1088 JUMP JUMPDEST DUP1 PUSH1 0x1F ADD PUSH1 0x20 DUP1 SWAP2 DIV MUL PUSH1 0x20 ADD PUSH1 0x40 MLOAD SWAP1 DUP2 ADD PUSH1 0x40 MSTORE DUP1 SWAP3 SWAP2 SWAP1 DUP2 DUP2 MSTORE PUSH1 0x20 ADD DUP3 DUP1 SLOAD PUSH2 0x637 SWAP1 PUSH2 0x1088 JUMP JUMPDEST DUP1 ISZERO PUSH2 0x684 JUMPI DUP1 PUSH1 0x1F LT PUSH2 0x659 JUMPI PUSH2 0x100 DUP1 DUP4 SLOAD DIV MUL DUP4 MSTORE SWAP2 PUSH1 0x20 ADD SWAP2 PUSH2 0x684 JUMP JUMPDEST DUP3 ADD SWAP2 SWAP1 PUSH1 0x0 MSTORE PUSH1 0x20 PUSH1 0x0 KECCAK256 SWAP1 JUMPDEST DUP2 SLOAD DUP2 MSTORE SWAP1 PUSH1 0x1 ADD SWAP1 PUSH1 0x20 ADD DUP1 DUP4 GT PUSH2 0x667 JUMPI DUP3 SWAP1 SUB PUSH1 0x1F AND DUP3 ADD SWAP2 JUMPDEST POP POP POP POP POP SWAP1 DUP1 PUSH1 0x1 ADD SLOAD SWAP1 DUP1 PUSH1 0x2 ADD PUSH1 0x0 SWAP1 SLOAD SWAP1 PUSH2 0x100 EXP SWAP1 DIV PUSH20 0xFFFFFFFFFFFFFFFFFFFFFFFFFFFFFFFFFFFFFFFF AND SWAP1 DUP1 PUSH1 0x2 ADD PUSH1 0x14 SWAP1 SLOAD SWAP1 PUSH2 0x100 EXP SWAP1 DIV PUSH1 0xFF AND SWAP1 DUP1 PUSH1 0x4 ADD SLOAD SWAP1 POP DUP6 JUMP JUMPDEST PUSH1 0x0 DUP1 SLOAD SWAP1 PUSH2 0x100 EXP SWAP1 DIV PUSH20 0xFFFFFFFFFFFFFFFFFFFFFFFFFFFFFFFFFFFFFFFF AND DUP2 JUMP JUMPDEST PUSH1 0x0 DUP1 SLOAD SWAP1 PUSH2 0x100 EXP SWAP1 DIV PUSH20 0xFFFFFFFFFFFFFFFFFFFFFFFFFFFFFFFFFFFFFFFF AND PUSH20 0xFFFFFFFFFFFFFFFFFFFFFFFFFFFFFFFFFFFFFFFF AND CALLER PUSH20 0xFFFFFFFFFFFFFFFFFFFFFFFFFFFFFFFFFFFFFFFF AND EQ PUSH2 0x74F JUMPI PUSH1 0x0 DUP1 REVERT JUMPDEST PUSH1 0x0 DUP1 SLOAD SWAP1 PUSH2 0x100 EXP SWAP1 DIV PUSH20 0xFFFFFFFFFFFFFFFFFFFFFFFFFFFFFFFFFFFFFFFF AND PUSH20 0xFFFFFFFFFFFFFFFFFFFFFFFFFFFFFFFFFFFFFFFF AND CALLER PUSH20 0xFFFFFFFFFFFFFFFFFFFFFFFFFFFFFFFFFFFFFFFF AND EQ PUSH2 0x7A7 JUMPI PUSH1 0x0 DUP1 REVERT JUMPDEST PUSH1 0x0 PUSH1 0x7 DUP3 DUP2 SLOAD DUP2 LT PUSH2 0x7BD JUMPI PUSH2 0x7BC PUSH2 0x102A JUMP JUMPDEST JUMPDEST SWAP1 PUSH1 0x0 MSTORE PUSH1 0x20 PUSH1 0x0 KECCAK256 SWAP1 PUSH1 0x5 MUL ADD SWAP1 POP DUP1 PUSH1 0x2 ADD PUSH1 0x14 SWAP1 SLOAD SWAP1 PUSH2 0x100 EXP SWAP1 DIV PUSH1 0xFF AND ISZERO PUSH2 0x7E9 JUMPI PUSH1 0x0 DUP1 REVERT JUMPDEST DUP1 PUSH1 0x1 ADD SLOAD SELFBALANCE LT ISZERO PUSH2 0x7FA JUMPI PUSH1 0x0 DUP1 REVERT JUMPDEST PUSH1 0x2 PUSH1 0x5 SLOAD PUSH2 0x809 SWAP2 SWAP1 PUSH2 0x1117 JUMP JUMPDEST DUP2 PUSH1 0x4 ADD SLOAD GT PUSH2 0x818 JUMPI PUSH1 0x0 DUP1 REVERT JUMPDEST DUP1 PUSH1 0x2 ADD PUSH1 0x0 SWAP1 SLOAD SWAP1 PUSH2 0x100 EXP SWAP1 DIV PUSH20 0xFFFFFFFFFFFFFFFFFFFFFFFFFFFFFFFFFFFFFFFF AND PUSH20 0xFFFFFFFFFFFFFFFFFFFFFFFFFFFFFFFFFFFFFFFF AND PUSH2 0x8FC DUP3 PUSH1 0x1 ADD SLOAD SWAP1 DUP2 ISZERO MUL SWAP1 PUSH1 0x40 MLOAD PUSH1 0x0 PUSH1 0x40 MLOAD DUP1 DUP4 SUB DUP2 DUP6 DUP9 DUP9 CALL SWAP4 POP POP POP POP ISZERO DUP1 ISZERO PUSH2 0x886 JUMPI RETURNDATASIZE PUSH1 0x0 DUP1 RETURNDATACOPY RETURNDATASIZE PUSH1 0x0 REVERT JUMPDEST POP PUSH1 0x1 DUP2 PUSH1 0x2 ADD PUSH1 0x14 PUSH2 0x100 EXP DUP2 SLOAD DUP2 PUSH1 0xFF MUL NOT AND SWAP1 DUP4 ISZERO ISZERO MUL OR SWAP1 SSTORE POP POP POP JUMP JUMPDEST PUSH1 0x2 SLOAD CALLVALUE LT ISZERO PUSH2 0x8B7 JUMPI PUSH1 0x0 DUP1 REVERT JUMPDEST PUSH1 0x3 SLOAD CALLVALUE GT ISZERO PUSH2 0x8C6 JUMPI PUSH1 0x0 DUP1 REVERT JUMPDEST PUSH1 0x4 SLOAD CALLVALUE SELFBALANCE PUSH2 0x8D5 SWAP2 SWAP1 PUSH2 0x1148 JUMP JUMPDEST GT ISZERO PUSH2 0x8E0 JUMPI PUSH1 0x0 DUP1 REVERT JUMPDEST CALLVALUE PUSH1 0x6 PUSH1 0x0 CALLER PUSH20 0xFFFFFFFFFFFFFFFFFFFFFFFFFFFFFFFFFFFFFFFF AND PUSH20 0xFFFFFFFFFFFFFFFFFFFFFFFFFFFFFFFFFFFFFFFF AND DUP2 MSTORE PUSH1 0x20 ADD SWAP1 DUP2 MSTORE PUSH1 0x20 ADD PUSH1 0x0 KECCAK256 DUP2 SWAP1 SSTORE POP PUSH1 0x1 PUSH1 0x5 PUSH1 0x0 DUP3 DUP3 SLOAD PUSH2 0x937 SWAP2 SWAP1 PUSH2 0x1148 JUMP JUMPDEST SWAP3 POP POP DUP2 SWAP1 SSTORE POP JUMP JUMPDEST PUSH1 0x5 SLOAD DUP2 JUMP JUMPDEST PUSH1 0x0 PUSH1 0x7 DUP3 DUP2 SLOAD DUP2 LT PUSH2 0x95C JUMPI PUSH2 0x95B PUSH2 0x102A JUMP JUMPDEST JUMPDEST SWAP1 PUSH1 0x0 MSTORE PUSH1 0x20 PUSH1 0x0 KECCAK256 SWAP1 PUSH1 0x5 MUL ADD SWAP1 POP PUSH1 0x0 PUSH1 0x6 PUSH1 0x0 CALLER PUSH20 0xFFFFFFFFFFFFFFFFFFFFFFFFFFFFFFFFFFFFFFFF AND PUSH20 0xFFFFFFFFFFFFFFFFFFFFFFFFFFFFFFFFFFFFFFFF AND DUP2 MSTORE PUSH1 0x20 ADD SWAP1 DUP2 MSTORE PUSH1 0x20 ADD PUSH1 0x0 KECCAK256 SLOAD GT PUSH2 0x9B8 JUMPI PUSH1 0x0 DUP1 REVERT JUMPDEST DUP1 PUSH1 0x3 ADD PUSH1 0x0 CALLER PUSH20 0xFFFFFFFFFFFFFFFFFFFFFFFFFFFFFFFFFFFFFFFF AND PUSH20 0xFFFFFFFFFFFFFFFFFFFFFFFFFFFFFFFFFFFFFFFF AND DUP2 MSTORE PUSH1 0x20 ADD SWAP1 DUP2 MSTORE PUSH1 0x20 ADD PUSH1 0x0 KECCAK256 PUSH1 0x0 SWAP1 SLOAD SWAP1 PUSH2 0x100 EXP SWAP1 DIV PUSH1 0xFF AND ISZERO PUSH2 0xA11 JUMPI PUSH1 0x0 DUP1 REVERT JUMPDEST PUSH1 0x1 DUP2 PUSH1 0x3 ADD PUSH1 0x0 CALLER PUSH20 0xFFFFFFFFFFFFFFFFFFFFFFFFFFFFFFFFFFFFFFFF AND PUSH20 0xFFFFFFFFFFFFFFFFFFFFFFFFFFFFFFFFFFFFFFFF AND DUP2 MSTORE PUSH1 0x20 ADD SWAP1 DUP2 MSTORE PUSH1 0x20 ADD PUSH1 0x0 KECCAK256 PUSH1 0x0 PUSH2 0x100 EXP DUP2 SLOAD DUP2 PUSH1 0xFF MUL NOT AND SWAP1 DUP4 ISZERO ISZERO MUL OR SWAP1 SSTORE POP PUSH1 0x1 DUP2 PUSH1 0x4 ADD PUSH1 0x0 DUP3 DUP3 SLOAD PUSH2 0xA80 SWAP2 SWAP1 PUSH2 0x1148 JUMP JUMPDEST SWAP3 POP POP DUP2 SWAP1 SSTORE POP POP POP JUMP JUMPDEST DUP3 DUP1 SLOAD PUSH2 0xA97 SWAP1 PUSH2 0x1088 JUMP JUMPDEST SWAP1 PUSH1 0x0 MSTORE PUSH1 0x20 PUSH1 0x0 KECCAK256 SWAP1 PUSH1 0x1F ADD PUSH1 0x20 SWAP1 DIV DUP2 ADD SWAP3 DUP3 PUSH2 0xAB9 JUMPI PUSH1 0x0 DUP6 SSTORE PUSH2 0xB00 JUMP JUMPDEST DUP3 PUSH1 0x1F LT PUSH2 0xAD2 JUMPI DUP1 MLOAD PUSH1 0xFF NOT AND DUP4 DUP1 ADD OR DUP6 SSTORE PUSH2 0xB00 JUMP JUMPDEST DUP3 DUP1 ADD PUSH1 0x1 ADD DUP6 SSTORE DUP3 ISZERO PUSH2 0xB00 JUMPI SWAP2 DUP3 ADD JUMPDEST DUP3 DUP2 GT ISZERO PUSH2 0xAFF JUMPI DUP3 MLOAD DUP3 SSTORE SWAP2 PUSH1 0x20 ADD SWAP2 SWAP1 PUSH1 0x1 ADD SWAP1 PUSH2 0xAE4 JUMP JUMPDEST JUMPDEST POP SWAP1 POP PUSH2 0xB0D SWAP2 SWAP1 PUSH2 0xB11 JUMP JUMPDEST POP SWAP1 JUMP JUMPDEST JUMPDEST DUP1 DUP3 GT ISZERO PUSH2 0xB2A JUMPI PUSH1 0x0 DUP2 PUSH1 0x0 SWAP1 SSTORE POP PUSH1 0x1 ADD PUSH2 0xB12 JUMP JUMPDEST POP SWAP1 JUMP JUMPDEST PUSH1 0x0 PUSH1 0x40 MLOAD SWAP1 POP SWAP1 JUMP JUMPDEST PUSH1 0x0 DUP1 REVERT JUMPDEST PUSH1 0x0 DUP1 REVERT JUMPDEST PUSH1 0x0 DUP1 REVERT JUMPDEST PUSH1 0x0 DUP1 REVERT JUMPDEST PUSH1 0x0 PUSH1 0x1F NOT PUSH1 0x1F DUP4 ADD AND SWAP1 POP SWAP2 SWAP1 POP JUMP JUMPDEST PUSH32 0x4E487B7100000000000000000000000000000000000000000000000000000000 PUSH1 0x0 MSTORE PUSH1 0x41 PUSH1 0x4 MSTORE PUSH1 0x24 PUSH1 0x0 REVERT JUMPDEST PUSH2 0xB95 DUP3 PUSH2 0xB4C JUMP JUMPDEST DUP2 ADD DUP2 DUP2 LT PUSH8 0xFFFFFFFFFFFFFFFF DUP3 GT OR ISZERO PUSH2 0xBB4 JUMPI PUSH2 0xBB3 PUSH2 0xB5D JUMP JUMPDEST JUMPDEST DUP1 PUSH1 0x40 MSTORE POP POP POP JUMP JUMPDEST PUSH1 0x0 PUSH2 0xBC7 PUSH2 0xB2E JUMP JUMPDEST SWAP1 POP PUSH2 0xBD3 DUP3 DUP3 PUSH2 0xB8C JUMP JUMPDEST SWAP2 SWAP1 POP JUMP JUMPDEST PUSH1 0x0 PUSH8 0xFFFFFFFFFFFFFFFF DUP3 GT ISZERO PUSH2 0xBF3 JUMPI PUSH2 0xBF2 PUSH2 0xB5D JUMP JUMPDEST JUMPDEST PUSH2 0xBFC DUP3 PUSH2 0xB4C JUMP JUMPDEST SWAP1 POP PUSH1 0x20 DUP2 ADD SWAP1 POP SWAP2 SWAP1 POP JUMP JUMPDEST DUP3 DUP2 DUP4 CALLDATACOPY PUSH1 0x0 DUP4 DUP4 ADD MSTORE POP POP POP JUMP JUMPDEST PUSH1 0x0 PUSH2 0xC2B PUSH2 0xC26 DUP5 PUSH2 0xBD8 JUMP JUMPDEST PUSH2 0xBBD JUMP JUMPDEST SWAP1 POP DUP3 DUP2 MSTORE PUSH1 0x20 DUP2 ADD DUP5 DUP5 DUP5 ADD GT ISZERO PUSH2 0xC47 JUMPI PUSH2 0xC46 PUSH2 0xB47 JUMP JUMPDEST JUMPDEST PUSH2 0xC52 DUP5 DUP3 DUP6 PUSH2 0xC09 JUMP JUMPDEST POP SWAP4 SWAP3 POP POP POP JUMP JUMPDEST PUSH1 0x0 DUP3 PUSH1 0x1F DUP4 ADD SLT PUSH2 0xC6F JUMPI PUSH2 0xC6E PUSH2 0xB42 JUMP JUMPDEST JUMPDEST DUP2 CALLDATALOAD PUSH2 0xC7F DUP5 DUP3 PUSH1 0x20 DUP7 ADD PUSH2 0xC18 JUMP JUMPDEST SWAP2 POP POP SWAP3 SWAP2 POP POP JUMP JUMPDEST PUSH1 0x0 DUP2 SWAP1 POP SWAP2 SWAP1 POP JUMP JUMPDEST PUSH2 0xC9B DUP2 PUSH2 0xC88 JUMP JUMPDEST DUP2 EQ PUSH2 0xCA6 JUMPI PUSH1 0x0 DUP1 REVERT JUMPDEST POP JUMP JUMPDEST PUSH1 0x0 DUP2 CALLDATALOAD SWAP1 POP PUSH2 0xCB8 DUP2 PUSH2 0xC92 JUMP JUMPDEST SWAP3 SWAP2 POP POP JUMP JUMPDEST PUSH1 0x0 PUSH20 0xFFFFFFFFFFFFFFFFFFFFFFFFFFFFFFFFFFFFFFFF DUP3 AND SWAP1 POP SWAP2 SWAP1 POP JUMP JUMPDEST PUSH1 0x0 PUSH2 0xCE9 DUP3 PUSH2 0xCBE JUMP JUMPDEST SWAP1 POP SWAP2 SWAP1 POP JUMP JUMPDEST PUSH2 0xCF9 DUP2 PUSH2 0xCDE JUMP JUMPDEST DUP2 EQ PUSH2 0xD04 JUMPI PUSH1 0x0 DUP1 REVERT JUMPDEST POP JUMP JUMPDEST PUSH1 0x0 DUP2 CALLDATALOAD SWAP1 POP PUSH2 0xD16 DUP2 PUSH2 0xCF0 JUMP JUMPDEST SWAP3 SWAP2 POP POP JUMP JUMPDEST PUSH1 0x0 DUP1 PUSH1 0x0 PUSH1 0x60 DUP5 DUP7 SUB SLT ISZERO PUSH2 0xD35 JUMPI PUSH2 0xD34 PUSH2 0xB38 JUMP JUMPDEST JUMPDEST PUSH1 0x0 DUP5 ADD CALLDATALOAD PUSH8 0xFFFFFFFFFFFFFFFF DUP2 GT ISZERO PUSH2 0xD53 JUMPI PUSH2 0xD52 PUSH2 0xB3D JUMP JUMPDEST JUMPDEST PUSH2 0xD5F DUP7 DUP3 DUP8 ADD PUSH2 0xC5A JUMP JUMPDEST SWAP4 POP POP PUSH1 0x20 PUSH2 0xD70 DUP7 DUP3 DUP8 ADD PUSH2 0xCA9 JUMP JUMPDEST SWAP3 POP POP PUSH1 0x40 PUSH2 0xD81 DUP7 DUP3 DUP8 ADD PUSH2 0xD07 JUMP JUMPDEST SWAP2 POP POP SWAP3 POP SWAP3 POP SWAP3 JUMP JUMPDEST PUSH2 0xD94 DUP2 PUSH2 0xC88 JUMP JUMPDEST DUP3 MSTORE POP POP JUMP JUMPDEST PUSH1 0x0 PUSH1 0x20 DUP3 ADD SWAP1 POP PUSH2 0xDAF PUSH1 0x0 DUP4 ADD DUP5 PUSH2 0xD8B JUMP JUMPDEST SWAP3 SWAP2 POP POP JUMP JUMPDEST PUSH1 0x0 DUP2 MLOAD SWAP1 POP SWAP2 SWAP1 POP JUMP JUMPDEST PUSH1 0x0 DUP3 DUP3 MSTORE PUSH1 0x20 DUP3 ADD SWAP1 POP SWAP3 SWAP2 POP POP JUMP JUMPDEST PUSH1 0x0 JUMPDEST DUP4 DUP2 LT ISZERO PUSH2 0xDEF JUMPI DUP1 DUP3 ADD MLOAD DUP2 DUP5 ADD MSTORE PUSH1 0x20 DUP2 ADD SWAP1 POP PUSH2 0xDD4 JUMP JUMPDEST DUP4 DUP2 GT ISZERO PUSH2 0xDFE JUMPI PUSH1 0x0 DUP5 DUP5 ADD MSTORE JUMPDEST POP POP POP POP JUMP JUMPDEST PUSH1 0x0 PUSH2 0xE0F DUP3 PUSH2 0xDB5 JUMP JUMPDEST PUSH2 0xE19 DUP2 DUP6 PUSH2 0xDC0 JUMP JUMPDEST SWAP4 POP PUSH2 0xE29 DUP2 DUP6 PUSH1 0x20 DUP7 ADD PUSH2 0xDD1 JUMP JUMPDEST PUSH2 0xE32 DUP2 PUSH2 0xB4C JUMP JUMPDEST DUP5 ADD SWAP2 POP POP SWAP3 SWAP2 POP POP JUMP JUMPDEST PUSH1 0x0 PUSH2 0xE48 DUP3 PUSH2 0xCBE JUMP JUMPDEST SWAP1 POP SWAP2 SWAP1 POP JUMP JUMPDEST PUSH2 0xE58 DUP2 PUSH2 0xE3D JUMP JUMPDEST DUP3 MSTORE POP POP JUMP JUMPDEST PUSH1 0x0 PUSH2 0x100 DUP3 ADD SWAP1 POP DUP2 DUP2 SUB PUSH1 0x0 DUP4 ADD MSTORE PUSH2 0xE79 DUP2 DUP12 PUSH2 0xE04 JUMP JUMPDEST SWAP1 POP PUSH2 0xE88 PUSH1 0x20 DUP4 ADD DUP11 PUSH2 0xD8B JUMP JUMPDEST PUSH2 0xE95 PUSH1 0x40 DUP4 ADD DUP10 PUSH2 0xD8B JUMP JUMPDEST PUSH2 0xEA2 PUSH1 0x60 DUP4 ADD DUP9 PUSH2 0xD8B JUMP JUMPDEST PUSH2 0xEAF PUSH1 0x80 DUP4 ADD DUP8 PUSH2 0xD8B JUMP JUMPDEST PUSH2 0xEBC PUSH1 0xA0 DUP4 ADD DUP7 PUSH2 0xD8B JUMP JUMPDEST PUSH2 0xEC9 PUSH1 0xC0 DUP4 ADD DUP6 PUSH2 0xD8B JUMP JUMPDEST PUSH2 0xED6 PUSH1 0xE0 DUP4 ADD DUP5 PUSH2 0xE4F JUMP JUMPDEST SWAP10 SWAP9 POP POP POP POP POP POP POP POP POP JUMP JUMPDEST PUSH2 0xEEC DUP2 PUSH2 0xE3D JUMP JUMPDEST DUP2 EQ PUSH2 0xEF7 JUMPI PUSH1 0x0 DUP1 REVERT JUMPDEST POP JUMP JUMPDEST PUSH1 0x0 DUP2 CALLDATALOAD SWAP1 POP PUSH2 0xF09 DUP2 PUSH2 0xEE3 JUMP JUMPDEST SWAP3 SWAP2 POP POP JUMP JUMPDEST PUSH1 0x0 PUSH1 0x20 DUP3 DUP5 SUB SLT ISZERO PUSH2 0xF25 JUMPI PUSH2 0xF24 PUSH2 0xB38 JUMP JUMPDEST JUMPDEST PUSH1 0x0 PUSH2 0xF33 DUP5 DUP3 DUP6 ADD PUSH2 0xEFA JUMP JUMPDEST SWAP2 POP POP SWAP3 SWAP2 POP POP JUMP JUMPDEST PUSH1 0x0 PUSH1 0x20 DUP3 ADD SWAP1 POP DUP2 DUP2 SUB PUSH1 0x0 DUP4 ADD MSTORE PUSH2 0xF56 DUP2 DUP5 PUSH2 0xE04 JUMP JUMPDEST SWAP1 POP SWAP3 SWAP2 POP POP JUMP JUMPDEST PUSH1 0x0 PUSH1 0x20 DUP3 DUP5 SUB SLT ISZERO PUSH2 0xF74 JUMPI PUSH2 0xF73 PUSH2 0xB38 JUMP JUMPDEST JUMPDEST PUSH1 0x0 PUSH2 0xF82 DUP5 DUP3 DUP6 ADD PUSH2 0xCA9 JUMP JUMPDEST SWAP2 POP POP SWAP3 SWAP2 POP POP JUMP JUMPDEST PUSH2 0xF94 DUP2 PUSH2 0xCDE JUMP JUMPDEST DUP3 MSTORE POP POP JUMP JUMPDEST PUSH1 0x0 DUP2 ISZERO ISZERO SWAP1 POP SWAP2 SWAP1 POP JUMP JUMPDEST PUSH2 0xFAF DUP2 PUSH2 0xF9A JUMP JUMPDEST DUP3 MSTORE POP POP JUMP JUMPDEST PUSH1 0x0 PUSH1 0xA0 DUP3 ADD SWAP1 POP DUP2 DUP2 SUB PUSH1 0x0 DUP4 ADD MSTORE PUSH2 0xFCF DUP2 DUP9 PUSH2 0xE04 JUMP JUMPDEST SWAP1 POP PUSH2 0xFDE PUSH1 0x20 DUP4 ADD DUP8 PUSH2 0xD8B JUMP JUMPDEST PUSH2 0xFEB PUSH1 0x40 DUP4 ADD DUP7 PUSH2 0xF8B JUMP JUMPDEST PUSH2 0xFF8 PUSH1 0x60 DUP4 ADD DUP6 PUSH2 0xFA6 JUMP JUMPDEST PUSH2 0x1005 PUSH1 0x80 DUP4 ADD DUP5 PUSH2 0xD8B JUMP JUMPDEST SWAP7 SWAP6 POP POP POP POP POP POP JUMP JUMPDEST PUSH1 0x0 PUSH1 0x20 DUP3 ADD SWAP1 POP PUSH2 0x1024 PUSH1 0x0 DUP4 ADD DUP5 PUSH2 0xE4F JUMP JUMPDEST SWAP3 SWAP2 POP POP JUMP JUMPDEST PUSH32 0x4E487B7100000000000000000000000000000000000000000000000000000000 PUSH1 0x0 MSTORE PUSH1 0x32 PUSH1 0x4 MSTORE PUSH1 0x24 PUSH1 0x0 REVERT JUMPDEST PUSH32 0x4E487B7100000000000000000000000000000000000000000000000000000000 PUSH1 0x0 MSTORE PUSH1 0x22 PUSH1 0x4 MSTORE PUSH1 0x24 PUSH1 0x0 REVERT JUMPDEST PUSH1 0x0 PUSH1 0x2 DUP3 DIV SWAP1 POP PUSH1 0x1 DUP3 AND DUP1 PUSH2 0x10A0 JUMPI PUSH1 0x7F DUP3 AND SWAP2 POP JUMPDEST PUSH1 0x20 DUP3 LT DUP2 SUB PUSH2 0x10B3 JUMPI PUSH2 0x10B2 PUSH2 0x1059 JUMP JUMPDEST JUMPDEST POP SWAP2 SWAP1 POP JUMP JUMPDEST PUSH32 0x4E487B7100000000000000000000000000000000000000000000000000000000 PUSH1 0x0 MSTORE PUSH1 0x12 PUSH1 0x4 MSTORE PUSH1 0x24 PUSH1 0x0 REVERT JUMPDEST PUSH32 0x4E487B7100000000000000000000000000000000000000000000000000000000 PUSH1 0x0 MSTORE PUSH1 0x11 PUSH1 0x4 MSTORE PUSH1 0x24 PUSH1 0x0 REVERT JUMPDEST PUSH1 0x0 PUSH2 0x1122 DUP3 PUSH2 0xC88 JUMP JUMPDEST SWAP2 POP PUSH2 0x112D DUP4 PUSH2 0xC88 JUMP JUMPDEST SWAP3 POP DUP3 PUSH2 0x113D JUMPI PUSH2 0x113C PUSH2 0x10B9 JUMP JUMPDEST JUMPDEST DUP3 DUP3 DIV SWAP1 POP SWAP3 SWAP2 POP POP JUMP JUMPDEST PUSH1 0x0 PUSH2 0x1153 DUP3 PUSH2 0xC88 JUMP JUMPDEST SWAP2 POP PUSH2 0x115E DUP4 PUSH2 0xC88 JUMP JUMPDEST SWAP3 POP DUP3 PUSH32 0xFFFFFFFFFFFFFFFFFFFFFFFFFFFFFFFFFFFFFFFFFFFFFFFFFFFFFFFFFFFFFFFF SUB DUP3 GT ISZERO PUSH2 0x1193 JUMPI PUSH2 0x1192 PUSH2 0x10E8 JUMP JUMPDEST JUMPDEST DUP3 DUP3 ADD SWAP1 POP SWAP3 SWAP2 POP POP JUMP INVALID LOG2 PUSH5 0x6970667358 0x22 SLT KECCAK256 0xE6 PUSH17 0xE62521160016549AEF87C1DA4C6C851D76 JUMPDEST PUSH18 0xC8A04FF481EAAA73ABBE7D64736F6C634300 ADDMOD 0xD STOP CALLER "},"gasEstimates":{"creation":{"codeDepositCost":"912800","executionCost":"infinite","totalCost":"infinite"},"external":{"approvePayment(uint256)":"infinite","contribute()":"infinite","createPayment(string,uint256,address)":"infinite","description()":"infinite","doPayment(uint256)":"infinite","getSummary()":"infinite","goal()":"2474","investorCount()":"2495","investors(address)":"2925","maxInvest()":"2452","minInvest()":"2518","owner()":"2578","payments(uint256)":"infinite"}},"methodIdentifiers":{"approvePayment(uint256)":"de14c818","contribute()":"d7bb99ba","createPayment(string,uint256,address)":"03120d46","description()":"7284e416","doPayment(uint256)":"d2b8b867","getSummary()":"4051ddac","goal()":"40193883","investorCount()":"d7e64c00","investors(address)":"6f7bc9be","maxInvest()":"3110235a","minInvest()":"63fd9e38","owner()":"8da5cb5b","payments(uint256)":"87d81789"}},"storageLayout":{"storage":[{"astId":51,"contract":"Project.sol:Project","label":"owner","offset":0,"slot":"0","type":"t_address"},{"astId":53,"contract":"Project.sol:Project","label":"description","offset":0,"slot":"1","type":"t_string_storage"},{"astId":55,"contract":"Project.sol:Project","label":"minInvest","offset":0,"slot":"2","type":"t_uint256"},{"astId":57,"contract":"Project.sol:Project","label":"maxInvest","offset":0,"slot":"3","type":"t_uint256"},{"astId":59,"contract":"Project.sol:Project","label":"goal","offset":0,"slot":"4","type":"t_uint256"},{"astId":61,"contract":"Project.sol:Project","label":"investorCount","offset":0,"slot":"5","type":"t_uint256"},{"astId":65,"contract":"Project.sol:Project","label":"investors","offset":0,"slot":"6","type":"t_mapping(t_address,t_uint256)"},{"astId":69,"contract":"Project.sol:Project","label":"payments","offset":0,"slot":"7","type":"t_array(t_struct(Payment)49_storage)dyn_storage"}],"types":{"t_address":{"encoding":"inplace","label":"address","numberOfBytes":"20"},"t_address_payable":{"encoding":"inplace","label":"address payable","numberOfBytes":"20"},"t_array(t_struct(Payment)49_storage)dyn_storage":{"base":"t_struct(Payment)49_storage","encoding":"dynamic_array","label":"struct Project.Payment[]","numberOfBytes":"32"},"t_bool":{"encoding":"inplace","label":"bool","numberOfBytes":"1"},"t_mapping(t_address,t_bool)":{"encoding":"mapping","key":"t_address","label":"mapping(address => bool)","numberOfBytes":"32","value":"t_bool"},"t_mapping(t_address,t_uint256)":{"encoding":"mapping","key":"t_address","label":"mapping(address => uint256)","numberOfBytes":"32","value":"t_uint256"},"t_string_storage":{"encoding":"bytes","label":"string","numberOfBytes":"32"},"t_struct(Payment)49_storage":{"encoding":"inplace","label":"struct Project.Payment","members":[{"astId":36,"contract":"Project.sol:Project","label":"description","offset":0,"slot":"0","type":"t_string_storage"},{"astId":38,"contract":"Project.sol:Project","label":"amount","offset":0,"slot":"1","type":"t_uint256"},{"astId":40,"contract":"Project.sol:Project","label":"receiver","offset":0,"slot":"2","type":"t_address_payable"},{"astId":42,"contract":"Project.sol:Project","label":"completed","offset":20,"slot":"2","type":"t_bool"},{"astId":46,"contract":"Project.sol:Project","label":"voters","offset":0,"slot":"3","type":"t_mapping(t_address,t_bool)"},{"astId":48,"contract":"Project.sol:Project","label":"voterCount","offset":0,"slot":"4","type":"t_uint256"}],"numberOfBytes":"160"},"t_uint256":{"encoding":"inplace","label":"uint256","numberOfBytes":"32"}}},"userdoc":{"kind":"user","methods":{},"version":1}}