{"abi":[{"inputs":[{"internalType":"string","name":"_description","type":"string"},{"internalType":"uint256","name":"_minInvest","type":"uint256"},{"internalType":"uint256","name":"_maxInvest","type":"uint256"},{"internalType":"uint256","name":"_goal","type":"uint256"}],"name":"createProject","outputs":[],"stateMutability":"nonpayable","type":"function"},{"inputs":[],"name":"getLatestProject","outputs":[{"internalType":"address","name":"","type":"address"}],"stateMutability":"view","type":"function"},{"inputs":[],"name":"getProjects","outputs":[{"internalType":"address[]","name":"","type":"address[]"}],"stateMutability":"view","type":"function"},{"inputs":[],"name":"latestProject","outputs":[{"internalType":"address","name":"","type":"address"}],"stateMutability":"view","type":"function"},{"inputs":[{"internalType":"uint256","name":"","type":"uint256"}],"name":"projects","outputs":[{"internalType":"address","name":"","type":"address"}],"stateMutability":"view","type":"function"}],"devdoc":{"kind":"dev","methods":{},"version":1},"evm":{"assembly":"    /* \"ProjectList.sol\":101:778  contract ProjectList {... */\n  mstore(0x40, 0x80)\n  callvalue\n  dup1\n  iszero\n  tag_1\n  jumpi\n  0x00\n  dup1\n  revert\ntag_1:\n  pop\n  dataSize(sub_0)\n  dup1\n  dataOffset(sub_0)\n  0x00\n  codecopy\n  0x00\n  return\nstop\n\nsub_0: assembly {\n        /* \"ProjectList.sol\":101:778  contract ProjectList {... */\n      mstore(0x40, 0x80)\n      callvalue\n      dup1\n      iszero\n      tag_1\n      jumpi\n      0x00\n      dup1\n      revert\n    tag_1:\n      pop\n      jumpi(tag_2, lt(calldatasize, 0x04))\n      shr(0xe0, calldataload(0x00))\n      dup1\n      0x107046bd\n      eq\n      tag_3\n      jumpi\n      dup1\n      0x24d2b0c6\n      eq\n      tag_4\n      jumpi\n      dup1\n      0x5b7ce55a\n      eq\n      tag_5\n      jumpi\n      dup1\n      0x610a6a2a\n      eq\n      tag_6\n      jumpi\n      dup1\n      0xdcc60128\n      eq\n      tag_7\n      jumpi\n    tag_2:\n      0x00\n      dup1\n      revert\n        /* \"ProjectList.sol\":129:154  address[] public projects */\n    tag_3:\n      tag_8\n      0x04\n      dup1\n      calldatasize\n      sub\n      dup2\n      add\n      swap1\n      tag_9\n      swap2\n      swap1\n      tag_10\n      jump\t// in\n    tag_9:\n      tag_11\n      jump\t// in\n    tag_8:\n      mload(0x40)\n      tag_12\n      swap2\n      swap1\n      tag_13\n      jump\t// in\n    tag_12:\n      mload(0x40)\n      dup1\n      swap2\n      sub\n      swap1\n      return\n        /* \"ProjectList.sol\":161:189  address public latestProject */\n    tag_4:\n      tag_14\n      tag_15\n      jump\t// in\n    tag_14:\n      mload(0x40)\n      tag_16\n      swap2\n      swap1\n      tag_13\n      jump\t// in\n    tag_16:\n      mload(0x40)\n      dup1\n      swap2\n      sub\n      swap1\n      return\n        /* \"ProjectList.sol\":680:775  function getLatestProject() public view returns (address) {... */\n    tag_5:\n      tag_17\n      tag_18\n      jump\t// in\n    tag_17:\n      mload(0x40)\n      tag_19\n      swap2\n      swap1\n      tag_13\n      jump\t// in\n    tag_19:\n      mload(0x40)\n      dup1\n      swap2\n      sub\n      swap1\n      return\n        /* \"ProjectList.sol\":198:568  function createProject(... */\n    tag_6:\n      tag_20\n      0x04\n      dup1\n      calldatasize\n      sub\n      dup2\n      add\n      swap1\n      tag_21\n      swap2\n      swap1\n      tag_22\n      jump\t// in\n    tag_21:\n      tag_23\n      jump\t// in\n    tag_20:\n      stop\n        /* \"ProjectList.sol\":576:672  function getProjects() public view returns (address[] memory) {... */\n    tag_7:\n      tag_24\n      tag_25\n      jump\t// in\n    tag_24:\n      mload(0x40)\n      tag_26\n      swap2\n      swap1\n      tag_27\n      jump\t// in\n    tag_26:\n      mload(0x40)\n      dup1\n      swap2\n      sub\n      swap1\n      return\n        /* \"ProjectList.sol\":129:154  address[] public projects */\n    tag_11:\n      0x00\n      dup2\n      dup2\n      sload\n      dup2\n      lt\n      tag_28\n      jumpi\n      0x00\n      dup1\n      revert\n    tag_28:\n      swap1\n      0x00\n      mstore\n      keccak256(0x00, 0x20)\n      add\n      0x00\n      swap2\n      pop\n      sload\n      swap1\n      0x0100\n      exp\n      swap1\n      div\n      0xffffffffffffffffffffffffffffffffffffffff\n      and\n      dup2\n      jump\t// out\n        /* \"ProjectList.sol\":161:189  address public latestProject */\n    tag_15:\n      0x01\n      0x00\n      swap1\n      sload\n      swap1\n      0x0100\n      exp\n      swap1\n      div\n      0xffffffffffffffffffffffffffffffffffffffff\n      and\n      dup2\n      jump\t// out\n        /* \"ProjectList.sol\":680:775  function getLatestProject() public view returns (address) {... */\n    tag_18:\n        /* \"ProjectList.sol\":729:736  address */\n      0x00\n        /* \"ProjectList.sol\":754:767  latestProject */\n      0x01\n      0x00\n      swap1\n      sload\n      swap1\n      0x0100\n      exp\n      swap1\n      div\n      0xffffffffffffffffffffffffffffffffffffffff\n      and\n        /* \"ProjectList.sol\":747:767  return latestProject */\n      swap1\n      pop\n        /* \"ProjectList.sol\":680:775  function getLatestProject() public view returns (address) {... */\n      swap1\n      jump\t// out\n        /* \"ProjectList.sol\":198:568  function createProject(... */\n    tag_23:\n        /* \"ProjectList.sol\":365:383  address newProject */\n      0x00\n        /* \"ProjectList.sol\":420:432  _description */\n      dup5\n        /* \"ProjectList.sol\":434:444  _minInvest */\n      dup5\n        /* \"ProjectList.sol\":446:456  _maxInvest */\n      dup5\n        /* \"ProjectList.sol\":458:463  _goal */\n      dup5\n        /* \"ProjectList.sol\":465:475  msg.sender */\n      caller\n        /* \"ProjectList.sol\":408:476  new Project(_description, _minInvest, _maxInvest, _goal, msg.sender) */\n      mload(0x40)\n      tag_32\n      swap1\n      tag_33\n      jump\t// in\n    tag_32:\n      tag_34\n      swap6\n      swap5\n      swap4\n      swap3\n      swap2\n      swap1\n      tag_35\n      jump\t// in\n    tag_34:\n      mload(0x40)\n      dup1\n      swap2\n      sub\n      swap1\n      0x00\n      create\n      dup1\n      iszero\n      dup1\n      iszero\n      tag_36\n      jumpi\n      returndatasize\n      0x00\n      dup1\n      returndatacopy\n      revert(0x00, returndatasize)\n    tag_36:\n      pop\n        /* \"ProjectList.sol\":365:487  address newProject = address(... */\n      swap1\n      pop\n        /* \"ProjectList.sol\":498:506  projects */\n      0x00\n        /* \"ProjectList.sol\":512:522  newProject */\n      dup2\n        /* \"ProjectList.sol\":498:523  projects.push(newProject) */\n      swap1\n      dup1\n      0x01\n      dup2\n      sload\n      add\n      dup1\n      dup3\n      sstore\n      dup1\n      swap2\n      pop\n      pop\n      0x01\n      swap1\n      sub\n      swap1\n      0x00\n      mstore\n      keccak256(0x00, 0x20)\n      add\n      0x00\n      swap1\n      swap2\n      swap1\n      swap2\n      swap1\n      swap2\n      0x0100\n      exp\n      dup2\n      sload\n      dup2\n      0xffffffffffffffffffffffffffffffffffffffff\n      mul\n      not\n      and\n      swap1\n      dup4\n      0xffffffffffffffffffffffffffffffffffffffff\n      and\n      mul\n      or\n      swap1\n      sstore\n      pop\n        /* \"ProjectList.sol\":550:560  newProject */\n      dup1\n        /* \"ProjectList.sol\":534:547  latestProject */\n      0x01\n      0x00\n        /* \"ProjectList.sol\":534:560  latestProject = newProject */\n      0x0100\n      exp\n      dup2\n      sload\n      dup2\n      0xffffffffffffffffffffffffffffffffffffffff\n      mul\n      not\n      and\n      swap1\n      dup4\n      0xffffffffffffffffffffffffffffffffffffffff\n      and\n      mul\n      or\n      swap1\n      sstore\n      pop\n        /* \"ProjectList.sol\":354:568  {... */\n      pop\n        /* \"ProjectList.sol\":198:568  function createProject(... */\n      pop\n      pop\n      pop\n      pop\n      jump\t// out\n        /* \"ProjectList.sol\":576:672  function getProjects() public view returns (address[] memory) {... */\n    tag_25:\n        /* \"ProjectList.sol\":620:636  address[] memory */\n      0x60\n        /* \"ProjectList.sol\":656:664  projects */\n      0x00\n        /* \"ProjectList.sol\":649:664  return projects */\n      dup1\n      sload\n      dup1\n      0x20\n      mul\n      0x20\n      add\n      mload(0x40)\n      swap1\n      dup2\n      add\n      0x40\n      mstore\n      dup1\n      swap3\n      swap2\n      swap1\n      dup2\n      dup2\n      mstore\n      0x20\n      add\n      dup3\n      dup1\n      sload\n      dup1\n      iszero\n      tag_39\n      jumpi\n      0x20\n      mul\n      dup3\n      add\n      swap2\n      swap1\n      0x00\n      mstore\n      keccak256(0x00, 0x20)\n      swap1\n    tag_40:\n      dup2\n      0x00\n      swap1\n      sload\n      swap1\n      0x0100\n      exp\n      swap1\n      div\n      0xffffffffffffffffffffffffffffffffffffffff\n      and\n      0xffffffffffffffffffffffffffffffffffffffff\n      and\n      dup2\n      mstore\n      0x20\n      add\n      swap1\n      0x01\n      add\n      swap1\n      dup1\n      dup4\n      gt\n      tag_40\n      jumpi\n    tag_39:\n      pop\n      pop\n      pop\n      pop\n      pop\n      swap1\n      pop\n        /* \"ProjectList.sol\":576:672  function getProjects() public view returns (address[] memory) {... */\n      swap1\n      jump\t// out\n    tag_33:\n      dataSize(sub_0)\n      dup1\n      dataOffset(sub_0)\n      dup4\n      codecopy\n      add\n      swap1\n      jump\t// out\n        /* \"#utility.yul\":7:82   */\n    tag_41:\n        /* \"#utility.yul\":40:46   */\n      0x00\n        /* \"#utility.yul\":73:75   */\n      0x40\n        /* \"#utility.yul\":67:76   */\n      mload\n        /* \"#utility.yul\":57:76   */\n      swap1\n      pop\n        /* \"#utility.yul\":7:82   */\n      swap1\n      jump\t// out\n        /* \"#utility.yul\":88:205   */\n    tag_42:\n        /* \"#utility.yul\":197:198   */\n      0x00\n        /* \"#utility.yul\":194:195   */\n      dup1\n        /* \"#utility.yul\":187:199   */\n      revert\n        /* \"#utility.yul\":211:328   */\n    tag_43:\n        /* \"#utility.yul\":320:321   */\n      0x00\n        /* \"#utility.yul\":317:318   */\n      dup1\n        /* \"#utility.yul\":310:322   */\n      revert\n        /* \"#utility.yul\":334:411   */\n    tag_44:\n        /* \"#utility.yul\":371:378   */\n      0x00\n        /* \"#utility.yul\":400:405   */\n      dup2\n        /* \"#utility.yul\":389:405   */\n      swap1\n      pop\n        /* \"#utility.yul\":334:411   */\n      swap2\n      swap1\n      pop\n      jump\t// out\n        /* \"#utility.yul\":417:539   */\n    tag_45:\n        /* \"#utility.yul\":490:514   */\n      tag_78\n        /* \"#utility.yul\":508:513   */\n      dup2\n        /* \"#utility.yul\":490:514   */\n      tag_44\n      jump\t// in\n    tag_78:\n        /* \"#utility.yul\":483:488   */\n      dup2\n        /* \"#utility.yul\":480:515   */\n      eq\n        /* \"#utility.yul\":470:533   */\n      tag_79\n      jumpi\n        /* \"#utility.yul\":529:530   */\n      0x00\n        /* \"#utility.yul\":526:527   */\n      dup1\n        /* \"#utility.yul\":519:531   */\n      revert\n        /* \"#utility.yul\":470:533   */\n    tag_79:\n        /* \"#utility.yul\":417:539   */\n      pop\n      jump\t// out\n        /* \"#utility.yul\":545:684   */\n    tag_46:\n        /* \"#utility.yul\":591:596   */\n      0x00\n        /* \"#utility.yul\":629:635   */\n      dup2\n        /* \"#utility.yul\":616:636   */\n      calldataload\n        /* \"#utility.yul\":607:636   */\n      swap1\n      pop\n        /* \"#utility.yul\":645:678   */\n      tag_81\n        /* \"#utility.yul\":672:677   */\n      dup2\n        /* \"#utility.yul\":645:678   */\n      tag_45\n      jump\t// in\n    tag_81:\n        /* \"#utility.yul\":545:684   */\n      swap3\n      swap2\n      pop\n      pop\n      jump\t// out\n        /* \"#utility.yul\":690:1019   */\n    tag_10:\n        /* \"#utility.yul\":749:755   */\n      0x00\n        /* \"#utility.yul\":798:800   */\n      0x20\n        /* \"#utility.yul\":786:795   */\n      dup3\n        /* \"#utility.yul\":777:784   */\n      dup5\n        /* \"#utility.yul\":773:796   */\n      sub\n        /* \"#utility.yul\":769:801   */\n      slt\n        /* \"#utility.yul\":766:885   */\n      iszero\n      tag_83\n      jumpi\n        /* \"#utility.yul\":804:883   */\n      tag_84\n      tag_42\n      jump\t// in\n    tag_84:\n        /* \"#utility.yul\":766:885   */\n    tag_83:\n        /* \"#utility.yul\":924:925   */\n      0x00\n        /* \"#utility.yul\":949:1002   */\n      tag_85\n        /* \"#utility.yul\":994:1001   */\n      dup5\n        /* \"#utility.yul\":985:991   */\n      dup3\n        /* \"#utility.yul\":974:983   */\n      dup6\n        /* \"#utility.yul\":970:992   */\n      add\n        /* \"#utility.yul\":949:1002   */\n      tag_46\n      jump\t// in\n    tag_85:\n        /* \"#utility.yul\":939:1002   */\n      swap2\n      pop\n        /* \"#utility.yul\":895:1012   */\n      pop\n        /* \"#utility.yul\":690:1019   */\n      swap3\n      swap2\n      pop\n      pop\n      jump\t// out\n        /* \"#utility.yul\":1025:1151   */\n    tag_47:\n        /* \"#utility.yul\":1062:1069   */\n      0x00\n        /* \"#utility.yul\":1102:1144   */\n      0xffffffffffffffffffffffffffffffffffffffff\n        /* \"#utility.yul\":1095:1100   */\n      dup3\n        /* \"#utility.yul\":1091:1145   */\n      and\n        /* \"#utility.yul\":1080:1145   */\n      swap1\n      pop\n        /* \"#utility.yul\":1025:1151   */\n      swap2\n      swap1\n      pop\n      jump\t// out\n        /* \"#utility.yul\":1157:1253   */\n    tag_48:\n        /* \"#utility.yul\":1194:1201   */\n      0x00\n        /* \"#utility.yul\":1223:1247   */\n      tag_88\n        /* \"#utility.yul\":1241:1246   */\n      dup3\n        /* \"#utility.yul\":1223:1247   */\n      tag_47\n      jump\t// in\n    tag_88:\n        /* \"#utility.yul\":1212:1247   */\n      swap1\n      pop\n        /* \"#utility.yul\":1157:1253   */\n      swap2\n      swap1\n      pop\n      jump\t// out\n        /* \"#utility.yul\":1259:1377   */\n    tag_49:\n        /* \"#utility.yul\":1346:1370   */\n      tag_90\n        /* \"#utility.yul\":1364:1369   */\n      dup2\n        /* \"#utility.yul\":1346:1370   */\n      tag_48\n      jump\t// in\n    tag_90:\n        /* \"#utility.yul\":1341:1344   */\n      dup3\n        /* \"#utility.yul\":1334:1371   */\n      mstore\n        /* \"#utility.yul\":1259:1377   */\n      pop\n      pop\n      jump\t// out\n        /* \"#utility.yul\":1383:1605   */\n    tag_13:\n        /* \"#utility.yul\":1476:1480   */\n      0x00\n        /* \"#utility.yul\":1514:1516   */\n      0x20\n        /* \"#utility.yul\":1503:1512   */\n      dup3\n        /* \"#utility.yul\":1499:1517   */\n      add\n        /* \"#utility.yul\":1491:1517   */\n      swap1\n      pop\n        /* \"#utility.yul\":1527:1598   */\n      tag_92\n        /* \"#utility.yul\":1595:1596   */\n      0x00\n        /* \"#utility.yul\":1584:1593   */\n      dup4\n        /* \"#utility.yul\":1580:1597   */\n      add\n        /* \"#utility.yul\":1571:1577   */\n      dup5\n        /* \"#utility.yul\":1527:1598   */\n      tag_49\n      jump\t// in\n    tag_92:\n        /* \"#utility.yul\":1383:1605   */\n      swap3\n      swap2\n      pop\n      pop\n      jump\t// out\n        /* \"#utility.yul\":1611:1728   */\n    tag_50:\n        /* \"#utility.yul\":1720:1721   */\n      0x00\n        /* \"#utility.yul\":1717:1718   */\n      dup1\n        /* \"#utility.yul\":1710:1722   */\n      revert\n        /* \"#utility.yul\":1734:1851   */\n    tag_51:\n        /* \"#utility.yul\":1843:1844   */\n      0x00\n        /* \"#utility.yul\":1840:1841   */\n      dup1\n        /* \"#utility.yul\":1833:1845   */\n      revert\n        /* \"#utility.yul\":1857:1959   */\n    tag_52:\n        /* \"#utility.yul\":1898:1904   */\n      0x00\n        /* \"#utility.yul\":1949:1951   */\n      0x1f\n        /* \"#utility.yul\":1945:1952   */\n      not\n        /* \"#utility.yul\":1940:1942   */\n      0x1f\n        /* \"#utility.yul\":1933:1938   */\n      dup4\n        /* \"#utility.yul\":1929:1943   */\n      add\n        /* \"#utility.yul\":1925:1953   */\n      and\n        /* \"#utility.yul\":1915:1953   */\n      swap1\n      pop\n        /* \"#utility.yul\":1857:1959   */\n      swap2\n      swap1\n      pop\n      jump\t// out\n        /* \"#utility.yul\":1965:2145   */\n    tag_53:\n        /* \"#utility.yul\":2013:2090   */\n      0x4e487b7100000000000000000000000000000000000000000000000000000000\n        /* \"#utility.yul\":2010:2011   */\n      0x00\n        /* \"#utility.yul\":2003:2091   */\n      mstore\n        /* \"#utility.yul\":2110:2114   */\n      0x41\n        /* \"#utility.yul\":2107:2108   */\n      0x04\n        /* \"#utility.yul\":2100:2115   */\n      mstore\n        /* \"#utility.yul\":2134:2138   */\n      0x24\n        /* \"#utility.yul\":2131:2132   */\n      0x00\n        /* \"#utility.yul\":2124:2139   */\n      revert\n        /* \"#utility.yul\":2151:2432   */\n    tag_54:\n        /* \"#utility.yul\":2234:2261   */\n      tag_98\n        /* \"#utility.yul\":2256:2260   */\n      dup3\n        /* \"#utility.yul\":2234:2261   */\n      tag_52\n      jump\t// in\n    tag_98:\n        /* \"#utility.yul\":2226:2232   */\n      dup2\n        /* \"#utility.yul\":2222:2262   */\n      add\n        /* \"#utility.yul\":2364:2370   */\n      dup2\n        /* \"#utility.yul\":2352:2362   */\n      dup2\n        /* \"#utility.yul\":2349:2371   */\n      lt\n        /* \"#utility.yul\":2328:2346   */\n      0xffffffffffffffff\n        /* \"#utility.yul\":2316:2326   */\n      dup3\n        /* \"#utility.yul\":2313:2347   */\n      gt\n        /* \"#utility.yul\":2310:2372   */\n      or\n        /* \"#utility.yul\":2307:2395   */\n      iszero\n      tag_99\n      jumpi\n        /* \"#utility.yul\":2375:2393   */\n      tag_100\n      tag_53\n      jump\t// in\n    tag_100:\n        /* \"#utility.yul\":2307:2395   */\n    tag_99:\n        /* \"#utility.yul\":2415:2425   */\n      dup1\n        /* \"#utility.yul\":2411:2413   */\n      0x40\n        /* \"#utility.yul\":2404:2426   */\n      mstore\n        /* \"#utility.yul\":2194:2432   */\n      pop\n        /* \"#utility.yul\":2151:2432   */\n      pop\n      pop\n      jump\t// out\n        /* \"#utility.yul\":2438:2567   */\n    tag_55:\n        /* \"#utility.yul\":2472:2478   */\n      0x00\n        /* \"#utility.yul\":2499:2519   */\n      tag_102\n      tag_41\n      jump\t// in\n    tag_102:\n        /* \"#utility.yul\":2489:2519   */\n      swap1\n      pop\n        /* \"#utility.yul\":2528:2561   */\n      tag_103\n        /* \"#utility.yul\":2556:2560   */\n      dup3\n        /* \"#utility.yul\":2548:2554   */\n      dup3\n        /* \"#utility.yul\":2528:2561   */\n      tag_54\n      jump\t// in\n    tag_103:\n        /* \"#utility.yul\":2438:2567   */\n      swap2\n      swap1\n      pop\n      jump\t// out\n        /* \"#utility.yul\":2573:2881   */\n    tag_56:\n        /* \"#utility.yul\":2635:2639   */\n      0x00\n        /* \"#utility.yul\":2725:2743   */\n      0xffffffffffffffff\n        /* \"#utility.yul\":2717:2723   */\n      dup3\n        /* \"#utility.yul\":2714:2744   */\n      gt\n        /* \"#utility.yul\":2711:2767   */\n      iszero\n      tag_105\n      jumpi\n        /* \"#utility.yul\":2747:2765   */\n      tag_106\n      tag_53\n      jump\t// in\n    tag_106:\n        /* \"#utility.yul\":2711:2767   */\n    tag_105:\n        /* \"#utility.yul\":2785:2814   */\n      tag_107\n        /* \"#utility.yul\":2807:2813   */\n      dup3\n        /* \"#utility.yul\":2785:2814   */\n      tag_52\n      jump\t// in\n    tag_107:\n        /* \"#utility.yul\":2777:2814   */\n      swap1\n      pop\n        /* \"#utility.yul\":2869:2873   */\n      0x20\n        /* \"#utility.yul\":2863:2867   */\n      dup2\n        /* \"#utility.yul\":2859:2874   */\n      add\n        /* \"#utility.yul\":2851:2874   */\n      swap1\n      pop\n        /* \"#utility.yul\":2573:2881   */\n      swap2\n      swap1\n      pop\n      jump\t// out\n        /* \"#utility.yul\":2887:3041   */\n    tag_57:\n        /* \"#utility.yul\":2971:2977   */\n      dup3\n        /* \"#utility.yul\":2966:2969   */\n      dup2\n        /* \"#utility.yul\":2961:2964   */\n      dup4\n        /* \"#utility.yul\":2948:2978   */\n      calldatacopy\n        /* \"#utility.yul\":3033:3034   */\n      0x00\n        /* \"#utility.yul\":3024:3030   */\n      dup4\n        /* \"#utility.yul\":3019:3022   */\n      dup4\n        /* \"#utility.yul\":3015:3031   */\n      add\n        /* \"#utility.yul\":3008:3035   */\n      mstore\n        /* \"#utility.yul\":2887:3041   */\n      pop\n      pop\n      pop\n      jump\t// out\n        /* \"#utility.yul\":3047:3459   */\n    tag_58:\n        /* \"#utility.yul\":3125:3130   */\n      0x00\n        /* \"#utility.yul\":3150:3216   */\n      tag_110\n        /* \"#utility.yul\":3166:3215   */\n      tag_111\n        /* \"#utility.yul\":3208:3214   */\n      dup5\n        /* \"#utility.yul\":3166:3215   */\n      tag_56\n      jump\t// in\n    tag_111:\n        /* \"#utility.yul\":3150:3216   */\n      tag_55\n      jump\t// in\n    tag_110:\n        /* \"#utility.yul\":3141:3216   */\n      swap1\n      pop\n        /* \"#utility.yul\":3239:3245   */\n      dup3\n        /* \"#utility.yul\":3232:3237   */\n      dup2\n        /* \"#utility.yul\":3225:3246   */\n      mstore\n        /* \"#utility.yul\":3277:3281   */\n      0x20\n        /* \"#utility.yul\":3270:3275   */\n      dup2\n        /* \"#utility.yul\":3266:3282   */\n      add\n        /* \"#utility.yul\":3315:3318   */\n      dup5\n        /* \"#utility.yul\":3306:3312   */\n      dup5\n        /* \"#utility.yul\":3301:3304   */\n      dup5\n        /* \"#utility.yul\":3297:3313   */\n      add\n        /* \"#utility.yul\":3294:3319   */\n      gt\n        /* \"#utility.yul\":3291:3403   */\n      iszero\n      tag_112\n      jumpi\n        /* \"#utility.yul\":3322:3401   */\n      tag_113\n      tag_51\n      jump\t// in\n    tag_113:\n        /* \"#utility.yul\":3291:3403   */\n    tag_112:\n        /* \"#utility.yul\":3412:3453   */\n      tag_114\n        /* \"#utility.yul\":3446:3452   */\n      dup5\n        /* \"#utility.yul\":3441:3444   */\n      dup3\n        /* \"#utility.yul\":3436:3439   */\n      dup6\n        /* \"#utility.yul\":3412:3453   */\n      tag_57\n      jump\t// in\n    tag_114:\n        /* \"#utility.yul\":3131:3459   */\n      pop\n        /* \"#utility.yul\":3047:3459   */\n      swap4\n      swap3\n      pop\n      pop\n      pop\n      jump\t// out\n        /* \"#utility.yul\":3479:3819   */\n    tag_59:\n        /* \"#utility.yul\":3535:3540   */\n      0x00\n        /* \"#utility.yul\":3584:3587   */\n      dup3\n        /* \"#utility.yul\":3577:3581   */\n      0x1f\n        /* \"#utility.yul\":3569:3575   */\n      dup4\n        /* \"#utility.yul\":3565:3582   */\n      add\n        /* \"#utility.yul\":3561:3588   */\n      slt\n        /* \"#utility.yul\":3551:3673   */\n      tag_116\n      jumpi\n        /* \"#utility.yul\":3592:3671   */\n      tag_117\n      tag_50\n      jump\t// in\n    tag_117:\n        /* \"#utility.yul\":3551:3673   */\n    tag_116:\n        /* \"#utility.yul\":3709:3715   */\n      dup2\n        /* \"#utility.yul\":3696:3716   */\n      calldataload\n        /* \"#utility.yul\":3734:3813   */\n      tag_118\n        /* \"#utility.yul\":3809:3812   */\n      dup5\n        /* \"#utility.yul\":3801:3807   */\n      dup3\n        /* \"#utility.yul\":3794:3798   */\n      0x20\n        /* \"#utility.yul\":3786:3792   */\n      dup7\n        /* \"#utility.yul\":3782:3799   */\n      add\n        /* \"#utility.yul\":3734:3813   */\n      tag_58\n      jump\t// in\n    tag_118:\n        /* \"#utility.yul\":3725:3813   */\n      swap2\n      pop\n        /* \"#utility.yul\":3541:3819   */\n      pop\n        /* \"#utility.yul\":3479:3819   */\n      swap3\n      swap2\n      pop\n      pop\n      jump\t// out\n        /* \"#utility.yul\":3825:4770   */\n    tag_22:\n        /* \"#utility.yul\":3921:3927   */\n      0x00\n        /* \"#utility.yul\":3929:3935   */\n      dup1\n        /* \"#utility.yul\":3937:3943   */\n      0x00\n        /* \"#utility.yul\":3945:3951   */\n      dup1\n        /* \"#utility.yul\":3994:3997   */\n      0x80\n        /* \"#utility.yul\":3982:3991   */\n      dup6\n        /* \"#utility.yul\":3973:3980   */\n      dup8\n        /* \"#utility.yul\":3969:3992   */\n      sub\n        /* \"#utility.yul\":3965:3998   */\n      slt\n        /* \"#utility.yul\":3962:4082   */\n      iszero\n      tag_120\n      jumpi\n        /* \"#utility.yul\":4001:4080   */\n      tag_121\n      tag_42\n      jump\t// in\n    tag_121:\n        /* \"#utility.yul\":3962:4082   */\n    tag_120:\n        /* \"#utility.yul\":4149:4150   */\n      0x00\n        /* \"#utility.yul\":4138:4147   */\n      dup6\n        /* \"#utility.yul\":4134:4151   */\n      add\n        /* \"#utility.yul\":4121:4152   */\n      calldataload\n        /* \"#utility.yul\":4179:4197   */\n      0xffffffffffffffff\n        /* \"#utility.yul\":4171:4177   */\n      dup2\n        /* \"#utility.yul\":4168:4198   */\n      gt\n        /* \"#utility.yul\":4165:4282   */\n      iszero\n      tag_122\n      jumpi\n        /* \"#utility.yul\":4201:4280   */\n      tag_123\n      tag_43\n      jump\t// in\n    tag_123:\n        /* \"#utility.yul\":4165:4282   */\n    tag_122:\n        /* \"#utility.yul\":4306:4369   */\n      tag_124\n        /* \"#utility.yul\":4361:4368   */\n      dup8\n        /* \"#utility.yul\":4352:4358   */\n      dup3\n        /* \"#utility.yul\":4341:4350   */\n      dup9\n        /* \"#utility.yul\":4337:4359   */\n      add\n        /* \"#utility.yul\":4306:4369   */\n      tag_59\n      jump\t// in\n    tag_124:\n        /* \"#utility.yul\":4296:4369   */\n      swap5\n      pop\n        /* \"#utility.yul\":4092:4379   */\n      pop\n        /* \"#utility.yul\":4418:4420   */\n      0x20\n        /* \"#utility.yul\":4444:4497   */\n      tag_125\n        /* \"#utility.yul\":4489:4496   */\n      dup8\n        /* \"#utility.yul\":4480:4486   */\n      dup3\n        /* \"#utility.yul\":4469:4478   */\n      dup9\n        /* \"#utility.yul\":4465:4487   */\n      add\n        /* \"#utility.yul\":4444:4497   */\n      tag_46\n      jump\t// in\n    tag_125:\n        /* \"#utility.yul\":4434:4497   */\n      swap4\n      pop\n        /* \"#utility.yul\":4389:4507   */\n      pop\n        /* \"#utility.yul\":4546:4548   */\n      0x40\n        /* \"#utility.yul\":4572:4625   */\n      tag_126\n        /* \"#utility.yul\":4617:4624   */\n      dup8\n        /* \"#utility.yul\":4608:4614   */\n      dup3\n        /* \"#utility.yul\":4597:4606   */\n      dup9\n        /* \"#utility.yul\":4593:4615   */\n      add\n        /* \"#utility.yul\":4572:4625   */\n      tag_46\n      jump\t// in\n    tag_126:\n        /* \"#utility.yul\":4562:4625   */\n      swap3\n      pop\n        /* \"#utility.yul\":4517:4635   */\n      pop\n        /* \"#utility.yul\":4674:4676   */\n      0x60\n        /* \"#utility.yul\":4700:4753   */\n      tag_127\n        /* \"#utility.yul\":4745:4752   */\n      dup8\n        /* \"#utility.yul\":4736:4742   */\n      dup3\n        /* \"#utility.yul\":4725:4734   */\n      dup9\n        /* \"#utility.yul\":4721:4743   */\n      add\n        /* \"#utility.yul\":4700:4753   */\n      tag_46\n      jump\t// in\n    tag_127:\n        /* \"#utility.yul\":4690:4753   */\n      swap2\n      pop\n        /* \"#utility.yul\":4645:4763   */\n      pop\n        /* \"#utility.yul\":3825:4770   */\n      swap3\n      swap6\n      swap2\n      swap5\n      pop\n      swap3\n      pop\n      jump\t// out\n        /* \"#utility.yul\":4776:4890   */\n    tag_60:\n        /* \"#utility.yul\":4843:4849   */\n      0x00\n        /* \"#utility.yul\":4877:4882   */\n      dup2\n        /* \"#utility.yul\":4871:4883   */\n      mload\n        /* \"#utility.yul\":4861:4883   */\n      swap1\n      pop\n        /* \"#utility.yul\":4776:4890   */\n      swap2\n      swap1\n      pop\n      jump\t// out\n        /* \"#utility.yul\":4896:5080   */\n    tag_61:\n        /* \"#utility.yul\":4995:5006   */\n      0x00\n        /* \"#utility.yul\":5029:5035   */\n      dup3\n        /* \"#utility.yul\":5024:5027   */\n      dup3\n        /* \"#utility.yul\":5017:5036   */\n      mstore\n        /* \"#utility.yul\":5069:5073   */\n      0x20\n        /* \"#utility.yul\":5064:5067   */\n      dup3\n        /* \"#utility.yul\":5060:5074   */\n      add\n        /* \"#utility.yul\":5045:5074   */\n      swap1\n      pop\n        /* \"#utility.yul\":4896:5080   */\n      swap3\n      swap2\n      pop\n      pop\n      jump\t// out\n        /* \"#utility.yul\":5086:5218   */\n    tag_62:\n        /* \"#utility.yul\":5153:5157   */\n      0x00\n        /* \"#utility.yul\":5176:5179   */\n      dup2\n        /* \"#utility.yul\":5168:5179   */\n      swap1\n      pop\n        /* \"#utility.yul\":5206:5210   */\n      0x20\n        /* \"#utility.yul\":5201:5204   */\n      dup3\n        /* \"#utility.yul\":5197:5211   */\n      add\n        /* \"#utility.yul\":5189:5211   */\n      swap1\n      pop\n        /* \"#utility.yul\":5086:5218   */\n      swap2\n      swap1\n      pop\n      jump\t// out\n        /* \"#utility.yul\":5224:5332   */\n    tag_63:\n        /* \"#utility.yul\":5301:5325   */\n      tag_132\n        /* \"#utility.yul\":5319:5324   */\n      dup2\n        /* \"#utility.yul\":5301:5325   */\n      tag_48\n      jump\t// in\n    tag_132:\n        /* \"#utility.yul\":5296:5299   */\n      dup3\n        /* \"#utility.yul\":5289:5326   */\n      mstore\n        /* \"#utility.yul\":5224:5332   */\n      pop\n      pop\n      jump\t// out\n        /* \"#utility.yul\":5338:5517   */\n    tag_64:\n        /* \"#utility.yul\":5407:5417   */\n      0x00\n        /* \"#utility.yul\":5428:5474   */\n      tag_134\n        /* \"#utility.yul\":5470:5473   */\n      dup4\n        /* \"#utility.yul\":5462:5468   */\n      dup4\n        /* \"#utility.yul\":5428:5474   */\n      tag_63\n      jump\t// in\n    tag_134:\n        /* \"#utility.yul\":5506:5510   */\n      0x20\n        /* \"#utility.yul\":5501:5504   */\n      dup4\n        /* \"#utility.yul\":5497:5511   */\n      add\n        /* \"#utility.yul\":5483:5511   */\n      swap1\n      pop\n        /* \"#utility.yul\":5338:5517   */\n      swap3\n      swap2\n      pop\n      pop\n      jump\t// out\n        /* \"#utility.yul\":5523:5636   */\n    tag_65:\n        /* \"#utility.yul\":5593:5597   */\n      0x00\n        /* \"#utility.yul\":5625:5629   */\n      0x20\n        /* \"#utility.yul\":5620:5623   */\n      dup3\n        /* \"#utility.yul\":5616:5630   */\n      add\n        /* \"#utility.yul\":5608:5630   */\n      swap1\n      pop\n        /* \"#utility.yul\":5523:5636   */\n      swap2\n      swap1\n      pop\n      jump\t// out\n        /* \"#utility.yul\":5672:6404   */\n    tag_66:\n        /* \"#utility.yul\":5791:5794   */\n      0x00\n        /* \"#utility.yul\":5820:5874   */\n      tag_137\n        /* \"#utility.yul\":5868:5873   */\n      dup3\n        /* \"#utility.yul\":5820:5874   */\n      tag_60\n      jump\t// in\n    tag_137:\n        /* \"#utility.yul\":5890:5976   */\n      tag_138\n        /* \"#utility.yul\":5969:5975   */\n      dup2\n        /* \"#utility.yul\":5964:5967   */\n      dup6\n        /* \"#utility.yul\":5890:5976   */\n      tag_61\n      jump\t// in\n    tag_138:\n        /* \"#utility.yul\":5883:5976   */\n      swap4\n      pop\n        /* \"#utility.yul\":6000:6056   */\n      tag_139\n        /* \"#utility.yul\":6050:6055   */\n      dup4\n        /* \"#utility.yul\":6000:6056   */\n      tag_62\n      jump\t// in\n    tag_139:\n        /* \"#utility.yul\":6079:6086   */\n      dup1\n        /* \"#utility.yul\":6110:6111   */\n      0x00\n        /* \"#utility.yul\":6095:6379   */\n    tag_140:\n        /* \"#utility.yul\":6120:6126   */\n      dup4\n        /* \"#utility.yul\":6117:6118   */\n      dup2\n        /* \"#utility.yul\":6114:6127   */\n      lt\n        /* \"#utility.yul\":6095:6379   */\n      iszero\n      tag_142\n      jumpi\n        /* \"#utility.yul\":6196:6202   */\n      dup2\n        /* \"#utility.yul\":6190:6203   */\n      mload\n        /* \"#utility.yul\":6223:6286   */\n      tag_143\n        /* \"#utility.yul\":6282:6285   */\n      dup9\n        /* \"#utility.yul\":6267:6280   */\n      dup3\n        /* \"#utility.yul\":6223:6286   */\n      tag_64\n      jump\t// in\n    tag_143:\n        /* \"#utility.yul\":6216:6286   */\n      swap8\n      pop\n        /* \"#utility.yul\":6309:6369   */\n      tag_144\n        /* \"#utility.yul\":6362:6368   */\n      dup4\n        /* \"#utility.yul\":6309:6369   */\n      tag_65\n      jump\t// in\n    tag_144:\n        /* \"#utility.yul\":6299:6369   */\n      swap3\n      pop\n        /* \"#utility.yul\":6155:6379   */\n      pop\n        /* \"#utility.yul\":6142:6143   */\n      0x01\n        /* \"#utility.yul\":6139:6140   */\n      dup2\n        /* \"#utility.yul\":6135:6144   */\n      add\n        /* \"#utility.yul\":6130:6144   */\n      swap1\n      pop\n        /* \"#utility.yul\":6095:6379   */\n      jump(tag_140)\n    tag_142:\n        /* \"#utility.yul\":6099:6113   */\n      pop\n        /* \"#utility.yul\":6395:6398   */\n      dup6\n        /* \"#utility.yul\":6388:6398   */\n      swap4\n      pop\n        /* \"#utility.yul\":5796:6404   */\n      pop\n      pop\n      pop\n        /* \"#utility.yul\":5672:6404   */\n      swap3\n      swap2\n      pop\n      pop\n      jump\t// out\n        /* \"#utility.yul\":6410:6783   */\n    tag_27:\n        /* \"#utility.yul\":6553:6557   */\n      0x00\n        /* \"#utility.yul\":6591:6593   */\n      0x20\n        /* \"#utility.yul\":6580:6589   */\n      dup3\n        /* \"#utility.yul\":6576:6594   */\n      add\n        /* \"#utility.yul\":6568:6594   */\n      swap1\n      pop\n        /* \"#utility.yul\":6640:6649   */\n      dup2\n        /* \"#utility.yul\":6634:6638   */\n      dup2\n        /* \"#utility.yul\":6630:6650   */\n      sub\n        /* \"#utility.yul\":6626:6627   */\n      0x00\n        /* \"#utility.yul\":6615:6624   */\n      dup4\n        /* \"#utility.yul\":6611:6628   */\n      add\n        /* \"#utility.yul\":6604:6651   */\n      mstore\n        /* \"#utility.yul\":6668:6776   */\n      tag_146\n        /* \"#utility.yul\":6771:6775   */\n      dup2\n        /* \"#utility.yul\":6762:6768   */\n      dup5\n        /* \"#utility.yul\":6668:6776   */\n      tag_66\n      jump\t// in\n    tag_146:\n        /* \"#utility.yul\":6660:6776   */\n      swap1\n      pop\n        /* \"#utility.yul\":6410:6783   */\n      swap3\n      swap2\n      pop\n      pop\n      jump\t// out\n        /* \"#utility.yul\":6789:6888   */\n    tag_67:\n        /* \"#utility.yul\":6841:6847   */\n      0x00\n        /* \"#utility.yul\":6875:6880   */\n      dup2\n        /* \"#utility.yul\":6869:6881   */\n      mload\n        /* \"#utility.yul\":6859:6881   */\n      swap1\n      pop\n        /* \"#utility.yul\":6789:6888   */\n      swap2\n      swap1\n      pop\n      jump\t// out\n        /* \"#utility.yul\":6894:7063   */\n    tag_68:\n        /* \"#utility.yul\":6978:6989   */\n      0x00\n        /* \"#utility.yul\":7012:7018   */\n      dup3\n        /* \"#utility.yul\":7007:7010   */\n      dup3\n        /* \"#utility.yul\":7000:7019   */\n      mstore\n        /* \"#utility.yul\":7052:7056   */\n      0x20\n        /* \"#utility.yul\":7047:7050   */\n      dup3\n        /* \"#utility.yul\":7043:7057   */\n      add\n        /* \"#utility.yul\":7028:7057   */\n      swap1\n      pop\n        /* \"#utility.yul\":6894:7063   */\n      swap3\n      swap2\n      pop\n      pop\n      jump\t// out\n        /* \"#utility.yul\":7069:7376   */\n    tag_69:\n        /* \"#utility.yul\":7137:7138   */\n      0x00\n        /* \"#utility.yul\":7147:7260   */\n    tag_150:\n        /* \"#utility.yul\":7161:7167   */\n      dup4\n        /* \"#utility.yul\":7158:7159   */\n      dup2\n        /* \"#utility.yul\":7155:7168   */\n      lt\n        /* \"#utility.yul\":7147:7260   */\n      iszero\n      tag_152\n      jumpi\n        /* \"#utility.yul\":7246:7247   */\n      dup1\n        /* \"#utility.yul\":7241:7244   */\n      dup3\n        /* \"#utility.yul\":7237:7248   */\n      add\n        /* \"#utility.yul\":7231:7249   */\n      mload\n        /* \"#utility.yul\":7227:7228   */\n      dup2\n        /* \"#utility.yul\":7222:7225   */\n      dup5\n        /* \"#utility.yul\":7218:7229   */\n      add\n        /* \"#utility.yul\":7211:7250   */\n      mstore\n        /* \"#utility.yul\":7183:7185   */\n      0x20\n        /* \"#utility.yul\":7180:7181   */\n      dup2\n        /* \"#utility.yul\":7176:7186   */\n      add\n        /* \"#utility.yul\":7171:7186   */\n      swap1\n      pop\n        /* \"#utility.yul\":7147:7260   */\n      jump(tag_150)\n    tag_152:\n        /* \"#utility.yul\":7278:7284   */\n      dup4\n        /* \"#utility.yul\":7275:7276   */\n      dup2\n        /* \"#utility.yul\":7272:7285   */\n      gt\n        /* \"#utility.yul\":7269:7370   */\n      iszero\n      tag_153\n      jumpi\n        /* \"#utility.yul\":7358:7359   */\n      0x00\n        /* \"#utility.yul\":7349:7355   */\n      dup5\n        /* \"#utility.yul\":7344:7347   */\n      dup5\n        /* \"#utility.yul\":7340:7356   */\n      add\n        /* \"#utility.yul\":7333:7360   */\n      mstore\n        /* \"#utility.yul\":7269:7370   */\n    tag_153:\n        /* \"#utility.yul\":7118:7376   */\n      pop\n        /* \"#utility.yul\":7069:7376   */\n      pop\n      pop\n      pop\n      jump\t// out\n        /* \"#utility.yul\":7382:7746   */\n    tag_70:\n        /* \"#utility.yul\":7470:7473   */\n      0x00\n        /* \"#utility.yul\":7498:7537   */\n      tag_155\n        /* \"#utility.yul\":7531:7536   */\n      dup3\n        /* \"#utility.yul\":7498:7537   */\n      tag_67\n      jump\t// in\n    tag_155:\n        /* \"#utility.yul\":7553:7624   */\n      tag_156\n        /* \"#utility.yul\":7617:7623   */\n      dup2\n        /* \"#utility.yul\":7612:7615   */\n      dup6\n        /* \"#utility.yul\":7553:7624   */\n      tag_68\n      jump\t// in\n    tag_156:\n        /* \"#utility.yul\":7546:7624   */\n      swap4\n      pop\n        /* \"#utility.yul\":7633:7685   */\n      tag_157\n        /* \"#utility.yul\":7678:7684   */\n      dup2\n        /* \"#utility.yul\":7673:7676   */\n      dup6\n        /* \"#utility.yul\":7666:7670   */\n      0x20\n        /* \"#utility.yul\":7659:7664   */\n      dup7\n        /* \"#utility.yul\":7655:7671   */\n      add\n        /* \"#utility.yul\":7633:7685   */\n      tag_69\n      jump\t// in\n    tag_157:\n        /* \"#utility.yul\":7710:7739   */\n      tag_158\n        /* \"#utility.yul\":7732:7738   */\n      dup2\n        /* \"#utility.yul\":7710:7739   */\n      tag_52\n      jump\t// in\n    tag_158:\n        /* \"#utility.yul\":7705:7708   */\n      dup5\n        /* \"#utility.yul\":7701:7740   */\n      add\n        /* \"#utility.yul\":7694:7740   */\n      swap2\n      pop\n        /* \"#utility.yul\":7474:7746   */\n      pop\n        /* \"#utility.yul\":7382:7746   */\n      swap3\n      swap2\n      pop\n      pop\n      jump\t// out\n        /* \"#utility.yul\":7752:7870   */\n    tag_71:\n        /* \"#utility.yul\":7839:7863   */\n      tag_160\n        /* \"#utility.yul\":7857:7862   */\n      dup2\n        /* \"#utility.yul\":7839:7863   */\n      tag_44\n      jump\t// in\n    tag_160:\n        /* \"#utility.yul\":7834:7837   */\n      dup3\n        /* \"#utility.yul\":7827:7864   */\n      mstore\n        /* \"#utility.yul\":7752:7870   */\n      pop\n      pop\n      jump\t// out\n        /* \"#utility.yul\":7876:8631   */\n    tag_35:\n        /* \"#utility.yul\":8101:8105   */\n      0x00\n        /* \"#utility.yul\":8139:8142   */\n      0xa0\n        /* \"#utility.yul\":8128:8137   */\n      dup3\n        /* \"#utility.yul\":8124:8143   */\n      add\n        /* \"#utility.yul\":8116:8143   */\n      swap1\n      pop\n        /* \"#utility.yul\":8189:8198   */\n      dup2\n        /* \"#utility.yul\":8183:8187   */\n      dup2\n        /* \"#utility.yul\":8179:8199   */\n      sub\n        /* \"#utility.yul\":8175:8176   */\n      0x00\n        /* \"#utility.yul\":8164:8173   */\n      dup4\n        /* \"#utility.yul\":8160:8177   */\n      add\n        /* \"#utility.yul\":8153:8200   */\n      mstore\n        /* \"#utility.yul\":8217:8295   */\n      tag_162\n        /* \"#utility.yul\":8290:8294   */\n      dup2\n        /* \"#utility.yul\":8281:8287   */\n      dup9\n        /* \"#utility.yul\":8217:8295   */\n      tag_70\n      jump\t// in\n    tag_162:\n        /* \"#utility.yul\":8209:8295   */\n      swap1\n      pop\n        /* \"#utility.yul\":8305:8377   */\n      tag_163\n        /* \"#utility.yul\":8373:8375   */\n      0x20\n        /* \"#utility.yul\":8362:8371   */\n      dup4\n        /* \"#utility.yul\":8358:8376   */\n      add\n        /* \"#utility.yul\":8349:8355   */\n      dup8\n        /* \"#utility.yul\":8305:8377   */\n      tag_71\n      jump\t// in\n    tag_163:\n        /* \"#utility.yul\":8387:8459   */\n      tag_164\n        /* \"#utility.yul\":8455:8457   */\n      0x40\n        /* \"#utility.yul\":8444:8453   */\n      dup4\n        /* \"#utility.yul\":8440:8458   */\n      add\n        /* \"#utility.yul\":8431:8437   */\n      dup7\n        /* \"#utility.yul\":8387:8459   */\n      tag_71\n      jump\t// in\n    tag_164:\n        /* \"#utility.yul\":8469:8541   */\n      tag_165\n        /* \"#utility.yul\":8537:8539   */\n      0x60\n        /* \"#utility.yul\":8526:8535   */\n      dup4\n        /* \"#utility.yul\":8522:8540   */\n      add\n        /* \"#utility.yul\":8513:8519   */\n      dup6\n        /* \"#utility.yul\":8469:8541   */\n      tag_71\n      jump\t// in\n    tag_165:\n        /* \"#utility.yul\":8551:8624   */\n      tag_166\n        /* \"#utility.yul\":8619:8622   */\n      0x80\n        /* \"#utility.yul\":8608:8617   */\n      dup4\n        /* \"#utility.yul\":8604:8623   */\n      add\n        /* \"#utility.yul\":8595:8601   */\n      dup5\n        /* \"#utility.yul\":8551:8624   */\n      tag_49\n      jump\t// in\n    tag_166:\n        /* \"#utility.yul\":7876:8631   */\n      swap7\n      swap6\n      pop\n      pop\n      pop\n      pop\n      pop\n      pop\n      jump\t// out\n    stop\n\n    sub_0: assembly {\n            /* \"Project.sol\":74:3177  contract Project {... */\n          mstore(0x40, 0x80)\n            /* \"Project.sol\":782:1228  constructor(... */\n          callvalue\n          dup1\n          iszero\n          tag_1\n          jumpi\n          0x00\n          dup1\n          revert\n        tag_1:\n          pop\n          mload(0x40)\n          sub(codesize, bytecodeSize)\n          dup1\n          bytecodeSize\n          dup4\n          codecopy\n          dup2\n          dup2\n          add\n          0x40\n          mstore\n          dup2\n          add\n          swap1\n          tag_2\n          swap2\n          swap1\n          tag_3\n          jump\t// in\n        tag_2:\n            /* \"Project.sol\":978:988  _minInvest */\n          dup4\n            /* \"Project.sol\":964:974  _maxInvest */\n          dup4\n            /* \"Project.sol\":964:988  _maxInvest >= _minInvest */\n          lt\n          iszero\n            /* \"Project.sol\":956:989  require(_maxInvest >= _minInvest) */\n          tag_6\n          jumpi\n          0x00\n          dup1\n          revert\n        tag_6:\n            /* \"Project.sol\":1017:1027  _minInvest */\n          dup4\n            /* \"Project.sol\":1008:1013  _goal */\n          dup3\n            /* \"Project.sol\":1008:1027  _goal >= _minInvest */\n          lt\n          iszero\n            /* \"Project.sol\":1000:1028  require(_goal >= _minInvest) */\n          tag_7\n          jumpi\n          0x00\n          dup1\n          revert\n        tag_7:\n            /* \"Project.sol\":1056:1066  _maxInvest */\n          dup3\n            /* \"Project.sol\":1047:1052  _goal */\n          dup3\n            /* \"Project.sol\":1047:1066  _goal >= _maxInvest */\n          lt\n          iszero\n            /* \"Project.sol\":1039:1067  require(_goal >= _maxInvest) */\n          tag_8\n          jumpi\n          0x00\n          dup1\n          revert\n        tag_8:\n            /* \"Project.sol\":1094:1106  _description */\n          dup5\n            /* \"Project.sol\":1080:1091  description */\n          0x01\n            /* \"Project.sol\":1080:1106  description = _description */\n          swap1\n          dup1\n          mload\n          swap1\n          0x20\n          add\n          swap1\n          tag_9\n          swap3\n          swap2\n          swap1\n          tag_10\n          jump\t// in\n        tag_9:\n          pop\n            /* \"Project.sol\":1129:1139  _minInvest */\n          dup4\n            /* \"Project.sol\":1117:1126  minInvest */\n          0x02\n            /* \"Project.sol\":1117:1139  minInvest = _minInvest */\n          dup2\n          swap1\n          sstore\n          pop\n            /* \"Project.sol\":1162:1172  _maxInvest */\n          dup3\n            /* \"Project.sol\":1150:1159  maxInvest */\n          0x03\n            /* \"Project.sol\":1150:1172  maxInvest = _maxInvest */\n          dup2\n          swap1\n          sstore\n          pop\n            /* \"Project.sol\":1190:1195  _goal */\n          dup2\n            /* \"Project.sol\":1183:1187  goal */\n          0x04\n            /* \"Project.sol\":1183:1195  goal = _goal */\n          dup2\n          swap1\n          sstore\n          pop\n            /* \"Project.sol\":1214:1220  _owner */\n          dup1\n            /* \"Project.sol\":1206:1211  owner */\n          0x00\n          dup1\n            /* \"Project.sol\":1206:1220  owner = _owner */\n          0x0100\n          exp\n          dup2\n          sload\n          dup2\n          0xffffffffffffffffffffffffffffffffffffffff\n          mul\n          not\n          and\n          swap1\n          dup4\n          0xffffffffffffffffffffffffffffffffffffffff\n          and\n          mul\n          or\n          swap1\n          sstore\n          pop\n            /* \"Project.sol\":782:1228  constructor(... */\n          pop\n          pop\n          pop\n          pop\n          pop\n            /* \"Project.sol\":74:3177  contract Project {... */\n          jump(tag_11)\n        tag_10:\n          dup3\n          dup1\n          sload\n          tag_12\n          swap1\n          tag_13\n          jump\t// in\n        tag_12:\n          swap1\n          0x00\n          mstore\n          keccak256(0x00, 0x20)\n          swap1\n          0x1f\n          add\n          0x20\n          swap1\n          div\n          dup2\n          add\n          swap3\n          dup3\n          tag_15\n          jumpi\n          0x00\n          dup6\n          sstore\n          jump(tag_14)\n        tag_15:\n          dup3\n          0x1f\n          lt\n          tag_16\n          jumpi\n          dup1\n          mload\n          not(0xff)\n          and\n          dup4\n          dup1\n          add\n          or\n          dup6\n          sstore\n          jump(tag_14)\n        tag_16:\n          dup3\n          dup1\n          add\n          0x01\n          add\n          dup6\n          sstore\n          dup3\n          iszero\n          tag_14\n          jumpi\n          swap2\n          dup3\n          add\n        tag_17:\n          dup3\n          dup2\n          gt\n          iszero\n          tag_18\n          jumpi\n          dup3\n          mload\n          dup3\n          sstore\n          swap2\n          0x20\n          add\n          swap2\n          swap1\n          0x01\n          add\n          swap1\n          jump(tag_17)\n        tag_18:\n        tag_14:\n          pop\n          swap1\n          pop\n          tag_19\n          swap2\n          swap1\n          tag_20\n          jump\t// in\n        tag_19:\n          pop\n          swap1\n          jump\t// out\n        tag_20:\n        tag_21:\n          dup1\n          dup3\n          gt\n          iszero\n          tag_22\n          jumpi\n          0x00\n          dup2\n          0x00\n          swap1\n          sstore\n          pop\n          0x01\n          add\n          jump(tag_21)\n        tag_22:\n          pop\n          swap1\n          jump\t// out\n            /* \"#utility.yul\":7:82   */\n        tag_23:\n            /* \"#utility.yul\":40:46   */\n          0x00\n            /* \"#utility.yul\":73:75   */\n          0x40\n            /* \"#utility.yul\":67:76   */\n          mload\n            /* \"#utility.yul\":57:76   */\n          swap1\n          pop\n            /* \"#utility.yul\":7:82   */\n          swap1\n          jump\t// out\n            /* \"#utility.yul\":88:205   */\n        tag_24:\n            /* \"#utility.yul\":197:198   */\n          0x00\n            /* \"#utility.yul\":194:195   */\n          dup1\n            /* \"#utility.yul\":187:199   */\n          revert\n            /* \"#utility.yul\":211:328   */\n        tag_25:\n            /* \"#utility.yul\":320:321   */\n          0x00\n            /* \"#utility.yul\":317:318   */\n          dup1\n            /* \"#utility.yul\":310:322   */\n          revert\n            /* \"#utility.yul\":334:451   */\n        tag_26:\n            /* \"#utility.yul\":443:444   */\n          0x00\n            /* \"#utility.yul\":440:441   */\n          dup1\n            /* \"#utility.yul\":433:445   */\n          revert\n            /* \"#utility.yul\":457:574   */\n        tag_27:\n            /* \"#utility.yul\":566:567   */\n          0x00\n            /* \"#utility.yul\":563:564   */\n          dup1\n            /* \"#utility.yul\":556:568   */\n          revert\n            /* \"#utility.yul\":580:682   */\n        tag_28:\n            /* \"#utility.yul\":621:627   */\n          0x00\n            /* \"#utility.yul\":672:674   */\n          0x1f\n            /* \"#utility.yul\":668:675   */\n          not\n            /* \"#utility.yul\":663:665   */\n          0x1f\n            /* \"#utility.yul\":656:661   */\n          dup4\n            /* \"#utility.yul\":652:666   */\n          add\n            /* \"#utility.yul\":648:676   */\n          and\n            /* \"#utility.yul\":638:676   */\n          swap1\n          pop\n            /* \"#utility.yul\":580:682   */\n          swap2\n          swap1\n          pop\n          jump\t// out\n            /* \"#utility.yul\":688:868   */\n        tag_29:\n            /* \"#utility.yul\":736:813   */\n          0x4e487b7100000000000000000000000000000000000000000000000000000000\n            /* \"#utility.yul\":733:734   */\n          0x00\n            /* \"#utility.yul\":726:814   */\n          mstore\n            /* \"#utility.yul\":833:837   */\n          0x41\n            /* \"#utility.yul\":830:831   */\n          0x04\n            /* \"#utility.yul\":823:838   */\n          mstore\n            /* \"#utility.yul\":857:861   */\n          0x24\n            /* \"#utility.yul\":854:855   */\n          0x00\n            /* \"#utility.yul\":847:862   */\n          revert\n            /* \"#utility.yul\":874:1155   */\n        tag_30:\n            /* \"#utility.yul\":957:984   */\n          tag_53\n            /* \"#utility.yul\":979:983   */\n          dup3\n            /* \"#utility.yul\":957:984   */\n          tag_28\n          jump\t// in\n        tag_53:\n            /* \"#utility.yul\":949:955   */\n          dup2\n            /* \"#utility.yul\":945:985   */\n          add\n            /* \"#utility.yul\":1087:1093   */\n          dup2\n            /* \"#utility.yul\":1075:1085   */\n          dup2\n            /* \"#utility.yul\":1072:1094   */\n          lt\n            /* \"#utility.yul\":1051:1069   */\n          0xffffffffffffffff\n            /* \"#utility.yul\":1039:1049   */\n          dup3\n            /* \"#utility.yul\":1036:1070   */\n          gt\n            /* \"#utility.yul\":1033:1095   */\n          or\n            /* \"#utility.yul\":1030:1118   */\n          iszero\n          tag_54\n          jumpi\n            /* \"#utility.yul\":1098:1116   */\n          tag_55\n          tag_29\n          jump\t// in\n        tag_55:\n            /* \"#utility.yul\":1030:1118   */\n        tag_54:\n            /* \"#utility.yul\":1138:1148   */\n          dup1\n            /* \"#utility.yul\":1134:1136   */\n          0x40\n            /* \"#utility.yul\":1127:1149   */\n          mstore\n            /* \"#utility.yul\":917:1155   */\n          pop\n            /* \"#utility.yul\":874:1155   */\n          pop\n          pop\n          jump\t// out\n            /* \"#utility.yul\":1161:1290   */\n        tag_31:\n            /* \"#utility.yul\":1195:1201   */\n          0x00\n            /* \"#utility.yul\":1222:1242   */\n          tag_57\n          tag_23\n          jump\t// in\n        tag_57:\n            /* \"#utility.yul\":1212:1242   */\n          swap1\n          pop\n            /* \"#utility.yul\":1251:1284   */\n          tag_58\n            /* \"#utility.yul\":1279:1283   */\n          dup3\n            /* \"#utility.yul\":1271:1277   */\n          dup3\n            /* \"#utility.yul\":1251:1284   */\n          tag_30\n          jump\t// in\n        tag_58:\n            /* \"#utility.yul\":1161:1290   */\n          swap2\n          swap1\n          pop\n          jump\t// out\n            /* \"#utility.yul\":1296:1604   */\n        tag_32:\n            /* \"#utility.yul\":1358:1362   */\n          0x00\n            /* \"#utility.yul\":1448:1466   */\n          0xffffffffffffffff\n            /* \"#utility.yul\":1440:1446   */\n          dup3\n            /* \"#utility.yul\":1437:1467   */\n          gt\n            /* \"#utility.yul\":1434:1490   */\n          iszero\n          tag_60\n          jumpi\n            /* \"#utility.yul\":1470:1488   */\n          tag_61\n          tag_29\n          jump\t// in\n        tag_61:\n            /* \"#utility.yul\":1434:1490   */\n        tag_60:\n            /* \"#utility.yul\":1508:1537   */\n          tag_62\n            /* \"#utility.yul\":1530:1536   */\n          dup3\n            /* \"#utility.yul\":1508:1537   */\n          tag_28\n          jump\t// in\n        tag_62:\n            /* \"#utility.yul\":1500:1537   */\n          swap1\n          pop\n            /* \"#utility.yul\":1592:1596   */\n          0x20\n            /* \"#utility.yul\":1586:1590   */\n          dup2\n            /* \"#utility.yul\":1582:1597   */\n          add\n            /* \"#utility.yul\":1574:1597   */\n          swap1\n          pop\n            /* \"#utility.yul\":1296:1604   */\n          swap2\n          swap1\n          pop\n          jump\t// out\n            /* \"#utility.yul\":1610:1917   */\n        tag_33:\n            /* \"#utility.yul\":1678:1679   */\n          0x00\n            /* \"#utility.yul\":1688:1801   */\n        tag_64:\n            /* \"#utility.yul\":1702:1708   */\n          dup4\n            /* \"#utility.yul\":1699:1700   */\n          dup2\n            /* \"#utility.yul\":1696:1709   */\n          lt\n            /* \"#utility.yul\":1688:1801   */\n          iszero\n          tag_66\n          jumpi\n            /* \"#utility.yul\":1787:1788   */\n          dup1\n            /* \"#utility.yul\":1782:1785   */\n          dup3\n            /* \"#utility.yul\":1778:1789   */\n          add\n            /* \"#utility.yul\":1772:1790   */\n          mload\n            /* \"#utility.yul\":1768:1769   */\n          dup2\n            /* \"#utility.yul\":1763:1766   */\n          dup5\n            /* \"#utility.yul\":1759:1770   */\n          add\n            /* \"#utility.yul\":1752:1791   */\n          mstore\n            /* \"#utility.yul\":1724:1726   */\n          0x20\n            /* \"#utility.yul\":1721:1722   */\n          dup2\n            /* \"#utility.yul\":1717:1727   */\n          add\n            /* \"#utility.yul\":1712:1727   */\n          swap1\n          pop\n            /* \"#utility.yul\":1688:1801   */\n          jump(tag_64)\n        tag_66:\n            /* \"#utility.yul\":1819:1825   */\n          dup4\n            /* \"#utility.yul\":1816:1817   */\n          dup2\n            /* \"#utility.yul\":1813:1826   */\n          gt\n            /* \"#utility.yul\":1810:1911   */\n          iszero\n          tag_67\n          jumpi\n            /* \"#utility.yul\":1899:1900   */\n          0x00\n            /* \"#utility.yul\":1890:1896   */\n          dup5\n            /* \"#utility.yul\":1885:1888   */\n          dup5\n            /* \"#utility.yul\":1881:1897   */\n          add\n            /* \"#utility.yul\":1874:1901   */\n          mstore\n            /* \"#utility.yul\":1810:1911   */\n        tag_67:\n            /* \"#utility.yul\":1659:1917   */\n          pop\n            /* \"#utility.yul\":1610:1917   */\n          pop\n          pop\n          pop\n          jump\t// out\n            /* \"#utility.yul\":1923:2344   */\n        tag_34:\n            /* \"#utility.yul\":2012:2017   */\n          0x00\n            /* \"#utility.yul\":2037:2103   */\n          tag_69\n            /* \"#utility.yul\":2053:2102   */\n          tag_70\n            /* \"#utility.yul\":2095:2101   */\n          dup5\n            /* \"#utility.yul\":2053:2102   */\n          tag_32\n          jump\t// in\n        tag_70:\n            /* \"#utility.yul\":2037:2103   */\n          tag_31\n          jump\t// in\n        tag_69:\n            /* \"#utility.yul\":2028:2103   */\n          swap1\n          pop\n            /* \"#utility.yul\":2126:2132   */\n          dup3\n            /* \"#utility.yul\":2119:2124   */\n          dup2\n            /* \"#utility.yul\":2112:2133   */\n          mstore\n            /* \"#utility.yul\":2164:2168   */\n          0x20\n            /* \"#utility.yul\":2157:2162   */\n          dup2\n            /* \"#utility.yul\":2153:2169   */\n          add\n            /* \"#utility.yul\":2202:2205   */\n          dup5\n            /* \"#utility.yul\":2193:2199   */\n          dup5\n            /* \"#utility.yul\":2188:2191   */\n          dup5\n            /* \"#utility.yul\":2184:2200   */\n          add\n            /* \"#utility.yul\":2181:2206   */\n          gt\n            /* \"#utility.yul\":2178:2290   */\n          iszero\n          tag_71\n          jumpi\n            /* \"#utility.yul\":2209:2288   */\n          tag_72\n          tag_27\n          jump\t// in\n        tag_72:\n            /* \"#utility.yul\":2178:2290   */\n        tag_71:\n            /* \"#utility.yul\":2299:2338   */\n          tag_73\n            /* \"#utility.yul\":2331:2337   */\n          dup5\n            /* \"#utility.yul\":2326:2329   */\n          dup3\n            /* \"#utility.yul\":2321:2324   */\n          dup6\n            /* \"#utility.yul\":2299:2338   */\n          tag_33\n          jump\t// in\n        tag_73:\n            /* \"#utility.yul\":2018:2344   */\n          pop\n            /* \"#utility.yul\":1923:2344   */\n          swap4\n          swap3\n          pop\n          pop\n          pop\n          jump\t// out\n            /* \"#utility.yul\":2364:2719   */\n        tag_35:\n            /* \"#utility.yul\":2431:2436   */\n          0x00\n            /* \"#utility.yul\":2480:2483   */\n          dup3\n            /* \"#utility.yul\":2473:2477   */\n          0x1f\n            /* \"#utility.yul\":2465:2471   */\n          dup4\n            /* \"#utility.yul\":2461:2478   */\n          add\n            /* \"#utility.yul\":2457:2484   */\n          slt\n            /* \"#utility.yul\":2447:2569   */\n          tag_75\n          jumpi\n            /* \"#utility.yul\":2488:2567   */\n          tag_76\n          tag_26\n          jump\t// in\n        tag_76:\n            /* \"#utility.yul\":2447:2569   */\n        tag_75:\n            /* \"#utility.yul\":2598:2604   */\n          dup2\n            /* \"#utility.yul\":2592:2605   */\n          mload\n            /* \"#utility.yul\":2623:2713   */\n          tag_77\n            /* \"#utility.yul\":2709:2712   */\n          dup5\n            /* \"#utility.yul\":2701:2707   */\n          dup3\n            /* \"#utility.yul\":2694:2698   */\n          0x20\n            /* \"#utility.yul\":2686:2692   */\n          dup7\n            /* \"#utility.yul\":2682:2699   */\n          add\n            /* \"#utility.yul\":2623:2713   */\n          tag_34\n          jump\t// in\n        tag_77:\n            /* \"#utility.yul\":2614:2713   */\n          swap2\n          pop\n            /* \"#utility.yul\":2437:2719   */\n          pop\n            /* \"#utility.yul\":2364:2719   */\n          swap3\n          swap2\n          pop\n          pop\n          jump\t// out\n            /* \"#utility.yul\":2725:2802   */\n        tag_36:\n            /* \"#utility.yul\":2762:2769   */\n          0x00\n            /* \"#utility.yul\":2791:2796   */\n          dup2\n            /* \"#utility.yul\":2780:2796   */\n          swap1\n          pop\n            /* \"#utility.yul\":2725:2802   */\n          swap2\n          swap1\n          pop\n          jump\t// out\n            /* \"#utility.yul\":2808:2930   */\n        tag_37:\n            /* \"#utility.yul\":2881:2905   */\n          tag_80\n            /* \"#utility.yul\":2899:2904   */\n          dup2\n            /* \"#utility.yul\":2881:2905   */\n          tag_36\n          jump\t// in\n        tag_80:\n            /* \"#utility.yul\":2874:2879   */\n          dup2\n            /* \"#utility.yul\":2871:2906   */\n          eq\n            /* \"#utility.yul\":2861:2924   */\n          tag_81\n          jumpi\n            /* \"#utility.yul\":2920:2921   */\n          0x00\n            /* \"#utility.yul\":2917:2918   */\n          dup1\n            /* \"#utility.yul\":2910:2922   */\n          revert\n            /* \"#utility.yul\":2861:2924   */\n        tag_81:\n            /* \"#utility.yul\":2808:2930   */\n          pop\n          jump\t// out\n            /* \"#utility.yul\":2936:3079   */\n        tag_38:\n            /* \"#utility.yul\":2993:2998   */\n          0x00\n            /* \"#utility.yul\":3024:3030   */\n          dup2\n            /* \"#utility.yul\":3018:3031   */\n          mload\n            /* \"#utility.yul\":3009:3031   */\n          swap1\n          pop\n            /* \"#utility.yul\":3040:3073   */\n          tag_83\n            /* \"#utility.yul\":3067:3072   */\n          dup2\n            /* \"#utility.yul\":3040:3073   */\n          tag_37\n          jump\t// in\n        tag_83:\n            /* \"#utility.yul\":2936:3079   */\n          swap3\n          swap2\n          pop\n          pop\n          jump\t// out\n            /* \"#utility.yul\":3085:3211   */\n        tag_39:\n            /* \"#utility.yul\":3122:3129   */\n          0x00\n            /* \"#utility.yul\":3162:3204   */\n          0xffffffffffffffffffffffffffffffffffffffff\n            /* \"#utility.yul\":3155:3160   */\n          dup3\n            /* \"#utility.yul\":3151:3205   */\n          and\n            /* \"#utility.yul\":3140:3205   */\n          swap1\n          pop\n            /* \"#utility.yul\":3085:3211   */\n          swap2\n          swap1\n          pop\n          jump\t// out\n            /* \"#utility.yul\":3217:3313   */\n        tag_40:\n            /* \"#utility.yul\":3254:3261   */\n          0x00\n            /* \"#utility.yul\":3283:3307   */\n          tag_86\n            /* \"#utility.yul\":3301:3306   */\n          dup3\n            /* \"#utility.yul\":3283:3307   */\n          tag_39\n          jump\t// in\n        tag_86:\n            /* \"#utility.yul\":3272:3307   */\n          swap1\n          pop\n            /* \"#utility.yul\":3217:3313   */\n          swap2\n          swap1\n          pop\n          jump\t// out\n            /* \"#utility.yul\":3319:3441   */\n        tag_41:\n            /* \"#utility.yul\":3392:3416   */\n          tag_88\n            /* \"#utility.yul\":3410:3415   */\n          dup2\n            /* \"#utility.yul\":3392:3416   */\n          tag_40\n          jump\t// in\n        tag_88:\n            /* \"#utility.yul\":3385:3390   */\n          dup2\n            /* \"#utility.yul\":3382:3417   */\n          eq\n            /* \"#utility.yul\":3372:3435   */\n          tag_89\n          jumpi\n            /* \"#utility.yul\":3431:3432   */\n          0x00\n            /* \"#utility.yul\":3428:3429   */\n          dup1\n            /* \"#utility.yul\":3421:3433   */\n          revert\n            /* \"#utility.yul\":3372:3435   */\n        tag_89:\n            /* \"#utility.yul\":3319:3441   */\n          pop\n          jump\t// out\n            /* \"#utility.yul\":3447:3590   */\n        tag_42:\n            /* \"#utility.yul\":3504:3509   */\n          0x00\n            /* \"#utility.yul\":3535:3541   */\n          dup2\n            /* \"#utility.yul\":3529:3542   */\n          mload\n            /* \"#utility.yul\":3520:3542   */\n          swap1\n          pop\n            /* \"#utility.yul\":3551:3584   */\n          tag_91\n            /* \"#utility.yul\":3578:3583   */\n          dup2\n            /* \"#utility.yul\":3551:3584   */\n          tag_41\n          jump\t// in\n        tag_91:\n            /* \"#utility.yul\":3447:3590   */\n          swap3\n          swap2\n          pop\n          pop\n          jump\t// out\n            /* \"#utility.yul\":3596:4746   */\n        tag_3:\n            /* \"#utility.yul\":3712:3718   */\n          0x00\n            /* \"#utility.yul\":3720:3726   */\n          dup1\n            /* \"#utility.yul\":3728:3734   */\n          0x00\n            /* \"#utility.yul\":3736:3742   */\n          dup1\n            /* \"#utility.yul\":3744:3750   */\n          0x00\n            /* \"#utility.yul\":3793:3796   */\n          0xa0\n            /* \"#utility.yul\":3781:3790   */\n          dup7\n            /* \"#utility.yul\":3772:3779   */\n          dup9\n            /* \"#utility.yul\":3768:3791   */\n          sub\n            /* \"#utility.yul\":3764:3797   */\n          slt\n            /* \"#utility.yul\":3761:3881   */\n          iszero\n          tag_93\n          jumpi\n            /* \"#utility.yul\":3800:3879   */\n          tag_94\n          tag_24\n          jump\t// in\n        tag_94:\n            /* \"#utility.yul\":3761:3881   */\n        tag_93:\n            /* \"#utility.yul\":3941:3942   */\n          0x00\n            /* \"#utility.yul\":3930:3939   */\n          dup7\n            /* \"#utility.yul\":3926:3943   */\n          add\n            /* \"#utility.yul\":3920:3944   */\n          mload\n            /* \"#utility.yul\":3971:3989   */\n          0xffffffffffffffff\n            /* \"#utility.yul\":3963:3969   */\n          dup2\n            /* \"#utility.yul\":3960:3990   */\n          gt\n            /* \"#utility.yul\":3957:4074   */\n          iszero\n          tag_95\n          jumpi\n            /* \"#utility.yul\":3993:4072   */\n          tag_96\n          tag_25\n          jump\t// in\n        tag_96:\n            /* \"#utility.yul\":3957:4074   */\n        tag_95:\n            /* \"#utility.yul\":4098:4172   */\n          tag_97\n            /* \"#utility.yul\":4164:4171   */\n          dup9\n            /* \"#utility.yul\":4155:4161   */\n          dup3\n            /* \"#utility.yul\":4144:4153   */\n          dup10\n            /* \"#utility.yul\":4140:4162   */\n          add\n            /* \"#utility.yul\":4098:4172   */\n          tag_35\n          jump\t// in\n        tag_97:\n            /* \"#utility.yul\":4088:4172   */\n          swap6\n          pop\n            /* \"#utility.yul\":3891:4182   */\n          pop\n            /* \"#utility.yul\":4221:4223   */\n          0x20\n            /* \"#utility.yul\":4247:4311   */\n          tag_98\n            /* \"#utility.yul\":4303:4310   */\n          dup9\n            /* \"#utility.yul\":4294:4300   */\n          dup3\n            /* \"#utility.yul\":4283:4292   */\n          dup10\n            /* \"#utility.yul\":4279:4301   */\n          add\n            /* \"#utility.yul\":4247:4311   */\n          tag_38\n          jump\t// in\n        tag_98:\n            /* \"#utility.yul\":4237:4311   */\n          swap5\n          pop\n            /* \"#utility.yul\":4192:4321   */\n          pop\n            /* \"#utility.yul\":4360:4362   */\n          0x40\n            /* \"#utility.yul\":4386:4450   */\n          tag_99\n            /* \"#utility.yul\":4442:4449   */\n          dup9\n            /* \"#utility.yul\":4433:4439   */\n          dup3\n            /* \"#utility.yul\":4422:4431   */\n          dup10\n            /* \"#utility.yul\":4418:4440   */\n          add\n            /* \"#utility.yul\":4386:4450   */\n          tag_38\n          jump\t// in\n        tag_99:\n            /* \"#utility.yul\":4376:4450   */\n          swap4\n          pop\n            /* \"#utility.yul\":4331:4460   */\n          pop\n            /* \"#utility.yul\":4499:4501   */\n          0x60\n            /* \"#utility.yul\":4525:4589   */\n          tag_100\n            /* \"#utility.yul\":4581:4588   */\n          dup9\n            /* \"#utility.yul\":4572:4578   */\n          dup3\n            /* \"#utility.yul\":4561:4570   */\n          dup10\n            /* \"#utility.yul\":4557:4579   */\n          add\n            /* \"#utility.yul\":4525:4589   */\n          tag_38\n          jump\t// in\n        tag_100:\n            /* \"#utility.yul\":4515:4589   */\n          swap3\n          pop\n            /* \"#utility.yul\":4470:4599   */\n          pop\n            /* \"#utility.yul\":4638:4641   */\n          0x80\n            /* \"#utility.yul\":4665:4729   */\n          tag_101\n            /* \"#utility.yul\":4721:4728   */\n          dup9\n            /* \"#utility.yul\":4712:4718   */\n          dup3\n            /* \"#utility.yul\":4701:4710   */\n          dup10\n            /* \"#utility.yul\":4697:4719   */\n          add\n            /* \"#utility.yul\":4665:4729   */\n          tag_42\n          jump\t// in\n        tag_101:\n            /* \"#utility.yul\":4655:4729   */\n          swap2\n          pop\n            /* \"#utility.yul\":4609:4739   */\n          pop\n            /* \"#utility.yul\":3596:4746   */\n          swap3\n          swap6\n          pop\n          swap3\n          swap6\n          swap1\n          swap4\n          pop\n          jump\t// out\n            /* \"#utility.yul\":4752:4932   */\n        tag_43:\n            /* \"#utility.yul\":4800:4877   */\n          0x4e487b7100000000000000000000000000000000000000000000000000000000\n            /* \"#utility.yul\":4797:4798   */\n          0x00\n            /* \"#utility.yul\":4790:4878   */\n          mstore\n            /* \"#utility.yul\":4897:4901   */\n          0x22\n            /* \"#utility.yul\":4894:4895   */\n          0x04\n            /* \"#utility.yul\":4887:4902   */\n          mstore\n            /* \"#utility.yul\":4921:4925   */\n          0x24\n            /* \"#utility.yul\":4918:4919   */\n          0x00\n            /* \"#utility.yul\":4911:4926   */\n          revert\n            /* \"#utility.yul\":4938:5258   */\n        tag_13:\n            /* \"#utility.yul\":4982:4988   */\n          0x00\n            /* \"#utility.yul\":5019:5020   */\n          0x02\n            /* \"#utility.yul\":5013:5017   */\n          dup3\n            /* \"#utility.yul\":5009:5021   */\n          div\n            /* \"#utility.yul\":4999:5021   */\n          swap1\n          pop\n            /* \"#utility.yul\":5066:5067   */\n          0x01\n            /* \"#utility.yul\":5060:5064   */\n          dup3\n            /* \"#utility.yul\":5056:5068   */\n          and\n            /* \"#utility.yul\":5087:5105   */\n          dup1\n            /* \"#utility.yul\":5077:5158   */\n          tag_104\n          jumpi\n            /* \"#utility.yul\":5143:5147   */\n          0x7f\n            /* \"#utility.yul\":5135:5141   */\n          dup3\n            /* \"#utility.yul\":5131:5148   */\n          and\n            /* \"#utility.yul\":5121:5148   */\n          swap2\n          pop\n            /* \"#utility.yul\":5077:5158   */\n        tag_104:\n            /* \"#utility.yul\":5205:5207   */\n          0x20\n            /* \"#utility.yul\":5197:5203   */\n          dup3\n            /* \"#utility.yul\":5194:5208   */\n          lt\n            /* \"#utility.yul\":5174:5192   */\n          dup2\n            /* \"#utility.yul\":5171:5209   */\n          sub\n            /* \"#utility.yul\":5168:5252   */\n          tag_105\n          jumpi\n            /* \"#utility.yul\":5224:5242   */\n          tag_106\n          tag_43\n          jump\t// in\n        tag_106:\n            /* \"#utility.yul\":5168:5252   */\n        tag_105:\n            /* \"#utility.yul\":4989:5258   */\n          pop\n            /* \"#utility.yul\":4938:5258   */\n          swap2\n          swap1\n          pop\n          jump\t// out\n            /* \"Project.sol\":74:3177  contract Project {... */\n        tag_11:\n          dataSize(sub_0)\n          dup1\n          dataOffset(sub_0)\n          0x00\n          codecopy\n          0x00\n          return\n        stop\n\n        sub_0: assembly {\n                /* \"Project.sol\":74:3177  contract Project {... */\n              mstore(0x40, 0x80)\n              jumpi(tag_1, lt(calldatasize, 0x04))\n              shr(0xe0, calldataload(0x00))\n              dup1\n              0x7284e416\n              gt\n              tag_17\n              jumpi\n              dup1\n              0xd2b8b867\n              gt\n              tag_18\n              jumpi\n              dup1\n              0xd2b8b867\n              eq\n              tag_13\n              jumpi\n              dup1\n              0xd7bb99ba\n              eq\n              tag_14\n              jumpi\n              dup1\n              0xd7e64c00\n              eq\n              tag_15\n              jumpi\n              dup1\n              0xde14c818\n              eq\n              tag_16\n              jumpi\n              jump(tag_1)\n            tag_18:\n              dup1\n              0x7284e416\n              eq\n              tag_9\n              jumpi\n              dup1\n              0x87d81789\n              eq\n              tag_10\n              jumpi\n              dup1\n              0x8da5cb5b\n              eq\n              tag_11\n              jumpi\n              dup1\n              0x92d0d153\n              eq\n              tag_12\n              jumpi\n              jump(tag_1)\n            tag_17:\n              dup1\n              0x40193883\n              gt\n              tag_19\n              jumpi\n              dup1\n              0x40193883\n              eq\n              tag_5\n              jumpi\n              dup1\n              0x4051ddac\n              eq\n              tag_6\n              jumpi\n              dup1\n              0x63fd9e38\n              eq\n              tag_7\n              jumpi\n              dup1\n              0x6f7bc9be\n              eq\n              tag_8\n              jumpi\n              jump(tag_1)\n            tag_19:\n              dup1\n              0x03120d46\n              eq\n              tag_2\n              jumpi\n              dup1\n              0x1e36169e\n              eq\n              tag_3\n              jumpi\n              dup1\n              0x3110235a\n              eq\n              tag_4\n              jumpi\n            tag_1:\n              0x00\n              dup1\n              revert\n                /* \"Project.sol\":1625:2123  function createPayment(... */\n            tag_2:\n              callvalue\n              dup1\n              iszero\n              tag_20\n              jumpi\n              0x00\n              dup1\n              revert\n            tag_20:\n              pop\n              tag_21\n              0x04\n              dup1\n              calldatasize\n              sub\n              dup2\n              add\n              swap1\n              tag_22\n              swap2\n              swap1\n              tag_23\n              jump\t// in\n            tag_22:\n              tag_24\n              jump\t// in\n            tag_21:\n              stop\n                /* \"Project.sol\":585:602  uint256 public tt */\n            tag_3:\n              callvalue\n              dup1\n              iszero\n              tag_25\n              jumpi\n              0x00\n              dup1\n              revert\n            tag_25:\n              pop\n              tag_26\n              tag_27\n              jump\t// in\n            tag_26:\n              mload(0x40)\n              tag_28\n              swap2\n              swap1\n              tag_29\n              jump\t// in\n            tag_28:\n              mload(0x40)\n              dup1\n              swap2\n              sub\n              swap1\n              return\n                /* \"Project.sol\":434:458  uint256 public maxInvest */\n            tag_4:\n              callvalue\n              dup1\n              iszero\n              tag_30\n              jumpi\n              0x00\n              dup1\n              revert\n            tag_30:\n              pop\n              tag_31\n              tag_32\n              jump\t// in\n            tag_31:\n              mload(0x40)\n              tag_33\n              swap2\n              swap1\n              tag_29\n              jump\t// in\n            tag_33:\n              mload(0x40)\n              dup1\n              swap2\n              sub\n              swap1\n              return\n                /* \"Project.sol\":465:484  uint256 public goal */\n            tag_5:\n              callvalue\n              dup1\n              iszero\n              tag_34\n              jumpi\n              0x00\n              dup1\n              revert\n            tag_34:\n              pop\n              tag_35\n              tag_36\n              jump\t// in\n            tag_35:\n              mload(0x40)\n              tag_37\n              swap2\n              swap1\n              tag_29\n              jump\t// in\n            tag_37:\n              mload(0x40)\n              dup1\n              swap2\n              sub\n              swap1\n              return\n                /* \"Project.sol\":2827:3174  function getSummary() public view returns (string memory, uint, uint, uint, uint, uint, uint, address) {... */\n            tag_6:\n              callvalue\n              dup1\n              iszero\n              tag_38\n              jumpi\n              0x00\n              dup1\n              revert\n            tag_38:\n              pop\n              tag_39\n              tag_40\n              jump\t// in\n            tag_39:\n              mload(0x40)\n              tag_41\n              swap9\n              swap8\n              swap7\n              swap6\n              swap5\n              swap4\n              swap3\n              swap2\n              swap1\n              tag_42\n              jump\t// in\n            tag_41:\n              mload(0x40)\n              dup1\n              swap2\n              sub\n              swap1\n              return\n                /* \"Project.sol\":403:427  uint256 public minInvest */\n            tag_7:\n              callvalue\n              dup1\n              iszero\n              tag_43\n              jumpi\n              0x00\n              dup1\n              revert\n            tag_43:\n              pop\n              tag_44\n              tag_45\n              jump\t// in\n            tag_44:\n              mload(0x40)\n              tag_46\n              swap2\n              swap1\n              tag_29\n              jump\t// in\n            tag_46:\n              mload(0x40)\n              dup1\n              swap2\n              sub\n              swap1\n              return\n                /* \"Project.sol\":609:653  mapping(address => uint256) public investors */\n            tag_8:\n              callvalue\n              dup1\n              iszero\n              tag_47\n              jumpi\n              0x00\n              dup1\n              revert\n            tag_47:\n              pop\n              tag_48\n              0x04\n              dup1\n              calldatasize\n              sub\n              dup2\n              add\n              swap1\n              tag_49\n              swap2\n              swap1\n              tag_50\n              jump\t// in\n            tag_49:\n              tag_51\n              jump\t// in\n            tag_48:\n              mload(0x40)\n              tag_52\n              swap2\n              swap1\n              tag_29\n              jump\t// in\n            tag_52:\n              mload(0x40)\n              dup1\n              swap2\n              sub\n              swap1\n              return\n                /* \"Project.sol\":371:396  string public description */\n            tag_9:\n              callvalue\n              dup1\n              iszero\n              tag_53\n              jumpi\n              0x00\n              dup1\n              revert\n            tag_53:\n              pop\n              tag_54\n              tag_55\n              jump\t// in\n            tag_54:\n              mload(0x40)\n              tag_56\n              swap2\n              swap1\n              tag_57\n              jump\t// in\n            tag_56:\n              mload(0x40)\n              dup1\n              swap2\n              sub\n              swap1\n              return\n                /* \"Project.sol\":660:685  Payment[] public payments */\n            tag_10:\n              callvalue\n              dup1\n              iszero\n              tag_58\n              jumpi\n              0x00\n              dup1\n              revert\n            tag_58:\n              pop\n              tag_59\n              0x04\n              dup1\n              calldatasize\n              sub\n              dup2\n              add\n              swap1\n              tag_60\n              swap2\n              swap1\n              tag_61\n              jump\t// in\n            tag_60:\n              tag_62\n              jump\t// in\n            tag_59:\n              mload(0x40)\n              tag_63\n              swap6\n              swap5\n              swap4\n              swap3\n              swap2\n              swap1\n              tag_64\n              jump\t// in\n            tag_63:\n              mload(0x40)\n              dup1\n              swap2\n              sub\n              swap1\n              return\n                /* \"Project.sol\":344:364  address public owner */\n            tag_11:\n              callvalue\n              dup1\n              iszero\n              tag_65\n              jumpi\n              0x00\n              dup1\n              revert\n            tag_65:\n              pop\n              tag_66\n              tag_67\n              jump\t// in\n            tag_66:\n              mload(0x40)\n              tag_68\n              swap2\n              swap1\n              tag_69\n              jump\t// in\n            tag_68:\n              mload(0x40)\n              dup1\n              swap2\n              sub\n              swap1\n              return\n                /* \"Project.sol\":562:578  uint256 public t */\n            tag_12:\n              callvalue\n              dup1\n              iszero\n              tag_70\n              jumpi\n              0x00\n              dup1\n              revert\n            tag_70:\n              pop\n              tag_71\n              tag_72\n              jump\t// in\n            tag_71:\n              mload(0x40)\n              tag_73\n              swap2\n              swap1\n              tag_29\n              jump\t// in\n            tag_73:\n              mload(0x40)\n              dup1\n              swap2\n              sub\n              swap1\n              return\n                /* \"Project.sol\":2419:2819  function doPayment(uint256 index) public ownerOnly {... */\n            tag_13:\n              callvalue\n              dup1\n              iszero\n              tag_74\n              jumpi\n              0x00\n              dup1\n              revert\n            tag_74:\n              pop\n              tag_75\n              0x04\n              dup1\n              calldatasize\n              sub\n              dup2\n              add\n              swap1\n              tag_76\n              swap2\n              swap1\n              tag_61\n              jump\t// in\n            tag_76:\n              tag_77\n              jump\t// in\n            tag_75:\n              stop\n                /* \"Project.sol\":1236:1617  function contribute() public payable {... */\n            tag_14:\n              tag_78\n              tag_79\n              jump\t// in\n            tag_78:\n              stop\n                /* \"Project.sol\":527:555  uint256 public investorCount */\n            tag_15:\n              callvalue\n              dup1\n              iszero\n              tag_80\n              jumpi\n              0x00\n              dup1\n              revert\n            tag_80:\n              pop\n              tag_81\n              tag_82\n              jump\t// in\n            tag_81:\n              mload(0x40)\n              tag_83\n              swap2\n              swap1\n              tag_29\n              jump\t// in\n            tag_83:\n              mload(0x40)\n              dup1\n              swap2\n              sub\n              swap1\n              return\n                /* \"Project.sol\":2131:2411  function approvePayment(uint256 index) public {... */\n            tag_16:\n              callvalue\n              dup1\n              iszero\n              tag_84\n              jumpi\n              0x00\n              dup1\n              revert\n            tag_84:\n              pop\n              tag_85\n              0x04\n              dup1\n              calldatasize\n              sub\n              dup2\n              add\n              swap1\n              tag_86\n              swap2\n              swap1\n              tag_61\n              jump\t// in\n            tag_86:\n              tag_87\n              jump\t// in\n            tag_85:\n              stop\n                /* \"Project.sol\":1625:2123  function createPayment(... */\n            tag_24:\n                /* \"Project.sol\":748:753  owner */\n              0x00\n              dup1\n              sload\n              swap1\n              0x0100\n              exp\n              swap1\n              div\n              0xffffffffffffffffffffffffffffffffffffffff\n              and\n                /* \"Project.sol\":734:753  msg.sender == owner */\n              0xffffffffffffffffffffffffffffffffffffffff\n              and\n                /* \"Project.sol\":734:744  msg.sender */\n              caller\n                /* \"Project.sol\":734:753  msg.sender == owner */\n              0xffffffffffffffffffffffffffffffffffffffff\n              and\n              eq\n                /* \"Project.sol\":726:754  require(msg.sender == owner) */\n              tag_89\n              jumpi\n              0x00\n              dup1\n              revert\n            tag_89:\n                /* \"Project.sol\":1782:1803  uint256 paymentsCount */\n              0x00\n                /* \"Project.sol\":1806:1814  payments */\n              0x09\n                /* \"Project.sol\":1806:1821  payments.length */\n              dup1\n              sload\n              swap1\n              pop\n                /* \"Project.sol\":1782:1821  uint256 paymentsCount = payments.length */\n              swap1\n              pop\n                /* \"Project.sol\":1832:1840  payments */\n              0x09\n                /* \"Project.sol\":1832:1847  payments.push() */\n              0x01\n              dup2\n              0x01\n              dup2\n              sload\n              add\n              dup1\n              dup3\n              sstore\n              dup1\n              swap2\n              pop\n              pop\n              sub\n              swap1\n              0x00\n              mstore\n              keccak256(0x00, 0x20)\n              swap1\n              pop\n              pop\n                /* \"Project.sol\":1860:1886  Payment storage newPayment */\n              0x00\n                /* \"Project.sol\":1889:1897  payments */\n              0x09\n                /* \"Project.sol\":1898:1911  paymentsCount */\n              dup3\n                /* \"Project.sol\":1889:1912  payments[paymentsCount] */\n              dup2\n              sload\n              dup2\n              lt\n              tag_92\n              jumpi\n              tag_93\n              tag_94\n              jump\t// in\n            tag_93:\n            tag_92:\n              swap1\n              0x00\n              mstore\n              keccak256(0x00, 0x20)\n              swap1\n              0x05\n              mul\n              add\n                /* \"Project.sol\":1860:1912  Payment storage newPayment = payments[paymentsCount] */\n              swap1\n              pop\n                /* \"Project.sol\":1948:1960  _description */\n              dup5\n                /* \"Project.sol\":1923:1933  newPayment */\n              dup2\n                /* \"Project.sol\":1923:1945  newPayment.description */\n              0x00\n              add\n                /* \"Project.sol\":1923:1960  newPayment.description = _description */\n              swap1\n              dup1\n              mload\n              swap1\n              0x20\n              add\n              swap1\n              tag_96\n              swap3\n              swap2\n              swap1\n              tag_97\n              jump\t// in\n            tag_96:\n              pop\n                /* \"Project.sol\":1991:1998  _amount */\n              dup4\n                /* \"Project.sol\":1971:1981  newPayment */\n              dup2\n                /* \"Project.sol\":1971:1988  newPayment.amount */\n              0x01\n              add\n                /* \"Project.sol\":1971:1998  newPayment.amount = _amount */\n              dup2\n              swap1\n              sstore\n              pop\n                /* \"Project.sol\":2031:2040  _receiver */\n              dup3\n                /* \"Project.sol\":2009:2019  newPayment */\n              dup2\n                /* \"Project.sol\":2009:2028  newPayment.receiver */\n              0x02\n              add\n              0x00\n                /* \"Project.sol\":2009:2040  newPayment.receiver = _receiver */\n              0x0100\n              exp\n              dup2\n              sload\n              dup2\n              0xffffffffffffffffffffffffffffffffffffffff\n              mul\n              not\n              and\n              swap1\n              dup4\n              0xffffffffffffffffffffffffffffffffffffffff\n              and\n              mul\n              or\n              swap1\n              sstore\n              pop\n                /* \"Project.sol\":2074:2079  false */\n              0x00\n                /* \"Project.sol\":2051:2061  newPayment */\n              dup2\n                /* \"Project.sol\":2051:2071  newPayment.completed */\n              0x02\n              add\n              0x14\n                /* \"Project.sol\":2051:2079  newPayment.completed = false */\n              0x0100\n              exp\n              dup2\n              sload\n              dup2\n              0xff\n              mul\n              not\n              and\n              swap1\n              dup4\n              iszero\n              iszero\n              mul\n              or\n              swap1\n              sstore\n              pop\n                /* \"Project.sol\":2114:2115  0 */\n              0x00\n                /* \"Project.sol\":2090:2100  newPayment */\n              dup2\n                /* \"Project.sol\":2090:2111  newPayment.voterCount */\n              0x04\n              add\n                /* \"Project.sol\":2090:2115  newPayment.voterCount = 0 */\n              dup2\n              swap1\n              sstore\n              pop\n                /* \"Project.sol\":1771:2123  {... */\n              pop\n              pop\n                /* \"Project.sol\":1625:2123  function createPayment(... */\n              pop\n              pop\n              pop\n              jump\t// out\n                /* \"Project.sol\":585:602  uint256 public tt */\n            tag_27:\n              sload(0x07)\n              dup2\n              jump\t// out\n                /* \"Project.sol\":434:458  uint256 public maxInvest */\n            tag_32:\n              sload(0x03)\n              dup2\n              jump\t// out\n                /* \"Project.sol\":465:484  uint256 public goal */\n            tag_36:\n              sload(0x04)\n              dup2\n              jump\t// out\n                /* \"Project.sol\":2827:3174  function getSummary() public view returns (string memory, uint, uint, uint, uint, uint, uint, address) {... */\n            tag_40:\n                /* \"Project.sol\":2870:2883  string memory */\n              0x60\n                /* \"Project.sol\":2885:2889  uint */\n              0x00\n                /* \"Project.sol\":2891:2895  uint */\n              dup1\n                /* \"Project.sol\":2897:2901  uint */\n              0x00\n                /* \"Project.sol\":2903:2907  uint */\n              dup1\n                /* \"Project.sol\":2909:2913  uint */\n              0x00\n                /* \"Project.sol\":2915:2919  uint */\n              dup1\n                /* \"Project.sol\":2921:2928  address */\n              0x00\n                /* \"Project.sol\":2963:2974  description */\n              0x01\n                /* \"Project.sol\":2989:2998  minInvest */\n              sload(0x02)\n                /* \"Project.sol\":3013:3022  maxInvest */\n              sload(0x03)\n                /* \"Project.sol\":3037:3041  goal */\n              sload(0x04)\n                /* \"Project.sol\":3056:3077  address(this).balance */\n              selfbalance\n                /* \"Project.sol\":3092:3105  investorCount */\n              sload(0x05)\n                /* \"Project.sol\":3120:3128  payments */\n              0x09\n                /* \"Project.sol\":3120:3135  payments.length */\n              dup1\n              sload\n              swap1\n              pop\n                /* \"Project.sol\":3150:3155  owner */\n              0x00\n              dup1\n              sload\n              swap1\n              0x0100\n              exp\n              swap1\n              div\n              0xffffffffffffffffffffffffffffffffffffffff\n              and\n                /* \"Project.sol\":2941:3166  return (... */\n              dup8\n              dup1\n              sload\n              tag_99\n              swap1\n              tag_100\n              jump\t// in\n            tag_99:\n              dup1\n              0x1f\n              add\n              0x20\n              dup1\n              swap2\n              div\n              mul\n              0x20\n              add\n              mload(0x40)\n              swap1\n              dup2\n              add\n              0x40\n              mstore\n              dup1\n              swap3\n              swap2\n              swap1\n              dup2\n              dup2\n              mstore\n              0x20\n              add\n              dup3\n              dup1\n              sload\n              tag_101\n              swap1\n              tag_100\n              jump\t// in\n            tag_101:\n              dup1\n              iszero\n              tag_102\n              jumpi\n              dup1\n              0x1f\n              lt\n              tag_103\n              jumpi\n              0x0100\n              dup1\n              dup4\n              sload\n              div\n              mul\n              dup4\n              mstore\n              swap2\n              0x20\n              add\n              swap2\n              jump(tag_102)\n            tag_103:\n              dup3\n              add\n              swap2\n              swap1\n              0x00\n              mstore\n              keccak256(0x00, 0x20)\n              swap1\n            tag_104:\n              dup2\n              sload\n              dup2\n              mstore\n              swap1\n              0x01\n              add\n              swap1\n              0x20\n              add\n              dup1\n              dup4\n              gt\n              tag_104\n              jumpi\n              dup3\n              swap1\n              sub\n              0x1f\n              and\n              dup3\n              add\n              swap2\n            tag_102:\n              pop\n              pop\n              pop\n              pop\n              pop\n              swap8\n              pop\n              swap8\n              pop\n              swap8\n              pop\n              swap8\n              pop\n              swap8\n              pop\n              swap8\n              pop\n              swap8\n              pop\n              swap8\n              pop\n              swap8\n              pop\n                /* \"Project.sol\":2827:3174  function getSummary() public view returns (string memory, uint, uint, uint, uint, uint, uint, address) {... */\n              swap1\n              swap2\n              swap3\n              swap4\n              swap5\n              swap6\n              swap7\n              swap8\n              jump\t// out\n                /* \"Project.sol\":403:427  uint256 public minInvest */\n            tag_45:\n              sload(0x02)\n              dup2\n              jump\t// out\n                /* \"Project.sol\":609:653  mapping(address => uint256) public investors */\n            tag_51:\n              mstore(0x20, 0x08)\n              dup1\n              0x00\n              mstore\n              keccak256(0x00, 0x40)\n              0x00\n              swap2\n              pop\n              swap1\n              pop\n              sload\n              dup2\n              jump\t// out\n                /* \"Project.sol\":371:396  string public description */\n            tag_55:\n              0x01\n              dup1\n              sload\n              tag_105\n              swap1\n              tag_100\n              jump\t// in\n            tag_105:\n              dup1\n              0x1f\n              add\n              0x20\n              dup1\n              swap2\n              div\n              mul\n              0x20\n              add\n              mload(0x40)\n              swap1\n              dup2\n              add\n              0x40\n              mstore\n              dup1\n              swap3\n              swap2\n              swap1\n              dup2\n              dup2\n              mstore\n              0x20\n              add\n              dup3\n              dup1\n              sload\n              tag_106\n              swap1\n              tag_100\n              jump\t// in\n            tag_106:\n              dup1\n              iszero\n              tag_107\n              jumpi\n              dup1\n              0x1f\n              lt\n              tag_108\n              jumpi\n              0x0100\n              dup1\n              dup4\n              sload\n              div\n              mul\n              dup4\n              mstore\n              swap2\n              0x20\n              add\n              swap2\n              jump(tag_107)\n            tag_108:\n              dup3\n              add\n              swap2\n              swap1\n              0x00\n              mstore\n              keccak256(0x00, 0x20)\n              swap1\n            tag_109:\n              dup2\n              sload\n              dup2\n              mstore\n              swap1\n              0x01\n              add\n              swap1\n              0x20\n              add\n              dup1\n              dup4\n              gt\n              tag_109\n              jumpi\n              dup3\n              swap1\n              sub\n              0x1f\n              and\n              dup3\n              add\n              swap2\n            tag_107:\n              pop\n              pop\n              pop\n              pop\n              pop\n              dup2\n              jump\t// out\n                /* \"Project.sol\":660:685  Payment[] public payments */\n            tag_62:\n              0x09\n              dup2\n              dup2\n              sload\n              dup2\n              lt\n              tag_110\n              jumpi\n              0x00\n              dup1\n              revert\n            tag_110:\n              swap1\n              0x00\n              mstore\n              keccak256(0x00, 0x20)\n              swap1\n              0x05\n              mul\n              add\n              0x00\n              swap2\n              pop\n              swap1\n              pop\n              dup1\n              0x00\n              add\n              dup1\n              sload\n              tag_112\n              swap1\n              tag_100\n              jump\t// in\n            tag_112:\n              dup1\n              0x1f\n              add\n              0x20\n              dup1\n              swap2\n              div\n              mul\n              0x20\n              add\n              mload(0x40)\n              swap1\n              dup2\n              add\n              0x40\n              mstore\n              dup1\n              swap3\n              swap2\n              swap1\n              dup2\n              dup2\n              mstore\n              0x20\n              add\n              dup3\n              dup1\n              sload\n              tag_113\n              swap1\n              tag_100\n              jump\t// in\n            tag_113:\n              dup1\n              iszero\n              tag_114\n              jumpi\n              dup1\n              0x1f\n              lt\n              tag_115\n              jumpi\n              0x0100\n              dup1\n              dup4\n              sload\n              div\n              mul\n              dup4\n              mstore\n              swap2\n              0x20\n              add\n              swap2\n              jump(tag_114)\n            tag_115:\n              dup3\n              add\n              swap2\n              swap1\n              0x00\n              mstore\n              keccak256(0x00, 0x20)\n              swap1\n            tag_116:\n              dup2\n              sload\n              dup2\n              mstore\n              swap1\n              0x01\n              add\n              swap1\n              0x20\n              add\n              dup1\n              dup4\n              gt\n              tag_116\n              jumpi\n              dup3\n              swap1\n              sub\n              0x1f\n              and\n              dup3\n              add\n              swap2\n            tag_114:\n              pop\n              pop\n              pop\n              pop\n              pop\n              swap1\n              dup1\n              0x01\n              add\n              sload\n              swap1\n              dup1\n              0x02\n              add\n              0x00\n              swap1\n              sload\n              swap1\n              0x0100\n              exp\n              swap1\n              div\n              0xffffffffffffffffffffffffffffffffffffffff\n              and\n              swap1\n              dup1\n              0x02\n              add\n              0x14\n              swap1\n              sload\n              swap1\n              0x0100\n              exp\n              swap1\n              div\n              0xff\n              and\n              swap1\n              dup1\n              0x04\n              add\n              sload\n              swap1\n              pop\n              dup6\n              jump\t// out\n                /* \"Project.sol\":344:364  address public owner */\n            tag_67:\n              0x00\n              dup1\n              sload\n              swap1\n              0x0100\n              exp\n              swap1\n              div\n              0xffffffffffffffffffffffffffffffffffffffff\n              and\n              dup2\n              jump\t// out\n                /* \"Project.sol\":562:578  uint256 public t */\n            tag_72:\n              sload(0x06)\n              dup2\n              jump\t// out\n                /* \"Project.sol\":2419:2819  function doPayment(uint256 index) public ownerOnly {... */\n            tag_77:\n                /* \"Project.sol\":748:753  owner */\n              0x00\n              dup1\n              sload\n              swap1\n              0x0100\n              exp\n              swap1\n              div\n              0xffffffffffffffffffffffffffffffffffffffff\n              and\n                /* \"Project.sol\":734:753  msg.sender == owner */\n              0xffffffffffffffffffffffffffffffffffffffff\n              and\n                /* \"Project.sol\":734:744  msg.sender */\n              caller\n                /* \"Project.sol\":734:753  msg.sender == owner */\n              0xffffffffffffffffffffffffffffffffffffffff\n              and\n              eq\n                /* \"Project.sol\":726:754  require(msg.sender == owner) */\n              tag_118\n              jumpi\n              0x00\n              dup1\n              revert\n            tag_118:\n                /* \"Project.sol\":2503:2508  owner */\n              0x00\n              dup1\n              sload\n              swap1\n              0x0100\n              exp\n              swap1\n              div\n              0xffffffffffffffffffffffffffffffffffffffff\n              and\n                /* \"Project.sol\":2489:2508  msg.sender == owner */\n              0xffffffffffffffffffffffffffffffffffffffff\n              and\n                /* \"Project.sol\":2489:2499  msg.sender */\n              caller\n                /* \"Project.sol\":2489:2508  msg.sender == owner */\n              0xffffffffffffffffffffffffffffffffffffffff\n              and\n              eq\n                /* \"Project.sol\":2481:2509  require(msg.sender == owner) */\n              tag_120\n              jumpi\n              0x00\n              dup1\n              revert\n            tag_120:\n                /* \"Project.sol\":2522:2545  Payment storage payment */\n              0x00\n                /* \"Project.sol\":2548:2556  payments */\n              0x09\n                /* \"Project.sol\":2557:2562  index */\n              dup3\n                /* \"Project.sol\":2548:2563  payments[index] */\n              dup2\n              sload\n              dup2\n              lt\n              tag_121\n              jumpi\n              tag_122\n              tag_94\n              jump\t// in\n            tag_122:\n            tag_121:\n              swap1\n              0x00\n              mstore\n              keccak256(0x00, 0x20)\n              swap1\n              0x05\n              mul\n              add\n                /* \"Project.sol\":2522:2563  Payment storage payment = payments[index] */\n              swap1\n              pop\n                /* \"Project.sol\":2585:2592  payment */\n              dup1\n                /* \"Project.sol\":2585:2602  payment.completed */\n              0x02\n              add\n              0x14\n              swap1\n              sload\n              swap1\n              0x0100\n              exp\n              swap1\n              div\n              0xff\n              and\n                /* \"Project.sol\":2584:2602  !payment.completed */\n              iszero\n                /* \"Project.sol\":2576:2603  require(!payment.completed) */\n              tag_124\n              jumpi\n              0x00\n              dup1\n              revert\n            tag_124:\n                /* \"Project.sol\":2647:2654  payment */\n              dup1\n                /* \"Project.sol\":2647:2661  payment.amount */\n              0x01\n              add\n              sload\n                /* \"Project.sol\":2622:2643  address(this).balance */\n              selfbalance\n                /* \"Project.sol\":2622:2661  address(this).balance >= payment.amount */\n              lt\n              iszero\n                /* \"Project.sol\":2614:2662  require(address(this).balance >= payment.amount) */\n              tag_125\n              jumpi\n              0x00\n              dup1\n              revert\n            tag_125:\n                /* \"Project.sol\":2719:2720  2 */\n              0x02\n                /* \"Project.sol\":2703:2716  investorCount */\n              sload(0x05)\n                /* \"Project.sol\":2703:2720  investorCount / 2 */\n              tag_126\n              swap2\n              swap1\n              tag_127\n              jump\t// in\n            tag_126:\n                /* \"Project.sol\":2681:2688  payment */\n              dup2\n                /* \"Project.sol\":2681:2699  payment.voterCount */\n              0x04\n              add\n              sload\n                /* \"Project.sol\":2681:2721  payment.voterCount > (investorCount / 2) */\n              gt\n                /* \"Project.sol\":2673:2722  require(payment.voterCount > (investorCount / 2)) */\n              tag_128\n              jumpi\n              0x00\n              dup1\n              revert\n            tag_128:\n                /* \"Project.sol\":2735:2742  payment */\n              dup1\n                /* \"Project.sol\":2735:2751  payment.receiver */\n              0x02\n              add\n              0x00\n              swap1\n              sload\n              swap1\n              0x0100\n              exp\n              swap1\n              div\n              0xffffffffffffffffffffffffffffffffffffffff\n              and\n                /* \"Project.sol\":2735:2760  payment.receiver.transfer */\n              0xffffffffffffffffffffffffffffffffffffffff\n              and\n                /* \"Project.sol\":2735:2776  payment.receiver.transfer(payment.amount) */\n              0x08fc\n                /* \"Project.sol\":2761:2768  payment */\n              dup3\n                /* \"Project.sol\":2761:2775  payment.amount */\n              0x01\n              add\n              sload\n                /* \"Project.sol\":2735:2776  payment.receiver.transfer(payment.amount) */\n              swap1\n              dup2\n              iszero\n              mul\n              swap1\n              mload(0x40)\n              0x00\n              mload(0x40)\n              dup1\n              dup4\n              sub\n              dup2\n              dup6\n              dup9\n              dup9\n              call\n              swap4\n              pop\n              pop\n              pop\n              pop\n              iszero\n              dup1\n              iszero\n              tag_130\n              jumpi\n              returndatasize\n              0x00\n              dup1\n              returndatacopy\n              revert(0x00, returndatasize)\n            tag_130:\n              pop\n                /* \"Project.sol\":2807:2811  true */\n              0x01\n                /* \"Project.sol\":2787:2794  payment */\n              dup2\n                /* \"Project.sol\":2787:2804  payment.completed */\n              0x02\n              add\n              0x14\n                /* \"Project.sol\":2787:2811  payment.completed = true */\n              0x0100\n              exp\n              dup2\n              sload\n              dup2\n              0xff\n              mul\n              not\n              and\n              swap1\n              dup4\n              iszero\n              iszero\n              mul\n              or\n              swap1\n              sstore\n              pop\n                /* \"Project.sol\":2470:2819  {... */\n              pop\n                /* \"Project.sol\":2419:2819  function doPayment(uint256 index) public ownerOnly {... */\n              pop\n              jump\t// out\n                /* \"Project.sol\":1236:1617  function contribute() public payable {... */\n            tag_79:\n                /* \"Project.sol\":1305:1314  minInvest */\n              sload(0x02)\n                /* \"Project.sol\":1292:1301  msg.value */\n              callvalue\n                /* \"Project.sol\":1292:1314  msg.value >= minInvest */\n              lt\n              iszero\n                /* \"Project.sol\":1284:1315  require(msg.value >= minInvest) */\n              tag_132\n              jumpi\n              0x00\n              dup1\n              revert\n            tag_132:\n                /* \"Project.sol\":1347:1356  maxInvest */\n              sload(0x03)\n                /* \"Project.sol\":1334:1343  msg.value */\n              callvalue\n                /* \"Project.sol\":1334:1356  msg.value <= maxInvest */\n              gt\n              iszero\n                /* \"Project.sol\":1326:1357  require(msg.value <= maxInvest) */\n              tag_133\n              jumpi\n              0x00\n              dup1\n              revert\n            tag_133:\n                /* \"Project.sol\":1401:1405  goal */\n              sload(0x04)\n                /* \"Project.sol\":1376:1397  address(this).balance */\n              selfbalance\n                /* \"Project.sol\":1376:1405  address(this).balance <= goal */\n              gt\n              iszero\n                /* \"Project.sol\":1368:1406  require(address(this).balance <= goal) */\n              tag_134\n              jumpi\n              0x00\n              dup1\n              revert\n            tag_134:\n                /* \"Project.sol\":1447:1448  0 */\n              0x00\n                /* \"Project.sol\":1423:1432  investors */\n              0x08\n                /* \"Project.sol\":1423:1444  investors[msg.sender] */\n              0x00\n                /* \"Project.sol\":1433:1443  msg.sender */\n              caller\n                /* \"Project.sol\":1423:1444  investors[msg.sender] */\n              0xffffffffffffffffffffffffffffffffffffffff\n              and\n              0xffffffffffffffffffffffffffffffffffffffff\n              and\n              dup2\n              mstore\n              0x20\n              add\n              swap1\n              dup2\n              mstore\n              0x20\n              add\n              0x00\n              keccak256\n              sload\n                /* \"Project.sol\":1423:1448  investors[msg.sender] > 0 */\n              gt\n                /* \"Project.sol\":1419:1610  if (investors[msg.sender] > 0) {... */\n              iszero\n              tag_135\n              jumpi\n                /* \"Project.sol\":1490:1499  msg.value */\n              callvalue\n                /* \"Project.sol\":1465:1474  investors */\n              0x08\n                /* \"Project.sol\":1465:1486  investors[msg.sender] */\n              0x00\n                /* \"Project.sol\":1475:1485  msg.sender */\n              caller\n                /* \"Project.sol\":1465:1486  investors[msg.sender] */\n              0xffffffffffffffffffffffffffffffffffffffff\n              and\n              0xffffffffffffffffffffffffffffffffffffffff\n              and\n              dup2\n              mstore\n              0x20\n              add\n              swap1\n              dup2\n              mstore\n              0x20\n              add\n              0x00\n              keccak256\n              0x00\n                /* \"Project.sol\":1465:1499  investors[msg.sender] += msg.value */\n              dup3\n              dup3\n              sload\n              tag_136\n              swap2\n              swap1\n              tag_137\n              jump\t// in\n            tag_136:\n              swap3\n              pop\n              pop\n              dup2\n              swap1\n              sstore\n              pop\n                /* \"Project.sol\":1419:1610  if (investors[msg.sender] > 0) {... */\n              jump(tag_138)\n            tag_135:\n                /* \"Project.sol\":1556:1565  msg.value */\n              callvalue\n                /* \"Project.sol\":1532:1541  investors */\n              0x08\n                /* \"Project.sol\":1532:1553  investors[msg.sender] */\n              0x00\n                /* \"Project.sol\":1542:1552  msg.sender */\n              caller\n                /* \"Project.sol\":1532:1553  investors[msg.sender] */\n              0xffffffffffffffffffffffffffffffffffffffff\n              and\n              0xffffffffffffffffffffffffffffffffffffffff\n              and\n              dup2\n              mstore\n              0x20\n              add\n              swap1\n              dup2\n              mstore\n              0x20\n              add\n              0x00\n              keccak256\n                /* \"Project.sol\":1532:1565  investors[msg.sender] = msg.value */\n              dup2\n              swap1\n              sstore\n              pop\n                /* \"Project.sol\":1597:1598  1 */\n              0x01\n                /* \"Project.sol\":1580:1593  investorCount */\n              0x05\n              0x00\n                /* \"Project.sol\":1580:1598  investorCount += 1 */\n              dup3\n              dup3\n              sload\n              tag_139\n              swap2\n              swap1\n              tag_137\n              jump\t// in\n            tag_139:\n              swap3\n              pop\n              pop\n              dup2\n              swap1\n              sstore\n              pop\n                /* \"Project.sol\":1419:1610  if (investors[msg.sender] > 0) {... */\n            tag_138:\n                /* \"Project.sol\":1236:1617  function contribute() public payable {... */\n              jump\t// out\n                /* \"Project.sol\":527:555  uint256 public investorCount */\n            tag_82:\n              sload(0x05)\n              dup2\n              jump\t// out\n                /* \"Project.sol\":2131:2411  function approvePayment(uint256 index) public {... */\n            tag_87:\n                /* \"Project.sol\":2188:2211  Payment storage payment */\n              0x00\n                /* \"Project.sol\":2214:2222  payments */\n              0x09\n                /* \"Project.sol\":2223:2228  index */\n              dup3\n                /* \"Project.sol\":2214:2229  payments[index] */\n              dup2\n              sload\n              dup2\n              lt\n              tag_141\n              jumpi\n              tag_142\n              tag_94\n              jump\t// in\n            tag_142:\n            tag_141:\n              swap1\n              0x00\n              mstore\n              keccak256(0x00, 0x20)\n              swap1\n              0x05\n              mul\n              add\n                /* \"Project.sol\":2188:2229  Payment storage payment = payments[index] */\n              swap1\n              pop\n                /* \"Project.sol\":2274:2275  0 */\n              0x00\n                /* \"Project.sol\":2250:2259  investors */\n              0x08\n                /* \"Project.sol\":2250:2271  investors[msg.sender] */\n              0x00\n                /* \"Project.sol\":2260:2270  msg.sender */\n              caller\n                /* \"Project.sol\":2250:2271  investors[msg.sender] */\n              0xffffffffffffffffffffffffffffffffffffffff\n              and\n              0xffffffffffffffffffffffffffffffffffffffff\n              and\n              dup2\n              mstore\n              0x20\n              add\n              swap1\n              dup2\n              mstore\n              0x20\n              add\n              0x00\n              keccak256\n              sload\n                /* \"Project.sol\":2250:2275  investors[msg.sender] > 0 */\n              gt\n                /* \"Project.sol\":2242:2276  require(investors[msg.sender] > 0) */\n              tag_144\n              jumpi\n              0x00\n              dup1\n              revert\n            tag_144:\n                /* \"Project.sol\":2296:2303  payment */\n              dup1\n                /* \"Project.sol\":2296:2310  payment.voters */\n              0x03\n              add\n                /* \"Project.sol\":2296:2322  payment.voters[msg.sender] */\n              0x00\n                /* \"Project.sol\":2311:2321  msg.sender */\n              caller\n                /* \"Project.sol\":2296:2322  payment.voters[msg.sender] */\n              0xffffffffffffffffffffffffffffffffffffffff\n              and\n              0xffffffffffffffffffffffffffffffffffffffff\n              and\n              dup2\n              mstore\n              0x20\n              add\n              swap1\n              dup2\n              mstore\n              0x20\n              add\n              0x00\n              keccak256\n              0x00\n              swap1\n              sload\n              swap1\n              0x0100\n              exp\n              swap1\n              div\n              0xff\n              and\n                /* \"Project.sol\":2295:2322  !payment.voters[msg.sender] */\n              iszero\n                /* \"Project.sol\":2287:2323  require(!payment.voters[msg.sender]) */\n              tag_145\n              jumpi\n              0x00\n              dup1\n              revert\n            tag_145:\n                /* \"Project.sol\":2365:2369  true */\n              0x01\n                /* \"Project.sol\":2336:2343  payment */\n              dup2\n                /* \"Project.sol\":2336:2350  payment.voters */\n              0x03\n              add\n                /* \"Project.sol\":2336:2362  payment.voters[msg.sender] */\n              0x00\n                /* \"Project.sol\":2351:2361  msg.sender */\n              caller\n                /* \"Project.sol\":2336:2362  payment.voters[msg.sender] */\n              0xffffffffffffffffffffffffffffffffffffffff\n              and\n              0xffffffffffffffffffffffffffffffffffffffff\n              and\n              dup2\n              mstore\n              0x20\n              add\n              swap1\n              dup2\n              mstore\n              0x20\n              add\n              0x00\n              keccak256\n              0x00\n                /* \"Project.sol\":2336:2369  payment.voters[msg.sender] = true */\n              0x0100\n              exp\n              dup2\n              sload\n              dup2\n              0xff\n              mul\n              not\n              and\n              swap1\n              dup4\n              iszero\n              iszero\n              mul\n              or\n              swap1\n              sstore\n              pop\n                /* \"Project.sol\":2402:2403  1 */\n              0x01\n                /* \"Project.sol\":2380:2387  payment */\n              dup2\n                /* \"Project.sol\":2380:2398  payment.voterCount */\n              0x04\n              add\n              0x00\n                /* \"Project.sol\":2380:2403  payment.voterCount += 1 */\n              dup3\n              dup3\n              sload\n              tag_146\n              swap2\n              swap1\n              tag_137\n              jump\t// in\n            tag_146:\n              swap3\n              pop\n              pop\n              dup2\n              swap1\n              sstore\n              pop\n                /* \"Project.sol\":2177:2411  {... */\n              pop\n                /* \"Project.sol\":2131:2411  function approvePayment(uint256 index) public {... */\n              pop\n              jump\t// out\n            tag_97:\n              dup3\n              dup1\n              sload\n              tag_147\n              swap1\n              tag_100\n              jump\t// in\n            tag_147:\n              swap1\n              0x00\n              mstore\n              keccak256(0x00, 0x20)\n              swap1\n              0x1f\n              add\n              0x20\n              swap1\n              div\n              dup2\n              add\n              swap3\n              dup3\n              tag_149\n              jumpi\n              0x00\n              dup6\n              sstore\n              jump(tag_148)\n            tag_149:\n              dup3\n              0x1f\n              lt\n              tag_150\n              jumpi\n              dup1\n              mload\n              not(0xff)\n              and\n              dup4\n              dup1\n              add\n              or\n              dup6\n              sstore\n              jump(tag_148)\n            tag_150:\n              dup3\n              dup1\n              add\n              0x01\n              add\n              dup6\n              sstore\n              dup3\n              iszero\n              tag_148\n              jumpi\n              swap2\n              dup3\n              add\n            tag_151:\n              dup3\n              dup2\n              gt\n              iszero\n              tag_152\n              jumpi\n              dup3\n              mload\n              dup3\n              sstore\n              swap2\n              0x20\n              add\n              swap2\n              swap1\n              0x01\n              add\n              swap1\n              jump(tag_151)\n            tag_152:\n            tag_148:\n              pop\n              swap1\n              pop\n              tag_153\n              swap2\n              swap1\n              tag_154\n              jump\t// in\n            tag_153:\n              pop\n              swap1\n              jump\t// out\n            tag_154:\n            tag_155:\n              dup1\n              dup3\n              gt\n              iszero\n              tag_156\n              jumpi\n              0x00\n              dup2\n              0x00\n              swap1\n              sstore\n              pop\n              0x01\n              add\n              jump(tag_155)\n            tag_156:\n              pop\n              swap1\n              jump\t// out\n                /* \"#utility.yul\":7:82   */\n            tag_157:\n                /* \"#utility.yul\":40:46   */\n              0x00\n                /* \"#utility.yul\":73:75   */\n              0x40\n                /* \"#utility.yul\":67:76   */\n              mload\n                /* \"#utility.yul\":57:76   */\n              swap1\n              pop\n                /* \"#utility.yul\":7:82   */\n              swap1\n              jump\t// out\n                /* \"#utility.yul\":88:205   */\n            tag_158:\n                /* \"#utility.yul\":197:198   */\n              0x00\n                /* \"#utility.yul\":194:195   */\n              dup1\n                /* \"#utility.yul\":187:199   */\n              revert\n                /* \"#utility.yul\":211:328   */\n            tag_159:\n                /* \"#utility.yul\":320:321   */\n              0x00\n                /* \"#utility.yul\":317:318   */\n              dup1\n                /* \"#utility.yul\":310:322   */\n              revert\n                /* \"#utility.yul\":334:451   */\n            tag_160:\n                /* \"#utility.yul\":443:444   */\n              0x00\n                /* \"#utility.yul\":440:441   */\n              dup1\n                /* \"#utility.yul\":433:445   */\n              revert\n                /* \"#utility.yul\":457:574   */\n            tag_161:\n                /* \"#utility.yul\":566:567   */\n              0x00\n                /* \"#utility.yul\":563:564   */\n              dup1\n                /* \"#utility.yul\":556:568   */\n              revert\n                /* \"#utility.yul\":580:682   */\n            tag_162:\n                /* \"#utility.yul\":621:627   */\n              0x00\n                /* \"#utility.yul\":672:674   */\n              0x1f\n                /* \"#utility.yul\":668:675   */\n              not\n                /* \"#utility.yul\":663:665   */\n              0x1f\n                /* \"#utility.yul\":656:661   */\n              dup4\n                /* \"#utility.yul\":652:666   */\n              add\n                /* \"#utility.yul\":648:676   */\n              and\n                /* \"#utility.yul\":638:676   */\n              swap1\n              pop\n                /* \"#utility.yul\":580:682   */\n              swap2\n              swap1\n              pop\n              jump\t// out\n                /* \"#utility.yul\":688:868   */\n            tag_163:\n                /* \"#utility.yul\":736:813   */\n              0x4e487b7100000000000000000000000000000000000000000000000000000000\n                /* \"#utility.yul\":733:734   */\n              0x00\n                /* \"#utility.yul\":726:814   */\n              mstore\n                /* \"#utility.yul\":833:837   */\n              0x41\n                /* \"#utility.yul\":830:831   */\n              0x04\n                /* \"#utility.yul\":823:838   */\n              mstore\n                /* \"#utility.yul\":857:861   */\n              0x24\n                /* \"#utility.yul\":854:855   */\n              0x00\n                /* \"#utility.yul\":847:862   */\n              revert\n                /* \"#utility.yul\":874:1155   */\n            tag_164:\n                /* \"#utility.yul\":957:984   */\n              tag_201\n                /* \"#utility.yul\":979:983   */\n              dup3\n                /* \"#utility.yul\":957:984   */\n              tag_162\n              jump\t// in\n            tag_201:\n                /* \"#utility.yul\":949:955   */\n              dup2\n                /* \"#utility.yul\":945:985   */\n              add\n                /* \"#utility.yul\":1087:1093   */\n              dup2\n                /* \"#utility.yul\":1075:1085   */\n              dup2\n                /* \"#utility.yul\":1072:1094   */\n              lt\n                /* \"#utility.yul\":1051:1069   */\n              0xffffffffffffffff\n                /* \"#utility.yul\":1039:1049   */\n              dup3\n                /* \"#utility.yul\":1036:1070   */\n              gt\n                /* \"#utility.yul\":1033:1095   */\n              or\n                /* \"#utility.yul\":1030:1118   */\n              iszero\n              tag_202\n              jumpi\n                /* \"#utility.yul\":1098:1116   */\n              tag_203\n              tag_163\n              jump\t// in\n            tag_203:\n                /* \"#utility.yul\":1030:1118   */\n            tag_202:\n                /* \"#utility.yul\":1138:1148   */\n              dup1\n                /* \"#utility.yul\":1134:1136   */\n              0x40\n                /* \"#utility.yul\":1127:1149   */\n              mstore\n                /* \"#utility.yul\":917:1155   */\n              pop\n                /* \"#utility.yul\":874:1155   */\n              pop\n              pop\n              jump\t// out\n                /* \"#utility.yul\":1161:1290   */\n            tag_165:\n                /* \"#utility.yul\":1195:1201   */\n              0x00\n                /* \"#utility.yul\":1222:1242   */\n              tag_205\n              tag_157\n              jump\t// in\n            tag_205:\n                /* \"#utility.yul\":1212:1242   */\n              swap1\n              pop\n                /* \"#utility.yul\":1251:1284   */\n              tag_206\n                /* \"#utility.yul\":1279:1283   */\n              dup3\n                /* \"#utility.yul\":1271:1277   */\n              dup3\n                /* \"#utility.yul\":1251:1284   */\n              tag_164\n              jump\t// in\n            tag_206:\n                /* \"#utility.yul\":1161:1290   */\n              swap2\n              swap1\n              pop\n              jump\t// out\n                /* \"#utility.yul\":1296:1604   */\n            tag_166:\n                /* \"#utility.yul\":1358:1362   */\n              0x00\n                /* \"#utility.yul\":1448:1466   */\n              0xffffffffffffffff\n                /* \"#utility.yul\":1440:1446   */\n              dup3\n                /* \"#utility.yul\":1437:1467   */\n              gt\n                /* \"#utility.yul\":1434:1490   */\n              iszero\n              tag_208\n              jumpi\n                /* \"#utility.yul\":1470:1488   */\n              tag_209\n              tag_163\n              jump\t// in\n            tag_209:\n                /* \"#utility.yul\":1434:1490   */\n            tag_208:\n                /* \"#utility.yul\":1508:1537   */\n              tag_210\n                /* \"#utility.yul\":1530:1536   */\n              dup3\n                /* \"#utility.yul\":1508:1537   */\n              tag_162\n              jump\t// in\n            tag_210:\n                /* \"#utility.yul\":1500:1537   */\n              swap1\n              pop\n                /* \"#utility.yul\":1592:1596   */\n              0x20\n                /* \"#utility.yul\":1586:1590   */\n              dup2\n                /* \"#utility.yul\":1582:1597   */\n              add\n                /* \"#utility.yul\":1574:1597   */\n              swap1\n              pop\n                /* \"#utility.yul\":1296:1604   */\n              swap2\n              swap1\n              pop\n              jump\t// out\n                /* \"#utility.yul\":1610:1764   */\n            tag_167:\n                /* \"#utility.yul\":1694:1700   */\n              dup3\n                /* \"#utility.yul\":1689:1692   */\n              dup2\n                /* \"#utility.yul\":1684:1687   */\n              dup4\n                /* \"#utility.yul\":1671:1701   */\n              calldatacopy\n                /* \"#utility.yul\":1756:1757   */\n              0x00\n                /* \"#utility.yul\":1747:1753   */\n              dup4\n                /* \"#utility.yul\":1742:1745   */\n              dup4\n                /* \"#utility.yul\":1738:1754   */\n              add\n                /* \"#utility.yul\":1731:1758   */\n              mstore\n                /* \"#utility.yul\":1610:1764   */\n              pop\n              pop\n              pop\n              jump\t// out\n                /* \"#utility.yul\":1770:2182   */\n            tag_168:\n                /* \"#utility.yul\":1848:1853   */\n              0x00\n                /* \"#utility.yul\":1873:1939   */\n              tag_213\n                /* \"#utility.yul\":1889:1938   */\n              tag_214\n                /* \"#utility.yul\":1931:1937   */\n              dup5\n                /* \"#utility.yul\":1889:1938   */\n              tag_166\n              jump\t// in\n            tag_214:\n                /* \"#utility.yul\":1873:1939   */\n              tag_165\n              jump\t// in\n            tag_213:\n                /* \"#utility.yul\":1864:1939   */\n              swap1\n              pop\n                /* \"#utility.yul\":1962:1968   */\n              dup3\n                /* \"#utility.yul\":1955:1960   */\n              dup2\n                /* \"#utility.yul\":1948:1969   */\n              mstore\n                /* \"#utility.yul\":2000:2004   */\n              0x20\n                /* \"#utility.yul\":1993:1998   */\n              dup2\n                /* \"#utility.yul\":1989:2005   */\n              add\n                /* \"#utility.yul\":2038:2041   */\n              dup5\n                /* \"#utility.yul\":2029:2035   */\n              dup5\n                /* \"#utility.yul\":2024:2027   */\n              dup5\n                /* \"#utility.yul\":2020:2036   */\n              add\n                /* \"#utility.yul\":2017:2042   */\n              gt\n                /* \"#utility.yul\":2014:2126   */\n              iszero\n              tag_215\n              jumpi\n                /* \"#utility.yul\":2045:2124   */\n              tag_216\n              tag_161\n              jump\t// in\n            tag_216:\n                /* \"#utility.yul\":2014:2126   */\n            tag_215:\n                /* \"#utility.yul\":2135:2176   */\n              tag_217\n                /* \"#utility.yul\":2169:2175   */\n              dup5\n                /* \"#utility.yul\":2164:2167   */\n              dup3\n                /* \"#utility.yul\":2159:2162   */\n              dup6\n                /* \"#utility.yul\":2135:2176   */\n              tag_167\n              jump\t// in\n            tag_217:\n                /* \"#utility.yul\":1854:2182   */\n              pop\n                /* \"#utility.yul\":1770:2182   */\n              swap4\n              swap3\n              pop\n              pop\n              pop\n              jump\t// out\n                /* \"#utility.yul\":2202:2542   */\n            tag_169:\n                /* \"#utility.yul\":2258:2263   */\n              0x00\n                /* \"#utility.yul\":2307:2310   */\n              dup3\n                /* \"#utility.yul\":2300:2304   */\n              0x1f\n                /* \"#utility.yul\":2292:2298   */\n              dup4\n                /* \"#utility.yul\":2288:2305   */\n              add\n                /* \"#utility.yul\":2284:2311   */\n              slt\n                /* \"#utility.yul\":2274:2396   */\n              tag_219\n              jumpi\n                /* \"#utility.yul\":2315:2394   */\n              tag_220\n              tag_160\n              jump\t// in\n            tag_220:\n                /* \"#utility.yul\":2274:2396   */\n            tag_219:\n                /* \"#utility.yul\":2432:2438   */\n              dup2\n                /* \"#utility.yul\":2419:2439   */\n              calldataload\n                /* \"#utility.yul\":2457:2536   */\n              tag_221\n                /* \"#utility.yul\":2532:2535   */\n              dup5\n                /* \"#utility.yul\":2524:2530   */\n              dup3\n                /* \"#utility.yul\":2517:2521   */\n              0x20\n                /* \"#utility.yul\":2509:2515   */\n              dup7\n                /* \"#utility.yul\":2505:2522   */\n              add\n                /* \"#utility.yul\":2457:2536   */\n              tag_168\n              jump\t// in\n            tag_221:\n                /* \"#utility.yul\":2448:2536   */\n              swap2\n              pop\n                /* \"#utility.yul\":2264:2542   */\n              pop\n                /* \"#utility.yul\":2202:2542   */\n              swap3\n              swap2\n              pop\n              pop\n              jump\t// out\n                /* \"#utility.yul\":2548:2625   */\n            tag_170:\n                /* \"#utility.yul\":2585:2592   */\n              0x00\n                /* \"#utility.yul\":2614:2619   */\n              dup2\n                /* \"#utility.yul\":2603:2619   */\n              swap1\n              pop\n                /* \"#utility.yul\":2548:2625   */\n              swap2\n              swap1\n              pop\n              jump\t// out\n                /* \"#utility.yul\":2631:2753   */\n            tag_171:\n                /* \"#utility.yul\":2704:2728   */\n              tag_224\n                /* \"#utility.yul\":2722:2727   */\n              dup2\n                /* \"#utility.yul\":2704:2728   */\n              tag_170\n              jump\t// in\n            tag_224:\n                /* \"#utility.yul\":2697:2702   */\n              dup2\n                /* \"#utility.yul\":2694:2729   */\n              eq\n                /* \"#utility.yul\":2684:2747   */\n              tag_225\n              jumpi\n                /* \"#utility.yul\":2743:2744   */\n              0x00\n                /* \"#utility.yul\":2740:2741   */\n              dup1\n                /* \"#utility.yul\":2733:2745   */\n              revert\n                /* \"#utility.yul\":2684:2747   */\n            tag_225:\n                /* \"#utility.yul\":2631:2753   */\n              pop\n              jump\t// out\n                /* \"#utility.yul\":2759:2898   */\n            tag_172:\n                /* \"#utility.yul\":2805:2810   */\n              0x00\n                /* \"#utility.yul\":2843:2849   */\n              dup2\n                /* \"#utility.yul\":2830:2850   */\n              calldataload\n                /* \"#utility.yul\":2821:2850   */\n              swap1\n              pop\n                /* \"#utility.yul\":2859:2892   */\n              tag_227\n                /* \"#utility.yul\":2886:2891   */\n              dup2\n                /* \"#utility.yul\":2859:2892   */\n              tag_171\n              jump\t// in\n            tag_227:\n                /* \"#utility.yul\":2759:2898   */\n              swap3\n              swap2\n              pop\n              pop\n              jump\t// out\n                /* \"#utility.yul\":2904:3030   */\n            tag_173:\n                /* \"#utility.yul\":2941:2948   */\n              0x00\n                /* \"#utility.yul\":2981:3023   */\n              0xffffffffffffffffffffffffffffffffffffffff\n                /* \"#utility.yul\":2974:2979   */\n              dup3\n                /* \"#utility.yul\":2970:3024   */\n              and\n                /* \"#utility.yul\":2959:3024   */\n              swap1\n              pop\n                /* \"#utility.yul\":2904:3030   */\n              swap2\n              swap1\n              pop\n              jump\t// out\n                /* \"#utility.yul\":3036:3140   */\n            tag_174:\n                /* \"#utility.yul\":3081:3088   */\n              0x00\n                /* \"#utility.yul\":3110:3134   */\n              tag_230\n                /* \"#utility.yul\":3128:3133   */\n              dup3\n                /* \"#utility.yul\":3110:3134   */\n              tag_173\n              jump\t// in\n            tag_230:\n                /* \"#utility.yul\":3099:3134   */\n              swap1\n              pop\n                /* \"#utility.yul\":3036:3140   */\n              swap2\n              swap1\n              pop\n              jump\t// out\n                /* \"#utility.yul\":3146:3284   */\n            tag_175:\n                /* \"#utility.yul\":3227:3259   */\n              tag_232\n                /* \"#utility.yul\":3253:3258   */\n              dup2\n                /* \"#utility.yul\":3227:3259   */\n              tag_174\n              jump\t// in\n            tag_232:\n                /* \"#utility.yul\":3220:3225   */\n              dup2\n                /* \"#utility.yul\":3217:3260   */\n              eq\n                /* \"#utility.yul\":3207:3278   */\n              tag_233\n              jumpi\n                /* \"#utility.yul\":3274:3275   */\n              0x00\n                /* \"#utility.yul\":3271:3272   */\n              dup1\n                /* \"#utility.yul\":3264:3276   */\n              revert\n                /* \"#utility.yul\":3207:3278   */\n            tag_233:\n                /* \"#utility.yul\":3146:3284   */\n              pop\n              jump\t// out\n                /* \"#utility.yul\":3290:3445   */\n            tag_176:\n                /* \"#utility.yul\":3344:3349   */\n              0x00\n                /* \"#utility.yul\":3382:3388   */\n              dup2\n                /* \"#utility.yul\":3369:3389   */\n              calldataload\n                /* \"#utility.yul\":3360:3389   */\n              swap1\n              pop\n                /* \"#utility.yul\":3398:3439   */\n              tag_235\n                /* \"#utility.yul\":3433:3438   */\n              dup2\n                /* \"#utility.yul\":3398:3439   */\n              tag_175\n              jump\t// in\n            tag_235:\n                /* \"#utility.yul\":3290:3445   */\n              swap3\n              swap2\n              pop\n              pop\n              jump\t// out\n                /* \"#utility.yul\":3451:4266   */\n            tag_23:\n                /* \"#utility.yul\":3546:3552   */\n              0x00\n                /* \"#utility.yul\":3554:3560   */\n              dup1\n                /* \"#utility.yul\":3562:3568   */\n              0x00\n                /* \"#utility.yul\":3611:3613   */\n              0x60\n                /* \"#utility.yul\":3599:3608   */\n              dup5\n                /* \"#utility.yul\":3590:3597   */\n              dup7\n                /* \"#utility.yul\":3586:3609   */\n              sub\n                /* \"#utility.yul\":3582:3614   */\n              slt\n                /* \"#utility.yul\":3579:3698   */\n              iszero\n              tag_237\n              jumpi\n                /* \"#utility.yul\":3617:3696   */\n              tag_238\n              tag_158\n              jump\t// in\n            tag_238:\n                /* \"#utility.yul\":3579:3698   */\n            tag_237:\n                /* \"#utility.yul\":3765:3766   */\n              0x00\n                /* \"#utility.yul\":3754:3763   */\n              dup5\n                /* \"#utility.yul\":3750:3767   */\n              add\n                /* \"#utility.yul\":3737:3768   */\n              calldataload\n                /* \"#utility.yul\":3795:3813   */\n              0xffffffffffffffff\n                /* \"#utility.yul\":3787:3793   */\n              dup2\n                /* \"#utility.yul\":3784:3814   */\n              gt\n                /* \"#utility.yul\":3781:3898   */\n              iszero\n              tag_239\n              jumpi\n                /* \"#utility.yul\":3817:3896   */\n              tag_240\n              tag_159\n              jump\t// in\n            tag_240:\n                /* \"#utility.yul\":3781:3898   */\n            tag_239:\n                /* \"#utility.yul\":3922:3985   */\n              tag_241\n                /* \"#utility.yul\":3977:3984   */\n              dup7\n                /* \"#utility.yul\":3968:3974   */\n              dup3\n                /* \"#utility.yul\":3957:3966   */\n              dup8\n                /* \"#utility.yul\":3953:3975   */\n              add\n                /* \"#utility.yul\":3922:3985   */\n              tag_169\n              jump\t// in\n            tag_241:\n                /* \"#utility.yul\":3912:3985   */\n              swap4\n              pop\n                /* \"#utility.yul\":3708:3995   */\n              pop\n                /* \"#utility.yul\":4034:4036   */\n              0x20\n                /* \"#utility.yul\":4060:4113   */\n              tag_242\n                /* \"#utility.yul\":4105:4112   */\n              dup7\n                /* \"#utility.yul\":4096:4102   */\n              dup3\n                /* \"#utility.yul\":4085:4094   */\n              dup8\n                /* \"#utility.yul\":4081:4103   */\n              add\n                /* \"#utility.yul\":4060:4113   */\n              tag_172\n              jump\t// in\n            tag_242:\n                /* \"#utility.yul\":4050:4113   */\n              swap3\n              pop\n                /* \"#utility.yul\":4005:4123   */\n              pop\n                /* \"#utility.yul\":4162:4164   */\n              0x40\n                /* \"#utility.yul\":4188:4249   */\n              tag_243\n                /* \"#utility.yul\":4241:4248   */\n              dup7\n                /* \"#utility.yul\":4232:4238   */\n              dup3\n                /* \"#utility.yul\":4221:4230   */\n              dup8\n                /* \"#utility.yul\":4217:4239   */\n              add\n                /* \"#utility.yul\":4188:4249   */\n              tag_176\n              jump\t// in\n            tag_243:\n                /* \"#utility.yul\":4178:4249   */\n              swap2\n              pop\n                /* \"#utility.yul\":4133:4259   */\n              pop\n                /* \"#utility.yul\":3451:4266   */\n              swap3\n              pop\n              swap3\n              pop\n              swap3\n              jump\t// out\n                /* \"#utility.yul\":4272:4390   */\n            tag_177:\n                /* \"#utility.yul\":4359:4383   */\n              tag_245\n                /* \"#utility.yul\":4377:4382   */\n              dup2\n                /* \"#utility.yul\":4359:4383   */\n              tag_170\n              jump\t// in\n            tag_245:\n                /* \"#utility.yul\":4354:4357   */\n              dup3\n                /* \"#utility.yul\":4347:4384   */\n              mstore\n                /* \"#utility.yul\":4272:4390   */\n              pop\n              pop\n              jump\t// out\n                /* \"#utility.yul\":4396:4618   */\n            tag_29:\n                /* \"#utility.yul\":4489:4493   */\n              0x00\n                /* \"#utility.yul\":4527:4529   */\n              0x20\n                /* \"#utility.yul\":4516:4525   */\n              dup3\n                /* \"#utility.yul\":4512:4530   */\n              add\n                /* \"#utility.yul\":4504:4530   */\n              swap1\n              pop\n                /* \"#utility.yul\":4540:4611   */\n              tag_247\n                /* \"#utility.yul\":4608:4609   */\n              0x00\n                /* \"#utility.yul\":4597:4606   */\n              dup4\n                /* \"#utility.yul\":4593:4610   */\n              add\n                /* \"#utility.yul\":4584:4590   */\n              dup5\n                /* \"#utility.yul\":4540:4611   */\n              tag_177\n              jump\t// in\n            tag_247:\n                /* \"#utility.yul\":4396:4618   */\n              swap3\n              swap2\n              pop\n              pop\n              jump\t// out\n                /* \"#utility.yul\":4624:4723   */\n            tag_178:\n                /* \"#utility.yul\":4676:4682   */\n              0x00\n                /* \"#utility.yul\":4710:4715   */\n              dup2\n                /* \"#utility.yul\":4704:4716   */\n              mload\n                /* \"#utility.yul\":4694:4716   */\n              swap1\n              pop\n                /* \"#utility.yul\":4624:4723   */\n              swap2\n              swap1\n              pop\n              jump\t// out\n                /* \"#utility.yul\":4729:4898   */\n            tag_179:\n                /* \"#utility.yul\":4813:4824   */\n              0x00\n                /* \"#utility.yul\":4847:4853   */\n              dup3\n                /* \"#utility.yul\":4842:4845   */\n              dup3\n                /* \"#utility.yul\":4835:4854   */\n              mstore\n                /* \"#utility.yul\":4887:4891   */\n              0x20\n                /* \"#utility.yul\":4882:4885   */\n              dup3\n                /* \"#utility.yul\":4878:4892   */\n              add\n                /* \"#utility.yul\":4863:4892   */\n              swap1\n              pop\n                /* \"#utility.yul\":4729:4898   */\n              swap3\n              swap2\n              pop\n              pop\n              jump\t// out\n                /* \"#utility.yul\":4904:5211   */\n            tag_180:\n                /* \"#utility.yul\":4972:4973   */\n              0x00\n                /* \"#utility.yul\":4982:5095   */\n            tag_251:\n                /* \"#utility.yul\":4996:5002   */\n              dup4\n                /* \"#utility.yul\":4993:4994   */\n              dup2\n                /* \"#utility.yul\":4990:5003   */\n              lt\n                /* \"#utility.yul\":4982:5095   */\n              iszero\n              tag_253\n              jumpi\n                /* \"#utility.yul\":5081:5082   */\n              dup1\n                /* \"#utility.yul\":5076:5079   */\n              dup3\n                /* \"#utility.yul\":5072:5083   */\n              add\n                /* \"#utility.yul\":5066:5084   */\n              mload\n                /* \"#utility.yul\":5062:5063   */\n              dup2\n                /* \"#utility.yul\":5057:5060   */\n              dup5\n                /* \"#utility.yul\":5053:5064   */\n              add\n                /* \"#utility.yul\":5046:5085   */\n              mstore\n                /* \"#utility.yul\":5018:5020   */\n              0x20\n                /* \"#utility.yul\":5015:5016   */\n              dup2\n                /* \"#utility.yul\":5011:5021   */\n              add\n                /* \"#utility.yul\":5006:5021   */\n              swap1\n              pop\n                /* \"#utility.yul\":4982:5095   */\n              jump(tag_251)\n            tag_253:\n                /* \"#utility.yul\":5113:5119   */\n              dup4\n                /* \"#utility.yul\":5110:5111   */\n              dup2\n                /* \"#utility.yul\":5107:5120   */\n              gt\n                /* \"#utility.yul\":5104:5205   */\n              iszero\n              tag_254\n              jumpi\n                /* \"#utility.yul\":5193:5194   */\n              0x00\n                /* \"#utility.yul\":5184:5190   */\n              dup5\n                /* \"#utility.yul\":5179:5182   */\n              dup5\n                /* \"#utility.yul\":5175:5191   */\n              add\n                /* \"#utility.yul\":5168:5195   */\n              mstore\n                /* \"#utility.yul\":5104:5205   */\n            tag_254:\n                /* \"#utility.yul\":4953:5211   */\n              pop\n                /* \"#utility.yul\":4904:5211   */\n              pop\n              pop\n              pop\n              jump\t// out\n                /* \"#utility.yul\":5217:5581   */\n            tag_181:\n                /* \"#utility.yul\":5305:5308   */\n              0x00\n                /* \"#utility.yul\":5333:5372   */\n              tag_256\n                /* \"#utility.yul\":5366:5371   */\n              dup3\n                /* \"#utility.yul\":5333:5372   */\n              tag_178\n              jump\t// in\n            tag_256:\n                /* \"#utility.yul\":5388:5459   */\n              tag_257\n                /* \"#utility.yul\":5452:5458   */\n              dup2\n                /* \"#utility.yul\":5447:5450   */\n              dup6\n                /* \"#utility.yul\":5388:5459   */\n              tag_179\n              jump\t// in\n            tag_257:\n                /* \"#utility.yul\":5381:5459   */\n              swap4\n              pop\n                /* \"#utility.yul\":5468:5520   */\n              tag_258\n                /* \"#utility.yul\":5513:5519   */\n              dup2\n                /* \"#utility.yul\":5508:5511   */\n              dup6\n                /* \"#utility.yul\":5501:5505   */\n              0x20\n                /* \"#utility.yul\":5494:5499   */\n              dup7\n                /* \"#utility.yul\":5490:5506   */\n              add\n                /* \"#utility.yul\":5468:5520   */\n              tag_180\n              jump\t// in\n            tag_258:\n                /* \"#utility.yul\":5545:5574   */\n              tag_259\n                /* \"#utility.yul\":5567:5573   */\n              dup2\n                /* \"#utility.yul\":5545:5574   */\n              tag_162\n              jump\t// in\n            tag_259:\n                /* \"#utility.yul\":5540:5543   */\n              dup5\n                /* \"#utility.yul\":5536:5575   */\n              add\n                /* \"#utility.yul\":5529:5575   */\n              swap2\n              pop\n                /* \"#utility.yul\":5309:5581   */\n              pop\n                /* \"#utility.yul\":5217:5581   */\n              swap3\n              swap2\n              pop\n              pop\n              jump\t// out\n                /* \"#utility.yul\":5587:5683   */\n            tag_182:\n                /* \"#utility.yul\":5624:5631   */\n              0x00\n                /* \"#utility.yul\":5653:5677   */\n              tag_261\n                /* \"#utility.yul\":5671:5676   */\n              dup3\n                /* \"#utility.yul\":5653:5677   */\n              tag_173\n              jump\t// in\n            tag_261:\n                /* \"#utility.yul\":5642:5677   */\n              swap1\n              pop\n                /* \"#utility.yul\":5587:5683   */\n              swap2\n              swap1\n              pop\n              jump\t// out\n                /* \"#utility.yul\":5689:5807   */\n            tag_183:\n                /* \"#utility.yul\":5776:5800   */\n              tag_263\n                /* \"#utility.yul\":5794:5799   */\n              dup2\n                /* \"#utility.yul\":5776:5800   */\n              tag_182\n              jump\t// in\n            tag_263:\n                /* \"#utility.yul\":5771:5774   */\n              dup3\n                /* \"#utility.yul\":5764:5801   */\n              mstore\n                /* \"#utility.yul\":5689:5807   */\n              pop\n              pop\n              jump\t// out\n                /* \"#utility.yul\":5813:6901   */\n            tag_42:\n                /* \"#utility.yul\":6122:6126   */\n              0x00\n                /* \"#utility.yul\":6160:6163   */\n              0x0100\n                /* \"#utility.yul\":6149:6158   */\n              dup3\n                /* \"#utility.yul\":6145:6164   */\n              add\n                /* \"#utility.yul\":6137:6164   */\n              swap1\n              pop\n                /* \"#utility.yul\":6210:6219   */\n              dup2\n                /* \"#utility.yul\":6204:6208   */\n              dup2\n                /* \"#utility.yul\":6200:6220   */\n              sub\n                /* \"#utility.yul\":6196:6197   */\n              0x00\n                /* \"#utility.yul\":6185:6194   */\n              dup4\n                /* \"#utility.yul\":6181:6198   */\n              add\n                /* \"#utility.yul\":6174:6221   */\n              mstore\n                /* \"#utility.yul\":6238:6316   */\n              tag_265\n                /* \"#utility.yul\":6311:6315   */\n              dup2\n                /* \"#utility.yul\":6302:6308   */\n              dup12\n                /* \"#utility.yul\":6238:6316   */\n              tag_181\n              jump\t// in\n            tag_265:\n                /* \"#utility.yul\":6230:6316   */\n              swap1\n              pop\n                /* \"#utility.yul\":6326:6398   */\n              tag_266\n                /* \"#utility.yul\":6394:6396   */\n              0x20\n                /* \"#utility.yul\":6383:6392   */\n              dup4\n                /* \"#utility.yul\":6379:6397   */\n              add\n                /* \"#utility.yul\":6370:6376   */\n              dup11\n                /* \"#utility.yul\":6326:6398   */\n              tag_177\n              jump\t// in\n            tag_266:\n                /* \"#utility.yul\":6408:6480   */\n              tag_267\n                /* \"#utility.yul\":6476:6478   */\n              0x40\n                /* \"#utility.yul\":6465:6474   */\n              dup4\n                /* \"#utility.yul\":6461:6479   */\n              add\n                /* \"#utility.yul\":6452:6458   */\n              dup10\n                /* \"#utility.yul\":6408:6480   */\n              tag_177\n              jump\t// in\n            tag_267:\n                /* \"#utility.yul\":6490:6562   */\n              tag_268\n                /* \"#utility.yul\":6558:6560   */\n              0x60\n                /* \"#utility.yul\":6547:6556   */\n              dup4\n                /* \"#utility.yul\":6543:6561   */\n              add\n                /* \"#utility.yul\":6534:6540   */\n              dup9\n                /* \"#utility.yul\":6490:6562   */\n              tag_177\n              jump\t// in\n            tag_268:\n                /* \"#utility.yul\":6572:6645   */\n              tag_269\n                /* \"#utility.yul\":6640:6643   */\n              0x80\n                /* \"#utility.yul\":6629:6638   */\n              dup4\n                /* \"#utility.yul\":6625:6644   */\n              add\n                /* \"#utility.yul\":6616:6622   */\n              dup8\n                /* \"#utility.yul\":6572:6645   */\n              tag_177\n              jump\t// in\n            tag_269:\n                /* \"#utility.yul\":6655:6728   */\n              tag_270\n                /* \"#utility.yul\":6723:6726   */\n              0xa0\n                /* \"#utility.yul\":6712:6721   */\n              dup4\n                /* \"#utility.yul\":6708:6727   */\n              add\n                /* \"#utility.yul\":6699:6705   */\n              dup7\n                /* \"#utility.yul\":6655:6728   */\n              tag_177\n              jump\t// in\n            tag_270:\n                /* \"#utility.yul\":6738:6811   */\n              tag_271\n                /* \"#utility.yul\":6806:6809   */\n              0xc0\n                /* \"#utility.yul\":6795:6804   */\n              dup4\n                /* \"#utility.yul\":6791:6810   */\n              add\n                /* \"#utility.yul\":6782:6788   */\n              dup6\n                /* \"#utility.yul\":6738:6811   */\n              tag_177\n              jump\t// in\n            tag_271:\n                /* \"#utility.yul\":6821:6894   */\n              tag_272\n                /* \"#utility.yul\":6889:6892   */\n              0xe0\n                /* \"#utility.yul\":6878:6887   */\n              dup4\n                /* \"#utility.yul\":6874:6893   */\n              add\n                /* \"#utility.yul\":6865:6871   */\n              dup5\n                /* \"#utility.yul\":6821:6894   */\n              tag_183\n              jump\t// in\n            tag_272:\n                /* \"#utility.yul\":5813:6901   */\n              swap10\n              swap9\n              pop\n              pop\n              pop\n              pop\n              pop\n              pop\n              pop\n              pop\n              pop\n              jump\t// out\n                /* \"#utility.yul\":6907:7029   */\n            tag_184:\n                /* \"#utility.yul\":6980:7004   */\n              tag_274\n                /* \"#utility.yul\":6998:7003   */\n              dup2\n                /* \"#utility.yul\":6980:7004   */\n              tag_182\n              jump\t// in\n            tag_274:\n                /* \"#utility.yul\":6973:6978   */\n              dup2\n                /* \"#utility.yul\":6970:7005   */\n              eq\n                /* \"#utility.yul\":6960:7023   */\n              tag_275\n              jumpi\n                /* \"#utility.yul\":7019:7020   */\n              0x00\n                /* \"#utility.yul\":7016:7017   */\n              dup1\n                /* \"#utility.yul\":7009:7021   */\n              revert\n                /* \"#utility.yul\":6960:7023   */\n            tag_275:\n                /* \"#utility.yul\":6907:7029   */\n              pop\n              jump\t// out\n                /* \"#utility.yul\":7035:7174   */\n            tag_185:\n                /* \"#utility.yul\":7081:7086   */\n              0x00\n                /* \"#utility.yul\":7119:7125   */\n              dup2\n                /* \"#utility.yul\":7106:7126   */\n              calldataload\n                /* \"#utility.yul\":7097:7126   */\n              swap1\n              pop\n                /* \"#utility.yul\":7135:7168   */\n              tag_277\n                /* \"#utility.yul\":7162:7167   */\n              dup2\n                /* \"#utility.yul\":7135:7168   */\n              tag_184\n              jump\t// in\n            tag_277:\n                /* \"#utility.yul\":7035:7174   */\n              swap3\n              swap2\n              pop\n              pop\n              jump\t// out\n                /* \"#utility.yul\":7180:7509   */\n            tag_50:\n                /* \"#utility.yul\":7239:7245   */\n              0x00\n                /* \"#utility.yul\":7288:7290   */\n              0x20\n                /* \"#utility.yul\":7276:7285   */\n              dup3\n                /* \"#utility.yul\":7267:7274   */\n              dup5\n                /* \"#utility.yul\":7263:7286   */\n              sub\n                /* \"#utility.yul\":7259:7291   */\n              slt\n                /* \"#utility.yul\":7256:7375   */\n              iszero\n              tag_279\n              jumpi\n                /* \"#utility.yul\":7294:7373   */\n              tag_280\n              tag_158\n              jump\t// in\n            tag_280:\n                /* \"#utility.yul\":7256:7375   */\n            tag_279:\n                /* \"#utility.yul\":7414:7415   */\n              0x00\n                /* \"#utility.yul\":7439:7492   */\n              tag_281\n                /* \"#utility.yul\":7484:7491   */\n              dup5\n                /* \"#utility.yul\":7475:7481   */\n              dup3\n                /* \"#utility.yul\":7464:7473   */\n              dup6\n                /* \"#utility.yul\":7460:7482   */\n              add\n                /* \"#utility.yul\":7439:7492   */\n              tag_185\n              jump\t// in\n            tag_281:\n                /* \"#utility.yul\":7429:7492   */\n              swap2\n              pop\n                /* \"#utility.yul\":7385:7502   */\n              pop\n                /* \"#utility.yul\":7180:7509   */\n              swap3\n              swap2\n              pop\n              pop\n              jump\t// out\n                /* \"#utility.yul\":7515:7828   */\n            tag_57:\n                /* \"#utility.yul\":7628:7632   */\n              0x00\n                /* \"#utility.yul\":7666:7668   */\n              0x20\n                /* \"#utility.yul\":7655:7664   */\n              dup3\n                /* \"#utility.yul\":7651:7669   */\n              add\n                /* \"#utility.yul\":7643:7669   */\n              swap1\n              pop\n                /* \"#utility.yul\":7715:7724   */\n              dup2\n                /* \"#utility.yul\":7709:7713   */\n              dup2\n                /* \"#utility.yul\":7705:7725   */\n              sub\n                /* \"#utility.yul\":7701:7702   */\n              0x00\n                /* \"#utility.yul\":7690:7699   */\n              dup4\n                /* \"#utility.yul\":7686:7703   */\n              add\n                /* \"#utility.yul\":7679:7726   */\n              mstore\n                /* \"#utility.yul\":7743:7821   */\n              tag_283\n                /* \"#utility.yul\":7816:7820   */\n              dup2\n                /* \"#utility.yul\":7807:7813   */\n              dup5\n                /* \"#utility.yul\":7743:7821   */\n              tag_181\n              jump\t// in\n            tag_283:\n                /* \"#utility.yul\":7735:7821   */\n              swap1\n              pop\n                /* \"#utility.yul\":7515:7828   */\n              swap3\n              swap2\n              pop\n              pop\n              jump\t// out\n                /* \"#utility.yul\":7834:8163   */\n            tag_61:\n                /* \"#utility.yul\":7893:7899   */\n              0x00\n                /* \"#utility.yul\":7942:7944   */\n              0x20\n                /* \"#utility.yul\":7930:7939   */\n              dup3\n                /* \"#utility.yul\":7921:7928   */\n              dup5\n                /* \"#utility.yul\":7917:7940   */\n              sub\n                /* \"#utility.yul\":7913:7945   */\n              slt\n                /* \"#utility.yul\":7910:8029   */\n              iszero\n              tag_285\n              jumpi\n                /* \"#utility.yul\":7948:8027   */\n              tag_286\n              tag_158\n              jump\t// in\n            tag_286:\n                /* \"#utility.yul\":7910:8029   */\n            tag_285:\n                /* \"#utility.yul\":8068:8069   */\n              0x00\n                /* \"#utility.yul\":8093:8146   */\n              tag_287\n                /* \"#utility.yul\":8138:8145   */\n              dup5\n                /* \"#utility.yul\":8129:8135   */\n              dup3\n                /* \"#utility.yul\":8118:8127   */\n              dup6\n                /* \"#utility.yul\":8114:8136   */\n              add\n                /* \"#utility.yul\":8093:8146   */\n              tag_172\n              jump\t// in\n            tag_287:\n                /* \"#utility.yul\":8083:8146   */\n              swap2\n              pop\n                /* \"#utility.yul\":8039:8156   */\n              pop\n                /* \"#utility.yul\":7834:8163   */\n              swap3\n              swap2\n              pop\n              pop\n              jump\t// out\n                /* \"#utility.yul\":8169:8311   */\n            tag_186:\n                /* \"#utility.yul\":8272:8304   */\n              tag_289\n                /* \"#utility.yul\":8298:8303   */\n              dup2\n                /* \"#utility.yul\":8272:8304   */\n              tag_174\n              jump\t// in\n            tag_289:\n                /* \"#utility.yul\":8267:8270   */\n              dup3\n                /* \"#utility.yul\":8260:8305   */\n              mstore\n                /* \"#utility.yul\":8169:8311   */\n              pop\n              pop\n              jump\t// out\n                /* \"#utility.yul\":8317:8407   */\n            tag_187:\n                /* \"#utility.yul\":8351:8358   */\n              0x00\n                /* \"#utility.yul\":8394:8399   */\n              dup2\n                /* \"#utility.yul\":8387:8400   */\n              iszero\n                /* \"#utility.yul\":8380:8401   */\n              iszero\n                /* \"#utility.yul\":8369:8401   */\n              swap1\n              pop\n                /* \"#utility.yul\":8317:8407   */\n              swap2\n              swap1\n              pop\n              jump\t// out\n                /* \"#utility.yul\":8413:8522   */\n            tag_188:\n                /* \"#utility.yul\":8494:8515   */\n              tag_292\n                /* \"#utility.yul\":8509:8514   */\n              dup2\n                /* \"#utility.yul\":8494:8515   */\n              tag_187\n              jump\t// in\n            tag_292:\n                /* \"#utility.yul\":8489:8492   */\n              dup3\n                /* \"#utility.yul\":8482:8516   */\n              mstore\n                /* \"#utility.yul\":8413:8522   */\n              pop\n              pop\n              jump\t// out\n                /* \"#utility.yul\":8528:9303   */\n            tag_64:\n                /* \"#utility.yul\":8763:8767   */\n              0x00\n                /* \"#utility.yul\":8801:8804   */\n              0xa0\n                /* \"#utility.yul\":8790:8799   */\n              dup3\n                /* \"#utility.yul\":8786:8805   */\n              add\n                /* \"#utility.yul\":8778:8805   */\n              swap1\n              pop\n                /* \"#utility.yul\":8851:8860   */\n              dup2\n                /* \"#utility.yul\":8845:8849   */\n              dup2\n                /* \"#utility.yul\":8841:8861   */\n              sub\n                /* \"#utility.yul\":8837:8838   */\n              0x00\n                /* \"#utility.yul\":8826:8835   */\n              dup4\n                /* \"#utility.yul\":8822:8839   */\n              add\n                /* \"#utility.yul\":8815:8862   */\n              mstore\n                /* \"#utility.yul\":8879:8957   */\n              tag_294\n                /* \"#utility.yul\":8952:8956   */\n              dup2\n                /* \"#utility.yul\":8943:8949   */\n              dup9\n                /* \"#utility.yul\":8879:8957   */\n              tag_181\n              jump\t// in\n            tag_294:\n                /* \"#utility.yul\":8871:8957   */\n              swap1\n              pop\n                /* \"#utility.yul\":8967:9039   */\n              tag_295\n                /* \"#utility.yul\":9035:9037   */\n              0x20\n                /* \"#utility.yul\":9024:9033   */\n              dup4\n                /* \"#utility.yul\":9020:9038   */\n              add\n                /* \"#utility.yul\":9011:9017   */\n              dup8\n                /* \"#utility.yul\":8967:9039   */\n              tag_177\n              jump\t// in\n            tag_295:\n                /* \"#utility.yul\":9049:9137   */\n              tag_296\n                /* \"#utility.yul\":9133:9135   */\n              0x40\n                /* \"#utility.yul\":9122:9131   */\n              dup4\n                /* \"#utility.yul\":9118:9136   */\n              add\n                /* \"#utility.yul\":9109:9115   */\n              dup7\n                /* \"#utility.yul\":9049:9137   */\n              tag_186\n              jump\t// in\n            tag_296:\n                /* \"#utility.yul\":9147:9213   */\n              tag_297\n                /* \"#utility.yul\":9209:9211   */\n              0x60\n                /* \"#utility.yul\":9198:9207   */\n              dup4\n                /* \"#utility.yul\":9194:9212   */\n              add\n                /* \"#utility.yul\":9185:9191   */\n              dup6\n                /* \"#utility.yul\":9147:9213   */\n              tag_188\n              jump\t// in\n            tag_297:\n                /* \"#utility.yul\":9223:9296   */\n              tag_298\n                /* \"#utility.yul\":9291:9294   */\n              0x80\n                /* \"#utility.yul\":9280:9289   */\n              dup4\n                /* \"#utility.yul\":9276:9295   */\n              add\n                /* \"#utility.yul\":9267:9273   */\n              dup5\n                /* \"#utility.yul\":9223:9296   */\n              tag_177\n              jump\t// in\n            tag_298:\n                /* \"#utility.yul\":8528:9303   */\n              swap7\n              swap6\n              pop\n              pop\n              pop\n              pop\n              pop\n              pop\n              jump\t// out\n                /* \"#utility.yul\":9309:9531   */\n            tag_69:\n                /* \"#utility.yul\":9402:9406   */\n              0x00\n                /* \"#utility.yul\":9440:9442   */\n              0x20\n                /* \"#utility.yul\":9429:9438   */\n              dup3\n                /* \"#utility.yul\":9425:9443   */\n              add\n                /* \"#utility.yul\":9417:9443   */\n              swap1\n              pop\n                /* \"#utility.yul\":9453:9524   */\n              tag_300\n                /* \"#utility.yul\":9521:9522   */\n              0x00\n                /* \"#utility.yul\":9510:9519   */\n              dup4\n                /* \"#utility.yul\":9506:9523   */\n              add\n                /* \"#utility.yul\":9497:9503   */\n              dup5\n                /* \"#utility.yul\":9453:9524   */\n              tag_183\n              jump\t// in\n            tag_300:\n                /* \"#utility.yul\":9309:9531   */\n              swap3\n              swap2\n              pop\n              pop\n              jump\t// out\n                /* \"#utility.yul\":9537:9717   */\n            tag_94:\n                /* \"#utility.yul\":9585:9662   */\n              0x4e487b7100000000000000000000000000000000000000000000000000000000\n                /* \"#utility.yul\":9582:9583   */\n              0x00\n                /* \"#utility.yul\":9575:9663   */\n              mstore\n                /* \"#utility.yul\":9682:9686   */\n              0x32\n                /* \"#utility.yul\":9679:9680   */\n              0x04\n                /* \"#utility.yul\":9672:9687   */\n              mstore\n                /* \"#utility.yul\":9706:9710   */\n              0x24\n                /* \"#utility.yul\":9703:9704   */\n              0x00\n                /* \"#utility.yul\":9696:9711   */\n              revert\n                /* \"#utility.yul\":9723:9903   */\n            tag_189:\n                /* \"#utility.yul\":9771:9848   */\n              0x4e487b7100000000000000000000000000000000000000000000000000000000\n                /* \"#utility.yul\":9768:9769   */\n              0x00\n                /* \"#utility.yul\":9761:9849   */\n              mstore\n                /* \"#utility.yul\":9868:9872   */\n              0x22\n                /* \"#utility.yul\":9865:9866   */\n              0x04\n                /* \"#utility.yul\":9858:9873   */\n              mstore\n                /* \"#utility.yul\":9892:9896   */\n              0x24\n                /* \"#utility.yul\":9889:9890   */\n              0x00\n                /* \"#utility.yul\":9882:9897   */\n              revert\n                /* \"#utility.yul\":9909:10229   */\n            tag_100:\n                /* \"#utility.yul\":9953:9959   */\n              0x00\n                /* \"#utility.yul\":9990:9991   */\n              0x02\n                /* \"#utility.yul\":9984:9988   */\n              dup3\n                /* \"#utility.yul\":9980:9992   */\n              div\n                /* \"#utility.yul\":9970:9992   */\n              swap1\n              pop\n                /* \"#utility.yul\":10037:10038   */\n              0x01\n                /* \"#utility.yul\":10031:10035   */\n              dup3\n                /* \"#utility.yul\":10027:10039   */\n              and\n                /* \"#utility.yul\":10058:10076   */\n              dup1\n                /* \"#utility.yul\":10048:10129   */\n              tag_304\n              jumpi\n                /* \"#utility.yul\":10114:10118   */\n              0x7f\n                /* \"#utility.yul\":10106:10112   */\n              dup3\n                /* \"#utility.yul\":10102:10119   */\n              and\n                /* \"#utility.yul\":10092:10119   */\n              swap2\n              pop\n                /* \"#utility.yul\":10048:10129   */\n            tag_304:\n                /* \"#utility.yul\":10176:10178   */\n              0x20\n                /* \"#utility.yul\":10168:10174   */\n              dup3\n                /* \"#utility.yul\":10165:10179   */\n              lt\n                /* \"#utility.yul\":10145:10163   */\n              dup2\n                /* \"#utility.yul\":10142:10180   */\n              sub\n                /* \"#utility.yul\":10139:10223   */\n              tag_305\n              jumpi\n                /* \"#utility.yul\":10195:10213   */\n              tag_306\n              tag_189\n              jump\t// in\n            tag_306:\n                /* \"#utility.yul\":10139:10223   */\n            tag_305:\n                /* \"#utility.yul\":9960:10229   */\n              pop\n                /* \"#utility.yul\":9909:10229   */\n              swap2\n              swap1\n              pop\n              jump\t// out\n                /* \"#utility.yul\":10235:10415   */\n            tag_190:\n                /* \"#utility.yul\":10283:10360   */\n              0x4e487b7100000000000000000000000000000000000000000000000000000000\n                /* \"#utility.yul\":10280:10281   */\n              0x00\n                /* \"#utility.yul\":10273:10361   */\n              mstore\n                /* \"#utility.yul\":10380:10384   */\n              0x12\n                /* \"#utility.yul\":10377:10378   */\n              0x04\n                /* \"#utility.yul\":10370:10385   */\n              mstore\n                /* \"#utility.yul\":10404:10408   */\n              0x24\n                /* \"#utility.yul\":10401:10402   */\n              0x00\n                /* \"#utility.yul\":10394:10409   */\n              revert\n                /* \"#utility.yul\":10421:10601   */\n            tag_191:\n                /* \"#utility.yul\":10469:10546   */\n              0x4e487b7100000000000000000000000000000000000000000000000000000000\n                /* \"#utility.yul\":10466:10467   */\n              0x00\n                /* \"#utility.yul\":10459:10547   */\n              mstore\n                /* \"#utility.yul\":10566:10570   */\n              0x11\n                /* \"#utility.yul\":10563:10564   */\n              0x04\n                /* \"#utility.yul\":10556:10571   */\n              mstore\n                /* \"#utility.yul\":10590:10594   */\n              0x24\n                /* \"#utility.yul\":10587:10588   */\n              0x00\n                /* \"#utility.yul\":10580:10595   */\n              revert\n                /* \"#utility.yul\":10607:10792   */\n            tag_127:\n                /* \"#utility.yul\":10647:10648   */\n              0x00\n                /* \"#utility.yul\":10664:10684   */\n              tag_310\n                /* \"#utility.yul\":10682:10683   */\n              dup3\n                /* \"#utility.yul\":10664:10684   */\n              tag_170\n              jump\t// in\n            tag_310:\n                /* \"#utility.yul\":10659:10684   */\n              swap2\n              pop\n                /* \"#utility.yul\":10698:10718   */\n              tag_311\n                /* \"#utility.yul\":10716:10717   */\n              dup4\n                /* \"#utility.yul\":10698:10718   */\n              tag_170\n              jump\t// in\n            tag_311:\n                /* \"#utility.yul\":10693:10718   */\n              swap3\n              pop\n                /* \"#utility.yul\":10737:10738   */\n              dup3\n                /* \"#utility.yul\":10727:10762   */\n              tag_312\n              jumpi\n                /* \"#utility.yul\":10742:10760   */\n              tag_313\n              tag_190\n              jump\t// in\n            tag_313:\n                /* \"#utility.yul\":10727:10762   */\n            tag_312:\n                /* \"#utility.yul\":10784:10785   */\n              dup3\n                /* \"#utility.yul\":10781:10782   */\n              dup3\n                /* \"#utility.yul\":10777:10786   */\n              div\n                /* \"#utility.yul\":10772:10786   */\n              swap1\n              pop\n                /* \"#utility.yul\":10607:10792   */\n              swap3\n              swap2\n              pop\n              pop\n              jump\t// out\n                /* \"#utility.yul\":10798:11103   */\n            tag_137:\n                /* \"#utility.yul\":10838:10841   */\n              0x00\n                /* \"#utility.yul\":10857:10877   */\n              tag_315\n                /* \"#utility.yul\":10875:10876   */\n              dup3\n                /* \"#utility.yul\":10857:10877   */\n              tag_170\n              jump\t// in\n            tag_315:\n                /* \"#utility.yul\":10852:10877   */\n              swap2\n              pop\n                /* \"#utility.yul\":10891:10911   */\n              tag_316\n                /* \"#utility.yul\":10909:10910   */\n              dup4\n                /* \"#utility.yul\":10891:10911   */\n              tag_170\n              jump\t// in\n            tag_316:\n                /* \"#utility.yul\":10886:10911   */\n              swap3\n              pop\n                /* \"#utility.yul\":11045:11046   */\n              dup3\n                /* \"#utility.yul\":10977:11043   */\n              0xffffffffffffffffffffffffffffffffffffffffffffffffffffffffffffffff\n                /* \"#utility.yul\":10973:11047   */\n              sub\n                /* \"#utility.yul\":10970:10971   */\n              dup3\n                /* \"#utility.yul\":10967:11048   */\n              gt\n                /* \"#utility.yul\":10964:11071   */\n              iszero\n              tag_317\n              jumpi\n                /* \"#utility.yul\":11051:11069   */\n              tag_318\n              tag_191\n              jump\t// in\n            tag_318:\n                /* \"#utility.yul\":10964:11071   */\n            tag_317:\n                /* \"#utility.yul\":11095:11096   */\n              dup3\n                /* \"#utility.yul\":11092:11093   */\n              dup3\n                /* \"#utility.yul\":11088:11097   */\n              add\n                /* \"#utility.yul\":11081:11097   */\n              swap1\n              pop\n                /* \"#utility.yul\":10798:11103   */\n              swap3\n              swap2\n              pop\n              pop\n              jump\t// out\n\n            auxdata: 0xa26469706673582212205b09e9156663bbd5ef9be54d1dd74038184e611841fdfe022000239d5d420a5d64736f6c634300080d0033\n        }\n    }\n\n    auxdata: 0xa26469706673582212208bd63b922b93ec595902f3c74d0ac2122105d0172d3920d2f0f366231c45a4ee64736f6c634300080d0033\n}\n","bytecode":{"linkReferences":{},"object":"608060405234801561001057600080fd5b5061201a806100206000396000f3fe60806040523480156200001157600080fd5b50600436106200005e5760003560e01c8063107046bd146200006357806324d2b0c614620000995780635b7ce55a14620000bb578063610a6a2a14620000dd578063dcc6012814620000fd575b600080fd5b6200008160048036038101906200007b91906200038c565b6200011f565b60405162000090919062000403565b60405180910390f35b620000a36200015f565b604051620000b2919062000403565b60405180910390f35b620000c562000185565b604051620000d4919062000403565b60405180910390f35b620000fb6004803603810190620000f5919062000582565b620001af565b005b620001076200029f565b604051620001169190620006e1565b60405180910390f35b600081815481106200013057600080fd5b906000526020600020016000915054906101000a900473ffffffffffffffffffffffffffffffffffffffff1681565b600160009054906101000a900473ffffffffffffffffffffffffffffffffffffffff1681565b6000600160009054906101000a900473ffffffffffffffffffffffffffffffffffffffff16905090565b60008484848433604051620001c4906200032f565b620001d4959493929190620007a9565b604051809103906000f080158015620001f1573d6000803e3d6000fd5b5090506000819080600181540180825580915050600190039060005260206000200160009091909190916101000a81548173ffffffffffffffffffffffffffffffffffffffff021916908373ffffffffffffffffffffffffffffffffffffffff16021790555080600160006101000a81548173ffffffffffffffffffffffffffffffffffffffff021916908373ffffffffffffffffffffffffffffffffffffffff1602179055505050505050565b606060008054806020026020016040519081016040528092919081815260200182805480156200032557602002820191906000526020600020905b8160009054906101000a900473ffffffffffffffffffffffffffffffffffffffff1673ffffffffffffffffffffffffffffffffffffffff1681526020019060010190808311620002da575b5050505050905090565b6117d7806200080e83390190565b6000604051905090565b600080fd5b600080fd5b6000819050919050565b620003668162000351565b81146200037257600080fd5b50565b60008135905062000386816200035b565b92915050565b600060208284031215620003a557620003a462000347565b5b6000620003b58482850162000375565b91505092915050565b600073ffffffffffffffffffffffffffffffffffffffff82169050919050565b6000620003eb82620003be565b9050919050565b620003fd81620003de565b82525050565b60006020820190506200041a6000830184620003f2565b92915050565b600080fd5b600080fd5b6000601f19601f8301169050919050565b7f4e487b7100000000000000000000000000000000000000000000000000000000600052604160045260246000fd5b62000475826200042a565b810181811067ffffffffffffffff821117156200049757620004966200043b565b5b80604052505050565b6000620004ac6200033d565b9050620004ba82826200046a565b919050565b600067ffffffffffffffff821115620004dd57620004dc6200043b565b5b620004e8826200042a565b9050602081019050919050565b82818337600083830152505050565b60006200051b6200051584620004bf565b620004a0565b9050828152602081018484840111156200053a576200053962000425565b5b62000547848285620004f5565b509392505050565b600082601f83011262000567576200056662000420565b5b81356200057984826020860162000504565b91505092915050565b600080600080608085870312156200059f576200059e62000347565b5b600085013567ffffffffffffffff811115620005c057620005bf6200034c565b5b620005ce878288016200054f565b9450506020620005e18782880162000375565b9350506040620005f48782880162000375565b9250506060620006078782880162000375565b91505092959194509250565b600081519050919050565b600082825260208201905092915050565b6000819050602082019050919050565b6200064a81620003de565b82525050565b60006200065e83836200063f565b60208301905092915050565b6000602082019050919050565b6000620006848262000613565b6200069081856200061e565b93506200069d836200062f565b8060005b83811015620006d4578151620006b8888262000650565b9750620006c5836200066a565b925050600181019050620006a1565b5085935050505092915050565b60006020820190508181036000830152620006fd818462000677565b905092915050565b600081519050919050565b600082825260208201905092915050565b60005b838110156200074157808201518184015260208101905062000724565b8381111562000751576000848401525b50505050565b6000620007648262000705565b62000770818562000710565b93506200078281856020860162000721565b6200078d816200042a565b840191505092915050565b620007a38162000351565b82525050565b600060a0820190508181036000830152620007c5818862000757565b9050620007d6602083018762000798565b620007e5604083018662000798565b620007f4606083018562000798565b620008036080830184620003f2565b969550505050505056fe60806040523480156200001157600080fd5b50604051620017d7380380620017d78339818101604052810190620000379190620003c7565b838310156200004557600080fd5b838210156200005357600080fd5b828210156200006157600080fd5b846001908051906020019062000079929190620000da565b50836002819055508260038190555081600481905550806000806101000a81548173ffffffffffffffffffffffffffffffffffffffff021916908373ffffffffffffffffffffffffffffffffffffffff1602179055505050505050620004d2565b828054620000e8906200049d565b90600052602060002090601f0160209004810192826200010c576000855562000158565b82601f106200012757805160ff191683800117855562000158565b8280016001018555821562000158579182015b82811115620001575782518255916020019190600101906200013a565b5b5090506200016791906200016b565b5090565b5b80821115620001865760008160009055506001016200016c565b5090565b6000604051905090565b600080fd5b600080fd5b600080fd5b600080fd5b6000601f19601f8301169050919050565b7f4e487b7100000000000000000000000000000000000000000000000000000000600052604160045260246000fd5b620001f382620001a8565b810181811067ffffffffffffffff82111715620002155762000214620001b9565b5b80604052505050565b60006200022a6200018a565b9050620002388282620001e8565b919050565b600067ffffffffffffffff8211156200025b576200025a620001b9565b5b6200026682620001a8565b9050602081019050919050565b60005b838110156200029357808201518184015260208101905062000276565b83811115620002a3576000848401525b50505050565b6000620002c0620002ba846200023d565b6200021e565b905082815260208101848484011115620002df57620002de620001a3565b5b620002ec84828562000273565b509392505050565b600082601f8301126200030c576200030b6200019e565b5b81516200031e848260208601620002a9565b91505092915050565b6000819050919050565b6200033c8162000327565b81146200034857600080fd5b50565b6000815190506200035c8162000331565b92915050565b600073ffffffffffffffffffffffffffffffffffffffff82169050919050565b60006200038f8262000362565b9050919050565b620003a18162000382565b8114620003ad57600080fd5b50565b600081519050620003c18162000396565b92915050565b600080600080600060a08688031215620003e657620003e562000194565b5b600086015167ffffffffffffffff81111562000407576200040662000199565b5b6200041588828901620002f4565b955050602062000428888289016200034b565b94505060406200043b888289016200034b565b93505060606200044e888289016200034b565b92505060806200046188828901620003b0565b9150509295509295909350565b7f4e487b7100000000000000000000000000000000000000000000000000000000600052602260045260246000fd5b60006002820490506001821680620004b657607f821691505b602082108103620004cc57620004cb6200046e565b5b50919050565b6112f580620004e26000396000f3fe6080604052600436106100e85760003560e01c80637284e4161161008a578063d2b8b86711610059578063d2b8b867146102f3578063d7bb99ba1461031c578063d7e64c0014610326578063de14c81814610351576100e8565b80637284e4161461023157806387d817891461025c5780638da5cb5b1461029d57806392d0d153146102c8576100e8565b806340193883116100c6578063401938831461016c5780634051ddac1461019757806363fd9e38146101c95780636f7bc9be146101f4576100e8565b806303120d46146100ed5780631e36169e146101165780633110235a14610141575b600080fd5b3480156100f957600080fd5b50610114600480360381019061010f9190610e3d565b61037a565b005b34801561012257600080fd5b5061012b6104b3565b6040516101389190610ebb565b60405180910390f35b34801561014d57600080fd5b506101566104b9565b6040516101639190610ebb565b60405180910390f35b34801561017857600080fd5b506101816104bf565b60405161018e9190610ebb565b60405180910390f35b3480156101a357600080fd5b506101ac6104c5565b6040516101c0989796959493929190610f7f565b60405180910390f35b3480156101d557600080fd5b506101de6105ae565b6040516101eb9190610ebb565b60405180910390f35b34801561020057600080fd5b5061021b60048036038101906102169190611030565b6105b4565b6040516102289190610ebb565b60405180910390f35b34801561023d57600080fd5b506102466105cc565b604051610253919061105d565b60405180910390f35b34801561026857600080fd5b50610283600480360381019061027e919061107f565b61065a565b6040516102949594939291906110d6565b60405180910390f35b3480156102a957600080fd5b506102b2610755565b6040516102bf9190611130565b60405180910390f35b3480156102d457600080fd5b506102dd610779565b6040516102ea9190610ebb565b60405180910390f35b3480156102ff57600080fd5b5061031a6004803603810190610315919061107f565b61077f565b005b610324610930565b005b34801561033257600080fd5b5061033b610a61565b6040516103489190610ebb565b60405180910390f35b34801561035d57600080fd5b506103786004803603810190610373919061107f565b610a67565b005b60008054906101000a900473ffffffffffffffffffffffffffffffffffffffff1673ffffffffffffffffffffffffffffffffffffffff163373ffffffffffffffffffffffffffffffffffffffff16146103d257600080fd5b600060098054905090506009600181600181540180825580915050039060005260206000209050506000600982815481106104105761040f61114b565b5b9060005260206000209060050201905084816000019080519060200190610438929190610bac565b50838160010181905550828160020160006101000a81548173ffffffffffffffffffffffffffffffffffffffff021916908373ffffffffffffffffffffffffffffffffffffffff16021790555060008160020160146101000a81548160ff021916908315150217905550600081600401819055505050505050565b60075481565b60035481565b60045481565b6060600080600080600080600060016002546003546004544760055460098054905060008054906101000a900473ffffffffffffffffffffffffffffffffffffffff16878054610514906111a9565b80601f0160208091040260200160405190810160405280929190818152602001828054610540906111a9565b801561058d5780601f106105625761010080835404028352916020019161058d565b820191906000526020600020905b81548152906001019060200180831161057057829003601f168201915b50505050509750975097509750975097509750975097509091929394959697565b60025481565b60086020528060005260406000206000915090505481565b600180546105d9906111a9565b80601f0160208091040260200160405190810160405280929190818152602001828054610605906111a9565b80156106525780601f1061062757610100808354040283529160200191610652565b820191906000526020600020905b81548152906001019060200180831161063557829003601f168201915b505050505081565b6009818154811061066a57600080fd5b906000526020600020906005020160009150905080600001805461068d906111a9565b80601f01602080910402602001604051908101604052809291908181526020018280546106b9906111a9565b80156107065780601f106106db57610100808354040283529160200191610706565b820191906000526020600020905b8154815290600101906020018083116106e957829003601f168201915b5050505050908060010154908060020160009054906101000a900473ffffffffffffffffffffffffffffffffffffffff16908060020160149054906101000a900460ff16908060040154905085565b60008054906101000a900473ffffffffffffffffffffffffffffffffffffffff1681565b60065481565b60008054906101000a900473ffffffffffffffffffffffffffffffffffffffff1673ffffffffffffffffffffffffffffffffffffffff163373ffffffffffffffffffffffffffffffffffffffff16146107d757600080fd5b60008054906101000a900473ffffffffffffffffffffffffffffffffffffffff1673ffffffffffffffffffffffffffffffffffffffff163373ffffffffffffffffffffffffffffffffffffffff161461082f57600080fd5b6000600982815481106108455761084461114b565b5b906000526020600020906005020190508060020160149054906101000a900460ff161561087157600080fd5b806001015447101561088257600080fd5b60026005546108919190611238565b8160040154116108a057600080fd5b8060020160009054906101000a900473ffffffffffffffffffffffffffffffffffffffff1673ffffffffffffffffffffffffffffffffffffffff166108fc82600101549081150290604051600060405180830381858888f1935050505015801561090e573d6000803e3d6000fd5b5060018160020160146101000a81548160ff0219169083151502179055505050565b60025434101561093f57600080fd5b60035434111561094e57600080fd5b60045447111561095d57600080fd5b6000600860003373ffffffffffffffffffffffffffffffffffffffff1673ffffffffffffffffffffffffffffffffffffffff168152602001908152602001600020541115610a005734600860003373ffffffffffffffffffffffffffffffffffffffff1673ffffffffffffffffffffffffffffffffffffffff16815260200190815260200160002060008282546109f49190611269565b92505081905550610a5f565b34600860003373ffffffffffffffffffffffffffffffffffffffff1673ffffffffffffffffffffffffffffffffffffffff16815260200190815260200160002081905550600160056000828254610a579190611269565b925050819055505b565b60055481565b600060098281548110610a7d57610a7c61114b565b5b906000526020600020906005020190506000600860003373ffffffffffffffffffffffffffffffffffffffff1673ffffffffffffffffffffffffffffffffffffffff1681526020019081526020016000205411610ad957600080fd5b8060030160003373ffffffffffffffffffffffffffffffffffffffff1673ffffffffffffffffffffffffffffffffffffffff16815260200190815260200160002060009054906101000a900460ff1615610b3257600080fd5b60018160030160003373ffffffffffffffffffffffffffffffffffffffff1673ffffffffffffffffffffffffffffffffffffffff16815260200190815260200160002060006101000a81548160ff0219169083151502179055506001816004016000828254610ba19190611269565b925050819055505050565b828054610bb8906111a9565b90600052602060002090601f016020900481019282610bda5760008555610c21565b82601f10610bf357805160ff1916838001178555610c21565b82800160010185558215610c21579182015b82811115610c20578251825591602001919060010190610c05565b5b509050610c2e9190610c32565b5090565b5b80821115610c4b576000816000905550600101610c33565b5090565b6000604051905090565b600080fd5b600080fd5b600080fd5b600080fd5b6000601f19601f8301169050919050565b7f4e487b7100000000000000000000000000000000000000000000000000000000600052604160045260246000fd5b610cb682610c6d565b810181811067ffffffffffffffff82111715610cd557610cd4610c7e565b5b80604052505050565b6000610ce8610c4f565b9050610cf48282610cad565b919050565b600067ffffffffffffffff821115610d1457610d13610c7e565b5b610d1d82610c6d565b9050602081019050919050565b82818337600083830152505050565b6000610d4c610d4784610cf9565b610cde565b905082815260208101848484011115610d6857610d67610c68565b5b610d73848285610d2a565b509392505050565b600082601f830112610d9057610d8f610c63565b5b8135610da0848260208601610d39565b91505092915050565b6000819050919050565b610dbc81610da9565b8114610dc757600080fd5b50565b600081359050610dd981610db3565b92915050565b600073ffffffffffffffffffffffffffffffffffffffff82169050919050565b6000610e0a82610ddf565b9050919050565b610e1a81610dff565b8114610e2557600080fd5b50565b600081359050610e3781610e11565b92915050565b600080600060608486031215610e5657610e55610c59565b5b600084013567ffffffffffffffff811115610e7457610e73610c5e565b5b610e8086828701610d7b565b9350506020610e9186828701610dca565b9250506040610ea286828701610e28565b9150509250925092565b610eb581610da9565b82525050565b6000602082019050610ed06000830184610eac565b92915050565b600081519050919050565b600082825260208201905092915050565b60005b83811015610f10578082015181840152602081019050610ef5565b83811115610f1f576000848401525b50505050565b6000610f3082610ed6565b610f3a8185610ee1565b9350610f4a818560208601610ef2565b610f5381610c6d565b840191505092915050565b6000610f6982610ddf565b9050919050565b610f7981610f5e565b82525050565b6000610100820190508181036000830152610f9a818b610f25565b9050610fa9602083018a610eac565b610fb66040830189610eac565b610fc36060830188610eac565b610fd06080830187610eac565b610fdd60a0830186610eac565b610fea60c0830185610eac565b610ff760e0830184610f70565b9998505050505050505050565b61100d81610f5e565b811461101857600080fd5b50565b60008135905061102a81611004565b92915050565b60006020828403121561104657611045610c59565b5b60006110548482850161101b565b91505092915050565b600060208201905081810360008301526110778184610f25565b905092915050565b60006020828403121561109557611094610c59565b5b60006110a384828501610dca565b91505092915050565b6110b581610dff565b82525050565b60008115159050919050565b6110d0816110bb565b82525050565b600060a08201905081810360008301526110f08188610f25565b90506110ff6020830187610eac565b61110c60408301866110ac565b61111960608301856110c7565b6111266080830184610eac565b9695505050505050565b60006020820190506111456000830184610f70565b92915050565b7f4e487b7100000000000000000000000000000000000000000000000000000000600052603260045260246000fd5b7f4e487b7100000000000000000000000000000000000000000000000000000000600052602260045260246000fd5b600060028204905060018216806111c157607f821691505b6020821081036111d4576111d361117a565b5b50919050565b7f4e487b7100000000000000000000000000000000000000000000000000000000600052601260045260246000fd5b7f4e487b7100000000000000000000000000000000000000000000000000000000600052601160045260246000fd5b600061124382610da9565b915061124e83610da9565b92508261125e5761125d6111da565b5b828204905092915050565b600061127482610da9565b915061127f83610da9565b9250827fffffffffffffffffffffffffffffffffffffffffffffffffffffffffffffffff038211156112b4576112b3611209565b5b82820190509291505056fea26469706673582212205b09e9156663bbd5ef9be54d1dd74038184e611841fdfe022000239d5d420a5d64736f6c634300080d0033a26469706673582212208bd63b922b93ec595902f3c74d0ac2122105d0172d3920d2f0f366231c45a4ee64736f6c634300080d0033","opcodes":"PUSH1 0x80 PUSH1 0x40 MSTORE CALLVALUE DUP1 ISZERO PUSH2 0x10 JUMPI PUSH1 0x0 DUP1 REVERT JUMPDEST POP PUSH2 0x201A DUP1 PUSH2 0x20 PUSH1 0x0 CODECOPY PUSH1 0x0 RETURN INVALID PUSH1 0x80 PUSH1 0x40 MSTORE CALLVALUE DUP1 ISZERO PUSH3 0x11 JUMPI PUSH1 0x0 DUP1 REVERT JUMPDEST POP PUSH1 0x4 CALLDATASIZE LT PUSH3 0x5E JUMPI PUSH1 0x0 CALLDATALOAD PUSH1 0xE0 SHR DUP1 PUSH4 0x107046BD EQ PUSH3 0x63 JUMPI DUP1 PUSH4 0x24D2B0C6 EQ PUSH3 0x99 JUMPI DUP1 PUSH4 0x5B7CE55A EQ PUSH3 0xBB JUMPI DUP1 PUSH4 0x610A6A2A EQ PUSH3 0xDD JUMPI DUP1 PUSH4 0xDCC60128 EQ PUSH3 0xFD JUMPI JUMPDEST PUSH1 0x0 DUP1 REVERT JUMPDEST PUSH3 0x81 PUSH1 0x4 DUP1 CALLDATASIZE SUB DUP2 ADD SWAP1 PUSH3 0x7B SWAP2 SWAP1 PUSH3 0x38C JUMP JUMPDEST PUSH3 0x11F JUMP JUMPDEST PUSH1 0x40 MLOAD PUSH3 0x90 SWAP2 SWAP1 PUSH3 0x403 JUMP JUMPDEST PUSH1 0x40 MLOAD DUP1 SWAP2 SUB SWAP1 RETURN JUMPDEST PUSH3 0xA3 PUSH3 0x15F JUMP JUMPDEST PUSH1 0x40 MLOAD PUSH3 0xB2 SWAP2 SWAP1 PUSH3 0x403 JUMP JUMPDEST PUSH1 0x40 MLOAD DUP1 SWAP2 SUB SWAP1 RETURN JUMPDEST PUSH3 0xC5 PUSH3 0x185 JUMP JUMPDEST PUSH1 0x40 MLOAD PUSH3 0xD4 SWAP2 SWAP1 PUSH3 0x403 JUMP JUMPDEST PUSH1 0x40 MLOAD DUP1 SWAP2 SUB SWAP1 RETURN JUMPDEST PUSH3 0xFB PUSH1 0x4 DUP1 CALLDATASIZE SUB DUP2 ADD SWAP1 PUSH3 0xF5 SWAP2 SWAP1 PUSH3 0x582 JUMP JUMPDEST PUSH3 0x1AF JUMP JUMPDEST STOP JUMPDEST PUSH3 0x107 PUSH3 0x29F JUMP JUMPDEST PUSH1 0x40 MLOAD PUSH3 0x116 SWAP2 SWAP1 PUSH3 0x6E1 JUMP JUMPDEST PUSH1 0x40 MLOAD DUP1 SWAP2 SUB SWAP1 RETURN JUMPDEST PUSH1 0x0 DUP2 DUP2 SLOAD DUP2 LT PUSH3 0x130 JUMPI PUSH1 0x0 DUP1 REVERT JUMPDEST SWAP1 PUSH1 0x0 MSTORE PUSH1 0x20 PUSH1 0x0 KECCAK256 ADD PUSH1 0x0 SWAP2 POP SLOAD SWAP1 PUSH2 0x100 EXP SWAP1 DIV PUSH20 0xFFFFFFFFFFFFFFFFFFFFFFFFFFFFFFFFFFFFFFFF AND DUP2 JUMP JUMPDEST PUSH1 0x1 PUSH1 0x0 SWAP1 SLOAD SWAP1 PUSH2 0x100 EXP SWAP1 DIV PUSH20 0xFFFFFFFFFFFFFFFFFFFFFFFFFFFFFFFFFFFFFFFF AND DUP2 JUMP JUMPDEST PUSH1 0x0 PUSH1 0x1 PUSH1 0x0 SWAP1 SLOAD SWAP1 PUSH2 0x100 EXP SWAP1 DIV PUSH20 0xFFFFFFFFFFFFFFFFFFFFFFFFFFFFFFFFFFFFFFFF AND SWAP1 POP SWAP1 JUMP JUMPDEST PUSH1 0x0 DUP5 DUP5 DUP5 DUP5 CALLER PUSH1 0x40 MLOAD PUSH3 0x1C4 SWAP1 PUSH3 0x32F JUMP JUMPDEST PUSH3 0x1D4 SWAP6 SWAP5 SWAP4 SWAP3 SWAP2 SWAP1 PUSH3 0x7A9 JUMP JUMPDEST PUSH1 0x40 MLOAD DUP1 SWAP2 SUB SWAP1 PUSH1 0x0 CREATE DUP1 ISZERO DUP1 ISZERO PUSH3 0x1F1 JUMPI RETURNDATASIZE PUSH1 0x0 DUP1 RETURNDATACOPY RETURNDATASIZE PUSH1 0x0 REVERT JUMPDEST POP SWAP1 POP PUSH1 0x0 DUP2 SWAP1 DUP1 PUSH1 0x1 DUP2 SLOAD ADD DUP1 DUP3 SSTORE DUP1 SWAP2 POP POP PUSH1 0x1 SWAP1 SUB SWAP1 PUSH1 0x0 MSTORE PUSH1 0x20 PUSH1 0x0 KECCAK256 ADD PUSH1 0x0 SWAP1 SWAP2 SWAP1 SWAP2 SWAP1 SWAP2 PUSH2 0x100 EXP DUP2 SLOAD DUP2 PUSH20 0xFFFFFFFFFFFFFFFFFFFFFFFFFFFFFFFFFFFFFFFF MUL NOT AND SWAP1 DUP4 PUSH20 0xFFFFFFFFFFFFFFFFFFFFFFFFFFFFFFFFFFFFFFFF AND MUL OR SWAP1 SSTORE POP DUP1 PUSH1 0x1 PUSH1 0x0 PUSH2 0x100 EXP DUP2 SLOAD DUP2 PUSH20 0xFFFFFFFFFFFFFFFFFFFFFFFFFFFFFFFFFFFFFFFF MUL NOT AND SWAP1 DUP4 PUSH20 0xFFFFFFFFFFFFFFFFFFFFFFFFFFFFFFFFFFFFFFFF AND MUL OR SWAP1 SSTORE POP POP POP POP POP POP JUMP JUMPDEST PUSH1 0x60 PUSH1 0x0 DUP1 SLOAD DUP1 PUSH1 0x20 MUL PUSH1 0x20 ADD PUSH1 0x40 MLOAD SWAP1 DUP2 ADD PUSH1 0x40 MSTORE DUP1 SWAP3 SWAP2 SWAP1 DUP2 DUP2 MSTORE PUSH1 0x20 ADD DUP3 DUP1 SLOAD DUP1 ISZERO PUSH3 0x325 JUMPI PUSH1 0x20 MUL DUP3 ADD SWAP2 SWAP1 PUSH1 0x0 MSTORE PUSH1 0x20 PUSH1 0x0 KECCAK256 SWAP1 JUMPDEST DUP2 PUSH1 0x0 SWAP1 SLOAD SWAP1 PUSH2 0x100 EXP SWAP1 DIV PUSH20 0xFFFFFFFFFFFFFFFFFFFFFFFFFFFFFFFFFFFFFFFF AND PUSH20 0xFFFFFFFFFFFFFFFFFFFFFFFFFFFFFFFFFFFFFFFF AND DUP2 MSTORE PUSH1 0x20 ADD SWAP1 PUSH1 0x1 ADD SWAP1 DUP1 DUP4 GT PUSH3 0x2DA JUMPI JUMPDEST POP POP POP POP POP SWAP1 POP SWAP1 JUMP JUMPDEST PUSH2 0x17D7 DUP1 PUSH3 0x80E DUP4 CODECOPY ADD SWAP1 JUMP JUMPDEST PUSH1 0x0 PUSH1 0x40 MLOAD SWAP1 POP SWAP1 JUMP JUMPDEST PUSH1 0x0 DUP1 REVERT JUMPDEST PUSH1 0x0 DUP1 REVERT JUMPDEST PUSH1 0x0 DUP2 SWAP1 POP SWAP2 SWAP1 POP JUMP JUMPDEST PUSH3 0x366 DUP2 PUSH3 0x351 JUMP JUMPDEST DUP2 EQ PUSH3 0x372 JUMPI PUSH1 0x0 DUP1 REVERT JUMPDEST POP JUMP JUMPDEST PUSH1 0x0 DUP2 CALLDATALOAD SWAP1 POP PUSH3 0x386 DUP2 PUSH3 0x35B JUMP JUMPDEST SWAP3 SWAP2 POP POP JUMP JUMPDEST PUSH1 0x0 PUSH1 0x20 DUP3 DUP5 SUB SLT ISZERO PUSH3 0x3A5 JUMPI PUSH3 0x3A4 PUSH3 0x347 JUMP JUMPDEST JUMPDEST PUSH1 0x0 PUSH3 0x3B5 DUP5 DUP3 DUP6 ADD PUSH3 0x375 JUMP JUMPDEST SWAP2 POP POP SWAP3 SWAP2 POP POP JUMP JUMPDEST PUSH1 0x0 PUSH20 0xFFFFFFFFFFFFFFFFFFFFFFFFFFFFFFFFFFFFFFFF DUP3 AND SWAP1 POP SWAP2 SWAP1 POP JUMP JUMPDEST PUSH1 0x0 PUSH3 0x3EB DUP3 PUSH3 0x3BE JUMP JUMPDEST SWAP1 POP SWAP2 SWAP1 POP JUMP JUMPDEST PUSH3 0x3FD DUP2 PUSH3 0x3DE JUMP JUMPDEST DUP3 MSTORE POP POP JUMP JUMPDEST PUSH1 0x0 PUSH1 0x20 DUP3 ADD SWAP1 POP PUSH3 0x41A PUSH1 0x0 DUP4 ADD DUP5 PUSH3 0x3F2 JUMP JUMPDEST SWAP3 SWAP2 POP POP JUMP JUMPDEST PUSH1 0x0 DUP1 REVERT JUMPDEST PUSH1 0x0 DUP1 REVERT JUMPDEST PUSH1 0x0 PUSH1 0x1F NOT PUSH1 0x1F DUP4 ADD AND SWAP1 POP SWAP2 SWAP1 POP JUMP JUMPDEST PUSH32 0x4E487B7100000000000000000000000000000000000000000000000000000000 PUSH1 0x0 MSTORE PUSH1 0x41 PUSH1 0x4 MSTORE PUSH1 0x24 PUSH1 0x0 REVERT JUMPDEST PUSH3 0x475 DUP3 PUSH3 0x42A JUMP JUMPDEST DUP2 ADD DUP2 DUP2 LT PUSH8 0xFFFFFFFFFFFFFFFF DUP3 GT OR ISZERO PUSH3 0x497 JUMPI PUSH3 0x496 PUSH3 0x43B JUMP JUMPDEST JUMPDEST DUP1 PUSH1 0x40 MSTORE POP POP POP JUMP JUMPDEST PUSH1 0x0 PUSH3 0x4AC PUSH3 0x33D JUMP JUMPDEST SWAP1 POP PUSH3 0x4BA DUP3 DUP3 PUSH3 0x46A JUMP JUMPDEST SWAP2 SWAP1 POP JUMP JUMPDEST PUSH1 0x0 PUSH8 0xFFFFFFFFFFFFFFFF DUP3 GT ISZERO PUSH3 0x4DD JUMPI PUSH3 0x4DC PUSH3 0x43B JUMP JUMPDEST JUMPDEST PUSH3 0x4E8 DUP3 PUSH3 0x42A JUMP JUMPDEST SWAP1 POP PUSH1 0x20 DUP2 ADD SWAP1 POP SWAP2 SWAP1 POP JUMP JUMPDEST DUP3 DUP2 DUP4 CALLDATACOPY PUSH1 0x0 DUP4 DUP4 ADD MSTORE POP POP POP JUMP JUMPDEST PUSH1 0x0 PUSH3 0x51B PUSH3 0x515 DUP5 PUSH3 0x4BF JUMP JUMPDEST PUSH3 0x4A0 JUMP JUMPDEST SWAP1 POP DUP3 DUP2 MSTORE PUSH1 0x20 DUP2 ADD DUP5 DUP5 DUP5 ADD GT ISZERO PUSH3 0x53A JUMPI PUSH3 0x539 PUSH3 0x425 JUMP JUMPDEST JUMPDEST PUSH3 0x547 DUP5 DUP3 DUP6 PUSH3 0x4F5 JUMP JUMPDEST POP SWAP4 SWAP3 POP POP POP JUMP JUMPDEST PUSH1 0x0 DUP3 PUSH1 0x1F DUP4 ADD SLT PUSH3 0x567 JUMPI PUSH3 0x566 PUSH3 0x420 JUMP JUMPDEST JUMPDEST DUP2 CALLDATALOAD PUSH3 0x579 DUP5 DUP3 PUSH1 0x20 DUP7 ADD PUSH3 0x504 JUMP JUMPDEST SWAP2 POP POP SWAP3 SWAP2 POP POP JUMP JUMPDEST PUSH1 0x0 DUP1 PUSH1 0x0 DUP1 PUSH1 0x80 DUP6 DUP8 SUB SLT ISZERO PUSH3 0x59F JUMPI PUSH3 0x59E PUSH3 0x347 JUMP JUMPDEST JUMPDEST PUSH1 0x0 DUP6 ADD CALLDATALOAD PUSH8 0xFFFFFFFFFFFFFFFF DUP2 GT ISZERO PUSH3 0x5C0 JUMPI PUSH3 0x5BF PUSH3 0x34C JUMP JUMPDEST JUMPDEST PUSH3 0x5CE DUP8 DUP3 DUP9 ADD PUSH3 0x54F JUMP JUMPDEST SWAP5 POP POP PUSH1 0x20 PUSH3 0x5E1 DUP8 DUP3 DUP9 ADD PUSH3 0x375 JUMP JUMPDEST SWAP4 POP POP PUSH1 0x40 PUSH3 0x5F4 DUP8 DUP3 DUP9 ADD PUSH3 0x375 JUMP JUMPDEST SWAP3 POP POP PUSH1 0x60 PUSH3 0x607 DUP8 DUP3 DUP9 ADD PUSH3 0x375 JUMP JUMPDEST SWAP2 POP POP SWAP3 SWAP6 SWAP2 SWAP5 POP SWAP3 POP JUMP JUMPDEST PUSH1 0x0 DUP2 MLOAD SWAP1 POP SWAP2 SWAP1 POP JUMP JUMPDEST PUSH1 0x0 DUP3 DUP3 MSTORE PUSH1 0x20 DUP3 ADD SWAP1 POP SWAP3 SWAP2 POP POP JUMP JUMPDEST PUSH1 0x0 DUP2 SWAP1 POP PUSH1 0x20 DUP3 ADD SWAP1 POP SWAP2 SWAP1 POP JUMP JUMPDEST PUSH3 0x64A DUP2 PUSH3 0x3DE JUMP JUMPDEST DUP3 MSTORE POP POP JUMP JUMPDEST PUSH1 0x0 PUSH3 0x65E DUP4 DUP4 PUSH3 0x63F JUMP JUMPDEST PUSH1 0x20 DUP4 ADD SWAP1 POP SWAP3 SWAP2 POP POP JUMP JUMPDEST PUSH1 0x0 PUSH1 0x20 DUP3 ADD SWAP1 POP SWAP2 SWAP1 POP JUMP JUMPDEST PUSH1 0x0 PUSH3 0x684 DUP3 PUSH3 0x613 JUMP JUMPDEST PUSH3 0x690 DUP2 DUP6 PUSH3 0x61E JUMP JUMPDEST SWAP4 POP PUSH3 0x69D DUP4 PUSH3 0x62F JUMP JUMPDEST DUP1 PUSH1 0x0 JUMPDEST DUP4 DUP2 LT ISZERO PUSH3 0x6D4 JUMPI DUP2 MLOAD PUSH3 0x6B8 DUP9 DUP3 PUSH3 0x650 JUMP JUMPDEST SWAP8 POP PUSH3 0x6C5 DUP4 PUSH3 0x66A JUMP JUMPDEST SWAP3 POP POP PUSH1 0x1 DUP2 ADD SWAP1 POP PUSH3 0x6A1 JUMP JUMPDEST POP DUP6 SWAP4 POP POP POP POP SWAP3 SWAP2 POP POP JUMP JUMPDEST PUSH1 0x0 PUSH1 0x20 DUP3 ADD SWAP1 POP DUP2 DUP2 SUB PUSH1 0x0 DUP4 ADD MSTORE PUSH3 0x6FD DUP2 DUP5 PUSH3 0x677 JUMP JUMPDEST SWAP1 POP SWAP3 SWAP2 POP POP JUMP JUMPDEST PUSH1 0x0 DUP2 MLOAD SWAP1 POP SWAP2 SWAP1 POP JUMP JUMPDEST PUSH1 0x0 DUP3 DUP3 MSTORE PUSH1 0x20 DUP3 ADD SWAP1 POP SWAP3 SWAP2 POP POP JUMP JUMPDEST PUSH1 0x0 JUMPDEST DUP4 DUP2 LT ISZERO PUSH3 0x741 JUMPI DUP1 DUP3 ADD MLOAD DUP2 DUP5 ADD MSTORE PUSH1 0x20 DUP2 ADD SWAP1 POP PUSH3 0x724 JUMP JUMPDEST DUP4 DUP2 GT ISZERO PUSH3 0x751 JUMPI PUSH1 0x0 DUP5 DUP5 ADD MSTORE JUMPDEST POP POP POP POP JUMP JUMPDEST PUSH1 0x0 PUSH3 0x764 DUP3 PUSH3 0x705 JUMP JUMPDEST PUSH3 0x770 DUP2 DUP6 PUSH3 0x710 JUMP JUMPDEST SWAP4 POP PUSH3 0x782 DUP2 DUP6 PUSH1 0x20 DUP7 ADD PUSH3 0x721 JUMP JUMPDEST PUSH3 0x78D DUP2 PUSH3 0x42A JUMP JUMPDEST DUP5 ADD SWAP2 POP POP SWAP3 SWAP2 POP POP JUMP JUMPDEST PUSH3 0x7A3 DUP2 PUSH3 0x351 JUMP JUMPDEST DUP3 MSTORE POP POP JUMP JUMPDEST PUSH1 0x0 PUSH1 0xA0 DUP3 ADD SWAP1 POP DUP2 DUP2 SUB PUSH1 0x0 DUP4 ADD MSTORE PUSH3 0x7C5 DUP2 DUP9 PUSH3 0x757 JUMP JUMPDEST SWAP1 POP PUSH3 0x7D6 PUSH1 0x20 DUP4 ADD DUP8 PUSH3 0x798 JUMP JUMPDEST PUSH3 0x7E5 PUSH1 0x40 DUP4 ADD DUP7 PUSH3 0x798 JUMP JUMPDEST PUSH3 0x7F4 PUSH1 0x60 DUP4 ADD DUP6 PUSH3 0x798 JUMP JUMPDEST PUSH3 0x803 PUSH1 0x80 DUP4 ADD DUP5 PUSH3 0x3F2 JUMP JUMPDEST SWAP7 SWAP6 POP POP POP POP POP POP JUMP INVALID PUSH1 0x80 PUSH1 0x40 MSTORE CALLVALUE DUP1 ISZERO PUSH3 0x11 JUMPI PUSH1 0x0 DUP1 REVERT JUMPDEST POP PUSH1 0x40 MLOAD PUSH3 0x17D7 CODESIZE SUB DUP1 PUSH3 0x17D7 DUP4 CODECOPY DUP2 DUP2 ADD PUSH1 0x40 MSTORE DUP2 ADD SWAP1 PUSH3 0x37 SWAP2 SWAP1 PUSH3 0x3C7 JUMP JUMPDEST DUP4 DUP4 LT ISZERO PUSH3 0x45 JUMPI PUSH1 0x0 DUP1 REVERT JUMPDEST DUP4 DUP3 LT ISZERO PUSH3 0x53 JUMPI PUSH1 0x0 DUP1 REVERT JUMPDEST DUP3 DUP3 LT ISZERO PUSH3 0x61 JUMPI PUSH1 0x0 DUP1 REVERT JUMPDEST DUP5 PUSH1 0x1 SWAP1 DUP1 MLOAD SWAP1 PUSH1 0x20 ADD SWAP1 PUSH3 0x79 SWAP3 SWAP2 SWAP1 PUSH3 0xDA JUMP JUMPDEST POP DUP4 PUSH1 0x2 DUP2 SWAP1 SSTORE POP DUP3 PUSH1 0x3 DUP2 SWAP1 SSTORE POP DUP2 PUSH1 0x4 DUP2 SWAP1 SSTORE POP DUP1 PUSH1 0x0 DUP1 PUSH2 0x100 EXP DUP2 SLOAD DUP2 PUSH20 0xFFFFFFFFFFFFFFFFFFFFFFFFFFFFFFFFFFFFFFFF MUL NOT AND SWAP1 DUP4 PUSH20 0xFFFFFFFFFFFFFFFFFFFFFFFFFFFFFFFFFFFFFFFF AND MUL OR SWAP1 SSTORE POP POP POP POP POP POP PUSH3 0x4D2 JUMP JUMPDEST DUP3 DUP1 SLOAD PUSH3 0xE8 SWAP1 PUSH3 0x49D JUMP JUMPDEST SWAP1 PUSH1 0x0 MSTORE PUSH1 0x20 PUSH1 0x0 KECCAK256 SWAP1 PUSH1 0x1F ADD PUSH1 0x20 SWAP1 DIV DUP2 ADD SWAP3 DUP3 PUSH3 0x10C JUMPI PUSH1 0x0 DUP6 SSTORE PUSH3 0x158 JUMP JUMPDEST DUP3 PUSH1 0x1F LT PUSH3 0x127 JUMPI DUP1 MLOAD PUSH1 0xFF NOT AND DUP4 DUP1 ADD OR DUP6 SSTORE PUSH3 0x158 JUMP JUMPDEST DUP3 DUP1 ADD PUSH1 0x1 ADD DUP6 SSTORE DUP3 ISZERO PUSH3 0x158 JUMPI SWAP2 DUP3 ADD JUMPDEST DUP3 DUP2 GT ISZERO PUSH3 0x157 JUMPI DUP3 MLOAD DUP3 SSTORE SWAP2 PUSH1 0x20 ADD SWAP2 SWAP1 PUSH1 0x1 ADD SWAP1 PUSH3 0x13A JUMP JUMPDEST JUMPDEST POP SWAP1 POP PUSH3 0x167 SWAP2 SWAP1 PUSH3 0x16B JUMP JUMPDEST POP SWAP1 JUMP JUMPDEST JUMPDEST DUP1 DUP3 GT ISZERO PUSH3 0x186 JUMPI PUSH1 0x0 DUP2 PUSH1 0x0 SWAP1 SSTORE POP PUSH1 0x1 ADD PUSH3 0x16C JUMP JUMPDEST POP SWAP1 JUMP JUMPDEST PUSH1 0x0 PUSH1 0x40 MLOAD SWAP1 POP SWAP1 JUMP JUMPDEST PUSH1 0x0 DUP1 REVERT JUMPDEST PUSH1 0x0 DUP1 REVERT JUMPDEST PUSH1 0x0 DUP1 REVERT JUMPDEST PUSH1 0x0 DUP1 REVERT JUMPDEST PUSH1 0x0 PUSH1 0x1F NOT PUSH1 0x1F DUP4 ADD AND SWAP1 POP SWAP2 SWAP1 POP JUMP JUMPDEST PUSH32 0x4E487B7100000000000000000000000000000000000000000000000000000000 PUSH1 0x0 MSTORE PUSH1 0x41 PUSH1 0x4 MSTORE PUSH1 0x24 PUSH1 0x0 REVERT JUMPDEST PUSH3 0x1F3 DUP3 PUSH3 0x1A8 JUMP JUMPDEST DUP2 ADD DUP2 DUP2 LT PUSH8 0xFFFFFFFFFFFFFFFF DUP3 GT OR ISZERO PUSH3 0x215 JUMPI PUSH3 0x214 PUSH3 0x1B9 JUMP JUMPDEST JUMPDEST DUP1 PUSH1 0x40 MSTORE POP POP POP JUMP JUMPDEST PUSH1 0x0 PUSH3 0x22A PUSH3 0x18A JUMP JUMPDEST SWAP1 POP PUSH3 0x238 DUP3 DUP3 PUSH3 0x1E8 JUMP JUMPDEST SWAP2 SWAP1 POP JUMP JUMPDEST PUSH1 0x0 PUSH8 0xFFFFFFFFFFFFFFFF DUP3 GT ISZERO PUSH3 0x25B JUMPI PUSH3 0x25A PUSH3 0x1B9 JUMP JUMPDEST JUMPDEST PUSH3 0x266 DUP3 PUSH3 0x1A8 JUMP JUMPDEST SWAP1 POP PUSH1 0x20 DUP2 ADD SWAP1 POP SWAP2 SWAP1 POP JUMP JUMPDEST PUSH1 0x0 JUMPDEST DUP4 DUP2 LT ISZERO PUSH3 0x293 JUMPI DUP1 DUP3 ADD MLOAD DUP2 DUP5 ADD MSTORE PUSH1 0x20 DUP2 ADD SWAP1 POP PUSH3 0x276 JUMP JUMPDEST DUP4 DUP2 GT ISZERO PUSH3 0x2A3 JUMPI PUSH1 0x0 DUP5 DUP5 ADD MSTORE JUMPDEST POP POP POP POP JUMP JUMPDEST PUSH1 0x0 PUSH3 0x2C0 PUSH3 0x2BA DUP5 PUSH3 0x23D JUMP JUMPDEST PUSH3 0x21E JUMP JUMPDEST SWAP1 POP DUP3 DUP2 MSTORE PUSH1 0x20 DUP2 ADD DUP5 DUP5 DUP5 ADD GT ISZERO PUSH3 0x2DF JUMPI PUSH3 0x2DE PUSH3 0x1A3 JUMP JUMPDEST JUMPDEST PUSH3 0x2EC DUP5 DUP3 DUP6 PUSH3 0x273 JUMP JUMPDEST POP SWAP4 SWAP3 POP POP POP JUMP JUMPDEST PUSH1 0x0 DUP3 PUSH1 0x1F DUP4 ADD SLT PUSH3 0x30C JUMPI PUSH3 0x30B PUSH3 0x19E JUMP JUMPDEST JUMPDEST DUP2 MLOAD PUSH3 0x31E DUP5 DUP3 PUSH1 0x20 DUP7 ADD PUSH3 0x2A9 JUMP JUMPDEST SWAP2 POP POP SWAP3 SWAP2 POP POP JUMP JUMPDEST PUSH1 0x0 DUP2 SWAP1 POP SWAP2 SWAP1 POP JUMP JUMPDEST PUSH3 0x33C DUP2 PUSH3 0x327 JUMP JUMPDEST DUP2 EQ PUSH3 0x348 JUMPI PUSH1 0x0 DUP1 REVERT JUMPDEST POP JUMP JUMPDEST PUSH1 0x0 DUP2 MLOAD SWAP1 POP PUSH3 0x35C DUP2 PUSH3 0x331 JUMP JUMPDEST SWAP3 SWAP2 POP POP JUMP JUMPDEST PUSH1 0x0 PUSH20 0xFFFFFFFFFFFFFFFFFFFFFFFFFFFFFFFFFFFFFFFF DUP3 AND SWAP1 POP SWAP2 SWAP1 POP JUMP JUMPDEST PUSH1 0x0 PUSH3 0x38F DUP3 PUSH3 0x362 JUMP JUMPDEST SWAP1 POP SWAP2 SWAP1 POP JUMP JUMPDEST PUSH3 0x3A1 DUP2 PUSH3 0x382 JUMP JUMPDEST DUP2 EQ PUSH3 0x3AD JUMPI PUSH1 0x0 DUP1 REVERT JUMPDEST POP JUMP JUMPDEST PUSH1 0x0 DUP2 MLOAD SWAP1 POP PUSH3 0x3C1 DUP2 PUSH3 0x396 JUMP JUMPDEST SWAP3 SWAP2 POP POP JUMP JUMPDEST PUSH1 0x0 DUP1 PUSH1 0x0 DUP1 PUSH1 0x0 PUSH1 0xA0 DUP7 DUP9 SUB SLT ISZERO PUSH3 0x3E6 JUMPI PUSH3 0x3E5 PUSH3 0x194 JUMP JUMPDEST JUMPDEST PUSH1 0x0 DUP7 ADD MLOAD PUSH8 0xFFFFFFFFFFFFFFFF DUP2 GT ISZERO PUSH3 0x407 JUMPI PUSH3 0x406 PUSH3 0x199 JUMP JUMPDEST JUMPDEST PUSH3 0x415 DUP9 DUP3 DUP10 ADD PUSH3 0x2F4 JUMP JUMPDEST SWAP6 POP POP PUSH1 0x20 PUSH3 0x428 DUP9 DUP3 DUP10 ADD PUSH3 0x34B JUMP JUMPDEST SWAP5 POP POP PUSH1 0x40 PUSH3 0x43B DUP9 DUP3 DUP10 ADD PUSH3 0x34B JUMP JUMPDEST SWAP4 POP POP PUSH1 0x60 PUSH3 0x44E DUP9 DUP3 DUP10 ADD PUSH3 0x34B JUMP JUMPDEST SWAP3 POP POP PUSH1 0x80 PUSH3 0x461 DUP9 DUP3 DUP10 ADD PUSH3 0x3B0 JUMP JUMPDEST SWAP2 POP POP SWAP3 SWAP6 POP SWAP3 SWAP6 SWAP1 SWAP4 POP JUMP JUMPDEST PUSH32 0x4E487B7100000000000000000000000000000000000000000000000000000000 PUSH1 0x0 MSTORE PUSH1 0x22 PUSH1 0x4 MSTORE PUSH1 0x24 PUSH1 0x0 REVERT JUMPDEST PUSH1 0x0 PUSH1 0x2 DUP3 DIV SWAP1 POP PUSH1 0x1 DUP3 AND DUP1 PUSH3 0x4B6 JUMPI PUSH1 0x7F DUP3 AND SWAP2 POP JUMPDEST PUSH1 0x20 DUP3 LT DUP2 SUB PUSH3 0x4CC JUMPI PUSH3 0x4CB PUSH3 0x46E JUMP JUMPDEST JUMPDEST POP SWAP2 SWAP1 POP JUMP JUMPDEST PUSH2 0x12F5 DUP1 PUSH3 0x4E2 PUSH1 0x0 CODECOPY PUSH1 0x0 RETURN INVALID PUSH1 0x80 PUSH1 0x40 MSTORE PUSH1 0x4 CALLDATASIZE LT PUSH2 0xE8 JUMPI PUSH1 0x0 CALLDATALOAD PUSH1 0xE0 SHR DUP1 PUSH4 0x7284E416 GT PUSH2 0x8A JUMPI DUP1 PUSH4 0xD2B8B867 GT PUSH2 0x59 JUMPI DUP1 PUSH4 0xD2B8B867 EQ PUSH2 0x2F3 JUMPI DUP1 PUSH4 0xD7BB99BA EQ PUSH2 0x31C JUMPI DUP1 PUSH4 0xD7E64C00 EQ PUSH2 0x326 JUMPI DUP1 PUSH4 0xDE14C818 EQ PUSH2 0x351 JUMPI PUSH2 0xE8 JUMP JUMPDEST DUP1 PUSH4 0x7284E416 EQ PUSH2 0x231 JUMPI DUP1 PUSH4 0x87D81789 EQ PUSH2 0x25C JUMPI DUP1 PUSH4 0x8DA5CB5B EQ PUSH2 0x29D JUMPI DUP1 PUSH4 0x92D0D153 EQ PUSH2 0x2C8 JUMPI PUSH2 0xE8 JUMP JUMPDEST DUP1 PUSH4 0x40193883 GT PUSH2 0xC6 JUMPI DUP1 PUSH4 0x40193883 EQ PUSH2 0x16C JUMPI DUP1 PUSH4 0x4051DDAC EQ PUSH2 0x197 JUMPI DUP1 PUSH4 0x63FD9E38 EQ PUSH2 0x1C9 JUMPI DUP1 PUSH4 0x6F7BC9BE EQ PUSH2 0x1F4 JUMPI PUSH2 0xE8 JUMP JUMPDEST DUP1 PUSH4 0x3120D46 EQ PUSH2 0xED JUMPI DUP1 PUSH4 0x1E36169E EQ PUSH2 0x116 JUMPI DUP1 PUSH4 0x3110235A EQ PUSH2 0x141 JUMPI JUMPDEST PUSH1 0x0 DUP1 REVERT JUMPDEST CALLVALUE DUP1 ISZERO PUSH2 0xF9 JUMPI PUSH1 0x0 DUP1 REVERT JUMPDEST POP PUSH2 0x114 PUSH1 0x4 DUP1 CALLDATASIZE SUB DUP2 ADD SWAP1 PUSH2 0x10F SWAP2 SWAP1 PUSH2 0xE3D JUMP JUMPDEST PUSH2 0x37A JUMP JUMPDEST STOP JUMPDEST CALLVALUE DUP1 ISZERO PUSH2 0x122 JUMPI PUSH1 0x0 DUP1 REVERT JUMPDEST POP PUSH2 0x12B PUSH2 0x4B3 JUMP JUMPDEST PUSH1 0x40 MLOAD PUSH2 0x138 SWAP2 SWAP1 PUSH2 0xEBB JUMP JUMPDEST PUSH1 0x40 MLOAD DUP1 SWAP2 SUB SWAP1 RETURN JUMPDEST CALLVALUE DUP1 ISZERO PUSH2 0x14D JUMPI PUSH1 0x0 DUP1 REVERT JUMPDEST POP PUSH2 0x156 PUSH2 0x4B9 JUMP JUMPDEST PUSH1 0x40 MLOAD PUSH2 0x163 SWAP2 SWAP1 PUSH2 0xEBB JUMP JUMPDEST PUSH1 0x40 MLOAD DUP1 SWAP2 SUB SWAP1 RETURN JUMPDEST CALLVALUE DUP1 ISZERO PUSH2 0x178 JUMPI PUSH1 0x0 DUP1 REVERT JUMPDEST POP PUSH2 0x181 PUSH2 0x4BF JUMP JUMPDEST PUSH1 0x40 MLOAD PUSH2 0x18E SWAP2 SWAP1 PUSH2 0xEBB JUMP JUMPDEST PUSH1 0x40 MLOAD DUP1 SWAP2 SUB SWAP1 RETURN JUMPDEST CALLVALUE DUP1 ISZERO PUSH2 0x1A3 JUMPI PUSH1 0x0 DUP1 REVERT JUMPDEST POP PUSH2 0x1AC PUSH2 0x4C5 JUMP JUMPDEST PUSH1 0x40 MLOAD PUSH2 0x1C0 SWAP9 SWAP8 SWAP7 SWAP6 SWAP5 SWAP4 SWAP3 SWAP2 SWAP1 PUSH2 0xF7F JUMP JUMPDEST PUSH1 0x40 MLOAD DUP1 SWAP2 SUB SWAP1 RETURN JUMPDEST CALLVALUE DUP1 ISZERO PUSH2 0x1D5 JUMPI PUSH1 0x0 DUP1 REVERT JUMPDEST POP PUSH2 0x1DE PUSH2 0x5AE JUMP JUMPDEST PUSH1 0x40 MLOAD PUSH2 0x1EB SWAP2 SWAP1 PUSH2 0xEBB JUMP JUMPDEST PUSH1 0x40 MLOAD DUP1 SWAP2 SUB SWAP1 RETURN JUMPDEST CALLVALUE DUP1 ISZERO PUSH2 0x200 JUMPI PUSH1 0x0 DUP1 REVERT JUMPDEST POP PUSH2 0x21B PUSH1 0x4 DUP1 CALLDATASIZE SUB DUP2 ADD SWAP1 PUSH2 0x216 SWAP2 SWAP1 PUSH2 0x1030 JUMP JUMPDEST PUSH2 0x5B4 JUMP JUMPDEST PUSH1 0x40 MLOAD PUSH2 0x228 SWAP2 SWAP1 PUSH2 0xEBB JUMP JUMPDEST PUSH1 0x40 MLOAD DUP1 SWAP2 SUB SWAP1 RETURN JUMPDEST CALLVALUE DUP1 ISZERO PUSH2 0x23D JUMPI PUSH1 0x0 DUP1 REVERT JUMPDEST POP PUSH2 0x246 PUSH2 0x5CC JUMP JUMPDEST PUSH1 0x40 MLOAD PUSH2 0x253 SWAP2 SWAP1 PUSH2 0x105D JUMP JUMPDEST PUSH1 0x40 MLOAD DUP1 SWAP2 SUB SWAP1 RETURN JUMPDEST CALLVALUE DUP1 ISZERO PUSH2 0x268 JUMPI PUSH1 0x0 DUP1 REVERT JUMPDEST POP PUSH2 0x283 PUSH1 0x4 DUP1 CALLDATASIZE SUB DUP2 ADD SWAP1 PUSH2 0x27E SWAP2 SWAP1 PUSH2 0x107F JUMP JUMPDEST PUSH2 0x65A JUMP JUMPDEST PUSH1 0x40 MLOAD PUSH2 0x294 SWAP6 SWAP5 SWAP4 SWAP3 SWAP2 SWAP1 PUSH2 0x10D6 JUMP JUMPDEST PUSH1 0x40 MLOAD DUP1 SWAP2 SUB SWAP1 RETURN JUMPDEST CALLVALUE DUP1 ISZERO PUSH2 0x2A9 JUMPI PUSH1 0x0 DUP1 REVERT JUMPDEST POP PUSH2 0x2B2 PUSH2 0x755 JUMP JUMPDEST PUSH1 0x40 MLOAD PUSH2 0x2BF SWAP2 SWAP1 PUSH2 0x1130 JUMP JUMPDEST PUSH1 0x40 MLOAD DUP1 SWAP2 SUB SWAP1 RETURN JUMPDEST CALLVALUE DUP1 ISZERO PUSH2 0x2D4 JUMPI PUSH1 0x0 DUP1 REVERT JUMPDEST POP PUSH2 0x2DD PUSH2 0x779 JUMP JUMPDEST PUSH1 0x40 MLOAD PUSH2 0x2EA SWAP2 SWAP1 PUSH2 0xEBB JUMP JUMPDEST PUSH1 0x40 MLOAD DUP1 SWAP2 SUB SWAP1 RETURN JUMPDEST CALLVALUE DUP1 ISZERO PUSH2 0x2FF JUMPI PUSH1 0x0 DUP1 REVERT JUMPDEST POP PUSH2 0x31A PUSH1 0x4 DUP1 CALLDATASIZE SUB DUP2 ADD SWAP1 PUSH2 0x315 SWAP2 SWAP1 PUSH2 0x107F JUMP JUMPDEST PUSH2 0x77F JUMP JUMPDEST STOP JUMPDEST PUSH2 0x324 PUSH2 0x930 JUMP JUMPDEST STOP JUMPDEST CALLVALUE DUP1 ISZERO PUSH2 0x332 JUMPI PUSH1 0x0 DUP1 REVERT JUMPDEST POP PUSH2 0x33B PUSH2 0xA61 JUMP JUMPDEST PUSH1 0x40 MLOAD PUSH2 0x348 SWAP2 SWAP1 PUSH2 0xEBB JUMP JUMPDEST PUSH1 0x40 MLOAD DUP1 SWAP2 SUB SWAP1 RETURN JUMPDEST CALLVALUE DUP1 ISZERO PUSH2 0x35D JUMPI PUSH1 0x0 DUP1 REVERT JUMPDEST POP PUSH2 0x378 PUSH1 0x4 DUP1 CALLDATASIZE SUB DUP2 ADD SWAP1 PUSH2 0x373 SWAP2 SWAP1 PUSH2 0x107F JUMP JUMPDEST PUSH2 0xA67 JUMP JUMPDEST STOP JUMPDEST PUSH1 0x0 DUP1 SLOAD SWAP1 PUSH2 0x100 EXP SWAP1 DIV PUSH20 0xFFFFFFFFFFFFFFFFFFFFFFFFFFFFFFFFFFFFFFFF AND PUSH20 0xFFFFFFFFFFFFFFFFFFFFFFFFFFFFFFFFFFFFFFFF AND CALLER PUSH20 0xFFFFFFFFFFFFFFFFFFFFFFFFFFFFFFFFFFFFFFFF AND EQ PUSH2 0x3D2 JUMPI PUSH1 0x0 DUP1 REVERT JUMPDEST PUSH1 0x0 PUSH1 0x9 DUP1 SLOAD SWAP1 POP SWAP1 POP PUSH1 0x9 PUSH1 0x1 DUP2 PUSH1 0x1 DUP2 SLOAD ADD DUP1 DUP3 SSTORE DUP1 SWAP2 POP POP SUB SWAP1 PUSH1 0x0 MSTORE PUSH1 0x20 PUSH1 0x0 KECCAK256 SWAP1 POP POP PUSH1 0x0 PUSH1 0x9 DUP3 DUP2 SLOAD DUP2 LT PUSH2 0x410 JUMPI PUSH2 0x40F PUSH2 0x114B JUMP JUMPDEST JUMPDEST SWAP1 PUSH1 0x0 MSTORE PUSH1 0x20 PUSH1 0x0 KECCAK256 SWAP1 PUSH1 0x5 MUL ADD SWAP1 POP DUP5 DUP2 PUSH1 0x0 ADD SWAP1 DUP1 MLOAD SWAP1 PUSH1 0x20 ADD SWAP1 PUSH2 0x438 SWAP3 SWAP2 SWAP1 PUSH2 0xBAC JUMP JUMPDEST POP DUP4 DUP2 PUSH1 0x1 ADD DUP2 SWAP1 SSTORE POP DUP3 DUP2 PUSH1 0x2 ADD PUSH1 0x0 PUSH2 0x100 EXP DUP2 SLOAD DUP2 PUSH20 0xFFFFFFFFFFFFFFFFFFFFFFFFFFFFFFFFFFFFFFFF MUL NOT AND SWAP1 DUP4 PUSH20 0xFFFFFFFFFFFFFFFFFFFFFFFFFFFFFFFFFFFFFFFF AND MUL OR SWAP1 SSTORE POP PUSH1 0x0 DUP2 PUSH1 0x2 ADD PUSH1 0x14 PUSH2 0x100 EXP DUP2 SLOAD DUP2 PUSH1 0xFF MUL NOT AND SWAP1 DUP4 ISZERO ISZERO MUL OR SWAP1 SSTORE POP PUSH1 0x0 DUP2 PUSH1 0x4 ADD DUP2 SWAP1 SSTORE POP POP POP POP POP POP JUMP JUMPDEST PUSH1 0x7 SLOAD DUP2 JUMP JUMPDEST PUSH1 0x3 SLOAD DUP2 JUMP JUMPDEST PUSH1 0x4 SLOAD DUP2 JUMP JUMPDEST PUSH1 0x60 PUSH1 0x0 DUP1 PUSH1 0x0 DUP1 PUSH1 0x0 DUP1 PUSH1 0x0 PUSH1 0x1 PUSH1 0x2 SLOAD PUSH1 0x3 SLOAD PUSH1 0x4 SLOAD SELFBALANCE PUSH1 0x5 SLOAD PUSH1 0x9 DUP1 SLOAD SWAP1 POP PUSH1 0x0 DUP1 SLOAD SWAP1 PUSH2 0x100 EXP SWAP1 DIV PUSH20 0xFFFFFFFFFFFFFFFFFFFFFFFFFFFFFFFFFFFFFFFF AND DUP8 DUP1 SLOAD PUSH2 0x514 SWAP1 PUSH2 0x11A9 JUMP JUMPDEST DUP1 PUSH1 0x1F ADD PUSH1 0x20 DUP1 SWAP2 DIV MUL PUSH1 0x20 ADD PUSH1 0x40 MLOAD SWAP1 DUP2 ADD PUSH1 0x40 MSTORE DUP1 SWAP3 SWAP2 SWAP1 DUP2 DUP2 MSTORE PUSH1 0x20 ADD DUP3 DUP1 SLOAD PUSH2 0x540 SWAP1 PUSH2 0x11A9 JUMP JUMPDEST DUP1 ISZERO PUSH2 0x58D JUMPI DUP1 PUSH1 0x1F LT PUSH2 0x562 JUMPI PUSH2 0x100 DUP1 DUP4 SLOAD DIV MUL DUP4 MSTORE SWAP2 PUSH1 0x20 ADD SWAP2 PUSH2 0x58D JUMP JUMPDEST DUP3 ADD SWAP2 SWAP1 PUSH1 0x0 MSTORE PUSH1 0x20 PUSH1 0x0 KECCAK256 SWAP1 JUMPDEST DUP2 SLOAD DUP2 MSTORE SWAP1 PUSH1 0x1 ADD SWAP1 PUSH1 0x20 ADD DUP1 DUP4 GT PUSH2 0x570 JUMPI DUP3 SWAP1 SUB PUSH1 0x1F AND DUP3 ADD SWAP2 JUMPDEST POP POP POP POP POP SWAP8 POP SWAP8 POP SWAP8 POP SWAP8 POP SWAP8 POP SWAP8 POP SWAP8 POP SWAP8 POP SWAP8 POP SWAP1 SWAP2 SWAP3 SWAP4 SWAP5 SWAP6 SWAP7 SWAP8 JUMP JUMPDEST PUSH1 0x2 SLOAD DUP2 JUMP JUMPDEST PUSH1 0x8 PUSH1 0x20 MSTORE DUP1 PUSH1 0x0 MSTORE PUSH1 0x40 PUSH1 0x0 KECCAK256 PUSH1 0x0 SWAP2 POP SWAP1 POP SLOAD DUP2 JUMP JUMPDEST PUSH1 0x1 DUP1 SLOAD PUSH2 0x5D9 SWAP1 PUSH2 0x11A9 JUMP JUMPDEST DUP1 PUSH1 0x1F ADD PUSH1 0x20 DUP1 SWAP2 DIV MUL PUSH1 0x20 ADD PUSH1 0x40 MLOAD SWAP1 DUP2 ADD PUSH1 0x40 MSTORE DUP1 SWAP3 SWAP2 SWAP1 DUP2 DUP2 MSTORE PUSH1 0x20 ADD DUP3 DUP1 SLOAD PUSH2 0x605 SWAP1 PUSH2 0x11A9 JUMP JUMPDEST DUP1 ISZERO PUSH2 0x652 JUMPI DUP1 PUSH1 0x1F LT PUSH2 0x627 JUMPI PUSH2 0x100 DUP1 DUP4 SLOAD DIV MUL DUP4 MSTORE SWAP2 PUSH1 0x20 ADD SWAP2 PUSH2 0x652 JUMP JUMPDEST DUP3 ADD SWAP2 SWAP1 PUSH1 0x0 MSTORE PUSH1 0x20 PUSH1 0x0 KECCAK256 SWAP1 JUMPDEST DUP2 SLOAD DUP2 MSTORE SWAP1 PUSH1 0x1 ADD SWAP1 PUSH1 0x20 ADD DUP1 DUP4 GT PUSH2 0x635 JUMPI DUP3 SWAP1 SUB PUSH1 0x1F AND DUP3 ADD SWAP2 JUMPDEST POP POP POP POP POP DUP2 JUMP JUMPDEST PUSH1 0x9 DUP2 DUP2 SLOAD DUP2 LT PUSH2 0x66A JUMPI PUSH1 0x0 DUP1 REVERT JUMPDEST SWAP1 PUSH1 0x0 MSTORE PUSH1 0x20 PUSH1 0x0 KECCAK256 SWAP1 PUSH1 0x5 MUL ADD PUSH1 0x0 SWAP2 POP SWAP1 POP DUP1 PUSH1 0x0 ADD DUP1 SLOAD PUSH2 0x68D SWAP1 PUSH2 0x11A9 JUMP JUMPDEST DUP1 PUSH1 0x1F ADD PUSH1 0x20 DUP1 SWAP2 DIV MUL PUSH1 0x20 ADD PUSH1 0x40 MLOAD SWAP1 DUP2 ADD PUSH1 0x40 MSTORE DUP1 SWAP3 SWAP2 SWAP1 DUP2 DUP2 MSTORE PUSH1 0x20 ADD DUP3 DUP1 SLOAD PUSH2 0x6B9 SWAP1 PUSH2 0x11A9 JUMP JUMPDEST DUP1 ISZERO PUSH2 0x706 JUMPI DUP1 PUSH1 0x1F LT PUSH2 0x6DB JUMPI PUSH2 0x100 DUP1 DUP4 SLOAD DIV MUL DUP4 MSTORE SWAP2 PUSH1 0x20 ADD SWAP2 PUSH2 0x706 JUMP JUMPDEST DUP3 ADD SWAP2 SWAP1 PUSH1 0x0 MSTORE PUSH1 0x20 PUSH1 0x0 KECCAK256 SWAP1 JUMPDEST DUP2 SLOAD DUP2 MSTORE SWAP1 PUSH1 0x1 ADD SWAP1 PUSH1 0x20 ADD DUP1 DUP4 GT PUSH2 0x6E9 JUMPI DUP3 SWAP1 SUB PUSH1 0x1F AND DUP3 ADD SWAP2 JUMPDEST POP POP POP POP POP SWAP1 DUP1 PUSH1 0x1 ADD SLOAD SWAP1 DUP1 PUSH1 0x2 ADD PUSH1 0x0 SWAP1 SLOAD SWAP1 PUSH2 0x100 EXP SWAP1 DIV PUSH20 0xFFFFFFFFFFFFFFFFFFFFFFFFFFFFFFFFFFFFFFFF AND SWAP1 DUP1 PUSH1 0x2 ADD PUSH1 0x14 SWAP1 SLOAD SWAP1 PUSH2 0x100 EXP SWAP1 DIV PUSH1 0xFF AND SWAP1 DUP1 PUSH1 0x4 ADD SLOAD SWAP1 POP DUP6 JUMP JUMPDEST PUSH1 0x0 DUP1 SLOAD SWAP1 PUSH2 0x100 EXP SWAP1 DIV PUSH20 0xFFFFFFFFFFFFFFFFFFFFFFFFFFFFFFFFFFFFFFFF AND DUP2 JUMP JUMPDEST PUSH1 0x6 SLOAD DUP2 JUMP JUMPDEST PUSH1 0x0 DUP1 SLOAD SWAP1 PUSH2 0x100 EXP SWAP1 DIV PUSH20 0xFFFFFFFFFFFFFFFFFFFFFFFFFFFFFFFFFFFFFFFF AND PUSH20 0xFFFFFFFFFFFFFFFFFFFFFFFFFFFFFFFFFFFFFFFF AND CALLER PUSH20 0xFFFFFFFFFFFFFFFFFFFFFFFFFFFFFFFFFFFFFFFF AND EQ PUSH2 0x7D7 JUMPI PUSH1 0x0 DUP1 REVERT JUMPDEST PUSH1 0x0 DUP1 SLOAD SWAP1 PUSH2 0x100 EXP SWAP1 DIV PUSH20 0xFFFFFFFFFFFFFFFFFFFFFFFFFFFFFFFFFFFFFFFF AND PUSH20 0xFFFFFFFFFFFFFFFFFFFFFFFFFFFFFFFFFFFFFFFF AND CALLER PUSH20 0xFFFFFFFFFFFFFFFFFFFFFFFFFFFFFFFFFFFFFFFF AND EQ PUSH2 0x82F JUMPI PUSH1 0x0 DUP1 REVERT JUMPDEST PUSH1 0x0 PUSH1 0x9 DUP3 DUP2 SLOAD DUP2 LT PUSH2 0x845 JUMPI PUSH2 0x844 PUSH2 0x114B JUMP JUMPDEST JUMPDEST SWAP1 PUSH1 0x0 MSTORE PUSH1 0x20 PUSH1 0x0 KECCAK256 SWAP1 PUSH1 0x5 MUL ADD SWAP1 POP DUP1 PUSH1 0x2 ADD PUSH1 0x14 SWAP1 SLOAD SWAP1 PUSH2 0x100 EXP SWAP1 DIV PUSH1 0xFF AND ISZERO PUSH2 0x871 JUMPI PUSH1 0x0 DUP1 REVERT JUMPDEST DUP1 PUSH1 0x1 ADD SLOAD SELFBALANCE LT ISZERO PUSH2 0x882 JUMPI PUSH1 0x0 DUP1 REVERT JUMPDEST PUSH1 0x2 PUSH1 0x5 SLOAD PUSH2 0x891 SWAP2 SWAP1 PUSH2 0x1238 JUMP JUMPDEST DUP2 PUSH1 0x4 ADD SLOAD GT PUSH2 0x8A0 JUMPI PUSH1 0x0 DUP1 REVERT JUMPDEST DUP1 PUSH1 0x2 ADD PUSH1 0x0 SWAP1 SLOAD SWAP1 PUSH2 0x100 EXP SWAP1 DIV PUSH20 0xFFFFFFFFFFFFFFFFFFFFFFFFFFFFFFFFFFFFFFFF AND PUSH20 0xFFFFFFFFFFFFFFFFFFFFFFFFFFFFFFFFFFFFFFFF AND PUSH2 0x8FC DUP3 PUSH1 0x1 ADD SLOAD SWAP1 DUP2 ISZERO MUL SWAP1 PUSH1 0x40 MLOAD PUSH1 0x0 PUSH1 0x40 MLOAD DUP1 DUP4 SUB DUP2 DUP6 DUP9 DUP9 CALL SWAP4 POP POP POP POP ISZERO DUP1 ISZERO PUSH2 0x90E JUMPI RETURNDATASIZE PUSH1 0x0 DUP1 RETURNDATACOPY RETURNDATASIZE PUSH1 0x0 REVERT JUMPDEST POP PUSH1 0x1 DUP2 PUSH1 0x2 ADD PUSH1 0x14 PUSH2 0x100 EXP DUP2 SLOAD DUP2 PUSH1 0xFF MUL NOT AND SWAP1 DUP4 ISZERO ISZERO MUL OR SWAP1 SSTORE POP POP POP JUMP JUMPDEST PUSH1 0x2 SLOAD CALLVALUE LT ISZERO PUSH2 0x93F JUMPI PUSH1 0x0 DUP1 REVERT JUMPDEST PUSH1 0x3 SLOAD CALLVALUE GT ISZERO PUSH2 0x94E JUMPI PUSH1 0x0 DUP1 REVERT JUMPDEST PUSH1 0x4 SLOAD SELFBALANCE GT ISZERO PUSH2 0x95D JUMPI PUSH1 0x0 DUP1 REVERT JUMPDEST PUSH1 0x0 PUSH1 0x8 PUSH1 0x0 CALLER PUSH20 0xFFFFFFFFFFFFFFFFFFFFFFFFFFFFFFFFFFFFFFFF AND PUSH20 0xFFFFFFFFFFFFFFFFFFFFFFFFFFFFFFFFFFFFFFFF AND DUP2 MSTORE PUSH1 0x20 ADD SWAP1 DUP2 MSTORE PUSH1 0x20 ADD PUSH1 0x0 KECCAK256 SLOAD GT ISZERO PUSH2 0xA00 JUMPI CALLVALUE PUSH1 0x8 PUSH1 0x0 CALLER PUSH20 0xFFFFFFFFFFFFFFFFFFFFFFFFFFFFFFFFFFFFFFFF AND PUSH20 0xFFFFFFFFFFFFFFFFFFFFFFFFFFFFFFFFFFFFFFFF AND DUP2 MSTORE PUSH1 0x20 ADD SWAP1 DUP2 MSTORE PUSH1 0x20 ADD PUSH1 0x0 KECCAK256 PUSH1 0x0 DUP3 DUP3 SLOAD PUSH2 0x9F4 SWAP2 SWAP1 PUSH2 0x1269 JUMP JUMPDEST SWAP3 POP POP DUP2 SWAP1 SSTORE POP PUSH2 0xA5F JUMP JUMPDEST CALLVALUE PUSH1 0x8 PUSH1 0x0 CALLER PUSH20 0xFFFFFFFFFFFFFFFFFFFFFFFFFFFFFFFFFFFFFFFF AND PUSH20 0xFFFFFFFFFFFFFFFFFFFFFFFFFFFFFFFFFFFFFFFF AND DUP2 MSTORE PUSH1 0x20 ADD SWAP1 DUP2 MSTORE PUSH1 0x20 ADD PUSH1 0x0 KECCAK256 DUP2 SWAP1 SSTORE POP PUSH1 0x1 PUSH1 0x5 PUSH1 0x0 DUP3 DUP3 SLOAD PUSH2 0xA57 SWAP2 SWAP1 PUSH2 0x1269 JUMP JUMPDEST SWAP3 POP POP DUP2 SWAP1 SSTORE POP JUMPDEST JUMP JUMPDEST PUSH1 0x5 SLOAD DUP2 JUMP JUMPDEST PUSH1 0x0 PUSH1 0x9 DUP3 DUP2 SLOAD DUP2 LT PUSH2 0xA7D JUMPI PUSH2 0xA7C PUSH2 0x114B JUMP JUMPDEST JUMPDEST SWAP1 PUSH1 0x0 MSTORE PUSH1 0x20 PUSH1 0x0 KECCAK256 SWAP1 PUSH1 0x5 MUL ADD SWAP1 POP PUSH1 0x0 PUSH1 0x8 PUSH1 0x0 CALLER PUSH20 0xFFFFFFFFFFFFFFFFFFFFFFFFFFFFFFFFFFFFFFFF AND PUSH20 0xFFFFFFFFFFFFFFFFFFFFFFFFFFFFFFFFFFFFFFFF AND DUP2 MSTORE PUSH1 0x20 ADD SWAP1 DUP2 MSTORE PUSH1 0x20 ADD PUSH1 0x0 KECCAK256 SLOAD GT PUSH2 0xAD9 JUMPI PUSH1 0x0 DUP1 REVERT JUMPDEST DUP1 PUSH1 0x3 ADD PUSH1 0x0 CALLER PUSH20 0xFFFFFFFFFFFFFFFFFFFFFFFFFFFFFFFFFFFFFFFF AND PUSH20 0xFFFFFFFFFFFFFFFFFFFFFFFFFFFFFFFFFFFFFFFF AND DUP2 MSTORE PUSH1 0x20 ADD SWAP1 DUP2 MSTORE PUSH1 0x20 ADD PUSH1 0x0 KECCAK256 PUSH1 0x0 SWAP1 SLOAD SWAP1 PUSH2 0x100 EXP SWAP1 DIV PUSH1 0xFF AND ISZERO PUSH2 0xB32 JUMPI PUSH1 0x0 DUP1 REVERT JUMPDEST PUSH1 0x1 DUP2 PUSH1 0x3 ADD PUSH1 0x0 CALLER PUSH20 0xFFFFFFFFFFFFFFFFFFFFFFFFFFFFFFFFFFFFFFFF AND PUSH20 0xFFFFFFFFFFFFFFFFFFFFFFFFFFFFFFFFFFFFFFFF AND DUP2 MSTORE PUSH1 0x20 ADD SWAP1 DUP2 MSTORE PUSH1 0x20 ADD PUSH1 0x0 KECCAK256 PUSH1 0x0 PUSH2 0x100 EXP DUP2 SLOAD DUP2 PUSH1 0xFF MUL NOT AND SWAP1 DUP4 ISZERO ISZERO MUL OR SWAP1 SSTORE POP PUSH1 0x1 DUP2 PUSH1 0x4 ADD PUSH1 0x0 DUP3 DUP3 SLOAD PUSH2 0xBA1 SWAP2 SWAP1 PUSH2 0x1269 JUMP JUMPDEST SWAP3 POP POP DUP2 SWAP1 SSTORE POP POP POP JUMP JUMPDEST DUP3 DUP1 SLOAD PUSH2 0xBB8 SWAP1 PUSH2 0x11A9 JUMP JUMPDEST SWAP1 PUSH1 0x0 MSTORE PUSH1 0x20 PUSH1 0x0 KECCAK256 SWAP1 PUSH1 0x1F ADD PUSH1 0x20 SWAP1 DIV DUP2 ADD SWAP3 DUP3 PUSH2 0xBDA JUMPI PUSH1 0x0 DUP6 SSTORE PUSH2 0xC21 JUMP JUMPDEST DUP3 PUSH1 0x1F LT PUSH2 0xBF3 JUMPI DUP1 MLOAD PUSH1 0xFF NOT AND DUP4 DUP1 ADD OR DUP6 SSTORE PUSH2 0xC21 JUMP JUMPDEST DUP3 DUP1 ADD PUSH1 0x1 ADD DUP6 SSTORE DUP3 ISZERO PUSH2 0xC21 JUMPI SWAP2 DUP3 ADD JUMPDEST DUP3 DUP2 GT ISZERO PUSH2 0xC20 JUMPI DUP3 MLOAD DUP3 SSTORE SWAP2 PUSH1 0x20 ADD SWAP2 SWAP1 PUSH1 0x1 ADD SWAP1 PUSH2 0xC05 JUMP JUMPDEST JUMPDEST POP SWAP1 POP PUSH2 0xC2E SWAP2 SWAP1 PUSH2 0xC32 JUMP JUMPDEST POP SWAP1 JUMP JUMPDEST JUMPDEST DUP1 DUP3 GT ISZERO PUSH2 0xC4B JUMPI PUSH1 0x0 DUP2 PUSH1 0x0 SWAP1 SSTORE POP PUSH1 0x1 ADD PUSH2 0xC33 JUMP JUMPDEST POP SWAP1 JUMP JUMPDEST PUSH1 0x0 PUSH1 0x40 MLOAD SWAP1 POP SWAP1 JUMP JUMPDEST PUSH1 0x0 DUP1 REVERT JUMPDEST PUSH1 0x0 DUP1 REVERT JUMPDEST PUSH1 0x0 DUP1 REVERT JUMPDEST PUSH1 0x0 DUP1 REVERT JUMPDEST PUSH1 0x0 PUSH1 0x1F NOT PUSH1 0x1F DUP4 ADD AND SWAP1 POP SWAP2 SWAP1 POP JUMP JUMPDEST PUSH32 0x4E487B7100000000000000000000000000000000000000000000000000000000 PUSH1 0x0 MSTORE PUSH1 0x41 PUSH1 0x4 MSTORE PUSH1 0x24 PUSH1 0x0 REVERT JUMPDEST PUSH2 0xCB6 DUP3 PUSH2 0xC6D JUMP JUMPDEST DUP2 ADD DUP2 DUP2 LT PUSH8 0xFFFFFFFFFFFFFFFF DUP3 GT OR ISZERO PUSH2 0xCD5 JUMPI PUSH2 0xCD4 PUSH2 0xC7E JUMP JUMPDEST JUMPDEST DUP1 PUSH1 0x40 MSTORE POP POP POP JUMP JUMPDEST PUSH1 0x0 PUSH2 0xCE8 PUSH2 0xC4F JUMP JUMPDEST SWAP1 POP PUSH2 0xCF4 DUP3 DUP3 PUSH2 0xCAD JUMP JUMPDEST SWAP2 SWAP1 POP JUMP JUMPDEST PUSH1 0x0 PUSH8 0xFFFFFFFFFFFFFFFF DUP3 GT ISZERO PUSH2 0xD14 JUMPI PUSH2 0xD13 PUSH2 0xC7E JUMP JUMPDEST JUMPDEST PUSH2 0xD1D DUP3 PUSH2 0xC6D JUMP JUMPDEST SWAP1 POP PUSH1 0x20 DUP2 ADD SWAP1 POP SWAP2 SWAP1 POP JUMP JUMPDEST DUP3 DUP2 DUP4 CALLDATACOPY PUSH1 0x0 DUP4 DUP4 ADD MSTORE POP POP POP JUMP JUMPDEST PUSH1 0x0 PUSH2 0xD4C PUSH2 0xD47 DUP5 PUSH2 0xCF9 JUMP JUMPDEST PUSH2 0xCDE JUMP JUMPDEST SWAP1 POP DUP3 DUP2 MSTORE PUSH1 0x20 DUP2 ADD DUP5 DUP5 DUP5 ADD GT ISZERO PUSH2 0xD68 JUMPI PUSH2 0xD67 PUSH2 0xC68 JUMP JUMPDEST JUMPDEST PUSH2 0xD73 DUP5 DUP3 DUP6 PUSH2 0xD2A JUMP JUMPDEST POP SWAP4 SWAP3 POP POP POP JUMP JUMPDEST PUSH1 0x0 DUP3 PUSH1 0x1F DUP4 ADD SLT PUSH2 0xD90 JUMPI PUSH2 0xD8F PUSH2 0xC63 JUMP JUMPDEST JUMPDEST DUP2 CALLDATALOAD PUSH2 0xDA0 DUP5 DUP3 PUSH1 0x20 DUP7 ADD PUSH2 0xD39 JUMP JUMPDEST SWAP2 POP POP SWAP3 SWAP2 POP POP JUMP JUMPDEST PUSH1 0x0 DUP2 SWAP1 POP SWAP2 SWAP1 POP JUMP JUMPDEST PUSH2 0xDBC DUP2 PUSH2 0xDA9 JUMP JUMPDEST DUP2 EQ PUSH2 0xDC7 JUMPI PUSH1 0x0 DUP1 REVERT JUMPDEST POP JUMP JUMPDEST PUSH1 0x0 DUP2 CALLDATALOAD SWAP1 POP PUSH2 0xDD9 DUP2 PUSH2 0xDB3 JUMP JUMPDEST SWAP3 SWAP2 POP POP JUMP JUMPDEST PUSH1 0x0 PUSH20 0xFFFFFFFFFFFFFFFFFFFFFFFFFFFFFFFFFFFFFFFF DUP3 AND SWAP1 POP SWAP2 SWAP1 POP JUMP JUMPDEST PUSH1 0x0 PUSH2 0xE0A DUP3 PUSH2 0xDDF JUMP JUMPDEST SWAP1 POP SWAP2 SWAP1 POP JUMP JUMPDEST PUSH2 0xE1A DUP2 PUSH2 0xDFF JUMP JUMPDEST DUP2 EQ PUSH2 0xE25 JUMPI PUSH1 0x0 DUP1 REVERT JUMPDEST POP JUMP JUMPDEST PUSH1 0x0 DUP2 CALLDATALOAD SWAP1 POP PUSH2 0xE37 DUP2 PUSH2 0xE11 JUMP JUMPDEST SWAP3 SWAP2 POP POP JUMP JUMPDEST PUSH1 0x0 DUP1 PUSH1 0x0 PUSH1 0x60 DUP5 DUP7 SUB SLT ISZERO PUSH2 0xE56 JUMPI PUSH2 0xE55 PUSH2 0xC59 JUMP JUMPDEST JUMPDEST PUSH1 0x0 DUP5 ADD CALLDATALOAD PUSH8 0xFFFFFFFFFFFFFFFF DUP2 GT ISZERO PUSH2 0xE74 JUMPI PUSH2 0xE73 PUSH2 0xC5E JUMP JUMPDEST JUMPDEST PUSH2 0xE80 DUP7 DUP3 DUP8 ADD PUSH2 0xD7B JUMP JUMPDEST SWAP4 POP POP PUSH1 0x20 PUSH2 0xE91 DUP7 DUP3 DUP8 ADD PUSH2 0xDCA JUMP JUMPDEST SWAP3 POP POP PUSH1 0x40 PUSH2 0xEA2 DUP7 DUP3 DUP8 ADD PUSH2 0xE28 JUMP JUMPDEST SWAP2 POP POP SWAP3 POP SWAP3 POP SWAP3 JUMP JUMPDEST PUSH2 0xEB5 DUP2 PUSH2 0xDA9 JUMP JUMPDEST DUP3 MSTORE POP POP JUMP JUMPDEST PUSH1 0x0 PUSH1 0x20 DUP3 ADD SWAP1 POP PUSH2 0xED0 PUSH1 0x0 DUP4 ADD DUP5 PUSH2 0xEAC JUMP JUMPDEST SWAP3 SWAP2 POP POP JUMP JUMPDEST PUSH1 0x0 DUP2 MLOAD SWAP1 POP SWAP2 SWAP1 POP JUMP JUMPDEST PUSH1 0x0 DUP3 DUP3 MSTORE PUSH1 0x20 DUP3 ADD SWAP1 POP SWAP3 SWAP2 POP POP JUMP JUMPDEST PUSH1 0x0 JUMPDEST DUP4 DUP2 LT ISZERO PUSH2 0xF10 JUMPI DUP1 DUP3 ADD MLOAD DUP2 DUP5 ADD MSTORE PUSH1 0x20 DUP2 ADD SWAP1 POP PUSH2 0xEF5 JUMP JUMPDEST DUP4 DUP2 GT ISZERO PUSH2 0xF1F JUMPI PUSH1 0x0 DUP5 DUP5 ADD MSTORE JUMPDEST POP POP POP POP JUMP JUMPDEST PUSH1 0x0 PUSH2 0xF30 DUP3 PUSH2 0xED6 JUMP JUMPDEST PUSH2 0xF3A DUP2 DUP6 PUSH2 0xEE1 JUMP JUMPDEST SWAP4 POP PUSH2 0xF4A DUP2 DUP6 PUSH1 0x20 DUP7 ADD PUSH2 0xEF2 JUMP JUMPDEST PUSH2 0xF53 DUP2 PUSH2 0xC6D JUMP JUMPDEST DUP5 ADD SWAP2 POP POP SWAP3 SWAP2 POP POP JUMP JUMPDEST PUSH1 0x0 PUSH2 0xF69 DUP3 PUSH2 0xDDF JUMP JUMPDEST SWAP1 POP SWAP2 SWAP1 POP JUMP JUMPDEST PUSH2 0xF79 DUP2 PUSH2 0xF5E JUMP JUMPDEST DUP3 MSTORE POP POP JUMP JUMPDEST PUSH1 0x0 PUSH2 0x100 DUP3 ADD SWAP1 POP DUP2 DUP2 SUB PUSH1 0x0 DUP4 ADD MSTORE PUSH2 0xF9A DUP2 DUP12 PUSH2 0xF25 JUMP JUMPDEST SWAP1 POP PUSH2 0xFA9 PUSH1 0x20 DUP4 ADD DUP11 PUSH2 0xEAC JUMP JUMPDEST PUSH2 0xFB6 PUSH1 0x40 DUP4 ADD DUP10 PUSH2 0xEAC JUMP JUMPDEST PUSH2 0xFC3 PUSH1 0x60 DUP4 ADD DUP9 PUSH2 0xEAC JUMP JUMPDEST PUSH2 0xFD0 PUSH1 0x80 DUP4 ADD DUP8 PUSH2 0xEAC JUMP JUMPDEST PUSH2 0xFDD PUSH1 0xA0 DUP4 ADD DUP7 PUSH2 0xEAC JUMP JUMPDEST PUSH2 0xFEA PUSH1 0xC0 DUP4 ADD DUP6 PUSH2 0xEAC JUMP JUMPDEST PUSH2 0xFF7 PUSH1 0xE0 DUP4 ADD DUP5 PUSH2 0xF70 JUMP JUMPDEST SWAP10 SWAP9 POP POP POP POP POP POP POP POP POP JUMP JUMPDEST PUSH2 0x100D DUP2 PUSH2 0xF5E JUMP JUMPDEST DUP2 EQ PUSH2 0x1018 JUMPI PUSH1 0x0 DUP1 REVERT JUMPDEST POP JUMP JUMPDEST PUSH1 0x0 DUP2 CALLDATALOAD SWAP1 POP PUSH2 0x102A DUP2 PUSH2 0x1004 JUMP JUMPDEST SWAP3 SWAP2 POP POP JUMP JUMPDEST PUSH1 0x0 PUSH1 0x20 DUP3 DUP5 SUB SLT ISZERO PUSH2 0x1046 JUMPI PUSH2 0x1045 PUSH2 0xC59 JUMP JUMPDEST JUMPDEST PUSH1 0x0 PUSH2 0x1054 DUP5 DUP3 DUP6 ADD PUSH2 0x101B JUMP JUMPDEST SWAP2 POP POP SWAP3 SWAP2 POP POP JUMP JUMPDEST PUSH1 0x0 PUSH1 0x20 DUP3 ADD SWAP1 POP DUP2 DUP2 SUB PUSH1 0x0 DUP4 ADD MSTORE PUSH2 0x1077 DUP2 DUP5 PUSH2 0xF25 JUMP JUMPDEST SWAP1 POP SWAP3 SWAP2 POP POP JUMP JUMPDEST PUSH1 0x0 PUSH1 0x20 DUP3 DUP5 SUB SLT ISZERO PUSH2 0x1095 JUMPI PUSH2 0x1094 PUSH2 0xC59 JUMP JUMPDEST JUMPDEST PUSH1 0x0 PUSH2 0x10A3 DUP5 DUP3 DUP6 ADD PUSH2 0xDCA JUMP JUMPDEST SWAP2 POP POP SWAP3 SWAP2 POP POP JUMP JUMPDEST PUSH2 0x10B5 DUP2 PUSH2 0xDFF JUMP JUMPDEST DUP3 MSTORE POP POP JUMP JUMPDEST PUSH1 0x0 DUP2 ISZERO ISZERO SWAP1 POP SWAP2 SWAP1 POP JUMP JUMPDEST PUSH2 0x10D0 DUP2 PUSH2 0x10BB JUMP JUMPDEST DUP3 MSTORE POP POP JUMP JUMPDEST PUSH1 0x0 PUSH1 0xA0 DUP3 ADD SWAP1 POP DUP2 DUP2 SUB PUSH1 0x0 DUP4 ADD MSTORE PUSH2 0x10F0 DUP2 DUP9 PUSH2 0xF25 JUMP JUMPDEST SWAP1 POP PUSH2 0x10FF PUSH1 0x20 DUP4 ADD DUP8 PUSH2 0xEAC JUMP JUMPDEST PUSH2 0x110C PUSH1 0x40 DUP4 ADD DUP7 PUSH2 0x10AC JUMP JUMPDEST PUSH2 0x1119 PUSH1 0x60 DUP4 ADD DUP6 PUSH2 0x10C7 JUMP JUMPDEST PUSH2 0x1126 PUSH1 0x80 DUP4 ADD DUP5 PUSH2 0xEAC JUMP JUMPDEST SWAP7 SWAP6 POP POP POP POP POP POP JUMP JUMPDEST PUSH1 0x0 PUSH1 0x20 DUP3 ADD SWAP1 POP PUSH2 0x1145 PUSH1 0x0 DUP4 ADD DUP5 PUSH2 0xF70 JUMP JUMPDEST SWAP3 SWAP2 POP POP JUMP JUMPDEST PUSH32 0x4E487B7100000000000000000000000000000000000000000000000000000000 PUSH1 0x0 MSTORE PUSH1 0x32 PUSH1 0x4 MSTORE PUSH1 0x24 PUSH1 0x0 REVERT JUMPDEST PUSH32 0x4E487B7100000000000000000000000000000000000000000000000000000000 PUSH1 0x0 MSTORE PUSH1 0x22 PUSH1 0x4 MSTORE PUSH1 0x24 PUSH1 0x0 REVERT JUMPDEST PUSH1 0x0 PUSH1 0x2 DUP3 DIV SWAP1 POP PUSH1 0x1 DUP3 AND DUP1 PUSH2 0x11C1 JUMPI PUSH1 0x7F DUP3 AND SWAP2 POP JUMPDEST PUSH1 0x20 DUP3 LT DUP2 SUB PUSH2 0x11D4 JUMPI PUSH2 0x11D3 PUSH2 0x117A JUMP JUMPDEST JUMPDEST POP SWAP2 SWAP1 POP JUMP JUMPDEST PUSH32 0x4E487B7100000000000000000000000000000000000000000000000000000000 PUSH1 0x0 MSTORE PUSH1 0x12 PUSH1 0x4 MSTORE PUSH1 0x24 PUSH1 0x0 REVERT JUMPDEST PUSH32 0x4E487B7100000000000000000000000000000000000000000000000000000000 PUSH1 0x0 MSTORE PUSH1 0x11 PUSH1 0x4 MSTORE PUSH1 0x24 PUSH1 0x0 REVERT JUMPDEST PUSH1 0x0 PUSH2 0x1243 DUP3 PUSH2 0xDA9 JUMP JUMPDEST SWAP2 POP PUSH2 0x124E DUP4 PUSH2 0xDA9 JUMP JUMPDEST SWAP3 POP DUP3 PUSH2 0x125E JUMPI PUSH2 0x125D PUSH2 0x11DA JUMP JUMPDEST JUMPDEST DUP3 DUP3 DIV SWAP1 POP SWAP3 SWAP2 POP POP JUMP JUMPDEST PUSH1 0x0 PUSH2 0x1274 DUP3 PUSH2 0xDA9 JUMP JUMPDEST SWAP2 POP PUSH2 0x127F DUP4 PUSH2 0xDA9 JUMP JUMPDEST SWAP3 POP DUP3 PUSH32 0xFFFFFFFFFFFFFFFFFFFFFFFFFFFFFFFFFFFFFFFFFFFFFFFFFFFFFFFFFFFFFFFF SUB DUP3 GT ISZERO PUSH2 0x12B4 JUMPI PUSH2 0x12B3 PUSH2 0x1209 JUMP JUMPDEST JUMPDEST DUP3 DUP3 ADD SWAP1 POP SWAP3 SWAP2 POP POP JUMP INVALID LOG2 PUSH5 0x6970667358 0x22 SLT KECCAK256 JUMPDEST MULMOD 0xE9 ISZERO PUSH7 0x63BBD5EF9BE54D SAR 0xD7 BLOCKHASH CODESIZE XOR 0x4E PUSH2 0x1841 REVERT INVALID MUL KECCAK256 STOP 0x23 SWAP14 0x5D TIMESTAMP EXP 0x5D PUSH5 0x736F6C6343 STOP ADDMOD 0xD STOP CALLER LOG2 PUSH5 0x6970667358 0x22 SLT KECCAK256 DUP12 0xD6 EXTCODESIZE SWAP3 0x2B SWAP4 0xEC MSIZE MSIZE MUL RETURN 0xC7 0x4D EXP 0xC2 SLT 0x21 SDIV 0xD0 OR 0x2D CODECOPY KECCAK256 0xD2 CREATE RETURN PUSH7 0x231C45A4EE6473 PUSH16 0x6C634300080D00330000000000000000 "},"gasEstimates":{"creation":{"codeDepositCost":"1643600","executionCost":"1722","totalCost":"1645322"},"external":{"createProject(string,uint256,uint256,uint256)":"infinite","getLatestProject()":"2544","getProjects()":"infinite","latestProject()":"2514","projects(uint256)":"4934"}},"methodIdentifiers":{"createProject(string,uint256,uint256,uint256)":"610a6a2a","getLatestProject()":"5b7ce55a","getProjects()":"dcc60128","latestProject()":"24d2b0c6","projects(uint256)":"107046bd"}},"storageLayout":{"storage":[{"astId":404,"contract":"ProjectList.sol:ProjectList","label":"projects","offset":0,"slot":"0","type":"t_array(t_address)dyn_storage"},{"astId":406,"contract":"ProjectList.sol:ProjectList","label":"latestProject","offset":0,"slot":"1","type":"t_address"}],"types":{"t_address":{"encoding":"inplace","label":"address","numberOfBytes":"20"},"t_array(t_address)dyn_storage":{"base":"t_address","encoding":"dynamic_array","label":"address[]","numberOfBytes":"32"}}},"userdoc":{"kind":"user","methods":{},"version":1}}