{"abi":[{"inputs":[{"internalType":"string","name":"_description","type":"string"},{"internalType":"uint256","name":"_minInvest","type":"uint256"},{"internalType":"uint256","name":"_maxInvest","type":"uint256"},{"internalType":"uint256","name":"_goal","type":"uint256"}],"name":"createProject","outputs":[],"stateMutability":"nonpayable","type":"function"},{"inputs":[],"name":"getLatestProject","outputs":[{"internalType":"address","name":"","type":"address"}],"stateMutability":"view","type":"function"},{"inputs":[],"name":"getProjects","outputs":[{"internalType":"address[]","name":"","type":"address[]"}],"stateMutability":"view","type":"function"},{"inputs":[],"name":"latestProject","outputs":[{"internalType":"address","name":"","type":"address"}],"stateMutability":"view","type":"function"},{"inputs":[{"internalType":"uint256","name":"","type":"uint256"}],"name":"projects","outputs":[{"internalType":"address","name":"","type":"address"}],"stateMutability":"view","type":"function"}],"devdoc":{"kind":"dev","methods":{},"version":1},"evm":{"assembly":"    /* \"ProjectList.sol\":95:748  contract ProjectList {... */\n  mstore(0x40, 0x80)\n  callvalue\n  dup1\n  iszero\n  tag_1\n  jumpi\n  0x00\n  dup1\n  revert\ntag_1:\n  pop\n  dataSize(sub_0)\n  dup1\n  dataOffset(sub_0)\n  0x00\n  codecopy\n  0x00\n  return\nstop\n\nsub_0: assembly {\n        /* \"ProjectList.sol\":95:748  contract ProjectList {... */\n      mstore(0x40, 0x80)\n      callvalue\n      dup1\n      iszero\n      tag_1\n      jumpi\n      0x00\n      dup1\n      revert\n    tag_1:\n      pop\n      jumpi(tag_2, lt(calldatasize, 0x04))\n      shr(0xe0, calldataload(0x00))\n      dup1\n      0x107046bd\n      eq\n      tag_3\n      jumpi\n      dup1\n      0x24d2b0c6\n      eq\n      tag_4\n      jumpi\n      dup1\n      0x5b7ce55a\n      eq\n      tag_5\n      jumpi\n      dup1\n      0x610a6a2a\n      eq\n      tag_6\n      jumpi\n      dup1\n      0xdcc60128\n      eq\n      tag_7\n      jumpi\n    tag_2:\n      0x00\n      dup1\n      revert\n        /* \"ProjectList.sol\":122:147  address[] public projects */\n    tag_3:\n      tag_8\n      0x04\n      dup1\n      calldatasize\n      sub\n      dup2\n      add\n      swap1\n      tag_9\n      swap2\n      swap1\n      tag_10\n      jump\t// in\n    tag_9:\n      tag_11\n      jump\t// in\n    tag_8:\n      mload(0x40)\n      tag_12\n      swap2\n      swap1\n      tag_13\n      jump\t// in\n    tag_12:\n      mload(0x40)\n      dup1\n      swap2\n      sub\n      swap1\n      return\n        /* \"ProjectList.sol\":153:181  address public latestProject */\n    tag_4:\n      tag_14\n      tag_15\n      jump\t// in\n    tag_14:\n      mload(0x40)\n      tag_16\n      swap2\n      swap1\n      tag_13\n      jump\t// in\n    tag_16:\n      mload(0x40)\n      dup1\n      swap2\n      sub\n      swap1\n      return\n        /* \"ProjectList.sol\":653:746  function getLatestProject() public view returns (address) {... */\n    tag_5:\n      tag_17\n      tag_18\n      jump\t// in\n    tag_17:\n      mload(0x40)\n      tag_19\n      swap2\n      swap1\n      tag_13\n      jump\t// in\n    tag_19:\n      mload(0x40)\n      dup1\n      swap2\n      sub\n      swap1\n      return\n        /* \"ProjectList.sol\":188:547  function createProject(... */\n    tag_6:\n      tag_20\n      0x04\n      dup1\n      calldatasize\n      sub\n      dup2\n      add\n      swap1\n      tag_21\n      swap2\n      swap1\n      tag_22\n      jump\t// in\n    tag_21:\n      tag_23\n      jump\t// in\n    tag_20:\n      stop\n        /* \"ProjectList.sol\":553:647  function getProjects() public view returns (address[] memory) {... */\n    tag_7:\n      tag_24\n      tag_25\n      jump\t// in\n    tag_24:\n      mload(0x40)\n      tag_26\n      swap2\n      swap1\n      tag_27\n      jump\t// in\n    tag_26:\n      mload(0x40)\n      dup1\n      swap2\n      sub\n      swap1\n      return\n        /* \"ProjectList.sol\":122:147  address[] public projects */\n    tag_11:\n      0x00\n      dup2\n      dup2\n      sload\n      dup2\n      lt\n      tag_28\n      jumpi\n      0x00\n      dup1\n      revert\n    tag_28:\n      swap1\n      0x00\n      mstore\n      keccak256(0x00, 0x20)\n      add\n      0x00\n      swap2\n      pop\n      sload\n      swap1\n      0x0100\n      exp\n      swap1\n      div\n      0xffffffffffffffffffffffffffffffffffffffff\n      and\n      dup2\n      jump\t// out\n        /* \"ProjectList.sol\":153:181  address public latestProject */\n    tag_15:\n      0x01\n      0x00\n      swap1\n      sload\n      swap1\n      0x0100\n      exp\n      swap1\n      div\n      0xffffffffffffffffffffffffffffffffffffffff\n      and\n      dup2\n      jump\t// out\n        /* \"ProjectList.sol\":653:746  function getLatestProject() public view returns (address) {... */\n    tag_18:\n        /* \"ProjectList.sol\":702:709  address */\n      0x00\n        /* \"ProjectList.sol\":726:739  latestProject */\n      0x01\n      0x00\n      swap1\n      sload\n      swap1\n      0x0100\n      exp\n      swap1\n      div\n      0xffffffffffffffffffffffffffffffffffffffff\n      and\n        /* \"ProjectList.sol\":719:739  return latestProject */\n      swap1\n      pop\n        /* \"ProjectList.sol\":653:746  function getLatestProject() public view returns (address) {... */\n      swap1\n      jump\t// out\n        /* \"ProjectList.sol\":188:547  function createProject(... */\n    tag_23:\n        /* \"ProjectList.sol\":349:367  address newProject */\n      0x00\n        /* \"ProjectList.sol\":403:415  _description */\n      dup5\n        /* \"ProjectList.sol\":417:427  _minInvest */\n      dup5\n        /* \"ProjectList.sol\":429:439  _maxInvest */\n      dup5\n        /* \"ProjectList.sol\":441:446  _goal */\n      dup5\n        /* \"ProjectList.sol\":448:458  msg.sender */\n      caller\n        /* \"ProjectList.sol\":391:459  new Project(_description, _minInvest, _maxInvest, _goal, msg.sender) */\n      mload(0x40)\n      tag_32\n      swap1\n      tag_33\n      jump\t// in\n    tag_32:\n      tag_34\n      swap6\n      swap5\n      swap4\n      swap3\n      swap2\n      swap1\n      tag_35\n      jump\t// in\n    tag_34:\n      mload(0x40)\n      dup1\n      swap2\n      sub\n      swap1\n      0x00\n      create\n      dup1\n      iszero\n      dup1\n      iszero\n      tag_36\n      jumpi\n      returndatasize\n      0x00\n      dup1\n      returndatacopy\n      revert(0x00, returndatasize)\n    tag_36:\n      pop\n        /* \"ProjectList.sol\":349:469  address newProject = address(... */\n      swap1\n      pop\n        /* \"ProjectList.sol\":479:487  projects */\n      0x00\n        /* \"ProjectList.sol\":493:503  newProject */\n      dup2\n        /* \"ProjectList.sol\":479:504  projects.push(newProject) */\n      swap1\n      dup1\n      0x01\n      dup2\n      sload\n      add\n      dup1\n      dup3\n      sstore\n      dup1\n      swap2\n      pop\n      pop\n      0x01\n      swap1\n      sub\n      swap1\n      0x00\n      mstore\n      keccak256(0x00, 0x20)\n      add\n      0x00\n      swap1\n      swap2\n      swap1\n      swap2\n      swap1\n      swap2\n      0x0100\n      exp\n      dup2\n      sload\n      dup2\n      0xffffffffffffffffffffffffffffffffffffffff\n      mul\n      not\n      and\n      swap1\n      dup4\n      0xffffffffffffffffffffffffffffffffffffffff\n      and\n      mul\n      or\n      swap1\n      sstore\n      pop\n        /* \"ProjectList.sol\":530:540  newProject */\n      dup1\n        /* \"ProjectList.sol\":514:527  latestProject */\n      0x01\n      0x00\n        /* \"ProjectList.sol\":514:540  latestProject = newProject */\n      0x0100\n      exp\n      dup2\n      sload\n      dup2\n      0xffffffffffffffffffffffffffffffffffffffff\n      mul\n      not\n      and\n      swap1\n      dup4\n      0xffffffffffffffffffffffffffffffffffffffff\n      and\n      mul\n      or\n      swap1\n      sstore\n      pop\n        /* \"ProjectList.sol\":339:547  {... */\n      pop\n        /* \"ProjectList.sol\":188:547  function createProject(... */\n      pop\n      pop\n      pop\n      pop\n      jump\t// out\n        /* \"ProjectList.sol\":553:647  function getProjects() public view returns (address[] memory) {... */\n    tag_25:\n        /* \"ProjectList.sol\":597:613  address[] memory */\n      0x60\n        /* \"ProjectList.sol\":632:640  projects */\n      0x00\n        /* \"ProjectList.sol\":625:640  return projects */\n      dup1\n      sload\n      dup1\n      0x20\n      mul\n      0x20\n      add\n      mload(0x40)\n      swap1\n      dup2\n      add\n      0x40\n      mstore\n      dup1\n      swap3\n      swap2\n      swap1\n      dup2\n      dup2\n      mstore\n      0x20\n      add\n      dup3\n      dup1\n      sload\n      dup1\n      iszero\n      tag_39\n      jumpi\n      0x20\n      mul\n      dup3\n      add\n      swap2\n      swap1\n      0x00\n      mstore\n      keccak256(0x00, 0x20)\n      swap1\n    tag_40:\n      dup2\n      0x00\n      swap1\n      sload\n      swap1\n      0x0100\n      exp\n      swap1\n      div\n      0xffffffffffffffffffffffffffffffffffffffff\n      and\n      0xffffffffffffffffffffffffffffffffffffffff\n      and\n      dup2\n      mstore\n      0x20\n      add\n      swap1\n      0x01\n      add\n      swap1\n      dup1\n      dup4\n      gt\n      tag_40\n      jumpi\n    tag_39:\n      pop\n      pop\n      pop\n      pop\n      pop\n      swap1\n      pop\n        /* \"ProjectList.sol\":553:647  function getProjects() public view returns (address[] memory) {... */\n      swap1\n      jump\t// out\n    tag_33:\n      dataSize(sub_0)\n      dup1\n      dataOffset(sub_0)\n      dup4\n      codecopy\n      add\n      swap1\n      jump\t// out\n        /* \"#utility.yul\":7:82   */\n    tag_41:\n        /* \"#utility.yul\":40:46   */\n      0x00\n        /* \"#utility.yul\":73:75   */\n      0x40\n        /* \"#utility.yul\":67:76   */\n      mload\n        /* \"#utility.yul\":57:76   */\n      swap1\n      pop\n        /* \"#utility.yul\":7:82   */\n      swap1\n      jump\t// out\n        /* \"#utility.yul\":88:205   */\n    tag_42:\n        /* \"#utility.yul\":197:198   */\n      0x00\n        /* \"#utility.yul\":194:195   */\n      dup1\n        /* \"#utility.yul\":187:199   */\n      revert\n        /* \"#utility.yul\":211:328   */\n    tag_43:\n        /* \"#utility.yul\":320:321   */\n      0x00\n        /* \"#utility.yul\":317:318   */\n      dup1\n        /* \"#utility.yul\":310:322   */\n      revert\n        /* \"#utility.yul\":334:411   */\n    tag_44:\n        /* \"#utility.yul\":371:378   */\n      0x00\n        /* \"#utility.yul\":400:405   */\n      dup2\n        /* \"#utility.yul\":389:405   */\n      swap1\n      pop\n        /* \"#utility.yul\":334:411   */\n      swap2\n      swap1\n      pop\n      jump\t// out\n        /* \"#utility.yul\":417:539   */\n    tag_45:\n        /* \"#utility.yul\":490:514   */\n      tag_78\n        /* \"#utility.yul\":508:513   */\n      dup2\n        /* \"#utility.yul\":490:514   */\n      tag_44\n      jump\t// in\n    tag_78:\n        /* \"#utility.yul\":483:488   */\n      dup2\n        /* \"#utility.yul\":480:515   */\n      eq\n        /* \"#utility.yul\":470:533   */\n      tag_79\n      jumpi\n        /* \"#utility.yul\":529:530   */\n      0x00\n        /* \"#utility.yul\":526:527   */\n      dup1\n        /* \"#utility.yul\":519:531   */\n      revert\n        /* \"#utility.yul\":470:533   */\n    tag_79:\n        /* \"#utility.yul\":417:539   */\n      pop\n      jump\t// out\n        /* \"#utility.yul\":545:684   */\n    tag_46:\n        /* \"#utility.yul\":591:596   */\n      0x00\n        /* \"#utility.yul\":629:635   */\n      dup2\n        /* \"#utility.yul\":616:636   */\n      calldataload\n        /* \"#utility.yul\":607:636   */\n      swap1\n      pop\n        /* \"#utility.yul\":645:678   */\n      tag_81\n        /* \"#utility.yul\":672:677   */\n      dup2\n        /* \"#utility.yul\":645:678   */\n      tag_45\n      jump\t// in\n    tag_81:\n        /* \"#utility.yul\":545:684   */\n      swap3\n      swap2\n      pop\n      pop\n      jump\t// out\n        /* \"#utility.yul\":690:1019   */\n    tag_10:\n        /* \"#utility.yul\":749:755   */\n      0x00\n        /* \"#utility.yul\":798:800   */\n      0x20\n        /* \"#utility.yul\":786:795   */\n      dup3\n        /* \"#utility.yul\":777:784   */\n      dup5\n        /* \"#utility.yul\":773:796   */\n      sub\n        /* \"#utility.yul\":769:801   */\n      slt\n        /* \"#utility.yul\":766:885   */\n      iszero\n      tag_83\n      jumpi\n        /* \"#utility.yul\":804:883   */\n      tag_84\n      tag_42\n      jump\t// in\n    tag_84:\n        /* \"#utility.yul\":766:885   */\n    tag_83:\n        /* \"#utility.yul\":924:925   */\n      0x00\n        /* \"#utility.yul\":949:1002   */\n      tag_85\n        /* \"#utility.yul\":994:1001   */\n      dup5\n        /* \"#utility.yul\":985:991   */\n      dup3\n        /* \"#utility.yul\":974:983   */\n      dup6\n        /* \"#utility.yul\":970:992   */\n      add\n        /* \"#utility.yul\":949:1002   */\n      tag_46\n      jump\t// in\n    tag_85:\n        /* \"#utility.yul\":939:1002   */\n      swap2\n      pop\n        /* \"#utility.yul\":895:1012   */\n      pop\n        /* \"#utility.yul\":690:1019   */\n      swap3\n      swap2\n      pop\n      pop\n      jump\t// out\n        /* \"#utility.yul\":1025:1151   */\n    tag_47:\n        /* \"#utility.yul\":1062:1069   */\n      0x00\n        /* \"#utility.yul\":1102:1144   */\n      0xffffffffffffffffffffffffffffffffffffffff\n        /* \"#utility.yul\":1095:1100   */\n      dup3\n        /* \"#utility.yul\":1091:1145   */\n      and\n        /* \"#utility.yul\":1080:1145   */\n      swap1\n      pop\n        /* \"#utility.yul\":1025:1151   */\n      swap2\n      swap1\n      pop\n      jump\t// out\n        /* \"#utility.yul\":1157:1253   */\n    tag_48:\n        /* \"#utility.yul\":1194:1201   */\n      0x00\n        /* \"#utility.yul\":1223:1247   */\n      tag_88\n        /* \"#utility.yul\":1241:1246   */\n      dup3\n        /* \"#utility.yul\":1223:1247   */\n      tag_47\n      jump\t// in\n    tag_88:\n        /* \"#utility.yul\":1212:1247   */\n      swap1\n      pop\n        /* \"#utility.yul\":1157:1253   */\n      swap2\n      swap1\n      pop\n      jump\t// out\n        /* \"#utility.yul\":1259:1377   */\n    tag_49:\n        /* \"#utility.yul\":1346:1370   */\n      tag_90\n        /* \"#utility.yul\":1364:1369   */\n      dup2\n        /* \"#utility.yul\":1346:1370   */\n      tag_48\n      jump\t// in\n    tag_90:\n        /* \"#utility.yul\":1341:1344   */\n      dup3\n        /* \"#utility.yul\":1334:1371   */\n      mstore\n        /* \"#utility.yul\":1259:1377   */\n      pop\n      pop\n      jump\t// out\n        /* \"#utility.yul\":1383:1605   */\n    tag_13:\n        /* \"#utility.yul\":1476:1480   */\n      0x00\n        /* \"#utility.yul\":1514:1516   */\n      0x20\n        /* \"#utility.yul\":1503:1512   */\n      dup3\n        /* \"#utility.yul\":1499:1517   */\n      add\n        /* \"#utility.yul\":1491:1517   */\n      swap1\n      pop\n        /* \"#utility.yul\":1527:1598   */\n      tag_92\n        /* \"#utility.yul\":1595:1596   */\n      0x00\n        /* \"#utility.yul\":1584:1593   */\n      dup4\n        /* \"#utility.yul\":1580:1597   */\n      add\n        /* \"#utility.yul\":1571:1577   */\n      dup5\n        /* \"#utility.yul\":1527:1598   */\n      tag_49\n      jump\t// in\n    tag_92:\n        /* \"#utility.yul\":1383:1605   */\n      swap3\n      swap2\n      pop\n      pop\n      jump\t// out\n        /* \"#utility.yul\":1611:1728   */\n    tag_50:\n        /* \"#utility.yul\":1720:1721   */\n      0x00\n        /* \"#utility.yul\":1717:1718   */\n      dup1\n        /* \"#utility.yul\":1710:1722   */\n      revert\n        /* \"#utility.yul\":1734:1851   */\n    tag_51:\n        /* \"#utility.yul\":1843:1844   */\n      0x00\n        /* \"#utility.yul\":1840:1841   */\n      dup1\n        /* \"#utility.yul\":1833:1845   */\n      revert\n        /* \"#utility.yul\":1857:1959   */\n    tag_52:\n        /* \"#utility.yul\":1898:1904   */\n      0x00\n        /* \"#utility.yul\":1949:1951   */\n      0x1f\n        /* \"#utility.yul\":1945:1952   */\n      not\n        /* \"#utility.yul\":1940:1942   */\n      0x1f\n        /* \"#utility.yul\":1933:1938   */\n      dup4\n        /* \"#utility.yul\":1929:1943   */\n      add\n        /* \"#utility.yul\":1925:1953   */\n      and\n        /* \"#utility.yul\":1915:1953   */\n      swap1\n      pop\n        /* \"#utility.yul\":1857:1959   */\n      swap2\n      swap1\n      pop\n      jump\t// out\n        /* \"#utility.yul\":1965:2145   */\n    tag_53:\n        /* \"#utility.yul\":2013:2090   */\n      0x4e487b7100000000000000000000000000000000000000000000000000000000\n        /* \"#utility.yul\":2010:2011   */\n      0x00\n        /* \"#utility.yul\":2003:2091   */\n      mstore\n        /* \"#utility.yul\":2110:2114   */\n      0x41\n        /* \"#utility.yul\":2107:2108   */\n      0x04\n        /* \"#utility.yul\":2100:2115   */\n      mstore\n        /* \"#utility.yul\":2134:2138   */\n      0x24\n        /* \"#utility.yul\":2131:2132   */\n      0x00\n        /* \"#utility.yul\":2124:2139   */\n      revert\n        /* \"#utility.yul\":2151:2432   */\n    tag_54:\n        /* \"#utility.yul\":2234:2261   */\n      tag_98\n        /* \"#utility.yul\":2256:2260   */\n      dup3\n        /* \"#utility.yul\":2234:2261   */\n      tag_52\n      jump\t// in\n    tag_98:\n        /* \"#utility.yul\":2226:2232   */\n      dup2\n        /* \"#utility.yul\":2222:2262   */\n      add\n        /* \"#utility.yul\":2364:2370   */\n      dup2\n        /* \"#utility.yul\":2352:2362   */\n      dup2\n        /* \"#utility.yul\":2349:2371   */\n      lt\n        /* \"#utility.yul\":2328:2346   */\n      0xffffffffffffffff\n        /* \"#utility.yul\":2316:2326   */\n      dup3\n        /* \"#utility.yul\":2313:2347   */\n      gt\n        /* \"#utility.yul\":2310:2372   */\n      or\n        /* \"#utility.yul\":2307:2395   */\n      iszero\n      tag_99\n      jumpi\n        /* \"#utility.yul\":2375:2393   */\n      tag_100\n      tag_53\n      jump\t// in\n    tag_100:\n        /* \"#utility.yul\":2307:2395   */\n    tag_99:\n        /* \"#utility.yul\":2415:2425   */\n      dup1\n        /* \"#utility.yul\":2411:2413   */\n      0x40\n        /* \"#utility.yul\":2404:2426   */\n      mstore\n        /* \"#utility.yul\":2194:2432   */\n      pop\n        /* \"#utility.yul\":2151:2432   */\n      pop\n      pop\n      jump\t// out\n        /* \"#utility.yul\":2438:2567   */\n    tag_55:\n        /* \"#utility.yul\":2472:2478   */\n      0x00\n        /* \"#utility.yul\":2499:2519   */\n      tag_102\n      tag_41\n      jump\t// in\n    tag_102:\n        /* \"#utility.yul\":2489:2519   */\n      swap1\n      pop\n        /* \"#utility.yul\":2528:2561   */\n      tag_103\n        /* \"#utility.yul\":2556:2560   */\n      dup3\n        /* \"#utility.yul\":2548:2554   */\n      dup3\n        /* \"#utility.yul\":2528:2561   */\n      tag_54\n      jump\t// in\n    tag_103:\n        /* \"#utility.yul\":2438:2567   */\n      swap2\n      swap1\n      pop\n      jump\t// out\n        /* \"#utility.yul\":2573:2881   */\n    tag_56:\n        /* \"#utility.yul\":2635:2639   */\n      0x00\n        /* \"#utility.yul\":2725:2743   */\n      0xffffffffffffffff\n        /* \"#utility.yul\":2717:2723   */\n      dup3\n        /* \"#utility.yul\":2714:2744   */\n      gt\n        /* \"#utility.yul\":2711:2767   */\n      iszero\n      tag_105\n      jumpi\n        /* \"#utility.yul\":2747:2765   */\n      tag_106\n      tag_53\n      jump\t// in\n    tag_106:\n        /* \"#utility.yul\":2711:2767   */\n    tag_105:\n        /* \"#utility.yul\":2785:2814   */\n      tag_107\n        /* \"#utility.yul\":2807:2813   */\n      dup3\n        /* \"#utility.yul\":2785:2814   */\n      tag_52\n      jump\t// in\n    tag_107:\n        /* \"#utility.yul\":2777:2814   */\n      swap1\n      pop\n        /* \"#utility.yul\":2869:2873   */\n      0x20\n        /* \"#utility.yul\":2863:2867   */\n      dup2\n        /* \"#utility.yul\":2859:2874   */\n      add\n        /* \"#utility.yul\":2851:2874   */\n      swap1\n      pop\n        /* \"#utility.yul\":2573:2881   */\n      swap2\n      swap1\n      pop\n      jump\t// out\n        /* \"#utility.yul\":2887:3041   */\n    tag_57:\n        /* \"#utility.yul\":2971:2977   */\n      dup3\n        /* \"#utility.yul\":2966:2969   */\n      dup2\n        /* \"#utility.yul\":2961:2964   */\n      dup4\n        /* \"#utility.yul\":2948:2978   */\n      calldatacopy\n        /* \"#utility.yul\":3033:3034   */\n      0x00\n        /* \"#utility.yul\":3024:3030   */\n      dup4\n        /* \"#utility.yul\":3019:3022   */\n      dup4\n        /* \"#utility.yul\":3015:3031   */\n      add\n        /* \"#utility.yul\":3008:3035   */\n      mstore\n        /* \"#utility.yul\":2887:3041   */\n      pop\n      pop\n      pop\n      jump\t// out\n        /* \"#utility.yul\":3047:3459   */\n    tag_58:\n        /* \"#utility.yul\":3125:3130   */\n      0x00\n        /* \"#utility.yul\":3150:3216   */\n      tag_110\n        /* \"#utility.yul\":3166:3215   */\n      tag_111\n        /* \"#utility.yul\":3208:3214   */\n      dup5\n        /* \"#utility.yul\":3166:3215   */\n      tag_56\n      jump\t// in\n    tag_111:\n        /* \"#utility.yul\":3150:3216   */\n      tag_55\n      jump\t// in\n    tag_110:\n        /* \"#utility.yul\":3141:3216   */\n      swap1\n      pop\n        /* \"#utility.yul\":3239:3245   */\n      dup3\n        /* \"#utility.yul\":3232:3237   */\n      dup2\n        /* \"#utility.yul\":3225:3246   */\n      mstore\n        /* \"#utility.yul\":3277:3281   */\n      0x20\n        /* \"#utility.yul\":3270:3275   */\n      dup2\n        /* \"#utility.yul\":3266:3282   */\n      add\n        /* \"#utility.yul\":3315:3318   */\n      dup5\n        /* \"#utility.yul\":3306:3312   */\n      dup5\n        /* \"#utility.yul\":3301:3304   */\n      dup5\n        /* \"#utility.yul\":3297:3313   */\n      add\n        /* \"#utility.yul\":3294:3319   */\n      gt\n        /* \"#utility.yul\":3291:3403   */\n      iszero\n      tag_112\n      jumpi\n        /* \"#utility.yul\":3322:3401   */\n      tag_113\n      tag_51\n      jump\t// in\n    tag_113:\n        /* \"#utility.yul\":3291:3403   */\n    tag_112:\n        /* \"#utility.yul\":3412:3453   */\n      tag_114\n        /* \"#utility.yul\":3446:3452   */\n      dup5\n        /* \"#utility.yul\":3441:3444   */\n      dup3\n        /* \"#utility.yul\":3436:3439   */\n      dup6\n        /* \"#utility.yul\":3412:3453   */\n      tag_57\n      jump\t// in\n    tag_114:\n        /* \"#utility.yul\":3131:3459   */\n      pop\n        /* \"#utility.yul\":3047:3459   */\n      swap4\n      swap3\n      pop\n      pop\n      pop\n      jump\t// out\n        /* \"#utility.yul\":3479:3819   */\n    tag_59:\n        /* \"#utility.yul\":3535:3540   */\n      0x00\n        /* \"#utility.yul\":3584:3587   */\n      dup3\n        /* \"#utility.yul\":3577:3581   */\n      0x1f\n        /* \"#utility.yul\":3569:3575   */\n      dup4\n        /* \"#utility.yul\":3565:3582   */\n      add\n        /* \"#utility.yul\":3561:3588   */\n      slt\n        /* \"#utility.yul\":3551:3673   */\n      tag_116\n      jumpi\n        /* \"#utility.yul\":3592:3671   */\n      tag_117\n      tag_50\n      jump\t// in\n    tag_117:\n        /* \"#utility.yul\":3551:3673   */\n    tag_116:\n        /* \"#utility.yul\":3709:3715   */\n      dup2\n        /* \"#utility.yul\":3696:3716   */\n      calldataload\n        /* \"#utility.yul\":3734:3813   */\n      tag_118\n        /* \"#utility.yul\":3809:3812   */\n      dup5\n        /* \"#utility.yul\":3801:3807   */\n      dup3\n        /* \"#utility.yul\":3794:3798   */\n      0x20\n        /* \"#utility.yul\":3786:3792   */\n      dup7\n        /* \"#utility.yul\":3782:3799   */\n      add\n        /* \"#utility.yul\":3734:3813   */\n      tag_58\n      jump\t// in\n    tag_118:\n        /* \"#utility.yul\":3725:3813   */\n      swap2\n      pop\n        /* \"#utility.yul\":3541:3819   */\n      pop\n        /* \"#utility.yul\":3479:3819   */\n      swap3\n      swap2\n      pop\n      pop\n      jump\t// out\n        /* \"#utility.yul\":3825:4770   */\n    tag_22:\n        /* \"#utility.yul\":3921:3927   */\n      0x00\n        /* \"#utility.yul\":3929:3935   */\n      dup1\n        /* \"#utility.yul\":3937:3943   */\n      0x00\n        /* \"#utility.yul\":3945:3951   */\n      dup1\n        /* \"#utility.yul\":3994:3997   */\n      0x80\n        /* \"#utility.yul\":3982:3991   */\n      dup6\n        /* \"#utility.yul\":3973:3980   */\n      dup8\n        /* \"#utility.yul\":3969:3992   */\n      sub\n        /* \"#utility.yul\":3965:3998   */\n      slt\n        /* \"#utility.yul\":3962:4082   */\n      iszero\n      tag_120\n      jumpi\n        /* \"#utility.yul\":4001:4080   */\n      tag_121\n      tag_42\n      jump\t// in\n    tag_121:\n        /* \"#utility.yul\":3962:4082   */\n    tag_120:\n        /* \"#utility.yul\":4149:4150   */\n      0x00\n        /* \"#utility.yul\":4138:4147   */\n      dup6\n        /* \"#utility.yul\":4134:4151   */\n      add\n        /* \"#utility.yul\":4121:4152   */\n      calldataload\n        /* \"#utility.yul\":4179:4197   */\n      0xffffffffffffffff\n        /* \"#utility.yul\":4171:4177   */\n      dup2\n        /* \"#utility.yul\":4168:4198   */\n      gt\n        /* \"#utility.yul\":4165:4282   */\n      iszero\n      tag_122\n      jumpi\n        /* \"#utility.yul\":4201:4280   */\n      tag_123\n      tag_43\n      jump\t// in\n    tag_123:\n        /* \"#utility.yul\":4165:4282   */\n    tag_122:\n        /* \"#utility.yul\":4306:4369   */\n      tag_124\n        /* \"#utility.yul\":4361:4368   */\n      dup8\n        /* \"#utility.yul\":4352:4358   */\n      dup3\n        /* \"#utility.yul\":4341:4350   */\n      dup9\n        /* \"#utility.yul\":4337:4359   */\n      add\n        /* \"#utility.yul\":4306:4369   */\n      tag_59\n      jump\t// in\n    tag_124:\n        /* \"#utility.yul\":4296:4369   */\n      swap5\n      pop\n        /* \"#utility.yul\":4092:4379   */\n      pop\n        /* \"#utility.yul\":4418:4420   */\n      0x20\n        /* \"#utility.yul\":4444:4497   */\n      tag_125\n        /* \"#utility.yul\":4489:4496   */\n      dup8\n        /* \"#utility.yul\":4480:4486   */\n      dup3\n        /* \"#utility.yul\":4469:4478   */\n      dup9\n        /* \"#utility.yul\":4465:4487   */\n      add\n        /* \"#utility.yul\":4444:4497   */\n      tag_46\n      jump\t// in\n    tag_125:\n        /* \"#utility.yul\":4434:4497   */\n      swap4\n      pop\n        /* \"#utility.yul\":4389:4507   */\n      pop\n        /* \"#utility.yul\":4546:4548   */\n      0x40\n        /* \"#utility.yul\":4572:4625   */\n      tag_126\n        /* \"#utility.yul\":4617:4624   */\n      dup8\n        /* \"#utility.yul\":4608:4614   */\n      dup3\n        /* \"#utility.yul\":4597:4606   */\n      dup9\n        /* \"#utility.yul\":4593:4615   */\n      add\n        /* \"#utility.yul\":4572:4625   */\n      tag_46\n      jump\t// in\n    tag_126:\n        /* \"#utility.yul\":4562:4625   */\n      swap3\n      pop\n        /* \"#utility.yul\":4517:4635   */\n      pop\n        /* \"#utility.yul\":4674:4676   */\n      0x60\n        /* \"#utility.yul\":4700:4753   */\n      tag_127\n        /* \"#utility.yul\":4745:4752   */\n      dup8\n        /* \"#utility.yul\":4736:4742   */\n      dup3\n        /* \"#utility.yul\":4725:4734   */\n      dup9\n        /* \"#utility.yul\":4721:4743   */\n      add\n        /* \"#utility.yul\":4700:4753   */\n      tag_46\n      jump\t// in\n    tag_127:\n        /* \"#utility.yul\":4690:4753   */\n      swap2\n      pop\n        /* \"#utility.yul\":4645:4763   */\n      pop\n        /* \"#utility.yul\":3825:4770   */\n      swap3\n      swap6\n      swap2\n      swap5\n      pop\n      swap3\n      pop\n      jump\t// out\n        /* \"#utility.yul\":4776:4890   */\n    tag_60:\n        /* \"#utility.yul\":4843:4849   */\n      0x00\n        /* \"#utility.yul\":4877:4882   */\n      dup2\n        /* \"#utility.yul\":4871:4883   */\n      mload\n        /* \"#utility.yul\":4861:4883   */\n      swap1\n      pop\n        /* \"#utility.yul\":4776:4890   */\n      swap2\n      swap1\n      pop\n      jump\t// out\n        /* \"#utility.yul\":4896:5080   */\n    tag_61:\n        /* \"#utility.yul\":4995:5006   */\n      0x00\n        /* \"#utility.yul\":5029:5035   */\n      dup3\n        /* \"#utility.yul\":5024:5027   */\n      dup3\n        /* \"#utility.yul\":5017:5036   */\n      mstore\n        /* \"#utility.yul\":5069:5073   */\n      0x20\n        /* \"#utility.yul\":5064:5067   */\n      dup3\n        /* \"#utility.yul\":5060:5074   */\n      add\n        /* \"#utility.yul\":5045:5074   */\n      swap1\n      pop\n        /* \"#utility.yul\":4896:5080   */\n      swap3\n      swap2\n      pop\n      pop\n      jump\t// out\n        /* \"#utility.yul\":5086:5218   */\n    tag_62:\n        /* \"#utility.yul\":5153:5157   */\n      0x00\n        /* \"#utility.yul\":5176:5179   */\n      dup2\n        /* \"#utility.yul\":5168:5179   */\n      swap1\n      pop\n        /* \"#utility.yul\":5206:5210   */\n      0x20\n        /* \"#utility.yul\":5201:5204   */\n      dup3\n        /* \"#utility.yul\":5197:5211   */\n      add\n        /* \"#utility.yul\":5189:5211   */\n      swap1\n      pop\n        /* \"#utility.yul\":5086:5218   */\n      swap2\n      swap1\n      pop\n      jump\t// out\n        /* \"#utility.yul\":5224:5332   */\n    tag_63:\n        /* \"#utility.yul\":5301:5325   */\n      tag_132\n        /* \"#utility.yul\":5319:5324   */\n      dup2\n        /* \"#utility.yul\":5301:5325   */\n      tag_48\n      jump\t// in\n    tag_132:\n        /* \"#utility.yul\":5296:5299   */\n      dup3\n        /* \"#utility.yul\":5289:5326   */\n      mstore\n        /* \"#utility.yul\":5224:5332   */\n      pop\n      pop\n      jump\t// out\n        /* \"#utility.yul\":5338:5517   */\n    tag_64:\n        /* \"#utility.yul\":5407:5417   */\n      0x00\n        /* \"#utility.yul\":5428:5474   */\n      tag_134\n        /* \"#utility.yul\":5470:5473   */\n      dup4\n        /* \"#utility.yul\":5462:5468   */\n      dup4\n        /* \"#utility.yul\":5428:5474   */\n      tag_63\n      jump\t// in\n    tag_134:\n        /* \"#utility.yul\":5506:5510   */\n      0x20\n        /* \"#utility.yul\":5501:5504   */\n      dup4\n        /* \"#utility.yul\":5497:5511   */\n      add\n        /* \"#utility.yul\":5483:5511   */\n      swap1\n      pop\n        /* \"#utility.yul\":5338:5517   */\n      swap3\n      swap2\n      pop\n      pop\n      jump\t// out\n        /* \"#utility.yul\":5523:5636   */\n    tag_65:\n        /* \"#utility.yul\":5593:5597   */\n      0x00\n        /* \"#utility.yul\":5625:5629   */\n      0x20\n        /* \"#utility.yul\":5620:5623   */\n      dup3\n        /* \"#utility.yul\":5616:5630   */\n      add\n        /* \"#utility.yul\":5608:5630   */\n      swap1\n      pop\n        /* \"#utility.yul\":5523:5636   */\n      swap2\n      swap1\n      pop\n      jump\t// out\n        /* \"#utility.yul\":5672:6404   */\n    tag_66:\n        /* \"#utility.yul\":5791:5794   */\n      0x00\n        /* \"#utility.yul\":5820:5874   */\n      tag_137\n        /* \"#utility.yul\":5868:5873   */\n      dup3\n        /* \"#utility.yul\":5820:5874   */\n      tag_60\n      jump\t// in\n    tag_137:\n        /* \"#utility.yul\":5890:5976   */\n      tag_138\n        /* \"#utility.yul\":5969:5975   */\n      dup2\n        /* \"#utility.yul\":5964:5967   */\n      dup6\n        /* \"#utility.yul\":5890:5976   */\n      tag_61\n      jump\t// in\n    tag_138:\n        /* \"#utility.yul\":5883:5976   */\n      swap4\n      pop\n        /* \"#utility.yul\":6000:6056   */\n      tag_139\n        /* \"#utility.yul\":6050:6055   */\n      dup4\n        /* \"#utility.yul\":6000:6056   */\n      tag_62\n      jump\t// in\n    tag_139:\n        /* \"#utility.yul\":6079:6086   */\n      dup1\n        /* \"#utility.yul\":6110:6111   */\n      0x00\n        /* \"#utility.yul\":6095:6379   */\n    tag_140:\n        /* \"#utility.yul\":6120:6126   */\n      dup4\n        /* \"#utility.yul\":6117:6118   */\n      dup2\n        /* \"#utility.yul\":6114:6127   */\n      lt\n        /* \"#utility.yul\":6095:6379   */\n      iszero\n      tag_142\n      jumpi\n        /* \"#utility.yul\":6196:6202   */\n      dup2\n        /* \"#utility.yul\":6190:6203   */\n      mload\n        /* \"#utility.yul\":6223:6286   */\n      tag_143\n        /* \"#utility.yul\":6282:6285   */\n      dup9\n        /* \"#utility.yul\":6267:6280   */\n      dup3\n        /* \"#utility.yul\":6223:6286   */\n      tag_64\n      jump\t// in\n    tag_143:\n        /* \"#utility.yul\":6216:6286   */\n      swap8\n      pop\n        /* \"#utility.yul\":6309:6369   */\n      tag_144\n        /* \"#utility.yul\":6362:6368   */\n      dup4\n        /* \"#utility.yul\":6309:6369   */\n      tag_65\n      jump\t// in\n    tag_144:\n        /* \"#utility.yul\":6299:6369   */\n      swap3\n      pop\n        /* \"#utility.yul\":6155:6379   */\n      pop\n        /* \"#utility.yul\":6142:6143   */\n      0x01\n        /* \"#utility.yul\":6139:6140   */\n      dup2\n        /* \"#utility.yul\":6135:6144   */\n      add\n        /* \"#utility.yul\":6130:6144   */\n      swap1\n      pop\n        /* \"#utility.yul\":6095:6379   */\n      jump(tag_140)\n    tag_142:\n        /* \"#utility.yul\":6099:6113   */\n      pop\n        /* \"#utility.yul\":6395:6398   */\n      dup6\n        /* \"#utility.yul\":6388:6398   */\n      swap4\n      pop\n        /* \"#utility.yul\":5796:6404   */\n      pop\n      pop\n      pop\n        /* \"#utility.yul\":5672:6404   */\n      swap3\n      swap2\n      pop\n      pop\n      jump\t// out\n        /* \"#utility.yul\":6410:6783   */\n    tag_27:\n        /* \"#utility.yul\":6553:6557   */\n      0x00\n        /* \"#utility.yul\":6591:6593   */\n      0x20\n        /* \"#utility.yul\":6580:6589   */\n      dup3\n        /* \"#utility.yul\":6576:6594   */\n      add\n        /* \"#utility.yul\":6568:6594   */\n      swap1\n      pop\n        /* \"#utility.yul\":6640:6649   */\n      dup2\n        /* \"#utility.yul\":6634:6638   */\n      dup2\n        /* \"#utility.yul\":6630:6650   */\n      sub\n        /* \"#utility.yul\":6626:6627   */\n      0x00\n        /* \"#utility.yul\":6615:6624   */\n      dup4\n        /* \"#utility.yul\":6611:6628   */\n      add\n        /* \"#utility.yul\":6604:6651   */\n      mstore\n        /* \"#utility.yul\":6668:6776   */\n      tag_146\n        /* \"#utility.yul\":6771:6775   */\n      dup2\n        /* \"#utility.yul\":6762:6768   */\n      dup5\n        /* \"#utility.yul\":6668:6776   */\n      tag_66\n      jump\t// in\n    tag_146:\n        /* \"#utility.yul\":6660:6776   */\n      swap1\n      pop\n        /* \"#utility.yul\":6410:6783   */\n      swap3\n      swap2\n      pop\n      pop\n      jump\t// out\n        /* \"#utility.yul\":6789:6888   */\n    tag_67:\n        /* \"#utility.yul\":6841:6847   */\n      0x00\n        /* \"#utility.yul\":6875:6880   */\n      dup2\n        /* \"#utility.yul\":6869:6881   */\n      mload\n        /* \"#utility.yul\":6859:6881   */\n      swap1\n      pop\n        /* \"#utility.yul\":6789:6888   */\n      swap2\n      swap1\n      pop\n      jump\t// out\n        /* \"#utility.yul\":6894:7063   */\n    tag_68:\n        /* \"#utility.yul\":6978:6989   */\n      0x00\n        /* \"#utility.yul\":7012:7018   */\n      dup3\n        /* \"#utility.yul\":7007:7010   */\n      dup3\n        /* \"#utility.yul\":7000:7019   */\n      mstore\n        /* \"#utility.yul\":7052:7056   */\n      0x20\n        /* \"#utility.yul\":7047:7050   */\n      dup3\n        /* \"#utility.yul\":7043:7057   */\n      add\n        /* \"#utility.yul\":7028:7057   */\n      swap1\n      pop\n        /* \"#utility.yul\":6894:7063   */\n      swap3\n      swap2\n      pop\n      pop\n      jump\t// out\n        /* \"#utility.yul\":7069:7376   */\n    tag_69:\n        /* \"#utility.yul\":7137:7138   */\n      0x00\n        /* \"#utility.yul\":7147:7260   */\n    tag_150:\n        /* \"#utility.yul\":7161:7167   */\n      dup4\n        /* \"#utility.yul\":7158:7159   */\n      dup2\n        /* \"#utility.yul\":7155:7168   */\n      lt\n        /* \"#utility.yul\":7147:7260   */\n      iszero\n      tag_152\n      jumpi\n        /* \"#utility.yul\":7246:7247   */\n      dup1\n        /* \"#utility.yul\":7241:7244   */\n      dup3\n        /* \"#utility.yul\":7237:7248   */\n      add\n        /* \"#utility.yul\":7231:7249   */\n      mload\n        /* \"#utility.yul\":7227:7228   */\n      dup2\n        /* \"#utility.yul\":7222:7225   */\n      dup5\n        /* \"#utility.yul\":7218:7229   */\n      add\n        /* \"#utility.yul\":7211:7250   */\n      mstore\n        /* \"#utility.yul\":7183:7185   */\n      0x20\n        /* \"#utility.yul\":7180:7181   */\n      dup2\n        /* \"#utility.yul\":7176:7186   */\n      add\n        /* \"#utility.yul\":7171:7186   */\n      swap1\n      pop\n        /* \"#utility.yul\":7147:7260   */\n      jump(tag_150)\n    tag_152:\n        /* \"#utility.yul\":7278:7284   */\n      dup4\n        /* \"#utility.yul\":7275:7276   */\n      dup2\n        /* \"#utility.yul\":7272:7285   */\n      gt\n        /* \"#utility.yul\":7269:7370   */\n      iszero\n      tag_153\n      jumpi\n        /* \"#utility.yul\":7358:7359   */\n      0x00\n        /* \"#utility.yul\":7349:7355   */\n      dup5\n        /* \"#utility.yul\":7344:7347   */\n      dup5\n        /* \"#utility.yul\":7340:7356   */\n      add\n        /* \"#utility.yul\":7333:7360   */\n      mstore\n        /* \"#utility.yul\":7269:7370   */\n    tag_153:\n        /* \"#utility.yul\":7118:7376   */\n      pop\n        /* \"#utility.yul\":7069:7376   */\n      pop\n      pop\n      pop\n      jump\t// out\n        /* \"#utility.yul\":7382:7746   */\n    tag_70:\n        /* \"#utility.yul\":7470:7473   */\n      0x00\n        /* \"#utility.yul\":7498:7537   */\n      tag_155\n        /* \"#utility.yul\":7531:7536   */\n      dup3\n        /* \"#utility.yul\":7498:7537   */\n      tag_67\n      jump\t// in\n    tag_155:\n        /* \"#utility.yul\":7553:7624   */\n      tag_156\n        /* \"#utility.yul\":7617:7623   */\n      dup2\n        /* \"#utility.yul\":7612:7615   */\n      dup6\n        /* \"#utility.yul\":7553:7624   */\n      tag_68\n      jump\t// in\n    tag_156:\n        /* \"#utility.yul\":7546:7624   */\n      swap4\n      pop\n        /* \"#utility.yul\":7633:7685   */\n      tag_157\n        /* \"#utility.yul\":7678:7684   */\n      dup2\n        /* \"#utility.yul\":7673:7676   */\n      dup6\n        /* \"#utility.yul\":7666:7670   */\n      0x20\n        /* \"#utility.yul\":7659:7664   */\n      dup7\n        /* \"#utility.yul\":7655:7671   */\n      add\n        /* \"#utility.yul\":7633:7685   */\n      tag_69\n      jump\t// in\n    tag_157:\n        /* \"#utility.yul\":7710:7739   */\n      tag_158\n        /* \"#utility.yul\":7732:7738   */\n      dup2\n        /* \"#utility.yul\":7710:7739   */\n      tag_52\n      jump\t// in\n    tag_158:\n        /* \"#utility.yul\":7705:7708   */\n      dup5\n        /* \"#utility.yul\":7701:7740   */\n      add\n        /* \"#utility.yul\":7694:7740   */\n      swap2\n      pop\n        /* \"#utility.yul\":7474:7746   */\n      pop\n        /* \"#utility.yul\":7382:7746   */\n      swap3\n      swap2\n      pop\n      pop\n      jump\t// out\n        /* \"#utility.yul\":7752:7870   */\n    tag_71:\n        /* \"#utility.yul\":7839:7863   */\n      tag_160\n        /* \"#utility.yul\":7857:7862   */\n      dup2\n        /* \"#utility.yul\":7839:7863   */\n      tag_44\n      jump\t// in\n    tag_160:\n        /* \"#utility.yul\":7834:7837   */\n      dup3\n        /* \"#utility.yul\":7827:7864   */\n      mstore\n        /* \"#utility.yul\":7752:7870   */\n      pop\n      pop\n      jump\t// out\n        /* \"#utility.yul\":7876:8631   */\n    tag_35:\n        /* \"#utility.yul\":8101:8105   */\n      0x00\n        /* \"#utility.yul\":8139:8142   */\n      0xa0\n        /* \"#utility.yul\":8128:8137   */\n      dup3\n        /* \"#utility.yul\":8124:8143   */\n      add\n        /* \"#utility.yul\":8116:8143   */\n      swap1\n      pop\n        /* \"#utility.yul\":8189:8198   */\n      dup2\n        /* \"#utility.yul\":8183:8187   */\n      dup2\n        /* \"#utility.yul\":8179:8199   */\n      sub\n        /* \"#utility.yul\":8175:8176   */\n      0x00\n        /* \"#utility.yul\":8164:8173   */\n      dup4\n        /* \"#utility.yul\":8160:8177   */\n      add\n        /* \"#utility.yul\":8153:8200   */\n      mstore\n        /* \"#utility.yul\":8217:8295   */\n      tag_162\n        /* \"#utility.yul\":8290:8294   */\n      dup2\n        /* \"#utility.yul\":8281:8287   */\n      dup9\n        /* \"#utility.yul\":8217:8295   */\n      tag_70\n      jump\t// in\n    tag_162:\n        /* \"#utility.yul\":8209:8295   */\n      swap1\n      pop\n        /* \"#utility.yul\":8305:8377   */\n      tag_163\n        /* \"#utility.yul\":8373:8375   */\n      0x20\n        /* \"#utility.yul\":8362:8371   */\n      dup4\n        /* \"#utility.yul\":8358:8376   */\n      add\n        /* \"#utility.yul\":8349:8355   */\n      dup8\n        /* \"#utility.yul\":8305:8377   */\n      tag_71\n      jump\t// in\n    tag_163:\n        /* \"#utility.yul\":8387:8459   */\n      tag_164\n        /* \"#utility.yul\":8455:8457   */\n      0x40\n        /* \"#utility.yul\":8444:8453   */\n      dup4\n        /* \"#utility.yul\":8440:8458   */\n      add\n        /* \"#utility.yul\":8431:8437   */\n      dup7\n        /* \"#utility.yul\":8387:8459   */\n      tag_71\n      jump\t// in\n    tag_164:\n        /* \"#utility.yul\":8469:8541   */\n      tag_165\n        /* \"#utility.yul\":8537:8539   */\n      0x60\n        /* \"#utility.yul\":8526:8535   */\n      dup4\n        /* \"#utility.yul\":8522:8540   */\n      add\n        /* \"#utility.yul\":8513:8519   */\n      dup6\n        /* \"#utility.yul\":8469:8541   */\n      tag_71\n      jump\t// in\n    tag_165:\n        /* \"#utility.yul\":8551:8624   */\n      tag_166\n        /* \"#utility.yul\":8619:8622   */\n      0x80\n        /* \"#utility.yul\":8608:8617   */\n      dup4\n        /* \"#utility.yul\":8604:8623   */\n      add\n        /* \"#utility.yul\":8595:8601   */\n      dup5\n        /* \"#utility.yul\":8551:8624   */\n      tag_49\n      jump\t// in\n    tag_166:\n        /* \"#utility.yul\":7876:8631   */\n      swap7\n      swap6\n      pop\n      pop\n      pop\n      pop\n      pop\n      pop\n      jump\t// out\n    stop\n\n    sub_0: assembly {\n            /* \"Project.sol\":70:2483  contract Project {... */\n          mstore(0x40, 0x80)\n            /* \"Project.sol\":705:1015  constructor(... */\n          callvalue\n          dup1\n          iszero\n          tag_1\n          jumpi\n          0x00\n          dup1\n          revert\n        tag_1:\n          pop\n          mload(0x40)\n          sub(codesize, bytecodeSize)\n          dup1\n          bytecodeSize\n          dup4\n          codecopy\n          dup2\n          dup2\n          add\n          0x40\n          mstore\n          dup2\n          add\n          swap1\n          tag_2\n          swap2\n          swap1\n          tag_3\n          jump\t// in\n        tag_2:\n            /* \"Project.sol\":880:886  _owner */\n          dup1\n            /* \"Project.sol\":872:877  owner */\n          0x00\n          dup1\n            /* \"Project.sol\":872:886  owner = _owner */\n          0x0100\n          exp\n          dup2\n          sload\n          dup2\n          0xffffffffffffffffffffffffffffffffffffffff\n          mul\n          not\n          and\n          swap1\n          dup4\n          0xffffffffffffffffffffffffffffffffffffffff\n          and\n          mul\n          or\n          swap1\n          sstore\n          pop\n            /* \"Project.sol\":910:922  _description */\n          dup5\n            /* \"Project.sol\":896:907  description */\n          0x01\n            /* \"Project.sol\":896:922  description = _description */\n          swap1\n          dup1\n          mload\n          swap1\n          0x20\n          add\n          swap1\n          tag_6\n          swap3\n          swap2\n          swap1\n          tag_7\n          jump\t// in\n        tag_6:\n          pop\n            /* \"Project.sol\":944:954  _minInvest */\n          dup4\n            /* \"Project.sol\":932:941  minInvest */\n          0x02\n            /* \"Project.sol\":932:954  minInvest = _minInvest */\n          dup2\n          swap1\n          sstore\n          pop\n            /* \"Project.sol\":976:986  _maxInvest */\n          dup3\n            /* \"Project.sol\":964:973  maxInvest */\n          0x03\n            /* \"Project.sol\":964:986  maxInvest = _maxInvest */\n          dup2\n          swap1\n          sstore\n          pop\n            /* \"Project.sol\":1003:1008  _goal */\n          dup2\n            /* \"Project.sol\":996:1000  goal */\n          0x04\n            /* \"Project.sol\":996:1008  goal = _goal */\n          dup2\n          swap1\n          sstore\n          pop\n            /* \"Project.sol\":705:1015  constructor(... */\n          pop\n          pop\n          pop\n          pop\n          pop\n            /* \"Project.sol\":70:2483  contract Project {... */\n          jump(tag_8)\n        tag_7:\n          dup3\n          dup1\n          sload\n          tag_9\n          swap1\n          tag_10\n          jump\t// in\n        tag_9:\n          swap1\n          0x00\n          mstore\n          keccak256(0x00, 0x20)\n          swap1\n          0x1f\n          add\n          0x20\n          swap1\n          div\n          dup2\n          add\n          swap3\n          dup3\n          tag_12\n          jumpi\n          0x00\n          dup6\n          sstore\n          jump(tag_11)\n        tag_12:\n          dup3\n          0x1f\n          lt\n          tag_13\n          jumpi\n          dup1\n          mload\n          not(0xff)\n          and\n          dup4\n          dup1\n          add\n          or\n          dup6\n          sstore\n          jump(tag_11)\n        tag_13:\n          dup3\n          dup1\n          add\n          0x01\n          add\n          dup6\n          sstore\n          dup3\n          iszero\n          tag_11\n          jumpi\n          swap2\n          dup3\n          add\n        tag_14:\n          dup3\n          dup2\n          gt\n          iszero\n          tag_15\n          jumpi\n          dup3\n          mload\n          dup3\n          sstore\n          swap2\n          0x20\n          add\n          swap2\n          swap1\n          0x01\n          add\n          swap1\n          jump(tag_14)\n        tag_15:\n        tag_11:\n          pop\n          swap1\n          pop\n          tag_16\n          swap2\n          swap1\n          tag_17\n          jump\t// in\n        tag_16:\n          pop\n          swap1\n          jump\t// out\n        tag_17:\n        tag_18:\n          dup1\n          dup3\n          gt\n          iszero\n          tag_19\n          jumpi\n          0x00\n          dup2\n          0x00\n          swap1\n          sstore\n          pop\n          0x01\n          add\n          jump(tag_18)\n        tag_19:\n          pop\n          swap1\n          jump\t// out\n            /* \"#utility.yul\":7:82   */\n        tag_20:\n            /* \"#utility.yul\":40:46   */\n          0x00\n            /* \"#utility.yul\":73:75   */\n          0x40\n            /* \"#utility.yul\":67:76   */\n          mload\n            /* \"#utility.yul\":57:76   */\n          swap1\n          pop\n            /* \"#utility.yul\":7:82   */\n          swap1\n          jump\t// out\n            /* \"#utility.yul\":88:205   */\n        tag_21:\n            /* \"#utility.yul\":197:198   */\n          0x00\n            /* \"#utility.yul\":194:195   */\n          dup1\n            /* \"#utility.yul\":187:199   */\n          revert\n            /* \"#utility.yul\":211:328   */\n        tag_22:\n            /* \"#utility.yul\":320:321   */\n          0x00\n            /* \"#utility.yul\":317:318   */\n          dup1\n            /* \"#utility.yul\":310:322   */\n          revert\n            /* \"#utility.yul\":334:451   */\n        tag_23:\n            /* \"#utility.yul\":443:444   */\n          0x00\n            /* \"#utility.yul\":440:441   */\n          dup1\n            /* \"#utility.yul\":433:445   */\n          revert\n            /* \"#utility.yul\":457:574   */\n        tag_24:\n            /* \"#utility.yul\":566:567   */\n          0x00\n            /* \"#utility.yul\":563:564   */\n          dup1\n            /* \"#utility.yul\":556:568   */\n          revert\n            /* \"#utility.yul\":580:682   */\n        tag_25:\n            /* \"#utility.yul\":621:627   */\n          0x00\n            /* \"#utility.yul\":672:674   */\n          0x1f\n            /* \"#utility.yul\":668:675   */\n          not\n            /* \"#utility.yul\":663:665   */\n          0x1f\n            /* \"#utility.yul\":656:661   */\n          dup4\n            /* \"#utility.yul\":652:666   */\n          add\n            /* \"#utility.yul\":648:676   */\n          and\n            /* \"#utility.yul\":638:676   */\n          swap1\n          pop\n            /* \"#utility.yul\":580:682   */\n          swap2\n          swap1\n          pop\n          jump\t// out\n            /* \"#utility.yul\":688:868   */\n        tag_26:\n            /* \"#utility.yul\":736:813   */\n          0x4e487b7100000000000000000000000000000000000000000000000000000000\n            /* \"#utility.yul\":733:734   */\n          0x00\n            /* \"#utility.yul\":726:814   */\n          mstore\n            /* \"#utility.yul\":833:837   */\n          0x41\n            /* \"#utility.yul\":830:831   */\n          0x04\n            /* \"#utility.yul\":823:838   */\n          mstore\n            /* \"#utility.yul\":857:861   */\n          0x24\n            /* \"#utility.yul\":854:855   */\n          0x00\n            /* \"#utility.yul\":847:862   */\n          revert\n            /* \"#utility.yul\":874:1155   */\n        tag_27:\n            /* \"#utility.yul\":957:984   */\n          tag_50\n            /* \"#utility.yul\":979:983   */\n          dup3\n            /* \"#utility.yul\":957:984   */\n          tag_25\n          jump\t// in\n        tag_50:\n            /* \"#utility.yul\":949:955   */\n          dup2\n            /* \"#utility.yul\":945:985   */\n          add\n            /* \"#utility.yul\":1087:1093   */\n          dup2\n            /* \"#utility.yul\":1075:1085   */\n          dup2\n            /* \"#utility.yul\":1072:1094   */\n          lt\n            /* \"#utility.yul\":1051:1069   */\n          0xffffffffffffffff\n            /* \"#utility.yul\":1039:1049   */\n          dup3\n            /* \"#utility.yul\":1036:1070   */\n          gt\n            /* \"#utility.yul\":1033:1095   */\n          or\n            /* \"#utility.yul\":1030:1118   */\n          iszero\n          tag_51\n          jumpi\n            /* \"#utility.yul\":1098:1116   */\n          tag_52\n          tag_26\n          jump\t// in\n        tag_52:\n            /* \"#utility.yul\":1030:1118   */\n        tag_51:\n            /* \"#utility.yul\":1138:1148   */\n          dup1\n            /* \"#utility.yul\":1134:1136   */\n          0x40\n            /* \"#utility.yul\":1127:1149   */\n          mstore\n            /* \"#utility.yul\":917:1155   */\n          pop\n            /* \"#utility.yul\":874:1155   */\n          pop\n          pop\n          jump\t// out\n            /* \"#utility.yul\":1161:1290   */\n        tag_28:\n            /* \"#utility.yul\":1195:1201   */\n          0x00\n            /* \"#utility.yul\":1222:1242   */\n          tag_54\n          tag_20\n          jump\t// in\n        tag_54:\n            /* \"#utility.yul\":1212:1242   */\n          swap1\n          pop\n            /* \"#utility.yul\":1251:1284   */\n          tag_55\n            /* \"#utility.yul\":1279:1283   */\n          dup3\n            /* \"#utility.yul\":1271:1277   */\n          dup3\n            /* \"#utility.yul\":1251:1284   */\n          tag_27\n          jump\t// in\n        tag_55:\n            /* \"#utility.yul\":1161:1290   */\n          swap2\n          swap1\n          pop\n          jump\t// out\n            /* \"#utility.yul\":1296:1604   */\n        tag_29:\n            /* \"#utility.yul\":1358:1362   */\n          0x00\n            /* \"#utility.yul\":1448:1466   */\n          0xffffffffffffffff\n            /* \"#utility.yul\":1440:1446   */\n          dup3\n            /* \"#utility.yul\":1437:1467   */\n          gt\n            /* \"#utility.yul\":1434:1490   */\n          iszero\n          tag_57\n          jumpi\n            /* \"#utility.yul\":1470:1488   */\n          tag_58\n          tag_26\n          jump\t// in\n        tag_58:\n            /* \"#utility.yul\":1434:1490   */\n        tag_57:\n            /* \"#utility.yul\":1508:1537   */\n          tag_59\n            /* \"#utility.yul\":1530:1536   */\n          dup3\n            /* \"#utility.yul\":1508:1537   */\n          tag_25\n          jump\t// in\n        tag_59:\n            /* \"#utility.yul\":1500:1537   */\n          swap1\n          pop\n            /* \"#utility.yul\":1592:1596   */\n          0x20\n            /* \"#utility.yul\":1586:1590   */\n          dup2\n            /* \"#utility.yul\":1582:1597   */\n          add\n            /* \"#utility.yul\":1574:1597   */\n          swap1\n          pop\n            /* \"#utility.yul\":1296:1604   */\n          swap2\n          swap1\n          pop\n          jump\t// out\n            /* \"#utility.yul\":1610:1917   */\n        tag_30:\n            /* \"#utility.yul\":1678:1679   */\n          0x00\n            /* \"#utility.yul\":1688:1801   */\n        tag_61:\n            /* \"#utility.yul\":1702:1708   */\n          dup4\n            /* \"#utility.yul\":1699:1700   */\n          dup2\n            /* \"#utility.yul\":1696:1709   */\n          lt\n            /* \"#utility.yul\":1688:1801   */\n          iszero\n          tag_63\n          jumpi\n            /* \"#utility.yul\":1787:1788   */\n          dup1\n            /* \"#utility.yul\":1782:1785   */\n          dup3\n            /* \"#utility.yul\":1778:1789   */\n          add\n            /* \"#utility.yul\":1772:1790   */\n          mload\n            /* \"#utility.yul\":1768:1769   */\n          dup2\n            /* \"#utility.yul\":1763:1766   */\n          dup5\n            /* \"#utility.yul\":1759:1770   */\n          add\n            /* \"#utility.yul\":1752:1791   */\n          mstore\n            /* \"#utility.yul\":1724:1726   */\n          0x20\n            /* \"#utility.yul\":1721:1722   */\n          dup2\n            /* \"#utility.yul\":1717:1727   */\n          add\n            /* \"#utility.yul\":1712:1727   */\n          swap1\n          pop\n            /* \"#utility.yul\":1688:1801   */\n          jump(tag_61)\n        tag_63:\n            /* \"#utility.yul\":1819:1825   */\n          dup4\n            /* \"#utility.yul\":1816:1817   */\n          dup2\n            /* \"#utility.yul\":1813:1826   */\n          gt\n            /* \"#utility.yul\":1810:1911   */\n          iszero\n          tag_64\n          jumpi\n            /* \"#utility.yul\":1899:1900   */\n          0x00\n            /* \"#utility.yul\":1890:1896   */\n          dup5\n            /* \"#utility.yul\":1885:1888   */\n          dup5\n            /* \"#utility.yul\":1881:1897   */\n          add\n            /* \"#utility.yul\":1874:1901   */\n          mstore\n            /* \"#utility.yul\":1810:1911   */\n        tag_64:\n            /* \"#utility.yul\":1659:1917   */\n          pop\n            /* \"#utility.yul\":1610:1917   */\n          pop\n          pop\n          pop\n          jump\t// out\n            /* \"#utility.yul\":1923:2344   */\n        tag_31:\n            /* \"#utility.yul\":2012:2017   */\n          0x00\n            /* \"#utility.yul\":2037:2103   */\n          tag_66\n            /* \"#utility.yul\":2053:2102   */\n          tag_67\n            /* \"#utility.yul\":2095:2101   */\n          dup5\n            /* \"#utility.yul\":2053:2102   */\n          tag_29\n          jump\t// in\n        tag_67:\n            /* \"#utility.yul\":2037:2103   */\n          tag_28\n          jump\t// in\n        tag_66:\n            /* \"#utility.yul\":2028:2103   */\n          swap1\n          pop\n            /* \"#utility.yul\":2126:2132   */\n          dup3\n            /* \"#utility.yul\":2119:2124   */\n          dup2\n            /* \"#utility.yul\":2112:2133   */\n          mstore\n            /* \"#utility.yul\":2164:2168   */\n          0x20\n            /* \"#utility.yul\":2157:2162   */\n          dup2\n            /* \"#utility.yul\":2153:2169   */\n          add\n            /* \"#utility.yul\":2202:2205   */\n          dup5\n            /* \"#utility.yul\":2193:2199   */\n          dup5\n            /* \"#utility.yul\":2188:2191   */\n          dup5\n            /* \"#utility.yul\":2184:2200   */\n          add\n            /* \"#utility.yul\":2181:2206   */\n          gt\n            /* \"#utility.yul\":2178:2290   */\n          iszero\n          tag_68\n          jumpi\n            /* \"#utility.yul\":2209:2288   */\n          tag_69\n          tag_24\n          jump\t// in\n        tag_69:\n            /* \"#utility.yul\":2178:2290   */\n        tag_68:\n            /* \"#utility.yul\":2299:2338   */\n          tag_70\n            /* \"#utility.yul\":2331:2337   */\n          dup5\n            /* \"#utility.yul\":2326:2329   */\n          dup3\n            /* \"#utility.yul\":2321:2324   */\n          dup6\n            /* \"#utility.yul\":2299:2338   */\n          tag_30\n          jump\t// in\n        tag_70:\n            /* \"#utility.yul\":2018:2344   */\n          pop\n            /* \"#utility.yul\":1923:2344   */\n          swap4\n          swap3\n          pop\n          pop\n          pop\n          jump\t// out\n            /* \"#utility.yul\":2364:2719   */\n        tag_32:\n            /* \"#utility.yul\":2431:2436   */\n          0x00\n            /* \"#utility.yul\":2480:2483   */\n          dup3\n            /* \"#utility.yul\":2473:2477   */\n          0x1f\n            /* \"#utility.yul\":2465:2471   */\n          dup4\n            /* \"#utility.yul\":2461:2478   */\n          add\n            /* \"#utility.yul\":2457:2484   */\n          slt\n            /* \"#utility.yul\":2447:2569   */\n          tag_72\n          jumpi\n            /* \"#utility.yul\":2488:2567   */\n          tag_73\n          tag_23\n          jump\t// in\n        tag_73:\n            /* \"#utility.yul\":2447:2569   */\n        tag_72:\n            /* \"#utility.yul\":2598:2604   */\n          dup2\n            /* \"#utility.yul\":2592:2605   */\n          mload\n            /* \"#utility.yul\":2623:2713   */\n          tag_74\n            /* \"#utility.yul\":2709:2712   */\n          dup5\n            /* \"#utility.yul\":2701:2707   */\n          dup3\n            /* \"#utility.yul\":2694:2698   */\n          0x20\n            /* \"#utility.yul\":2686:2692   */\n          dup7\n            /* \"#utility.yul\":2682:2699   */\n          add\n            /* \"#utility.yul\":2623:2713   */\n          tag_31\n          jump\t// in\n        tag_74:\n            /* \"#utility.yul\":2614:2713   */\n          swap2\n          pop\n            /* \"#utility.yul\":2437:2719   */\n          pop\n            /* \"#utility.yul\":2364:2719   */\n          swap3\n          swap2\n          pop\n          pop\n          jump\t// out\n            /* \"#utility.yul\":2725:2802   */\n        tag_33:\n            /* \"#utility.yul\":2762:2769   */\n          0x00\n            /* \"#utility.yul\":2791:2796   */\n          dup2\n            /* \"#utility.yul\":2780:2796   */\n          swap1\n          pop\n            /* \"#utility.yul\":2725:2802   */\n          swap2\n          swap1\n          pop\n          jump\t// out\n            /* \"#utility.yul\":2808:2930   */\n        tag_34:\n            /* \"#utility.yul\":2881:2905   */\n          tag_77\n            /* \"#utility.yul\":2899:2904   */\n          dup2\n            /* \"#utility.yul\":2881:2905   */\n          tag_33\n          jump\t// in\n        tag_77:\n            /* \"#utility.yul\":2874:2879   */\n          dup2\n            /* \"#utility.yul\":2871:2906   */\n          eq\n            /* \"#utility.yul\":2861:2924   */\n          tag_78\n          jumpi\n            /* \"#utility.yul\":2920:2921   */\n          0x00\n            /* \"#utility.yul\":2917:2918   */\n          dup1\n            /* \"#utility.yul\":2910:2922   */\n          revert\n            /* \"#utility.yul\":2861:2924   */\n        tag_78:\n            /* \"#utility.yul\":2808:2930   */\n          pop\n          jump\t// out\n            /* \"#utility.yul\":2936:3079   */\n        tag_35:\n            /* \"#utility.yul\":2993:2998   */\n          0x00\n            /* \"#utility.yul\":3024:3030   */\n          dup2\n            /* \"#utility.yul\":3018:3031   */\n          mload\n            /* \"#utility.yul\":3009:3031   */\n          swap1\n          pop\n            /* \"#utility.yul\":3040:3073   */\n          tag_80\n            /* \"#utility.yul\":3067:3072   */\n          dup2\n            /* \"#utility.yul\":3040:3073   */\n          tag_34\n          jump\t// in\n        tag_80:\n            /* \"#utility.yul\":2936:3079   */\n          swap3\n          swap2\n          pop\n          pop\n          jump\t// out\n            /* \"#utility.yul\":3085:3211   */\n        tag_36:\n            /* \"#utility.yul\":3122:3129   */\n          0x00\n            /* \"#utility.yul\":3162:3204   */\n          0xffffffffffffffffffffffffffffffffffffffff\n            /* \"#utility.yul\":3155:3160   */\n          dup3\n            /* \"#utility.yul\":3151:3205   */\n          and\n            /* \"#utility.yul\":3140:3205   */\n          swap1\n          pop\n            /* \"#utility.yul\":3085:3211   */\n          swap2\n          swap1\n          pop\n          jump\t// out\n            /* \"#utility.yul\":3217:3313   */\n        tag_37:\n            /* \"#utility.yul\":3254:3261   */\n          0x00\n            /* \"#utility.yul\":3283:3307   */\n          tag_83\n            /* \"#utility.yul\":3301:3306   */\n          dup3\n            /* \"#utility.yul\":3283:3307   */\n          tag_36\n          jump\t// in\n        tag_83:\n            /* \"#utility.yul\":3272:3307   */\n          swap1\n          pop\n            /* \"#utility.yul\":3217:3313   */\n          swap2\n          swap1\n          pop\n          jump\t// out\n            /* \"#utility.yul\":3319:3441   */\n        tag_38:\n            /* \"#utility.yul\":3392:3416   */\n          tag_85\n            /* \"#utility.yul\":3410:3415   */\n          dup2\n            /* \"#utility.yul\":3392:3416   */\n          tag_37\n          jump\t// in\n        tag_85:\n            /* \"#utility.yul\":3385:3390   */\n          dup2\n            /* \"#utility.yul\":3382:3417   */\n          eq\n            /* \"#utility.yul\":3372:3435   */\n          tag_86\n          jumpi\n            /* \"#utility.yul\":3431:3432   */\n          0x00\n            /* \"#utility.yul\":3428:3429   */\n          dup1\n            /* \"#utility.yul\":3421:3433   */\n          revert\n            /* \"#utility.yul\":3372:3435   */\n        tag_86:\n            /* \"#utility.yul\":3319:3441   */\n          pop\n          jump\t// out\n            /* \"#utility.yul\":3447:3590   */\n        tag_39:\n            /* \"#utility.yul\":3504:3509   */\n          0x00\n            /* \"#utility.yul\":3535:3541   */\n          dup2\n            /* \"#utility.yul\":3529:3542   */\n          mload\n            /* \"#utility.yul\":3520:3542   */\n          swap1\n          pop\n            /* \"#utility.yul\":3551:3584   */\n          tag_88\n            /* \"#utility.yul\":3578:3583   */\n          dup2\n            /* \"#utility.yul\":3551:3584   */\n          tag_38\n          jump\t// in\n        tag_88:\n            /* \"#utility.yul\":3447:3590   */\n          swap3\n          swap2\n          pop\n          pop\n          jump\t// out\n            /* \"#utility.yul\":3596:4746   */\n        tag_3:\n            /* \"#utility.yul\":3712:3718   */\n          0x00\n            /* \"#utility.yul\":3720:3726   */\n          dup1\n            /* \"#utility.yul\":3728:3734   */\n          0x00\n            /* \"#utility.yul\":3736:3742   */\n          dup1\n            /* \"#utility.yul\":3744:3750   */\n          0x00\n            /* \"#utility.yul\":3793:3796   */\n          0xa0\n            /* \"#utility.yul\":3781:3790   */\n          dup7\n            /* \"#utility.yul\":3772:3779   */\n          dup9\n            /* \"#utility.yul\":3768:3791   */\n          sub\n            /* \"#utility.yul\":3764:3797   */\n          slt\n            /* \"#utility.yul\":3761:3881   */\n          iszero\n          tag_90\n          jumpi\n            /* \"#utility.yul\":3800:3879   */\n          tag_91\n          tag_21\n          jump\t// in\n        tag_91:\n            /* \"#utility.yul\":3761:3881   */\n        tag_90:\n            /* \"#utility.yul\":3941:3942   */\n          0x00\n            /* \"#utility.yul\":3930:3939   */\n          dup7\n            /* \"#utility.yul\":3926:3943   */\n          add\n            /* \"#utility.yul\":3920:3944   */\n          mload\n            /* \"#utility.yul\":3971:3989   */\n          0xffffffffffffffff\n            /* \"#utility.yul\":3963:3969   */\n          dup2\n            /* \"#utility.yul\":3960:3990   */\n          gt\n            /* \"#utility.yul\":3957:4074   */\n          iszero\n          tag_92\n          jumpi\n            /* \"#utility.yul\":3993:4072   */\n          tag_93\n          tag_22\n          jump\t// in\n        tag_93:\n            /* \"#utility.yul\":3957:4074   */\n        tag_92:\n            /* \"#utility.yul\":4098:4172   */\n          tag_94\n            /* \"#utility.yul\":4164:4171   */\n          dup9\n            /* \"#utility.yul\":4155:4161   */\n          dup3\n            /* \"#utility.yul\":4144:4153   */\n          dup10\n            /* \"#utility.yul\":4140:4162   */\n          add\n            /* \"#utility.yul\":4098:4172   */\n          tag_32\n          jump\t// in\n        tag_94:\n            /* \"#utility.yul\":4088:4172   */\n          swap6\n          pop\n            /* \"#utility.yul\":3891:4182   */\n          pop\n            /* \"#utility.yul\":4221:4223   */\n          0x20\n            /* \"#utility.yul\":4247:4311   */\n          tag_95\n            /* \"#utility.yul\":4303:4310   */\n          dup9\n            /* \"#utility.yul\":4294:4300   */\n          dup3\n            /* \"#utility.yul\":4283:4292   */\n          dup10\n            /* \"#utility.yul\":4279:4301   */\n          add\n            /* \"#utility.yul\":4247:4311   */\n          tag_35\n          jump\t// in\n        tag_95:\n            /* \"#utility.yul\":4237:4311   */\n          swap5\n          pop\n            /* \"#utility.yul\":4192:4321   */\n          pop\n            /* \"#utility.yul\":4360:4362   */\n          0x40\n            /* \"#utility.yul\":4386:4450   */\n          tag_96\n            /* \"#utility.yul\":4442:4449   */\n          dup9\n            /* \"#utility.yul\":4433:4439   */\n          dup3\n            /* \"#utility.yul\":4422:4431   */\n          dup10\n            /* \"#utility.yul\":4418:4440   */\n          add\n            /* \"#utility.yul\":4386:4450   */\n          tag_35\n          jump\t// in\n        tag_96:\n            /* \"#utility.yul\":4376:4450   */\n          swap4\n          pop\n            /* \"#utility.yul\":4331:4460   */\n          pop\n            /* \"#utility.yul\":4499:4501   */\n          0x60\n            /* \"#utility.yul\":4525:4589   */\n          tag_97\n            /* \"#utility.yul\":4581:4588   */\n          dup9\n            /* \"#utility.yul\":4572:4578   */\n          dup3\n            /* \"#utility.yul\":4561:4570   */\n          dup10\n            /* \"#utility.yul\":4557:4579   */\n          add\n            /* \"#utility.yul\":4525:4589   */\n          tag_35\n          jump\t// in\n        tag_97:\n            /* \"#utility.yul\":4515:4589   */\n          swap3\n          pop\n            /* \"#utility.yul\":4470:4599   */\n          pop\n            /* \"#utility.yul\":4638:4641   */\n          0x80\n            /* \"#utility.yul\":4665:4729   */\n          tag_98\n            /* \"#utility.yul\":4721:4728   */\n          dup9\n            /* \"#utility.yul\":4712:4718   */\n          dup3\n            /* \"#utility.yul\":4701:4710   */\n          dup10\n            /* \"#utility.yul\":4697:4719   */\n          add\n            /* \"#utility.yul\":4665:4729   */\n          tag_39\n          jump\t// in\n        tag_98:\n            /* \"#utility.yul\":4655:4729   */\n          swap2\n          pop\n            /* \"#utility.yul\":4609:4739   */\n          pop\n            /* \"#utility.yul\":3596:4746   */\n          swap3\n          swap6\n          pop\n          swap3\n          swap6\n          swap1\n          swap4\n          pop\n          jump\t// out\n            /* \"#utility.yul\":4752:4932   */\n        tag_40:\n            /* \"#utility.yul\":4800:4877   */\n          0x4e487b7100000000000000000000000000000000000000000000000000000000\n            /* \"#utility.yul\":4797:4798   */\n          0x00\n            /* \"#utility.yul\":4790:4878   */\n          mstore\n            /* \"#utility.yul\":4897:4901   */\n          0x22\n            /* \"#utility.yul\":4894:4895   */\n          0x04\n            /* \"#utility.yul\":4887:4902   */\n          mstore\n            /* \"#utility.yul\":4921:4925   */\n          0x24\n            /* \"#utility.yul\":4918:4919   */\n          0x00\n            /* \"#utility.yul\":4911:4926   */\n          revert\n            /* \"#utility.yul\":4938:5258   */\n        tag_10:\n            /* \"#utility.yul\":4982:4988   */\n          0x00\n            /* \"#utility.yul\":5019:5020   */\n          0x02\n            /* \"#utility.yul\":5013:5017   */\n          dup3\n            /* \"#utility.yul\":5009:5021   */\n          div\n            /* \"#utility.yul\":4999:5021   */\n          swap1\n          pop\n            /* \"#utility.yul\":5066:5067   */\n          0x01\n            /* \"#utility.yul\":5060:5064   */\n          dup3\n            /* \"#utility.yul\":5056:5068   */\n          and\n            /* \"#utility.yul\":5087:5105   */\n          dup1\n            /* \"#utility.yul\":5077:5158   */\n          tag_101\n          jumpi\n            /* \"#utility.yul\":5143:5147   */\n          0x7f\n            /* \"#utility.yul\":5135:5141   */\n          dup3\n            /* \"#utility.yul\":5131:5148   */\n          and\n            /* \"#utility.yul\":5121:5148   */\n          swap2\n          pop\n            /* \"#utility.yul\":5077:5158   */\n        tag_101:\n            /* \"#utility.yul\":5205:5207   */\n          0x20\n            /* \"#utility.yul\":5197:5203   */\n          dup3\n            /* \"#utility.yul\":5194:5208   */\n          lt\n            /* \"#utility.yul\":5174:5192   */\n          dup2\n            /* \"#utility.yul\":5171:5209   */\n          sub\n            /* \"#utility.yul\":5168:5252   */\n          tag_102\n          jumpi\n            /* \"#utility.yul\":5224:5242   */\n          tag_103\n          tag_40\n          jump\t// in\n        tag_103:\n            /* \"#utility.yul\":5168:5252   */\n        tag_102:\n            /* \"#utility.yul\":4989:5258   */\n          pop\n            /* \"#utility.yul\":4938:5258   */\n          swap2\n          swap1\n          pop\n          jump\t// out\n            /* \"Project.sol\":70:2483  contract Project {... */\n        tag_8:\n          dataSize(sub_0)\n          dup1\n          dataOffset(sub_0)\n          0x00\n          codecopy\n          0x00\n          return\n        stop\n\n        sub_0: assembly {\n                /* \"Project.sol\":70:2483  contract Project {... */\n              mstore(0x40, 0x80)\n              jumpi(tag_1, lt(calldatasize, 0x04))\n              shr(0xe0, calldataload(0x00))\n              dup1\n              0x87d81789\n              gt\n              tag_14\n              jumpi\n              dup1\n              0x87d81789\n              eq\n              tag_8\n              jumpi\n              dup1\n              0x8da5cb5b\n              eq\n              tag_9\n              jumpi\n              dup1\n              0xd2b8b867\n              eq\n              tag_10\n              jumpi\n              dup1\n              0xd7bb99ba\n              eq\n              tag_11\n              jumpi\n              dup1\n              0xd7e64c00\n              eq\n              tag_12\n              jumpi\n              dup1\n              0xde14c818\n              eq\n              tag_13\n              jumpi\n              jump(tag_1)\n            tag_14:\n              dup1\n              0x03120d46\n              eq\n              tag_2\n              jumpi\n              dup1\n              0x3110235a\n              eq\n              tag_3\n              jumpi\n              dup1\n              0x40193883\n              eq\n              tag_4\n              jumpi\n              dup1\n              0x63fd9e38\n              eq\n              tag_5\n              jumpi\n              dup1\n              0x6f7bc9be\n              eq\n              tag_6\n              jumpi\n              dup1\n              0x7284e416\n              eq\n              tag_7\n              jumpi\n            tag_1:\n              0x00\n              dup1\n              revert\n                /* \"Project.sol\":1324:1808  function createPayment(... */\n            tag_2:\n              callvalue\n              dup1\n              iszero\n              tag_15\n              jumpi\n              0x00\n              dup1\n              revert\n            tag_15:\n              pop\n              tag_16\n              0x04\n              dup1\n              calldatasize\n              sub\n              dup2\n              add\n              swap1\n              tag_17\n              swap2\n              swap1\n              tag_18\n              jump\t// in\n            tag_17:\n              tag_19\n              jump\t// in\n            tag_16:\n              stop\n                /* \"Project.sol\":416:440  uint256 public maxInvest */\n            tag_3:\n              callvalue\n              dup1\n              iszero\n              tag_20\n              jumpi\n              0x00\n              dup1\n              revert\n            tag_20:\n              pop\n              tag_21\n              tag_22\n              jump\t// in\n            tag_21:\n              mload(0x40)\n              tag_23\n              swap2\n              swap1\n              tag_24\n              jump\t// in\n            tag_23:\n              mload(0x40)\n              dup1\n              swap2\n              sub\n              swap1\n              return\n                /* \"Project.sol\":446:465  uint256 public goal */\n            tag_4:\n              callvalue\n              dup1\n              iszero\n              tag_25\n              jumpi\n              0x00\n              dup1\n              revert\n            tag_25:\n              pop\n              tag_26\n              tag_27\n              jump\t// in\n            tag_26:\n              mload(0x40)\n              tag_28\n              swap2\n              swap1\n              tag_24\n              jump\t// in\n            tag_28:\n              mload(0x40)\n              dup1\n              swap2\n              sub\n              swap1\n              return\n                /* \"Project.sol\":386:410  uint256 public minInvest */\n            tag_5:\n              callvalue\n              dup1\n              iszero\n              tag_29\n              jumpi\n              0x00\n              dup1\n              revert\n            tag_29:\n              pop\n              tag_30\n              tag_31\n              jump\t// in\n            tag_30:\n              mload(0x40)\n              tag_32\n              swap2\n              swap1\n              tag_24\n              jump\t// in\n            tag_32:\n              mload(0x40)\n              dup1\n              swap2\n              sub\n              swap1\n              return\n                /* \"Project.sol\":540:584  mapping(address => uint256) public investors */\n            tag_6:\n              callvalue\n              dup1\n              iszero\n              tag_33\n              jumpi\n              0x00\n              dup1\n              revert\n            tag_33:\n              pop\n              tag_34\n              0x04\n              dup1\n              calldatasize\n              sub\n              dup2\n              add\n              swap1\n              tag_35\n              swap2\n              swap1\n              tag_36\n              jump\t// in\n            tag_35:\n              tag_37\n              jump\t// in\n            tag_34:\n              mload(0x40)\n              tag_38\n              swap2\n              swap1\n              tag_24\n              jump\t// in\n            tag_38:\n              mload(0x40)\n              dup1\n              swap2\n              sub\n              swap1\n              return\n                /* \"Project.sol\":355:380  string public description */\n            tag_7:\n              callvalue\n              dup1\n              iszero\n              tag_39\n              jumpi\n              0x00\n              dup1\n              revert\n            tag_39:\n              pop\n              tag_40\n              tag_41\n              jump\t// in\n            tag_40:\n              mload(0x40)\n              tag_42\n              swap2\n              swap1\n              tag_43\n              jump\t// in\n            tag_42:\n              mload(0x40)\n              dup1\n              swap2\n              sub\n              swap1\n              return\n                /* \"Project.sol\":590:615  Payment[] public payments */\n            tag_8:\n              callvalue\n              dup1\n              iszero\n              tag_44\n              jumpi\n              0x00\n              dup1\n              revert\n            tag_44:\n              pop\n              tag_45\n              0x04\n              dup1\n              calldatasize\n              sub\n              dup2\n              add\n              swap1\n              tag_46\n              swap2\n              swap1\n              tag_47\n              jump\t// in\n            tag_46:\n              tag_48\n              jump\t// in\n            tag_45:\n              mload(0x40)\n              tag_49\n              swap6\n              swap5\n              swap4\n              swap3\n              swap2\n              swap1\n              tag_50\n              jump\t// in\n            tag_49:\n              mload(0x40)\n              dup1\n              swap2\n              sub\n              swap1\n              return\n                /* \"Project.sol\":329:349  address public owner */\n            tag_9:\n              callvalue\n              dup1\n              iszero\n              tag_51\n              jumpi\n              0x00\n              dup1\n              revert\n            tag_51:\n              pop\n              tag_52\n              tag_53\n              jump\t// in\n            tag_52:\n              mload(0x40)\n              tag_54\n              swap2\n              swap1\n              tag_55\n              jump\t// in\n            tag_54:\n              mload(0x40)\n              dup1\n              swap2\n              sub\n              swap1\n              return\n                /* \"Project.sol\":2092:2481  function doPayment(uint256 index) public ownerOnly {... */\n            tag_10:\n              callvalue\n              dup1\n              iszero\n              tag_56\n              jumpi\n              0x00\n              dup1\n              revert\n            tag_56:\n              pop\n              tag_57\n              0x04\n              dup1\n              calldatasize\n              sub\n              dup2\n              add\n              swap1\n              tag_58\n              swap2\n              swap1\n              tag_47\n              jump\t// in\n            tag_58:\n              tag_59\n              jump\t// in\n            tag_57:\n              stop\n                /* \"Project.sol\":1021:1318  function contribute() public payable {... */\n            tag_11:\n              tag_60\n              tag_61\n              jump\t// in\n            tag_60:\n              stop\n                /* \"Project.sol\":506:534  uint256 public investorCount */\n            tag_12:\n              callvalue\n              dup1\n              iszero\n              tag_62\n              jumpi\n              0x00\n              dup1\n              revert\n            tag_62:\n              pop\n              tag_63\n              tag_64\n              jump\t// in\n            tag_63:\n              mload(0x40)\n              tag_65\n              swap2\n              swap1\n              tag_24\n              jump\t// in\n            tag_65:\n              mload(0x40)\n              dup1\n              swap2\n              sub\n              swap1\n              return\n                /* \"Project.sol\":1814:2086  function approvePayment(uint256 index) public {... */\n            tag_13:\n              callvalue\n              dup1\n              iszero\n              tag_66\n              jumpi\n              0x00\n              dup1\n              revert\n            tag_66:\n              pop\n              tag_67\n              0x04\n              dup1\n              calldatasize\n              sub\n              dup2\n              add\n              swap1\n              tag_68\n              swap2\n              swap1\n              tag_47\n              jump\t// in\n            tag_68:\n              tag_69\n              jump\t// in\n            tag_67:\n              stop\n                /* \"Project.sol\":1324:1808  function createPayment(... */\n            tag_19:\n                /* \"Project.sol\":675:680  owner */\n              0x00\n              dup1\n              sload\n              swap1\n              0x0100\n              exp\n              swap1\n              div\n              0xffffffffffffffffffffffffffffffffffffffff\n              and\n                /* \"Project.sol\":661:680  msg.sender == owner */\n              0xffffffffffffffffffffffffffffffffffffffff\n              and\n                /* \"Project.sol\":661:671  msg.sender */\n              caller\n                /* \"Project.sol\":661:680  msg.sender == owner */\n              0xffffffffffffffffffffffffffffffffffffffff\n              and\n              eq\n                /* \"Project.sol\":653:681  require(msg.sender == owner) */\n              tag_71\n              jumpi\n              0x00\n              dup1\n              revert\n            tag_71:\n                /* \"Project.sol\":1476:1497  uint256 paymentsCount */\n              0x00\n                /* \"Project.sol\":1500:1508  payments */\n              0x07\n                /* \"Project.sol\":1500:1515  payments.length */\n              dup1\n              sload\n              swap1\n              pop\n                /* \"Project.sol\":1476:1515  uint256 paymentsCount = payments.length */\n              swap1\n              pop\n                /* \"Project.sol\":1525:1533  payments */\n              0x07\n                /* \"Project.sol\":1525:1540  payments.push() */\n              0x01\n              dup2\n              0x01\n              dup2\n              sload\n              add\n              dup1\n              dup3\n              sstore\n              dup1\n              swap2\n              pop\n              pop\n              sub\n              swap1\n              0x00\n              mstore\n              keccak256(0x00, 0x20)\n              swap1\n              pop\n              pop\n                /* \"Project.sol\":1551:1577  Payment storage newPayment */\n              0x00\n                /* \"Project.sol\":1580:1588  payments */\n              0x07\n                /* \"Project.sol\":1589:1602  paymentsCount */\n              dup3\n                /* \"Project.sol\":1580:1603  payments[paymentsCount] */\n              dup2\n              sload\n              dup2\n              lt\n              tag_74\n              jumpi\n              tag_75\n              tag_76\n              jump\t// in\n            tag_75:\n            tag_74:\n              swap1\n              0x00\n              mstore\n              keccak256(0x00, 0x20)\n              swap1\n              0x05\n              mul\n              add\n                /* \"Project.sol\":1551:1603  Payment storage newPayment = payments[paymentsCount] */\n              swap1\n              pop\n                /* \"Project.sol\":1638:1650  _description */\n              dup5\n                /* \"Project.sol\":1613:1623  newPayment */\n              dup2\n                /* \"Project.sol\":1613:1635  newPayment.description */\n              0x00\n              add\n                /* \"Project.sol\":1613:1650  newPayment.description = _description */\n              swap1\n              dup1\n              mload\n              swap1\n              0x20\n              add\n              swap1\n              tag_78\n              swap3\n              swap2\n              swap1\n              tag_79\n              jump\t// in\n            tag_78:\n              pop\n                /* \"Project.sol\":1680:1687  _amount */\n              dup4\n                /* \"Project.sol\":1660:1670  newPayment */\n              dup2\n                /* \"Project.sol\":1660:1677  newPayment.amount */\n              0x01\n              add\n                /* \"Project.sol\":1660:1687  newPayment.amount = _amount */\n              dup2\n              swap1\n              sstore\n              pop\n                /* \"Project.sol\":1719:1728  _receiver */\n              dup3\n                /* \"Project.sol\":1697:1707  newPayment */\n              dup2\n                /* \"Project.sol\":1697:1716  newPayment.receiver */\n              0x02\n              add\n              0x00\n                /* \"Project.sol\":1697:1728  newPayment.receiver = _receiver */\n              0x0100\n              exp\n              dup2\n              sload\n              dup2\n              0xffffffffffffffffffffffffffffffffffffffff\n              mul\n              not\n              and\n              swap1\n              dup4\n              0xffffffffffffffffffffffffffffffffffffffff\n              and\n              mul\n              or\n              swap1\n              sstore\n              pop\n                /* \"Project.sol\":1761:1766  false */\n              0x00\n                /* \"Project.sol\":1738:1748  newPayment */\n              dup2\n                /* \"Project.sol\":1738:1758  newPayment.completed */\n              0x02\n              add\n              0x14\n                /* \"Project.sol\":1738:1766  newPayment.completed = false */\n              0x0100\n              exp\n              dup2\n              sload\n              dup2\n              0xff\n              mul\n              not\n              and\n              swap1\n              dup4\n              iszero\n              iszero\n              mul\n              or\n              swap1\n              sstore\n              pop\n                /* \"Project.sol\":1800:1801  0 */\n              0x00\n                /* \"Project.sol\":1776:1786  newPayment */\n              dup2\n                /* \"Project.sol\":1776:1797  newPayment.voterCount */\n              0x04\n              add\n                /* \"Project.sol\":1776:1801  newPayment.voterCount = 0 */\n              dup2\n              swap1\n              sstore\n              pop\n                /* \"Project.sol\":1466:1808  {... */\n              pop\n              pop\n                /* \"Project.sol\":1324:1808  function createPayment(... */\n              pop\n              pop\n              pop\n              jump\t// out\n                /* \"Project.sol\":416:440  uint256 public maxInvest */\n            tag_22:\n              sload(0x03)\n              dup2\n              jump\t// out\n                /* \"Project.sol\":446:465  uint256 public goal */\n            tag_27:\n              sload(0x04)\n              dup2\n              jump\t// out\n                /* \"Project.sol\":386:410  uint256 public minInvest */\n            tag_31:\n              sload(0x02)\n              dup2\n              jump\t// out\n                /* \"Project.sol\":540:584  mapping(address => uint256) public investors */\n            tag_37:\n              mstore(0x20, 0x06)\n              dup1\n              0x00\n              mstore\n              keccak256(0x00, 0x40)\n              0x00\n              swap2\n              pop\n              swap1\n              pop\n              sload\n              dup2\n              jump\t// out\n                /* \"Project.sol\":355:380  string public description */\n            tag_41:\n              0x01\n              dup1\n              sload\n              tag_80\n              swap1\n              tag_81\n              jump\t// in\n            tag_80:\n              dup1\n              0x1f\n              add\n              0x20\n              dup1\n              swap2\n              div\n              mul\n              0x20\n              add\n              mload(0x40)\n              swap1\n              dup2\n              add\n              0x40\n              mstore\n              dup1\n              swap3\n              swap2\n              swap1\n              dup2\n              dup2\n              mstore\n              0x20\n              add\n              dup3\n              dup1\n              sload\n              tag_82\n              swap1\n              tag_81\n              jump\t// in\n            tag_82:\n              dup1\n              iszero\n              tag_83\n              jumpi\n              dup1\n              0x1f\n              lt\n              tag_84\n              jumpi\n              0x0100\n              dup1\n              dup4\n              sload\n              div\n              mul\n              dup4\n              mstore\n              swap2\n              0x20\n              add\n              swap2\n              jump(tag_83)\n            tag_84:\n              dup3\n              add\n              swap2\n              swap1\n              0x00\n              mstore\n              keccak256(0x00, 0x20)\n              swap1\n            tag_85:\n              dup2\n              sload\n              dup2\n              mstore\n              swap1\n              0x01\n              add\n              swap1\n              0x20\n              add\n              dup1\n              dup4\n              gt\n              tag_85\n              jumpi\n              dup3\n              swap1\n              sub\n              0x1f\n              and\n              dup3\n              add\n              swap2\n            tag_83:\n              pop\n              pop\n              pop\n              pop\n              pop\n              dup2\n              jump\t// out\n                /* \"Project.sol\":590:615  Payment[] public payments */\n            tag_48:\n              0x07\n              dup2\n              dup2\n              sload\n              dup2\n              lt\n              tag_86\n              jumpi\n              0x00\n              dup1\n              revert\n            tag_86:\n              swap1\n              0x00\n              mstore\n              keccak256(0x00, 0x20)\n              swap1\n              0x05\n              mul\n              add\n              0x00\n              swap2\n              pop\n              swap1\n              pop\n              dup1\n              0x00\n              add\n              dup1\n              sload\n              tag_88\n              swap1\n              tag_81\n              jump\t// in\n            tag_88:\n              dup1\n              0x1f\n              add\n              0x20\n              dup1\n              swap2\n              div\n              mul\n              0x20\n              add\n              mload(0x40)\n              swap1\n              dup2\n              add\n              0x40\n              mstore\n              dup1\n              swap3\n              swap2\n              swap1\n              dup2\n              dup2\n              mstore\n              0x20\n              add\n              dup3\n              dup1\n              sload\n              tag_89\n              swap1\n              tag_81\n              jump\t// in\n            tag_89:\n              dup1\n              iszero\n              tag_90\n              jumpi\n              dup1\n              0x1f\n              lt\n              tag_91\n              jumpi\n              0x0100\n              dup1\n              dup4\n              sload\n              div\n              mul\n              dup4\n              mstore\n              swap2\n              0x20\n              add\n              swap2\n              jump(tag_90)\n            tag_91:\n              dup3\n              add\n              swap2\n              swap1\n              0x00\n              mstore\n              keccak256(0x00, 0x20)\n              swap1\n            tag_92:\n              dup2\n              sload\n              dup2\n              mstore\n              swap1\n              0x01\n              add\n              swap1\n              0x20\n              add\n              dup1\n              dup4\n              gt\n              tag_92\n              jumpi\n              dup3\n              swap1\n              sub\n              0x1f\n              and\n              dup3\n              add\n              swap2\n            tag_90:\n              pop\n              pop\n              pop\n              pop\n              pop\n              swap1\n              dup1\n              0x01\n              add\n              sload\n              swap1\n              dup1\n              0x02\n              add\n              0x00\n              swap1\n              sload\n              swap1\n              0x0100\n              exp\n              swap1\n              div\n              0xffffffffffffffffffffffffffffffffffffffff\n              and\n              swap1\n              dup1\n              0x02\n              add\n              0x14\n              swap1\n              sload\n              swap1\n              0x0100\n              exp\n              swap1\n              div\n              0xff\n              and\n              swap1\n              dup1\n              0x04\n              add\n              sload\n              swap1\n              pop\n              dup6\n              jump\t// out\n                /* \"Project.sol\":329:349  address public owner */\n            tag_53:\n              0x00\n              dup1\n              sload\n              swap1\n              0x0100\n              exp\n              swap1\n              div\n              0xffffffffffffffffffffffffffffffffffffffff\n              and\n              dup2\n              jump\t// out\n                /* \"Project.sol\":2092:2481  function doPayment(uint256 index) public ownerOnly {... */\n            tag_59:\n                /* \"Project.sol\":675:680  owner */\n              0x00\n              dup1\n              sload\n              swap1\n              0x0100\n              exp\n              swap1\n              div\n              0xffffffffffffffffffffffffffffffffffffffff\n              and\n                /* \"Project.sol\":661:680  msg.sender == owner */\n              0xffffffffffffffffffffffffffffffffffffffff\n              and\n                /* \"Project.sol\":661:671  msg.sender */\n              caller\n                /* \"Project.sol\":661:680  msg.sender == owner */\n              0xffffffffffffffffffffffffffffffffffffffff\n              and\n              eq\n                /* \"Project.sol\":653:681  require(msg.sender == owner) */\n              tag_94\n              jumpi\n              0x00\n              dup1\n              revert\n            tag_94:\n                /* \"Project.sol\":2175:2180  owner */\n              0x00\n              dup1\n              sload\n              swap1\n              0x0100\n              exp\n              swap1\n              div\n              0xffffffffffffffffffffffffffffffffffffffff\n              and\n                /* \"Project.sol\":2161:2180  msg.sender == owner */\n              0xffffffffffffffffffffffffffffffffffffffff\n              and\n                /* \"Project.sol\":2161:2171  msg.sender */\n              caller\n                /* \"Project.sol\":2161:2180  msg.sender == owner */\n              0xffffffffffffffffffffffffffffffffffffffff\n              and\n              eq\n                /* \"Project.sol\":2153:2181  require(msg.sender == owner) */\n              tag_96\n              jumpi\n              0x00\n              dup1\n              revert\n            tag_96:\n                /* \"Project.sol\":2192:2215  Payment storage payment */\n              0x00\n                /* \"Project.sol\":2218:2226  payments */\n              0x07\n                /* \"Project.sol\":2227:2232  index */\n              dup3\n                /* \"Project.sol\":2218:2233  payments[index] */\n              dup2\n              sload\n              dup2\n              lt\n              tag_97\n              jumpi\n              tag_98\n              tag_76\n              jump\t// in\n            tag_98:\n            tag_97:\n              swap1\n              0x00\n              mstore\n              keccak256(0x00, 0x20)\n              swap1\n              0x05\n              mul\n              add\n                /* \"Project.sol\":2192:2233  Payment storage payment = payments[index] */\n              swap1\n              pop\n                /* \"Project.sol\":2253:2260  payment */\n              dup1\n                /* \"Project.sol\":2253:2270  payment.completed */\n              0x02\n              add\n              0x14\n              swap1\n              sload\n              swap1\n              0x0100\n              exp\n              swap1\n              div\n              0xff\n              and\n                /* \"Project.sol\":2252:2270  !payment.completed */\n              iszero\n                /* \"Project.sol\":2244:2271  require(!payment.completed) */\n              tag_100\n              jumpi\n              0x00\n              dup1\n              revert\n            tag_100:\n                /* \"Project.sol\":2314:2321  payment */\n              dup1\n                /* \"Project.sol\":2314:2328  payment.amount */\n              0x01\n              add\n              sload\n                /* \"Project.sol\":2289:2310  address(this).balance */\n              selfbalance\n                /* \"Project.sol\":2289:2328  address(this).balance >= payment.amount */\n              lt\n              iszero\n                /* \"Project.sol\":2281:2329  require(address(this).balance >= payment.amount) */\n              tag_101\n              jumpi\n              0x00\n              dup1\n              revert\n            tag_101:\n                /* \"Project.sol\":2385:2386  2 */\n              0x02\n                /* \"Project.sol\":2369:2382  investorCount */\n              sload(0x05)\n                /* \"Project.sol\":2369:2386  investorCount / 2 */\n              tag_102\n              swap2\n              swap1\n              tag_103\n              jump\t// in\n            tag_102:\n                /* \"Project.sol\":2347:2354  payment */\n              dup2\n                /* \"Project.sol\":2347:2365  payment.voterCount */\n              0x04\n              add\n              sload\n                /* \"Project.sol\":2347:2387  payment.voterCount > (investorCount / 2) */\n              gt\n                /* \"Project.sol\":2339:2388  require(payment.voterCount > (investorCount / 2)) */\n              tag_104\n              jumpi\n              0x00\n              dup1\n              revert\n            tag_104:\n                /* \"Project.sol\":2399:2406  payment */\n              dup1\n                /* \"Project.sol\":2399:2415  payment.receiver */\n              0x02\n              add\n              0x00\n              swap1\n              sload\n              swap1\n              0x0100\n              exp\n              swap1\n              div\n              0xffffffffffffffffffffffffffffffffffffffff\n              and\n                /* \"Project.sol\":2399:2424  payment.receiver.transfer */\n              0xffffffffffffffffffffffffffffffffffffffff\n              and\n                /* \"Project.sol\":2399:2440  payment.receiver.transfer(payment.amount) */\n              0x08fc\n                /* \"Project.sol\":2425:2432  payment */\n              dup3\n                /* \"Project.sol\":2425:2439  payment.amount */\n              0x01\n              add\n              sload\n                /* \"Project.sol\":2399:2440  payment.receiver.transfer(payment.amount) */\n              swap1\n              dup2\n              iszero\n              mul\n              swap1\n              mload(0x40)\n              0x00\n              mload(0x40)\n              dup1\n              dup4\n              sub\n              dup2\n              dup6\n              dup9\n              dup9\n              call\n              swap4\n              pop\n              pop\n              pop\n              pop\n              iszero\n              dup1\n              iszero\n              tag_106\n              jumpi\n              returndatasize\n              0x00\n              dup1\n              returndatacopy\n              revert(0x00, returndatasize)\n            tag_106:\n              pop\n                /* \"Project.sol\":2470:2474  true */\n              0x01\n                /* \"Project.sol\":2450:2457  payment */\n              dup2\n                /* \"Project.sol\":2450:2467  payment.completed */\n              0x02\n              add\n              0x14\n                /* \"Project.sol\":2450:2474  payment.completed = true */\n              0x0100\n              exp\n              dup2\n              sload\n              dup2\n              0xff\n              mul\n              not\n              and\n              swap1\n              dup4\n              iszero\n              iszero\n              mul\n              or\n              swap1\n              sstore\n              pop\n                /* \"Project.sol\":2143:2481  {... */\n              pop\n                /* \"Project.sol\":2092:2481  function doPayment(uint256 index) public ownerOnly {... */\n              pop\n              jump\t// out\n                /* \"Project.sol\":1021:1318  function contribute() public payable {... */\n            tag_61:\n                /* \"Project.sol\":1089:1098  minInvest */\n              sload(0x02)\n                /* \"Project.sol\":1076:1085  msg.value */\n              callvalue\n                /* \"Project.sol\":1076:1098  msg.value >= minInvest */\n              lt\n              iszero\n                /* \"Project.sol\":1068:1099  require(msg.value >= minInvest) */\n              tag_108\n              jumpi\n              0x00\n              dup1\n              revert\n            tag_108:\n                /* \"Project.sol\":1130:1139  maxInvest */\n              sload(0x03)\n                /* \"Project.sol\":1117:1126  msg.value */\n              callvalue\n                /* \"Project.sol\":1117:1139  msg.value <= maxInvest */\n              gt\n              iszero\n                /* \"Project.sol\":1109:1140  require(msg.value <= maxInvest) */\n              tag_109\n              jumpi\n              0x00\n              dup1\n              revert\n            tag_109:\n                /* \"Project.sol\":1195:1199  goal */\n              sload(0x04)\n                /* \"Project.sol\":1182:1191  msg.value */\n              callvalue\n                /* \"Project.sol\":1158:1179  address(this).balance */\n              selfbalance\n                /* \"Project.sol\":1158:1191  address(this).balance + msg.value */\n              tag_110\n              swap2\n              swap1\n              tag_111\n              jump\t// in\n            tag_110:\n                /* \"Project.sol\":1158:1199  address(this).balance + msg.value <= goal */\n              gt\n              iszero\n                /* \"Project.sol\":1150:1200  require(address(this).balance + msg.value <= goal) */\n              tag_112\n              jumpi\n              0x00\n              dup1\n              revert\n            tag_112:\n                /* \"Project.sol\":1274:1283  msg.value */\n              callvalue\n                /* \"Project.sol\":1250:1259  investors */\n              0x06\n                /* \"Project.sol\":1250:1271  investors[msg.sender] */\n              0x00\n                /* \"Project.sol\":1260:1270  msg.sender */\n              caller\n                /* \"Project.sol\":1250:1271  investors[msg.sender] */\n              0xffffffffffffffffffffffffffffffffffffffff\n              and\n              0xffffffffffffffffffffffffffffffffffffffff\n              and\n              dup2\n              mstore\n              0x20\n              add\n              swap1\n              dup2\n              mstore\n              0x20\n              add\n              0x00\n              keccak256\n                /* \"Project.sol\":1250:1283  investors[msg.sender] = msg.value */\n              dup2\n              swap1\n              sstore\n              pop\n                /* \"Project.sol\":1310:1311  1 */\n              0x01\n                /* \"Project.sol\":1293:1306  investorCount */\n              0x05\n              0x00\n                /* \"Project.sol\":1293:1311  investorCount += 1 */\n              dup3\n              dup3\n              sload\n              tag_113\n              swap2\n              swap1\n              tag_111\n              jump\t// in\n            tag_113:\n              swap3\n              pop\n              pop\n              dup2\n              swap1\n              sstore\n              pop\n                /* \"Project.sol\":1021:1318  function contribute() public payable {... */\n              jump\t// out\n                /* \"Project.sol\":506:534  uint256 public investorCount */\n            tag_64:\n              sload(0x05)\n              dup2\n              jump\t// out\n                /* \"Project.sol\":1814:2086  function approvePayment(uint256 index) public {... */\n            tag_69:\n                /* \"Project.sol\":1870:1893  Payment storage payment */\n              0x00\n                /* \"Project.sol\":1896:1904  payments */\n              0x07\n                /* \"Project.sol\":1905:1910  index */\n              dup3\n                /* \"Project.sol\":1896:1911  payments[index] */\n              dup2\n              sload\n              dup2\n              lt\n              tag_115\n              jumpi\n              tag_116\n              tag_76\n              jump\t// in\n            tag_116:\n            tag_115:\n              swap1\n              0x00\n              mstore\n              keccak256(0x00, 0x20)\n              swap1\n              0x05\n              mul\n              add\n                /* \"Project.sol\":1870:1911  Payment storage payment = payments[index] */\n              swap1\n              pop\n                /* \"Project.sol\":1954:1955  0 */\n              0x00\n                /* \"Project.sol\":1930:1939  investors */\n              0x06\n                /* \"Project.sol\":1930:1951  investors[msg.sender] */\n              0x00\n                /* \"Project.sol\":1940:1950  msg.sender */\n              caller\n                /* \"Project.sol\":1930:1951  investors[msg.sender] */\n              0xffffffffffffffffffffffffffffffffffffffff\n              and\n              0xffffffffffffffffffffffffffffffffffffffff\n              and\n              dup2\n              mstore\n              0x20\n              add\n              swap1\n              dup2\n              mstore\n              0x20\n              add\n              0x00\n              keccak256\n              sload\n                /* \"Project.sol\":1930:1955  investors[msg.sender] > 0 */\n              gt\n                /* \"Project.sol\":1922:1956  require(investors[msg.sender] > 0) */\n              tag_118\n              jumpi\n              0x00\n              dup1\n              revert\n            tag_118:\n                /* \"Project.sol\":1975:1982  payment */\n              dup1\n                /* \"Project.sol\":1975:1989  payment.voters */\n              0x03\n              add\n                /* \"Project.sol\":1975:2001  payment.voters[msg.sender] */\n              0x00\n                /* \"Project.sol\":1990:2000  msg.sender */\n              caller\n                /* \"Project.sol\":1975:2001  payment.voters[msg.sender] */\n              0xffffffffffffffffffffffffffffffffffffffff\n              and\n              0xffffffffffffffffffffffffffffffffffffffff\n              and\n              dup2\n              mstore\n              0x20\n              add\n              swap1\n              dup2\n              mstore\n              0x20\n              add\n              0x00\n              keccak256\n              0x00\n              swap1\n              sload\n              swap1\n              0x0100\n              exp\n              swap1\n              div\n              0xff\n              and\n                /* \"Project.sol\":1974:2001  !payment.voters[msg.sender] */\n              iszero\n                /* \"Project.sol\":1966:2002  require(!payment.voters[msg.sender]) */\n              tag_119\n              jumpi\n              0x00\n              dup1\n              revert\n            tag_119:\n                /* \"Project.sol\":2042:2046  true */\n              0x01\n                /* \"Project.sol\":2013:2020  payment */\n              dup2\n                /* \"Project.sol\":2013:2027  payment.voters */\n              0x03\n              add\n                /* \"Project.sol\":2013:2039  payment.voters[msg.sender] */\n              0x00\n                /* \"Project.sol\":2028:2038  msg.sender */\n              caller\n                /* \"Project.sol\":2013:2039  payment.voters[msg.sender] */\n              0xffffffffffffffffffffffffffffffffffffffff\n              and\n              0xffffffffffffffffffffffffffffffffffffffff\n              and\n              dup2\n              mstore\n              0x20\n              add\n              swap1\n              dup2\n              mstore\n              0x20\n              add\n              0x00\n              keccak256\n              0x00\n                /* \"Project.sol\":2013:2046  payment.voters[msg.sender] = true */\n              0x0100\n              exp\n              dup2\n              sload\n              dup2\n              0xff\n              mul\n              not\n              and\n              swap1\n              dup4\n              iszero\n              iszero\n              mul\n              or\n              swap1\n              sstore\n              pop\n                /* \"Project.sol\":2078:2079  1 */\n              0x01\n                /* \"Project.sol\":2056:2063  payment */\n              dup2\n                /* \"Project.sol\":2056:2074  payment.voterCount */\n              0x04\n              add\n              0x00\n                /* \"Project.sol\":2056:2079  payment.voterCount += 1 */\n              dup3\n              dup3\n              sload\n              tag_120\n              swap2\n              swap1\n              tag_111\n              jump\t// in\n            tag_120:\n              swap3\n              pop\n              pop\n              dup2\n              swap1\n              sstore\n              pop\n                /* \"Project.sol\":1860:2086  {... */\n              pop\n                /* \"Project.sol\":1814:2086  function approvePayment(uint256 index) public {... */\n              pop\n              jump\t// out\n            tag_79:\n              dup3\n              dup1\n              sload\n              tag_121\n              swap1\n              tag_81\n              jump\t// in\n            tag_121:\n              swap1\n              0x00\n              mstore\n              keccak256(0x00, 0x20)\n              swap1\n              0x1f\n              add\n              0x20\n              swap1\n              div\n              dup2\n              add\n              swap3\n              dup3\n              tag_123\n              jumpi\n              0x00\n              dup6\n              sstore\n              jump(tag_122)\n            tag_123:\n              dup3\n              0x1f\n              lt\n              tag_124\n              jumpi\n              dup1\n              mload\n              not(0xff)\n              and\n              dup4\n              dup1\n              add\n              or\n              dup6\n              sstore\n              jump(tag_122)\n            tag_124:\n              dup3\n              dup1\n              add\n              0x01\n              add\n              dup6\n              sstore\n              dup3\n              iszero\n              tag_122\n              jumpi\n              swap2\n              dup3\n              add\n            tag_125:\n              dup3\n              dup2\n              gt\n              iszero\n              tag_126\n              jumpi\n              dup3\n              mload\n              dup3\n              sstore\n              swap2\n              0x20\n              add\n              swap2\n              swap1\n              0x01\n              add\n              swap1\n              jump(tag_125)\n            tag_126:\n            tag_122:\n              pop\n              swap1\n              pop\n              tag_127\n              swap2\n              swap1\n              tag_128\n              jump\t// in\n            tag_127:\n              pop\n              swap1\n              jump\t// out\n            tag_128:\n            tag_129:\n              dup1\n              dup3\n              gt\n              iszero\n              tag_130\n              jumpi\n              0x00\n              dup2\n              0x00\n              swap1\n              sstore\n              pop\n              0x01\n              add\n              jump(tag_129)\n            tag_130:\n              pop\n              swap1\n              jump\t// out\n                /* \"#utility.yul\":7:82   */\n            tag_131:\n                /* \"#utility.yul\":40:46   */\n              0x00\n                /* \"#utility.yul\":73:75   */\n              0x40\n                /* \"#utility.yul\":67:76   */\n              mload\n                /* \"#utility.yul\":57:76   */\n              swap1\n              pop\n                /* \"#utility.yul\":7:82   */\n              swap1\n              jump\t// out\n                /* \"#utility.yul\":88:205   */\n            tag_132:\n                /* \"#utility.yul\":197:198   */\n              0x00\n                /* \"#utility.yul\":194:195   */\n              dup1\n                /* \"#utility.yul\":187:199   */\n              revert\n                /* \"#utility.yul\":211:328   */\n            tag_133:\n                /* \"#utility.yul\":320:321   */\n              0x00\n                /* \"#utility.yul\":317:318   */\n              dup1\n                /* \"#utility.yul\":310:322   */\n              revert\n                /* \"#utility.yul\":334:451   */\n            tag_134:\n                /* \"#utility.yul\":443:444   */\n              0x00\n                /* \"#utility.yul\":440:441   */\n              dup1\n                /* \"#utility.yul\":433:445   */\n              revert\n                /* \"#utility.yul\":457:574   */\n            tag_135:\n                /* \"#utility.yul\":566:567   */\n              0x00\n                /* \"#utility.yul\":563:564   */\n              dup1\n                /* \"#utility.yul\":556:568   */\n              revert\n                /* \"#utility.yul\":580:682   */\n            tag_136:\n                /* \"#utility.yul\":621:627   */\n              0x00\n                /* \"#utility.yul\":672:674   */\n              0x1f\n                /* \"#utility.yul\":668:675   */\n              not\n                /* \"#utility.yul\":663:665   */\n              0x1f\n                /* \"#utility.yul\":656:661   */\n              dup4\n                /* \"#utility.yul\":652:666   */\n              add\n                /* \"#utility.yul\":648:676   */\n              and\n                /* \"#utility.yul\":638:676   */\n              swap1\n              pop\n                /* \"#utility.yul\":580:682   */\n              swap2\n              swap1\n              pop\n              jump\t// out\n                /* \"#utility.yul\":688:868   */\n            tag_137:\n                /* \"#utility.yul\":736:813   */\n              0x4e487b7100000000000000000000000000000000000000000000000000000000\n                /* \"#utility.yul\":733:734   */\n              0x00\n                /* \"#utility.yul\":726:814   */\n              mstore\n                /* \"#utility.yul\":833:837   */\n              0x41\n                /* \"#utility.yul\":830:831   */\n              0x04\n                /* \"#utility.yul\":823:838   */\n              mstore\n                /* \"#utility.yul\":857:861   */\n              0x24\n                /* \"#utility.yul\":854:855   */\n              0x00\n                /* \"#utility.yul\":847:862   */\n              revert\n                /* \"#utility.yul\":874:1155   */\n            tag_138:\n                /* \"#utility.yul\":957:984   */\n              tag_175\n                /* \"#utility.yul\":979:983   */\n              dup3\n                /* \"#utility.yul\":957:984   */\n              tag_136\n              jump\t// in\n            tag_175:\n                /* \"#utility.yul\":949:955   */\n              dup2\n                /* \"#utility.yul\":945:985   */\n              add\n                /* \"#utility.yul\":1087:1093   */\n              dup2\n                /* \"#utility.yul\":1075:1085   */\n              dup2\n                /* \"#utility.yul\":1072:1094   */\n              lt\n                /* \"#utility.yul\":1051:1069   */\n              0xffffffffffffffff\n                /* \"#utility.yul\":1039:1049   */\n              dup3\n                /* \"#utility.yul\":1036:1070   */\n              gt\n                /* \"#utility.yul\":1033:1095   */\n              or\n                /* \"#utility.yul\":1030:1118   */\n              iszero\n              tag_176\n              jumpi\n                /* \"#utility.yul\":1098:1116   */\n              tag_177\n              tag_137\n              jump\t// in\n            tag_177:\n                /* \"#utility.yul\":1030:1118   */\n            tag_176:\n                /* \"#utility.yul\":1138:1148   */\n              dup1\n                /* \"#utility.yul\":1134:1136   */\n              0x40\n                /* \"#utility.yul\":1127:1149   */\n              mstore\n                /* \"#utility.yul\":917:1155   */\n              pop\n                /* \"#utility.yul\":874:1155   */\n              pop\n              pop\n              jump\t// out\n                /* \"#utility.yul\":1161:1290   */\n            tag_139:\n                /* \"#utility.yul\":1195:1201   */\n              0x00\n                /* \"#utility.yul\":1222:1242   */\n              tag_179\n              tag_131\n              jump\t// in\n            tag_179:\n                /* \"#utility.yul\":1212:1242   */\n              swap1\n              pop\n                /* \"#utility.yul\":1251:1284   */\n              tag_180\n                /* \"#utility.yul\":1279:1283   */\n              dup3\n                /* \"#utility.yul\":1271:1277   */\n              dup3\n                /* \"#utility.yul\":1251:1284   */\n              tag_138\n              jump\t// in\n            tag_180:\n                /* \"#utility.yul\":1161:1290   */\n              swap2\n              swap1\n              pop\n              jump\t// out\n                /* \"#utility.yul\":1296:1604   */\n            tag_140:\n                /* \"#utility.yul\":1358:1362   */\n              0x00\n                /* \"#utility.yul\":1448:1466   */\n              0xffffffffffffffff\n                /* \"#utility.yul\":1440:1446   */\n              dup3\n                /* \"#utility.yul\":1437:1467   */\n              gt\n                /* \"#utility.yul\":1434:1490   */\n              iszero\n              tag_182\n              jumpi\n                /* \"#utility.yul\":1470:1488   */\n              tag_183\n              tag_137\n              jump\t// in\n            tag_183:\n                /* \"#utility.yul\":1434:1490   */\n            tag_182:\n                /* \"#utility.yul\":1508:1537   */\n              tag_184\n                /* \"#utility.yul\":1530:1536   */\n              dup3\n                /* \"#utility.yul\":1508:1537   */\n              tag_136\n              jump\t// in\n            tag_184:\n                /* \"#utility.yul\":1500:1537   */\n              swap1\n              pop\n                /* \"#utility.yul\":1592:1596   */\n              0x20\n                /* \"#utility.yul\":1586:1590   */\n              dup2\n                /* \"#utility.yul\":1582:1597   */\n              add\n                /* \"#utility.yul\":1574:1597   */\n              swap1\n              pop\n                /* \"#utility.yul\":1296:1604   */\n              swap2\n              swap1\n              pop\n              jump\t// out\n                /* \"#utility.yul\":1610:1764   */\n            tag_141:\n                /* \"#utility.yul\":1694:1700   */\n              dup3\n                /* \"#utility.yul\":1689:1692   */\n              dup2\n                /* \"#utility.yul\":1684:1687   */\n              dup4\n                /* \"#utility.yul\":1671:1701   */\n              calldatacopy\n                /* \"#utility.yul\":1756:1757   */\n              0x00\n                /* \"#utility.yul\":1747:1753   */\n              dup4\n                /* \"#utility.yul\":1742:1745   */\n              dup4\n                /* \"#utility.yul\":1738:1754   */\n              add\n                /* \"#utility.yul\":1731:1758   */\n              mstore\n                /* \"#utility.yul\":1610:1764   */\n              pop\n              pop\n              pop\n              jump\t// out\n                /* \"#utility.yul\":1770:2182   */\n            tag_142:\n                /* \"#utility.yul\":1848:1853   */\n              0x00\n                /* \"#utility.yul\":1873:1939   */\n              tag_187\n                /* \"#utility.yul\":1889:1938   */\n              tag_188\n                /* \"#utility.yul\":1931:1937   */\n              dup5\n                /* \"#utility.yul\":1889:1938   */\n              tag_140\n              jump\t// in\n            tag_188:\n                /* \"#utility.yul\":1873:1939   */\n              tag_139\n              jump\t// in\n            tag_187:\n                /* \"#utility.yul\":1864:1939   */\n              swap1\n              pop\n                /* \"#utility.yul\":1962:1968   */\n              dup3\n                /* \"#utility.yul\":1955:1960   */\n              dup2\n                /* \"#utility.yul\":1948:1969   */\n              mstore\n                /* \"#utility.yul\":2000:2004   */\n              0x20\n                /* \"#utility.yul\":1993:1998   */\n              dup2\n                /* \"#utility.yul\":1989:2005   */\n              add\n                /* \"#utility.yul\":2038:2041   */\n              dup5\n                /* \"#utility.yul\":2029:2035   */\n              dup5\n                /* \"#utility.yul\":2024:2027   */\n              dup5\n                /* \"#utility.yul\":2020:2036   */\n              add\n                /* \"#utility.yul\":2017:2042   */\n              gt\n                /* \"#utility.yul\":2014:2126   */\n              iszero\n              tag_189\n              jumpi\n                /* \"#utility.yul\":2045:2124   */\n              tag_190\n              tag_135\n              jump\t// in\n            tag_190:\n                /* \"#utility.yul\":2014:2126   */\n            tag_189:\n                /* \"#utility.yul\":2135:2176   */\n              tag_191\n                /* \"#utility.yul\":2169:2175   */\n              dup5\n                /* \"#utility.yul\":2164:2167   */\n              dup3\n                /* \"#utility.yul\":2159:2162   */\n              dup6\n                /* \"#utility.yul\":2135:2176   */\n              tag_141\n              jump\t// in\n            tag_191:\n                /* \"#utility.yul\":1854:2182   */\n              pop\n                /* \"#utility.yul\":1770:2182   */\n              swap4\n              swap3\n              pop\n              pop\n              pop\n              jump\t// out\n                /* \"#utility.yul\":2202:2542   */\n            tag_143:\n                /* \"#utility.yul\":2258:2263   */\n              0x00\n                /* \"#utility.yul\":2307:2310   */\n              dup3\n                /* \"#utility.yul\":2300:2304   */\n              0x1f\n                /* \"#utility.yul\":2292:2298   */\n              dup4\n                /* \"#utility.yul\":2288:2305   */\n              add\n                /* \"#utility.yul\":2284:2311   */\n              slt\n                /* \"#utility.yul\":2274:2396   */\n              tag_193\n              jumpi\n                /* \"#utility.yul\":2315:2394   */\n              tag_194\n              tag_134\n              jump\t// in\n            tag_194:\n                /* \"#utility.yul\":2274:2396   */\n            tag_193:\n                /* \"#utility.yul\":2432:2438   */\n              dup2\n                /* \"#utility.yul\":2419:2439   */\n              calldataload\n                /* \"#utility.yul\":2457:2536   */\n              tag_195\n                /* \"#utility.yul\":2532:2535   */\n              dup5\n                /* \"#utility.yul\":2524:2530   */\n              dup3\n                /* \"#utility.yul\":2517:2521   */\n              0x20\n                /* \"#utility.yul\":2509:2515   */\n              dup7\n                /* \"#utility.yul\":2505:2522   */\n              add\n                /* \"#utility.yul\":2457:2536   */\n              tag_142\n              jump\t// in\n            tag_195:\n                /* \"#utility.yul\":2448:2536   */\n              swap2\n              pop\n                /* \"#utility.yul\":2264:2542   */\n              pop\n                /* \"#utility.yul\":2202:2542   */\n              swap3\n              swap2\n              pop\n              pop\n              jump\t// out\n                /* \"#utility.yul\":2548:2625   */\n            tag_144:\n                /* \"#utility.yul\":2585:2592   */\n              0x00\n                /* \"#utility.yul\":2614:2619   */\n              dup2\n                /* \"#utility.yul\":2603:2619   */\n              swap1\n              pop\n                /* \"#utility.yul\":2548:2625   */\n              swap2\n              swap1\n              pop\n              jump\t// out\n                /* \"#utility.yul\":2631:2753   */\n            tag_145:\n                /* \"#utility.yul\":2704:2728   */\n              tag_198\n                /* \"#utility.yul\":2722:2727   */\n              dup2\n                /* \"#utility.yul\":2704:2728   */\n              tag_144\n              jump\t// in\n            tag_198:\n                /* \"#utility.yul\":2697:2702   */\n              dup2\n                /* \"#utility.yul\":2694:2729   */\n              eq\n                /* \"#utility.yul\":2684:2747   */\n              tag_199\n              jumpi\n                /* \"#utility.yul\":2743:2744   */\n              0x00\n                /* \"#utility.yul\":2740:2741   */\n              dup1\n                /* \"#utility.yul\":2733:2745   */\n              revert\n                /* \"#utility.yul\":2684:2747   */\n            tag_199:\n                /* \"#utility.yul\":2631:2753   */\n              pop\n              jump\t// out\n                /* \"#utility.yul\":2759:2898   */\n            tag_146:\n                /* \"#utility.yul\":2805:2810   */\n              0x00\n                /* \"#utility.yul\":2843:2849   */\n              dup2\n                /* \"#utility.yul\":2830:2850   */\n              calldataload\n                /* \"#utility.yul\":2821:2850   */\n              swap1\n              pop\n                /* \"#utility.yul\":2859:2892   */\n              tag_201\n                /* \"#utility.yul\":2886:2891   */\n              dup2\n                /* \"#utility.yul\":2859:2892   */\n              tag_145\n              jump\t// in\n            tag_201:\n                /* \"#utility.yul\":2759:2898   */\n              swap3\n              swap2\n              pop\n              pop\n              jump\t// out\n                /* \"#utility.yul\":2904:3030   */\n            tag_147:\n                /* \"#utility.yul\":2941:2948   */\n              0x00\n                /* \"#utility.yul\":2981:3023   */\n              0xffffffffffffffffffffffffffffffffffffffff\n                /* \"#utility.yul\":2974:2979   */\n              dup3\n                /* \"#utility.yul\":2970:3024   */\n              and\n                /* \"#utility.yul\":2959:3024   */\n              swap1\n              pop\n                /* \"#utility.yul\":2904:3030   */\n              swap2\n              swap1\n              pop\n              jump\t// out\n                /* \"#utility.yul\":3036:3140   */\n            tag_148:\n                /* \"#utility.yul\":3081:3088   */\n              0x00\n                /* \"#utility.yul\":3110:3134   */\n              tag_204\n                /* \"#utility.yul\":3128:3133   */\n              dup3\n                /* \"#utility.yul\":3110:3134   */\n              tag_147\n              jump\t// in\n            tag_204:\n                /* \"#utility.yul\":3099:3134   */\n              swap1\n              pop\n                /* \"#utility.yul\":3036:3140   */\n              swap2\n              swap1\n              pop\n              jump\t// out\n                /* \"#utility.yul\":3146:3284   */\n            tag_149:\n                /* \"#utility.yul\":3227:3259   */\n              tag_206\n                /* \"#utility.yul\":3253:3258   */\n              dup2\n                /* \"#utility.yul\":3227:3259   */\n              tag_148\n              jump\t// in\n            tag_206:\n                /* \"#utility.yul\":3220:3225   */\n              dup2\n                /* \"#utility.yul\":3217:3260   */\n              eq\n                /* \"#utility.yul\":3207:3278   */\n              tag_207\n              jumpi\n                /* \"#utility.yul\":3274:3275   */\n              0x00\n                /* \"#utility.yul\":3271:3272   */\n              dup1\n                /* \"#utility.yul\":3264:3276   */\n              revert\n                /* \"#utility.yul\":3207:3278   */\n            tag_207:\n                /* \"#utility.yul\":3146:3284   */\n              pop\n              jump\t// out\n                /* \"#utility.yul\":3290:3445   */\n            tag_150:\n                /* \"#utility.yul\":3344:3349   */\n              0x00\n                /* \"#utility.yul\":3382:3388   */\n              dup2\n                /* \"#utility.yul\":3369:3389   */\n              calldataload\n                /* \"#utility.yul\":3360:3389   */\n              swap1\n              pop\n                /* \"#utility.yul\":3398:3439   */\n              tag_209\n                /* \"#utility.yul\":3433:3438   */\n              dup2\n                /* \"#utility.yul\":3398:3439   */\n              tag_149\n              jump\t// in\n            tag_209:\n                /* \"#utility.yul\":3290:3445   */\n              swap3\n              swap2\n              pop\n              pop\n              jump\t// out\n                /* \"#utility.yul\":3451:4266   */\n            tag_18:\n                /* \"#utility.yul\":3546:3552   */\n              0x00\n                /* \"#utility.yul\":3554:3560   */\n              dup1\n                /* \"#utility.yul\":3562:3568   */\n              0x00\n                /* \"#utility.yul\":3611:3613   */\n              0x60\n                /* \"#utility.yul\":3599:3608   */\n              dup5\n                /* \"#utility.yul\":3590:3597   */\n              dup7\n                /* \"#utility.yul\":3586:3609   */\n              sub\n                /* \"#utility.yul\":3582:3614   */\n              slt\n                /* \"#utility.yul\":3579:3698   */\n              iszero\n              tag_211\n              jumpi\n                /* \"#utility.yul\":3617:3696   */\n              tag_212\n              tag_132\n              jump\t// in\n            tag_212:\n                /* \"#utility.yul\":3579:3698   */\n            tag_211:\n                /* \"#utility.yul\":3765:3766   */\n              0x00\n                /* \"#utility.yul\":3754:3763   */\n              dup5\n                /* \"#utility.yul\":3750:3767   */\n              add\n                /* \"#utility.yul\":3737:3768   */\n              calldataload\n                /* \"#utility.yul\":3795:3813   */\n              0xffffffffffffffff\n                /* \"#utility.yul\":3787:3793   */\n              dup2\n                /* \"#utility.yul\":3784:3814   */\n              gt\n                /* \"#utility.yul\":3781:3898   */\n              iszero\n              tag_213\n              jumpi\n                /* \"#utility.yul\":3817:3896   */\n              tag_214\n              tag_133\n              jump\t// in\n            tag_214:\n                /* \"#utility.yul\":3781:3898   */\n            tag_213:\n                /* \"#utility.yul\":3922:3985   */\n              tag_215\n                /* \"#utility.yul\":3977:3984   */\n              dup7\n                /* \"#utility.yul\":3968:3974   */\n              dup3\n                /* \"#utility.yul\":3957:3966   */\n              dup8\n                /* \"#utility.yul\":3953:3975   */\n              add\n                /* \"#utility.yul\":3922:3985   */\n              tag_143\n              jump\t// in\n            tag_215:\n                /* \"#utility.yul\":3912:3985   */\n              swap4\n              pop\n                /* \"#utility.yul\":3708:3995   */\n              pop\n                /* \"#utility.yul\":4034:4036   */\n              0x20\n                /* \"#utility.yul\":4060:4113   */\n              tag_216\n                /* \"#utility.yul\":4105:4112   */\n              dup7\n                /* \"#utility.yul\":4096:4102   */\n              dup3\n                /* \"#utility.yul\":4085:4094   */\n              dup8\n                /* \"#utility.yul\":4081:4103   */\n              add\n                /* \"#utility.yul\":4060:4113   */\n              tag_146\n              jump\t// in\n            tag_216:\n                /* \"#utility.yul\":4050:4113   */\n              swap3\n              pop\n                /* \"#utility.yul\":4005:4123   */\n              pop\n                /* \"#utility.yul\":4162:4164   */\n              0x40\n                /* \"#utility.yul\":4188:4249   */\n              tag_217\n                /* \"#utility.yul\":4241:4248   */\n              dup7\n                /* \"#utility.yul\":4232:4238   */\n              dup3\n                /* \"#utility.yul\":4221:4230   */\n              dup8\n                /* \"#utility.yul\":4217:4239   */\n              add\n                /* \"#utility.yul\":4188:4249   */\n              tag_150\n              jump\t// in\n            tag_217:\n                /* \"#utility.yul\":4178:4249   */\n              swap2\n              pop\n                /* \"#utility.yul\":4133:4259   */\n              pop\n                /* \"#utility.yul\":3451:4266   */\n              swap3\n              pop\n              swap3\n              pop\n              swap3\n              jump\t// out\n                /* \"#utility.yul\":4272:4390   */\n            tag_151:\n                /* \"#utility.yul\":4359:4383   */\n              tag_219\n                /* \"#utility.yul\":4377:4382   */\n              dup2\n                /* \"#utility.yul\":4359:4383   */\n              tag_144\n              jump\t// in\n            tag_219:\n                /* \"#utility.yul\":4354:4357   */\n              dup3\n                /* \"#utility.yul\":4347:4384   */\n              mstore\n                /* \"#utility.yul\":4272:4390   */\n              pop\n              pop\n              jump\t// out\n                /* \"#utility.yul\":4396:4618   */\n            tag_24:\n                /* \"#utility.yul\":4489:4493   */\n              0x00\n                /* \"#utility.yul\":4527:4529   */\n              0x20\n                /* \"#utility.yul\":4516:4525   */\n              dup3\n                /* \"#utility.yul\":4512:4530   */\n              add\n                /* \"#utility.yul\":4504:4530   */\n              swap1\n              pop\n                /* \"#utility.yul\":4540:4611   */\n              tag_221\n                /* \"#utility.yul\":4608:4609   */\n              0x00\n                /* \"#utility.yul\":4597:4606   */\n              dup4\n                /* \"#utility.yul\":4593:4610   */\n              add\n                /* \"#utility.yul\":4584:4590   */\n              dup5\n                /* \"#utility.yul\":4540:4611   */\n              tag_151\n              jump\t// in\n            tag_221:\n                /* \"#utility.yul\":4396:4618   */\n              swap3\n              swap2\n              pop\n              pop\n              jump\t// out\n                /* \"#utility.yul\":4624:4720   */\n            tag_152:\n                /* \"#utility.yul\":4661:4668   */\n              0x00\n                /* \"#utility.yul\":4690:4714   */\n              tag_223\n                /* \"#utility.yul\":4708:4713   */\n              dup3\n                /* \"#utility.yul\":4690:4714   */\n              tag_147\n              jump\t// in\n            tag_223:\n                /* \"#utility.yul\":4679:4714   */\n              swap1\n              pop\n                /* \"#utility.yul\":4624:4720   */\n              swap2\n              swap1\n              pop\n              jump\t// out\n                /* \"#utility.yul\":4726:4848   */\n            tag_153:\n                /* \"#utility.yul\":4799:4823   */\n              tag_225\n                /* \"#utility.yul\":4817:4822   */\n              dup2\n                /* \"#utility.yul\":4799:4823   */\n              tag_152\n              jump\t// in\n            tag_225:\n                /* \"#utility.yul\":4792:4797   */\n              dup2\n                /* \"#utility.yul\":4789:4824   */\n              eq\n                /* \"#utility.yul\":4779:4842   */\n              tag_226\n              jumpi\n                /* \"#utility.yul\":4838:4839   */\n              0x00\n                /* \"#utility.yul\":4835:4836   */\n              dup1\n                /* \"#utility.yul\":4828:4840   */\n              revert\n                /* \"#utility.yul\":4779:4842   */\n            tag_226:\n                /* \"#utility.yul\":4726:4848   */\n              pop\n              jump\t// out\n                /* \"#utility.yul\":4854:4993   */\n            tag_154:\n                /* \"#utility.yul\":4900:4905   */\n              0x00\n                /* \"#utility.yul\":4938:4944   */\n              dup2\n                /* \"#utility.yul\":4925:4945   */\n              calldataload\n                /* \"#utility.yul\":4916:4945   */\n              swap1\n              pop\n                /* \"#utility.yul\":4954:4987   */\n              tag_228\n                /* \"#utility.yul\":4981:4986   */\n              dup2\n                /* \"#utility.yul\":4954:4987   */\n              tag_153\n              jump\t// in\n            tag_228:\n                /* \"#utility.yul\":4854:4993   */\n              swap3\n              swap2\n              pop\n              pop\n              jump\t// out\n                /* \"#utility.yul\":4999:5328   */\n            tag_36:\n                /* \"#utility.yul\":5058:5064   */\n              0x00\n                /* \"#utility.yul\":5107:5109   */\n              0x20\n                /* \"#utility.yul\":5095:5104   */\n              dup3\n                /* \"#utility.yul\":5086:5093   */\n              dup5\n                /* \"#utility.yul\":5082:5105   */\n              sub\n                /* \"#utility.yul\":5078:5110   */\n              slt\n                /* \"#utility.yul\":5075:5194   */\n              iszero\n              tag_230\n              jumpi\n                /* \"#utility.yul\":5113:5192   */\n              tag_231\n              tag_132\n              jump\t// in\n            tag_231:\n                /* \"#utility.yul\":5075:5194   */\n            tag_230:\n                /* \"#utility.yul\":5233:5234   */\n              0x00\n                /* \"#utility.yul\":5258:5311   */\n              tag_232\n                /* \"#utility.yul\":5303:5310   */\n              dup5\n                /* \"#utility.yul\":5294:5300   */\n              dup3\n                /* \"#utility.yul\":5283:5292   */\n              dup6\n                /* \"#utility.yul\":5279:5301   */\n              add\n                /* \"#utility.yul\":5258:5311   */\n              tag_154\n              jump\t// in\n            tag_232:\n                /* \"#utility.yul\":5248:5311   */\n              swap2\n              pop\n                /* \"#utility.yul\":5204:5321   */\n              pop\n                /* \"#utility.yul\":4999:5328   */\n              swap3\n              swap2\n              pop\n              pop\n              jump\t// out\n                /* \"#utility.yul\":5334:5433   */\n            tag_155:\n                /* \"#utility.yul\":5386:5392   */\n              0x00\n                /* \"#utility.yul\":5420:5425   */\n              dup2\n                /* \"#utility.yul\":5414:5426   */\n              mload\n                /* \"#utility.yul\":5404:5426   */\n              swap1\n              pop\n                /* \"#utility.yul\":5334:5433   */\n              swap2\n              swap1\n              pop\n              jump\t// out\n                /* \"#utility.yul\":5439:5608   */\n            tag_156:\n                /* \"#utility.yul\":5523:5534   */\n              0x00\n                /* \"#utility.yul\":5557:5563   */\n              dup3\n                /* \"#utility.yul\":5552:5555   */\n              dup3\n                /* \"#utility.yul\":5545:5564   */\n              mstore\n                /* \"#utility.yul\":5597:5601   */\n              0x20\n                /* \"#utility.yul\":5592:5595   */\n              dup3\n                /* \"#utility.yul\":5588:5602   */\n              add\n                /* \"#utility.yul\":5573:5602   */\n              swap1\n              pop\n                /* \"#utility.yul\":5439:5608   */\n              swap3\n              swap2\n              pop\n              pop\n              jump\t// out\n                /* \"#utility.yul\":5614:5921   */\n            tag_157:\n                /* \"#utility.yul\":5682:5683   */\n              0x00\n                /* \"#utility.yul\":5692:5805   */\n            tag_236:\n                /* \"#utility.yul\":5706:5712   */\n              dup4\n                /* \"#utility.yul\":5703:5704   */\n              dup2\n                /* \"#utility.yul\":5700:5713   */\n              lt\n                /* \"#utility.yul\":5692:5805   */\n              iszero\n              tag_238\n              jumpi\n                /* \"#utility.yul\":5791:5792   */\n              dup1\n                /* \"#utility.yul\":5786:5789   */\n              dup3\n                /* \"#utility.yul\":5782:5793   */\n              add\n                /* \"#utility.yul\":5776:5794   */\n              mload\n                /* \"#utility.yul\":5772:5773   */\n              dup2\n                /* \"#utility.yul\":5767:5770   */\n              dup5\n                /* \"#utility.yul\":5763:5774   */\n              add\n                /* \"#utility.yul\":5756:5795   */\n              mstore\n                /* \"#utility.yul\":5728:5730   */\n              0x20\n                /* \"#utility.yul\":5725:5726   */\n              dup2\n                /* \"#utility.yul\":5721:5731   */\n              add\n                /* \"#utility.yul\":5716:5731   */\n              swap1\n              pop\n                /* \"#utility.yul\":5692:5805   */\n              jump(tag_236)\n            tag_238:\n                /* \"#utility.yul\":5823:5829   */\n              dup4\n                /* \"#utility.yul\":5820:5821   */\n              dup2\n                /* \"#utility.yul\":5817:5830   */\n              gt\n                /* \"#utility.yul\":5814:5915   */\n              iszero\n              tag_239\n              jumpi\n                /* \"#utility.yul\":5903:5904   */\n              0x00\n                /* \"#utility.yul\":5894:5900   */\n              dup5\n                /* \"#utility.yul\":5889:5892   */\n              dup5\n                /* \"#utility.yul\":5885:5901   */\n              add\n                /* \"#utility.yul\":5878:5905   */\n              mstore\n                /* \"#utility.yul\":5814:5915   */\n            tag_239:\n                /* \"#utility.yul\":5663:5921   */\n              pop\n                /* \"#utility.yul\":5614:5921   */\n              pop\n              pop\n              pop\n              jump\t// out\n                /* \"#utility.yul\":5927:6291   */\n            tag_158:\n                /* \"#utility.yul\":6015:6018   */\n              0x00\n                /* \"#utility.yul\":6043:6082   */\n              tag_241\n                /* \"#utility.yul\":6076:6081   */\n              dup3\n                /* \"#utility.yul\":6043:6082   */\n              tag_155\n              jump\t// in\n            tag_241:\n                /* \"#utility.yul\":6098:6169   */\n              tag_242\n                /* \"#utility.yul\":6162:6168   */\n              dup2\n                /* \"#utility.yul\":6157:6160   */\n              dup6\n                /* \"#utility.yul\":6098:6169   */\n              tag_156\n              jump\t// in\n            tag_242:\n                /* \"#utility.yul\":6091:6169   */\n              swap4\n              pop\n                /* \"#utility.yul\":6178:6230   */\n              tag_243\n                /* \"#utility.yul\":6223:6229   */\n              dup2\n                /* \"#utility.yul\":6218:6221   */\n              dup6\n                /* \"#utility.yul\":6211:6215   */\n              0x20\n                /* \"#utility.yul\":6204:6209   */\n              dup7\n                /* \"#utility.yul\":6200:6216   */\n              add\n                /* \"#utility.yul\":6178:6230   */\n              tag_157\n              jump\t// in\n            tag_243:\n                /* \"#utility.yul\":6255:6284   */\n              tag_244\n                /* \"#utility.yul\":6277:6283   */\n              dup2\n                /* \"#utility.yul\":6255:6284   */\n              tag_136\n              jump\t// in\n            tag_244:\n                /* \"#utility.yul\":6250:6253   */\n              dup5\n                /* \"#utility.yul\":6246:6285   */\n              add\n                /* \"#utility.yul\":6239:6285   */\n              swap2\n              pop\n                /* \"#utility.yul\":6019:6291   */\n              pop\n                /* \"#utility.yul\":5927:6291   */\n              swap3\n              swap2\n              pop\n              pop\n              jump\t// out\n                /* \"#utility.yul\":6297:6610   */\n            tag_43:\n                /* \"#utility.yul\":6410:6414   */\n              0x00\n                /* \"#utility.yul\":6448:6450   */\n              0x20\n                /* \"#utility.yul\":6437:6446   */\n              dup3\n                /* \"#utility.yul\":6433:6451   */\n              add\n                /* \"#utility.yul\":6425:6451   */\n              swap1\n              pop\n                /* \"#utility.yul\":6497:6506   */\n              dup2\n                /* \"#utility.yul\":6491:6495   */\n              dup2\n                /* \"#utility.yul\":6487:6507   */\n              sub\n                /* \"#utility.yul\":6483:6484   */\n              0x00\n                /* \"#utility.yul\":6472:6481   */\n              dup4\n                /* \"#utility.yul\":6468:6485   */\n              add\n                /* \"#utility.yul\":6461:6508   */\n              mstore\n                /* \"#utility.yul\":6525:6603   */\n              tag_246\n                /* \"#utility.yul\":6598:6602   */\n              dup2\n                /* \"#utility.yul\":6589:6595   */\n              dup5\n                /* \"#utility.yul\":6525:6603   */\n              tag_158\n              jump\t// in\n            tag_246:\n                /* \"#utility.yul\":6517:6603   */\n              swap1\n              pop\n                /* \"#utility.yul\":6297:6610   */\n              swap3\n              swap2\n              pop\n              pop\n              jump\t// out\n                /* \"#utility.yul\":6616:6945   */\n            tag_47:\n                /* \"#utility.yul\":6675:6681   */\n              0x00\n                /* \"#utility.yul\":6724:6726   */\n              0x20\n                /* \"#utility.yul\":6712:6721   */\n              dup3\n                /* \"#utility.yul\":6703:6710   */\n              dup5\n                /* \"#utility.yul\":6699:6722   */\n              sub\n                /* \"#utility.yul\":6695:6727   */\n              slt\n                /* \"#utility.yul\":6692:6811   */\n              iszero\n              tag_248\n              jumpi\n                /* \"#utility.yul\":6730:6809   */\n              tag_249\n              tag_132\n              jump\t// in\n            tag_249:\n                /* \"#utility.yul\":6692:6811   */\n            tag_248:\n                /* \"#utility.yul\":6850:6851   */\n              0x00\n                /* \"#utility.yul\":6875:6928   */\n              tag_250\n                /* \"#utility.yul\":6920:6927   */\n              dup5\n                /* \"#utility.yul\":6911:6917   */\n              dup3\n                /* \"#utility.yul\":6900:6909   */\n              dup6\n                /* \"#utility.yul\":6896:6918   */\n              add\n                /* \"#utility.yul\":6875:6928   */\n              tag_146\n              jump\t// in\n            tag_250:\n                /* \"#utility.yul\":6865:6928   */\n              swap2\n              pop\n                /* \"#utility.yul\":6821:6938   */\n              pop\n                /* \"#utility.yul\":6616:6945   */\n              swap3\n              swap2\n              pop\n              pop\n              jump\t// out\n                /* \"#utility.yul\":6951:7093   */\n            tag_159:\n                /* \"#utility.yul\":7054:7086   */\n              tag_252\n                /* \"#utility.yul\":7080:7085   */\n              dup2\n                /* \"#utility.yul\":7054:7086   */\n              tag_148\n              jump\t// in\n            tag_252:\n                /* \"#utility.yul\":7049:7052   */\n              dup3\n                /* \"#utility.yul\":7042:7087   */\n              mstore\n                /* \"#utility.yul\":6951:7093   */\n              pop\n              pop\n              jump\t// out\n                /* \"#utility.yul\":7099:7189   */\n            tag_160:\n                /* \"#utility.yul\":7133:7140   */\n              0x00\n                /* \"#utility.yul\":7176:7181   */\n              dup2\n                /* \"#utility.yul\":7169:7182   */\n              iszero\n                /* \"#utility.yul\":7162:7183   */\n              iszero\n                /* \"#utility.yul\":7151:7183   */\n              swap1\n              pop\n                /* \"#utility.yul\":7099:7189   */\n              swap2\n              swap1\n              pop\n              jump\t// out\n                /* \"#utility.yul\":7195:7304   */\n            tag_161:\n                /* \"#utility.yul\":7276:7297   */\n              tag_255\n                /* \"#utility.yul\":7291:7296   */\n              dup2\n                /* \"#utility.yul\":7276:7297   */\n              tag_160\n              jump\t// in\n            tag_255:\n                /* \"#utility.yul\":7271:7274   */\n              dup3\n                /* \"#utility.yul\":7264:7298   */\n              mstore\n                /* \"#utility.yul\":7195:7304   */\n              pop\n              pop\n              jump\t// out\n                /* \"#utility.yul\":7310:8085   */\n            tag_50:\n                /* \"#utility.yul\":7545:7549   */\n              0x00\n                /* \"#utility.yul\":7583:7586   */\n              0xa0\n                /* \"#utility.yul\":7572:7581   */\n              dup3\n                /* \"#utility.yul\":7568:7587   */\n              add\n                /* \"#utility.yul\":7560:7587   */\n              swap1\n              pop\n                /* \"#utility.yul\":7633:7642   */\n              dup2\n                /* \"#utility.yul\":7627:7631   */\n              dup2\n                /* \"#utility.yul\":7623:7643   */\n              sub\n                /* \"#utility.yul\":7619:7620   */\n              0x00\n                /* \"#utility.yul\":7608:7617   */\n              dup4\n                /* \"#utility.yul\":7604:7621   */\n              add\n                /* \"#utility.yul\":7597:7644   */\n              mstore\n                /* \"#utility.yul\":7661:7739   */\n              tag_257\n                /* \"#utility.yul\":7734:7738   */\n              dup2\n                /* \"#utility.yul\":7725:7731   */\n              dup9\n                /* \"#utility.yul\":7661:7739   */\n              tag_158\n              jump\t// in\n            tag_257:\n                /* \"#utility.yul\":7653:7739   */\n              swap1\n              pop\n                /* \"#utility.yul\":7749:7821   */\n              tag_258\n                /* \"#utility.yul\":7817:7819   */\n              0x20\n                /* \"#utility.yul\":7806:7815   */\n              dup4\n                /* \"#utility.yul\":7802:7820   */\n              add\n                /* \"#utility.yul\":7793:7799   */\n              dup8\n                /* \"#utility.yul\":7749:7821   */\n              tag_151\n              jump\t// in\n            tag_258:\n                /* \"#utility.yul\":7831:7919   */\n              tag_259\n                /* \"#utility.yul\":7915:7917   */\n              0x40\n                /* \"#utility.yul\":7904:7913   */\n              dup4\n                /* \"#utility.yul\":7900:7918   */\n              add\n                /* \"#utility.yul\":7891:7897   */\n              dup7\n                /* \"#utility.yul\":7831:7919   */\n              tag_159\n              jump\t// in\n            tag_259:\n                /* \"#utility.yul\":7929:7995   */\n              tag_260\n                /* \"#utility.yul\":7991:7993   */\n              0x60\n                /* \"#utility.yul\":7980:7989   */\n              dup4\n                /* \"#utility.yul\":7976:7994   */\n              add\n                /* \"#utility.yul\":7967:7973   */\n              dup6\n                /* \"#utility.yul\":7929:7995   */\n              tag_161\n              jump\t// in\n            tag_260:\n                /* \"#utility.yul\":8005:8078   */\n              tag_261\n                /* \"#utility.yul\":8073:8076   */\n              0x80\n                /* \"#utility.yul\":8062:8071   */\n              dup4\n                /* \"#utility.yul\":8058:8077   */\n              add\n                /* \"#utility.yul\":8049:8055   */\n              dup5\n                /* \"#utility.yul\":8005:8078   */\n              tag_151\n              jump\t// in\n            tag_261:\n                /* \"#utility.yul\":7310:8085   */\n              swap7\n              swap6\n              pop\n              pop\n              pop\n              pop\n              pop\n              pop\n              jump\t// out\n                /* \"#utility.yul\":8091:8209   */\n            tag_162:\n                /* \"#utility.yul\":8178:8202   */\n              tag_263\n                /* \"#utility.yul\":8196:8201   */\n              dup2\n                /* \"#utility.yul\":8178:8202   */\n              tag_152\n              jump\t// in\n            tag_263:\n                /* \"#utility.yul\":8173:8176   */\n              dup3\n                /* \"#utility.yul\":8166:8203   */\n              mstore\n                /* \"#utility.yul\":8091:8209   */\n              pop\n              pop\n              jump\t// out\n                /* \"#utility.yul\":8215:8437   */\n            tag_55:\n                /* \"#utility.yul\":8308:8312   */\n              0x00\n                /* \"#utility.yul\":8346:8348   */\n              0x20\n                /* \"#utility.yul\":8335:8344   */\n              dup3\n                /* \"#utility.yul\":8331:8349   */\n              add\n                /* \"#utility.yul\":8323:8349   */\n              swap1\n              pop\n                /* \"#utility.yul\":8359:8430   */\n              tag_265\n                /* \"#utility.yul\":8427:8428   */\n              0x00\n                /* \"#utility.yul\":8416:8425   */\n              dup4\n                /* \"#utility.yul\":8412:8429   */\n              add\n                /* \"#utility.yul\":8403:8409   */\n              dup5\n                /* \"#utility.yul\":8359:8430   */\n              tag_162\n              jump\t// in\n            tag_265:\n                /* \"#utility.yul\":8215:8437   */\n              swap3\n              swap2\n              pop\n              pop\n              jump\t// out\n                /* \"#utility.yul\":8443:8623   */\n            tag_76:\n                /* \"#utility.yul\":8491:8568   */\n              0x4e487b7100000000000000000000000000000000000000000000000000000000\n                /* \"#utility.yul\":8488:8489   */\n              0x00\n                /* \"#utility.yul\":8481:8569   */\n              mstore\n                /* \"#utility.yul\":8588:8592   */\n              0x32\n                /* \"#utility.yul\":8585:8586   */\n              0x04\n                /* \"#utility.yul\":8578:8593   */\n              mstore\n                /* \"#utility.yul\":8612:8616   */\n              0x24\n                /* \"#utility.yul\":8609:8610   */\n              0x00\n                /* \"#utility.yul\":8602:8617   */\n              revert\n                /* \"#utility.yul\":8629:8809   */\n            tag_163:\n                /* \"#utility.yul\":8677:8754   */\n              0x4e487b7100000000000000000000000000000000000000000000000000000000\n                /* \"#utility.yul\":8674:8675   */\n              0x00\n                /* \"#utility.yul\":8667:8755   */\n              mstore\n                /* \"#utility.yul\":8774:8778   */\n              0x22\n                /* \"#utility.yul\":8771:8772   */\n              0x04\n                /* \"#utility.yul\":8764:8779   */\n              mstore\n                /* \"#utility.yul\":8798:8802   */\n              0x24\n                /* \"#utility.yul\":8795:8796   */\n              0x00\n                /* \"#utility.yul\":8788:8803   */\n              revert\n                /* \"#utility.yul\":8815:9135   */\n            tag_81:\n                /* \"#utility.yul\":8859:8865   */\n              0x00\n                /* \"#utility.yul\":8896:8897   */\n              0x02\n                /* \"#utility.yul\":8890:8894   */\n              dup3\n                /* \"#utility.yul\":8886:8898   */\n              div\n                /* \"#utility.yul\":8876:8898   */\n              swap1\n              pop\n                /* \"#utility.yul\":8943:8944   */\n              0x01\n                /* \"#utility.yul\":8937:8941   */\n              dup3\n                /* \"#utility.yul\":8933:8945   */\n              and\n                /* \"#utility.yul\":8964:8982   */\n              dup1\n                /* \"#utility.yul\":8954:9035   */\n              tag_269\n              jumpi\n                /* \"#utility.yul\":9020:9024   */\n              0x7f\n                /* \"#utility.yul\":9012:9018   */\n              dup3\n                /* \"#utility.yul\":9008:9025   */\n              and\n                /* \"#utility.yul\":8998:9025   */\n              swap2\n              pop\n                /* \"#utility.yul\":8954:9035   */\n            tag_269:\n                /* \"#utility.yul\":9082:9084   */\n              0x20\n                /* \"#utility.yul\":9074:9080   */\n              dup3\n                /* \"#utility.yul\":9071:9085   */\n              lt\n                /* \"#utility.yul\":9051:9069   */\n              dup2\n                /* \"#utility.yul\":9048:9086   */\n              sub\n                /* \"#utility.yul\":9045:9129   */\n              tag_270\n              jumpi\n                /* \"#utility.yul\":9101:9119   */\n              tag_271\n              tag_163\n              jump\t// in\n            tag_271:\n                /* \"#utility.yul\":9045:9129   */\n            tag_270:\n                /* \"#utility.yul\":8866:9135   */\n              pop\n                /* \"#utility.yul\":8815:9135   */\n              swap2\n              swap1\n              pop\n              jump\t// out\n                /* \"#utility.yul\":9141:9321   */\n            tag_164:\n                /* \"#utility.yul\":9189:9266   */\n              0x4e487b7100000000000000000000000000000000000000000000000000000000\n                /* \"#utility.yul\":9186:9187   */\n              0x00\n                /* \"#utility.yul\":9179:9267   */\n              mstore\n                /* \"#utility.yul\":9286:9290   */\n              0x12\n                /* \"#utility.yul\":9283:9284   */\n              0x04\n                /* \"#utility.yul\":9276:9291   */\n              mstore\n                /* \"#utility.yul\":9310:9314   */\n              0x24\n                /* \"#utility.yul\":9307:9308   */\n              0x00\n                /* \"#utility.yul\":9300:9315   */\n              revert\n                /* \"#utility.yul\":9327:9507   */\n            tag_165:\n                /* \"#utility.yul\":9375:9452   */\n              0x4e487b7100000000000000000000000000000000000000000000000000000000\n                /* \"#utility.yul\":9372:9373   */\n              0x00\n                /* \"#utility.yul\":9365:9453   */\n              mstore\n                /* \"#utility.yul\":9472:9476   */\n              0x11\n                /* \"#utility.yul\":9469:9470   */\n              0x04\n                /* \"#utility.yul\":9462:9477   */\n              mstore\n                /* \"#utility.yul\":9496:9500   */\n              0x24\n                /* \"#utility.yul\":9493:9494   */\n              0x00\n                /* \"#utility.yul\":9486:9501   */\n              revert\n                /* \"#utility.yul\":9513:9698   */\n            tag_103:\n                /* \"#utility.yul\":9553:9554   */\n              0x00\n                /* \"#utility.yul\":9570:9590   */\n              tag_275\n                /* \"#utility.yul\":9588:9589   */\n              dup3\n                /* \"#utility.yul\":9570:9590   */\n              tag_144\n              jump\t// in\n            tag_275:\n                /* \"#utility.yul\":9565:9590   */\n              swap2\n              pop\n                /* \"#utility.yul\":9604:9624   */\n              tag_276\n                /* \"#utility.yul\":9622:9623   */\n              dup4\n                /* \"#utility.yul\":9604:9624   */\n              tag_144\n              jump\t// in\n            tag_276:\n                /* \"#utility.yul\":9599:9624   */\n              swap3\n              pop\n                /* \"#utility.yul\":9643:9644   */\n              dup3\n                /* \"#utility.yul\":9633:9668   */\n              tag_277\n              jumpi\n                /* \"#utility.yul\":9648:9666   */\n              tag_278\n              tag_164\n              jump\t// in\n            tag_278:\n                /* \"#utility.yul\":9633:9668   */\n            tag_277:\n                /* \"#utility.yul\":9690:9691   */\n              dup3\n                /* \"#utility.yul\":9687:9688   */\n              dup3\n                /* \"#utility.yul\":9683:9692   */\n              div\n                /* \"#utility.yul\":9678:9692   */\n              swap1\n              pop\n                /* \"#utility.yul\":9513:9698   */\n              swap3\n              swap2\n              pop\n              pop\n              jump\t// out\n                /* \"#utility.yul\":9704:10009   */\n            tag_111:\n                /* \"#utility.yul\":9744:9747   */\n              0x00\n                /* \"#utility.yul\":9763:9783   */\n              tag_280\n                /* \"#utility.yul\":9781:9782   */\n              dup3\n                /* \"#utility.yul\":9763:9783   */\n              tag_144\n              jump\t// in\n            tag_280:\n                /* \"#utility.yul\":9758:9783   */\n              swap2\n              pop\n                /* \"#utility.yul\":9797:9817   */\n              tag_281\n                /* \"#utility.yul\":9815:9816   */\n              dup4\n                /* \"#utility.yul\":9797:9817   */\n              tag_144\n              jump\t// in\n            tag_281:\n                /* \"#utility.yul\":9792:9817   */\n              swap3\n              pop\n                /* \"#utility.yul\":9951:9952   */\n              dup3\n                /* \"#utility.yul\":9883:9949   */\n              0xffffffffffffffffffffffffffffffffffffffffffffffffffffffffffffffff\n                /* \"#utility.yul\":9879:9953   */\n              sub\n                /* \"#utility.yul\":9876:9877   */\n              dup3\n                /* \"#utility.yul\":9873:9954   */\n              gt\n                /* \"#utility.yul\":9870:9977   */\n              iszero\n              tag_282\n              jumpi\n                /* \"#utility.yul\":9957:9975   */\n              tag_283\n              tag_165\n              jump\t// in\n            tag_283:\n                /* \"#utility.yul\":9870:9977   */\n            tag_282:\n                /* \"#utility.yul\":10001:10002   */\n              dup3\n                /* \"#utility.yul\":9998:9999   */\n              dup3\n                /* \"#utility.yul\":9994:10003   */\n              add\n                /* \"#utility.yul\":9987:10003   */\n              swap1\n              pop\n                /* \"#utility.yul\":9704:10009   */\n              swap3\n              swap2\n              pop\n              pop\n              jump\t// out\n\n            auxdata: 0xa264697066735822122028c0b09481c8ad0bd04d0eebd7c9b679bb639b281b05ab1ed01b1aaa8cb63ede64736f6c634300080d0033\n        }\n    }\n\n    auxdata: 0xa26469706673582212200cbe0977887b9968f0ac85e5473c08201dceaa0bc06160af681afe9ba2a0618f64736f6c634300080d0033\n}\n","bytecode":{"linkReferences":{},"object":"608060405234801561001057600080fd5b50611d14806100206000396000f3fe60806040523480156200001157600080fd5b50600436106200005e5760003560e01c8063107046bd146200006357806324d2b0c614620000995780635b7ce55a14620000bb578063610a6a2a14620000dd578063dcc6012814620000fd575b600080fd5b6200008160048036038101906200007b91906200038c565b6200011f565b60405162000090919062000403565b60405180910390f35b620000a36200015f565b604051620000b2919062000403565b60405180910390f35b620000c562000185565b604051620000d4919062000403565b60405180910390f35b620000fb6004803603810190620000f5919062000582565b620001af565b005b620001076200029f565b604051620001169190620006e1565b60405180910390f35b600081815481106200013057600080fd5b906000526020600020016000915054906101000a900473ffffffffffffffffffffffffffffffffffffffff1681565b600160009054906101000a900473ffffffffffffffffffffffffffffffffffffffff1681565b6000600160009054906101000a900473ffffffffffffffffffffffffffffffffffffffff16905090565b60008484848433604051620001c4906200032f565b620001d4959493929190620007a9565b604051809103906000f080158015620001f1573d6000803e3d6000fd5b5090506000819080600181540180825580915050600190039060005260206000200160009091909190916101000a81548173ffffffffffffffffffffffffffffffffffffffff021916908373ffffffffffffffffffffffffffffffffffffffff16021790555080600160006101000a81548173ffffffffffffffffffffffffffffffffffffffff021916908373ffffffffffffffffffffffffffffffffffffffff1602179055505050505050565b606060008054806020026020016040519081016040528092919081815260200182805480156200032557602002820191906000526020600020905b8160009054906101000a900473ffffffffffffffffffffffffffffffffffffffff1673ffffffffffffffffffffffffffffffffffffffff1681526020019060010190808311620002da575b5050505050905090565b6114d1806200080e83390190565b6000604051905090565b600080fd5b600080fd5b6000819050919050565b620003668162000351565b81146200037257600080fd5b50565b60008135905062000386816200035b565b92915050565b600060208284031215620003a557620003a462000347565b5b6000620003b58482850162000375565b91505092915050565b600073ffffffffffffffffffffffffffffffffffffffff82169050919050565b6000620003eb82620003be565b9050919050565b620003fd81620003de565b82525050565b60006020820190506200041a6000830184620003f2565b92915050565b600080fd5b600080fd5b6000601f19601f8301169050919050565b7f4e487b7100000000000000000000000000000000000000000000000000000000600052604160045260246000fd5b62000475826200042a565b810181811067ffffffffffffffff821117156200049757620004966200043b565b5b80604052505050565b6000620004ac6200033d565b9050620004ba82826200046a565b919050565b600067ffffffffffffffff821115620004dd57620004dc6200043b565b5b620004e8826200042a565b9050602081019050919050565b82818337600083830152505050565b60006200051b6200051584620004bf565b620004a0565b9050828152602081018484840111156200053a576200053962000425565b5b62000547848285620004f5565b509392505050565b600082601f83011262000567576200056662000420565b5b81356200057984826020860162000504565b91505092915050565b600080600080608085870312156200059f576200059e62000347565b5b600085013567ffffffffffffffff811115620005c057620005bf6200034c565b5b620005ce878288016200054f565b9450506020620005e18782880162000375565b9350506040620005f48782880162000375565b9250506060620006078782880162000375565b91505092959194509250565b600081519050919050565b600082825260208201905092915050565b6000819050602082019050919050565b6200064a81620003de565b82525050565b60006200065e83836200063f565b60208301905092915050565b6000602082019050919050565b6000620006848262000613565b6200069081856200061e565b93506200069d836200062f565b8060005b83811015620006d4578151620006b8888262000650565b9750620006c5836200066a565b925050600181019050620006a1565b5085935050505092915050565b60006020820190508181036000830152620006fd818462000677565b905092915050565b600081519050919050565b600082825260208201905092915050565b60005b838110156200074157808201518184015260208101905062000724565b8381111562000751576000848401525b50505050565b6000620007648262000705565b62000770818562000710565b93506200078281856020860162000721565b6200078d816200042a565b840191505092915050565b620007a38162000351565b82525050565b600060a0820190508181036000830152620007c5818862000757565b9050620007d6602083018762000798565b620007e5604083018662000798565b620007f4606083018562000798565b620008036080830184620003f2565b969550505050505056fe60806040523480156200001157600080fd5b50604051620014d1380380620014d183398181016040528101906200003791906200039d565b806000806101000a81548173ffffffffffffffffffffffffffffffffffffffff021916908373ffffffffffffffffffffffffffffffffffffffff16021790555084600190805190602001906200008f929190620000b0565b508360028190555082600381905550816004819055505050505050620004a8565b828054620000be9062000473565b90600052602060002090601f016020900481019282620000e257600085556200012e565b82601f10620000fd57805160ff19168380011785556200012e565b828001600101855582156200012e579182015b828111156200012d57825182559160200191906001019062000110565b5b5090506200013d919062000141565b5090565b5b808211156200015c57600081600090555060010162000142565b5090565b6000604051905090565b600080fd5b600080fd5b600080fd5b600080fd5b6000601f19601f8301169050919050565b7f4e487b7100000000000000000000000000000000000000000000000000000000600052604160045260246000fd5b620001c9826200017e565b810181811067ffffffffffffffff82111715620001eb57620001ea6200018f565b5b80604052505050565b60006200020062000160565b90506200020e8282620001be565b919050565b600067ffffffffffffffff8211156200023157620002306200018f565b5b6200023c826200017e565b9050602081019050919050565b60005b83811015620002695780820151818401526020810190506200024c565b8381111562000279576000848401525b50505050565b600062000296620002908462000213565b620001f4565b905082815260208101848484011115620002b557620002b462000179565b5b620002c284828562000249565b509392505050565b600082601f830112620002e257620002e162000174565b5b8151620002f48482602086016200027f565b91505092915050565b6000819050919050565b6200031281620002fd565b81146200031e57600080fd5b50565b600081519050620003328162000307565b92915050565b600073ffffffffffffffffffffffffffffffffffffffff82169050919050565b6000620003658262000338565b9050919050565b620003778162000358565b81146200038357600080fd5b50565b60008151905062000397816200036c565b92915050565b600080600080600060a08688031215620003bc57620003bb6200016a565b5b600086015167ffffffffffffffff811115620003dd57620003dc6200016f565b5b620003eb88828901620002ca565b9550506020620003fe8882890162000321565b9450506040620004118882890162000321565b9350506060620004248882890162000321565b9250506080620004378882890162000386565b9150509295509295909350565b7f4e487b7100000000000000000000000000000000000000000000000000000000600052602260045260246000fd5b600060028204905060018216806200048c57607f821691505b602082108103620004a257620004a162000444565b5b50919050565b61101980620004b86000396000f3fe6080604052600436106100a75760003560e01c806387d817891161006457806387d81789146101be5780638da5cb5b146101ff578063d2b8b8671461022a578063d7bb99ba14610253578063d7e64c001461025d578063de14c81814610288576100a7565b806303120d46146100ac5780633110235a146100d5578063401938831461010057806363fd9e381461012b5780636f7bc9be146101565780637284e41614610193575b600080fd5b3480156100b857600080fd5b506100d360048036038101906100ce9190610be6565b6102b1565b005b3480156100e157600080fd5b506100ea6103ea565b6040516100f79190610c64565b60405180910390f35b34801561010c57600080fd5b506101156103f0565b6040516101229190610c64565b60405180910390f35b34801561013757600080fd5b506101406103f6565b60405161014d9190610c64565b60405180910390f35b34801561016257600080fd5b5061017d60048036038101906101789190610cbd565b6103fc565b60405161018a9190610c64565b60405180910390f35b34801561019f57600080fd5b506101a8610414565b6040516101b59190610d72565b60405180910390f35b3480156101ca57600080fd5b506101e560048036038101906101e09190610d94565b6104a2565b6040516101f6959493929190610deb565b60405180910390f35b34801561020b57600080fd5b5061021461059d565b6040516102219190610e54565b60405180910390f35b34801561023657600080fd5b50610251600480360381019061024c9190610d94565b6105c1565b005b61025b610772565b005b34801561026957600080fd5b5061027261080a565b60405161027f9190610c64565b60405180910390f35b34801561029457600080fd5b506102af60048036038101906102aa9190610d94565b610810565b005b60008054906101000a900473ffffffffffffffffffffffffffffffffffffffff1673ffffffffffffffffffffffffffffffffffffffff163373ffffffffffffffffffffffffffffffffffffffff161461030957600080fd5b6000600780549050905060076001816001815401808255809150500390600052602060002090505060006007828154811061034757610346610e6f565b5b906000526020600020906005020190508481600001908051906020019061036f929190610955565b50838160010181905550828160020160006101000a81548173ffffffffffffffffffffffffffffffffffffffff021916908373ffffffffffffffffffffffffffffffffffffffff16021790555060008160020160146101000a81548160ff021916908315150217905550600081600401819055505050505050565b60035481565b60045481565b60025481565b60066020528060005260406000206000915090505481565b6001805461042190610ecd565b80601f016020809104026020016040519081016040528092919081815260200182805461044d90610ecd565b801561049a5780601f1061046f5761010080835404028352916020019161049a565b820191906000526020600020905b81548152906001019060200180831161047d57829003601f168201915b505050505081565b600781815481106104b257600080fd5b90600052602060002090600502016000915090508060000180546104d590610ecd565b80601f016020809104026020016040519081016040528092919081815260200182805461050190610ecd565b801561054e5780601f106105235761010080835404028352916020019161054e565b820191906000526020600020905b81548152906001019060200180831161053157829003601f168201915b5050505050908060010154908060020160009054906101000a900473ffffffffffffffffffffffffffffffffffffffff16908060020160149054906101000a900460ff16908060040154905085565b60008054906101000a900473ffffffffffffffffffffffffffffffffffffffff1681565b60008054906101000a900473ffffffffffffffffffffffffffffffffffffffff1673ffffffffffffffffffffffffffffffffffffffff163373ffffffffffffffffffffffffffffffffffffffff161461061957600080fd5b60008054906101000a900473ffffffffffffffffffffffffffffffffffffffff1673ffffffffffffffffffffffffffffffffffffffff163373ffffffffffffffffffffffffffffffffffffffff161461067157600080fd5b60006007828154811061068757610686610e6f565b5b906000526020600020906005020190508060020160149054906101000a900460ff16156106b357600080fd5b80600101544710156106c457600080fd5b60026005546106d39190610f5c565b8160040154116106e257600080fd5b8060020160009054906101000a900473ffffffffffffffffffffffffffffffffffffffff1673ffffffffffffffffffffffffffffffffffffffff166108fc82600101549081150290604051600060405180830381858888f19350505050158015610750573d6000803e3d6000fd5b5060018160020160146101000a81548160ff0219169083151502179055505050565b60025434101561078157600080fd5b60035434111561079057600080fd5b600454344761079f9190610f8d565b11156107aa57600080fd5b34600660003373ffffffffffffffffffffffffffffffffffffffff1673ffffffffffffffffffffffffffffffffffffffff168152602001908152602001600020819055506001600560008282546108019190610f8d565b92505081905550565b60055481565b60006007828154811061082657610825610e6f565b5b906000526020600020906005020190506000600660003373ffffffffffffffffffffffffffffffffffffffff1673ffffffffffffffffffffffffffffffffffffffff168152602001908152602001600020541161088257600080fd5b8060030160003373ffffffffffffffffffffffffffffffffffffffff1673ffffffffffffffffffffffffffffffffffffffff16815260200190815260200160002060009054906101000a900460ff16156108db57600080fd5b60018160030160003373ffffffffffffffffffffffffffffffffffffffff1673ffffffffffffffffffffffffffffffffffffffff16815260200190815260200160002060006101000a81548160ff021916908315150217905550600181600401600082825461094a9190610f8d565b925050819055505050565b82805461096190610ecd565b90600052602060002090601f01602090048101928261098357600085556109ca565b82601f1061099c57805160ff19168380011785556109ca565b828001600101855582156109ca579182015b828111156109c95782518255916020019190600101906109ae565b5b5090506109d791906109db565b5090565b5b808211156109f45760008160009055506001016109dc565b5090565b6000604051905090565b600080fd5b600080fd5b600080fd5b600080fd5b6000601f19601f8301169050919050565b7f4e487b7100000000000000000000000000000000000000000000000000000000600052604160045260246000fd5b610a5f82610a16565b810181811067ffffffffffffffff82111715610a7e57610a7d610a27565b5b80604052505050565b6000610a916109f8565b9050610a9d8282610a56565b919050565b600067ffffffffffffffff821115610abd57610abc610a27565b5b610ac682610a16565b9050602081019050919050565b82818337600083830152505050565b6000610af5610af084610aa2565b610a87565b905082815260208101848484011115610b1157610b10610a11565b5b610b1c848285610ad3565b509392505050565b600082601f830112610b3957610b38610a0c565b5b8135610b49848260208601610ae2565b91505092915050565b6000819050919050565b610b6581610b52565b8114610b7057600080fd5b50565b600081359050610b8281610b5c565b92915050565b600073ffffffffffffffffffffffffffffffffffffffff82169050919050565b6000610bb382610b88565b9050919050565b610bc381610ba8565b8114610bce57600080fd5b50565b600081359050610be081610bba565b92915050565b600080600060608486031215610bff57610bfe610a02565b5b600084013567ffffffffffffffff811115610c1d57610c1c610a07565b5b610c2986828701610b24565b9350506020610c3a86828701610b73565b9250506040610c4b86828701610bd1565b9150509250925092565b610c5e81610b52565b82525050565b6000602082019050610c796000830184610c55565b92915050565b6000610c8a82610b88565b9050919050565b610c9a81610c7f565b8114610ca557600080fd5b50565b600081359050610cb781610c91565b92915050565b600060208284031215610cd357610cd2610a02565b5b6000610ce184828501610ca8565b91505092915050565b600081519050919050565b600082825260208201905092915050565b60005b83811015610d24578082015181840152602081019050610d09565b83811115610d33576000848401525b50505050565b6000610d4482610cea565b610d4e8185610cf5565b9350610d5e818560208601610d06565b610d6781610a16565b840191505092915050565b60006020820190508181036000830152610d8c8184610d39565b905092915050565b600060208284031215610daa57610da9610a02565b5b6000610db884828501610b73565b91505092915050565b610dca81610ba8565b82525050565b60008115159050919050565b610de581610dd0565b82525050565b600060a0820190508181036000830152610e058188610d39565b9050610e146020830187610c55565b610e216040830186610dc1565b610e2e6060830185610ddc565b610e3b6080830184610c55565b9695505050505050565b610e4e81610c7f565b82525050565b6000602082019050610e696000830184610e45565b92915050565b7f4e487b7100000000000000000000000000000000000000000000000000000000600052603260045260246000fd5b7f4e487b7100000000000000000000000000000000000000000000000000000000600052602260045260246000fd5b60006002820490506001821680610ee557607f821691505b602082108103610ef857610ef7610e9e565b5b50919050565b7f4e487b7100000000000000000000000000000000000000000000000000000000600052601260045260246000fd5b7f4e487b7100000000000000000000000000000000000000000000000000000000600052601160045260246000fd5b6000610f6782610b52565b9150610f7283610b52565b925082610f8257610f81610efe565b5b828204905092915050565b6000610f9882610b52565b9150610fa383610b52565b9250827fffffffffffffffffffffffffffffffffffffffffffffffffffffffffffffffff03821115610fd857610fd7610f2d565b5b82820190509291505056fea264697066735822122028c0b09481c8ad0bd04d0eebd7c9b679bb639b281b05ab1ed01b1aaa8cb63ede64736f6c634300080d0033a26469706673582212200cbe0977887b9968f0ac85e5473c08201dceaa0bc06160af681afe9ba2a0618f64736f6c634300080d0033","opcodes":"PUSH1 0x80 PUSH1 0x40 MSTORE CALLVALUE DUP1 ISZERO PUSH2 0x10 JUMPI PUSH1 0x0 DUP1 REVERT JUMPDEST POP PUSH2 0x1D14 DUP1 PUSH2 0x20 PUSH1 0x0 CODECOPY PUSH1 0x0 RETURN INVALID PUSH1 0x80 PUSH1 0x40 MSTORE CALLVALUE DUP1 ISZERO PUSH3 0x11 JUMPI PUSH1 0x0 DUP1 REVERT JUMPDEST POP PUSH1 0x4 CALLDATASIZE LT PUSH3 0x5E JUMPI PUSH1 0x0 CALLDATALOAD PUSH1 0xE0 SHR DUP1 PUSH4 0x107046BD EQ PUSH3 0x63 JUMPI DUP1 PUSH4 0x24D2B0C6 EQ PUSH3 0x99 JUMPI DUP1 PUSH4 0x5B7CE55A EQ PUSH3 0xBB JUMPI DUP1 PUSH4 0x610A6A2A EQ PUSH3 0xDD JUMPI DUP1 PUSH4 0xDCC60128 EQ PUSH3 0xFD JUMPI JUMPDEST PUSH1 0x0 DUP1 REVERT JUMPDEST PUSH3 0x81 PUSH1 0x4 DUP1 CALLDATASIZE SUB DUP2 ADD SWAP1 PUSH3 0x7B SWAP2 SWAP1 PUSH3 0x38C JUMP JUMPDEST PUSH3 0x11F JUMP JUMPDEST PUSH1 0x40 MLOAD PUSH3 0x90 SWAP2 SWAP1 PUSH3 0x403 JUMP JUMPDEST PUSH1 0x40 MLOAD DUP1 SWAP2 SUB SWAP1 RETURN JUMPDEST PUSH3 0xA3 PUSH3 0x15F JUMP JUMPDEST PUSH1 0x40 MLOAD PUSH3 0xB2 SWAP2 SWAP1 PUSH3 0x403 JUMP JUMPDEST PUSH1 0x40 MLOAD DUP1 SWAP2 SUB SWAP1 RETURN JUMPDEST PUSH3 0xC5 PUSH3 0x185 JUMP JUMPDEST PUSH1 0x40 MLOAD PUSH3 0xD4 SWAP2 SWAP1 PUSH3 0x403 JUMP JUMPDEST PUSH1 0x40 MLOAD DUP1 SWAP2 SUB SWAP1 RETURN JUMPDEST PUSH3 0xFB PUSH1 0x4 DUP1 CALLDATASIZE SUB DUP2 ADD SWAP1 PUSH3 0xF5 SWAP2 SWAP1 PUSH3 0x582 JUMP JUMPDEST PUSH3 0x1AF JUMP JUMPDEST STOP JUMPDEST PUSH3 0x107 PUSH3 0x29F JUMP JUMPDEST PUSH1 0x40 MLOAD PUSH3 0x116 SWAP2 SWAP1 PUSH3 0x6E1 JUMP JUMPDEST PUSH1 0x40 MLOAD DUP1 SWAP2 SUB SWAP1 RETURN JUMPDEST PUSH1 0x0 DUP2 DUP2 SLOAD DUP2 LT PUSH3 0x130 JUMPI PUSH1 0x0 DUP1 REVERT JUMPDEST SWAP1 PUSH1 0x0 MSTORE PUSH1 0x20 PUSH1 0x0 KECCAK256 ADD PUSH1 0x0 SWAP2 POP SLOAD SWAP1 PUSH2 0x100 EXP SWAP1 DIV PUSH20 0xFFFFFFFFFFFFFFFFFFFFFFFFFFFFFFFFFFFFFFFF AND DUP2 JUMP JUMPDEST PUSH1 0x1 PUSH1 0x0 SWAP1 SLOAD SWAP1 PUSH2 0x100 EXP SWAP1 DIV PUSH20 0xFFFFFFFFFFFFFFFFFFFFFFFFFFFFFFFFFFFFFFFF AND DUP2 JUMP JUMPDEST PUSH1 0x0 PUSH1 0x1 PUSH1 0x0 SWAP1 SLOAD SWAP1 PUSH2 0x100 EXP SWAP1 DIV PUSH20 0xFFFFFFFFFFFFFFFFFFFFFFFFFFFFFFFFFFFFFFFF AND SWAP1 POP SWAP1 JUMP JUMPDEST PUSH1 0x0 DUP5 DUP5 DUP5 DUP5 CALLER PUSH1 0x40 MLOAD PUSH3 0x1C4 SWAP1 PUSH3 0x32F JUMP JUMPDEST PUSH3 0x1D4 SWAP6 SWAP5 SWAP4 SWAP3 SWAP2 SWAP1 PUSH3 0x7A9 JUMP JUMPDEST PUSH1 0x40 MLOAD DUP1 SWAP2 SUB SWAP1 PUSH1 0x0 CREATE DUP1 ISZERO DUP1 ISZERO PUSH3 0x1F1 JUMPI RETURNDATASIZE PUSH1 0x0 DUP1 RETURNDATACOPY RETURNDATASIZE PUSH1 0x0 REVERT JUMPDEST POP SWAP1 POP PUSH1 0x0 DUP2 SWAP1 DUP1 PUSH1 0x1 DUP2 SLOAD ADD DUP1 DUP3 SSTORE DUP1 SWAP2 POP POP PUSH1 0x1 SWAP1 SUB SWAP1 PUSH1 0x0 MSTORE PUSH1 0x20 PUSH1 0x0 KECCAK256 ADD PUSH1 0x0 SWAP1 SWAP2 SWAP1 SWAP2 SWAP1 SWAP2 PUSH2 0x100 EXP DUP2 SLOAD DUP2 PUSH20 0xFFFFFFFFFFFFFFFFFFFFFFFFFFFFFFFFFFFFFFFF MUL NOT AND SWAP1 DUP4 PUSH20 0xFFFFFFFFFFFFFFFFFFFFFFFFFFFFFFFFFFFFFFFF AND MUL OR SWAP1 SSTORE POP DUP1 PUSH1 0x1 PUSH1 0x0 PUSH2 0x100 EXP DUP2 SLOAD DUP2 PUSH20 0xFFFFFFFFFFFFFFFFFFFFFFFFFFFFFFFFFFFFFFFF MUL NOT AND SWAP1 DUP4 PUSH20 0xFFFFFFFFFFFFFFFFFFFFFFFFFFFFFFFFFFFFFFFF AND MUL OR SWAP1 SSTORE POP POP POP POP POP POP JUMP JUMPDEST PUSH1 0x60 PUSH1 0x0 DUP1 SLOAD DUP1 PUSH1 0x20 MUL PUSH1 0x20 ADD PUSH1 0x40 MLOAD SWAP1 DUP2 ADD PUSH1 0x40 MSTORE DUP1 SWAP3 SWAP2 SWAP1 DUP2 DUP2 MSTORE PUSH1 0x20 ADD DUP3 DUP1 SLOAD DUP1 ISZERO PUSH3 0x325 JUMPI PUSH1 0x20 MUL DUP3 ADD SWAP2 SWAP1 PUSH1 0x0 MSTORE PUSH1 0x20 PUSH1 0x0 KECCAK256 SWAP1 JUMPDEST DUP2 PUSH1 0x0 SWAP1 SLOAD SWAP1 PUSH2 0x100 EXP SWAP1 DIV PUSH20 0xFFFFFFFFFFFFFFFFFFFFFFFFFFFFFFFFFFFFFFFF AND PUSH20 0xFFFFFFFFFFFFFFFFFFFFFFFFFFFFFFFFFFFFFFFF AND DUP2 MSTORE PUSH1 0x20 ADD SWAP1 PUSH1 0x1 ADD SWAP1 DUP1 DUP4 GT PUSH3 0x2DA JUMPI JUMPDEST POP POP POP POP POP SWAP1 POP SWAP1 JUMP JUMPDEST PUSH2 0x14D1 DUP1 PUSH3 0x80E DUP4 CODECOPY ADD SWAP1 JUMP JUMPDEST PUSH1 0x0 PUSH1 0x40 MLOAD SWAP1 POP SWAP1 JUMP JUMPDEST PUSH1 0x0 DUP1 REVERT JUMPDEST PUSH1 0x0 DUP1 REVERT JUMPDEST PUSH1 0x0 DUP2 SWAP1 POP SWAP2 SWAP1 POP JUMP JUMPDEST PUSH3 0x366 DUP2 PUSH3 0x351 JUMP JUMPDEST DUP2 EQ PUSH3 0x372 JUMPI PUSH1 0x0 DUP1 REVERT JUMPDEST POP JUMP JUMPDEST PUSH1 0x0 DUP2 CALLDATALOAD SWAP1 POP PUSH3 0x386 DUP2 PUSH3 0x35B JUMP JUMPDEST SWAP3 SWAP2 POP POP JUMP JUMPDEST PUSH1 0x0 PUSH1 0x20 DUP3 DUP5 SUB SLT ISZERO PUSH3 0x3A5 JUMPI PUSH3 0x3A4 PUSH3 0x347 JUMP JUMPDEST JUMPDEST PUSH1 0x0 PUSH3 0x3B5 DUP5 DUP3 DUP6 ADD PUSH3 0x375 JUMP JUMPDEST SWAP2 POP POP SWAP3 SWAP2 POP POP JUMP JUMPDEST PUSH1 0x0 PUSH20 0xFFFFFFFFFFFFFFFFFFFFFFFFFFFFFFFFFFFFFFFF DUP3 AND SWAP1 POP SWAP2 SWAP1 POP JUMP JUMPDEST PUSH1 0x0 PUSH3 0x3EB DUP3 PUSH3 0x3BE JUMP JUMPDEST SWAP1 POP SWAP2 SWAP1 POP JUMP JUMPDEST PUSH3 0x3FD DUP2 PUSH3 0x3DE JUMP JUMPDEST DUP3 MSTORE POP POP JUMP JUMPDEST PUSH1 0x0 PUSH1 0x20 DUP3 ADD SWAP1 POP PUSH3 0x41A PUSH1 0x0 DUP4 ADD DUP5 PUSH3 0x3F2 JUMP JUMPDEST SWAP3 SWAP2 POP POP JUMP JUMPDEST PUSH1 0x0 DUP1 REVERT JUMPDEST PUSH1 0x0 DUP1 REVERT JUMPDEST PUSH1 0x0 PUSH1 0x1F NOT PUSH1 0x1F DUP4 ADD AND SWAP1 POP SWAP2 SWAP1 POP JUMP JUMPDEST PUSH32 0x4E487B7100000000000000000000000000000000000000000000000000000000 PUSH1 0x0 MSTORE PUSH1 0x41 PUSH1 0x4 MSTORE PUSH1 0x24 PUSH1 0x0 REVERT JUMPDEST PUSH3 0x475 DUP3 PUSH3 0x42A JUMP JUMPDEST DUP2 ADD DUP2 DUP2 LT PUSH8 0xFFFFFFFFFFFFFFFF DUP3 GT OR ISZERO PUSH3 0x497 JUMPI PUSH3 0x496 PUSH3 0x43B JUMP JUMPDEST JUMPDEST DUP1 PUSH1 0x40 MSTORE POP POP POP JUMP JUMPDEST PUSH1 0x0 PUSH3 0x4AC PUSH3 0x33D JUMP JUMPDEST SWAP1 POP PUSH3 0x4BA DUP3 DUP3 PUSH3 0x46A JUMP JUMPDEST SWAP2 SWAP1 POP JUMP JUMPDEST PUSH1 0x0 PUSH8 0xFFFFFFFFFFFFFFFF DUP3 GT ISZERO PUSH3 0x4DD JUMPI PUSH3 0x4DC PUSH3 0x43B JUMP JUMPDEST JUMPDEST PUSH3 0x4E8 DUP3 PUSH3 0x42A JUMP JUMPDEST SWAP1 POP PUSH1 0x20 DUP2 ADD SWAP1 POP SWAP2 SWAP1 POP JUMP JUMPDEST DUP3 DUP2 DUP4 CALLDATACOPY PUSH1 0x0 DUP4 DUP4 ADD MSTORE POP POP POP JUMP JUMPDEST PUSH1 0x0 PUSH3 0x51B PUSH3 0x515 DUP5 PUSH3 0x4BF JUMP JUMPDEST PUSH3 0x4A0 JUMP JUMPDEST SWAP1 POP DUP3 DUP2 MSTORE PUSH1 0x20 DUP2 ADD DUP5 DUP5 DUP5 ADD GT ISZERO PUSH3 0x53A JUMPI PUSH3 0x539 PUSH3 0x425 JUMP JUMPDEST JUMPDEST PUSH3 0x547 DUP5 DUP3 DUP6 PUSH3 0x4F5 JUMP JUMPDEST POP SWAP4 SWAP3 POP POP POP JUMP JUMPDEST PUSH1 0x0 DUP3 PUSH1 0x1F DUP4 ADD SLT PUSH3 0x567 JUMPI PUSH3 0x566 PUSH3 0x420 JUMP JUMPDEST JUMPDEST DUP2 CALLDATALOAD PUSH3 0x579 DUP5 DUP3 PUSH1 0x20 DUP7 ADD PUSH3 0x504 JUMP JUMPDEST SWAP2 POP POP SWAP3 SWAP2 POP POP JUMP JUMPDEST PUSH1 0x0 DUP1 PUSH1 0x0 DUP1 PUSH1 0x80 DUP6 DUP8 SUB SLT ISZERO PUSH3 0x59F JUMPI PUSH3 0x59E PUSH3 0x347 JUMP JUMPDEST JUMPDEST PUSH1 0x0 DUP6 ADD CALLDATALOAD PUSH8 0xFFFFFFFFFFFFFFFF DUP2 GT ISZERO PUSH3 0x5C0 JUMPI PUSH3 0x5BF PUSH3 0x34C JUMP JUMPDEST JUMPDEST PUSH3 0x5CE DUP8 DUP3 DUP9 ADD PUSH3 0x54F JUMP JUMPDEST SWAP5 POP POP PUSH1 0x20 PUSH3 0x5E1 DUP8 DUP3 DUP9 ADD PUSH3 0x375 JUMP JUMPDEST SWAP4 POP POP PUSH1 0x40 PUSH3 0x5F4 DUP8 DUP3 DUP9 ADD PUSH3 0x375 JUMP JUMPDEST SWAP3 POP POP PUSH1 0x60 PUSH3 0x607 DUP8 DUP3 DUP9 ADD PUSH3 0x375 JUMP JUMPDEST SWAP2 POP POP SWAP3 SWAP6 SWAP2 SWAP5 POP SWAP3 POP JUMP JUMPDEST PUSH1 0x0 DUP2 MLOAD SWAP1 POP SWAP2 SWAP1 POP JUMP JUMPDEST PUSH1 0x0 DUP3 DUP3 MSTORE PUSH1 0x20 DUP3 ADD SWAP1 POP SWAP3 SWAP2 POP POP JUMP JUMPDEST PUSH1 0x0 DUP2 SWAP1 POP PUSH1 0x20 DUP3 ADD SWAP1 POP SWAP2 SWAP1 POP JUMP JUMPDEST PUSH3 0x64A DUP2 PUSH3 0x3DE JUMP JUMPDEST DUP3 MSTORE POP POP JUMP JUMPDEST PUSH1 0x0 PUSH3 0x65E DUP4 DUP4 PUSH3 0x63F JUMP JUMPDEST PUSH1 0x20 DUP4 ADD SWAP1 POP SWAP3 SWAP2 POP POP JUMP JUMPDEST PUSH1 0x0 PUSH1 0x20 DUP3 ADD SWAP1 POP SWAP2 SWAP1 POP JUMP JUMPDEST PUSH1 0x0 PUSH3 0x684 DUP3 PUSH3 0x613 JUMP JUMPDEST PUSH3 0x690 DUP2 DUP6 PUSH3 0x61E JUMP JUMPDEST SWAP4 POP PUSH3 0x69D DUP4 PUSH3 0x62F JUMP JUMPDEST DUP1 PUSH1 0x0 JUMPDEST DUP4 DUP2 LT ISZERO PUSH3 0x6D4 JUMPI DUP2 MLOAD PUSH3 0x6B8 DUP9 DUP3 PUSH3 0x650 JUMP JUMPDEST SWAP8 POP PUSH3 0x6C5 DUP4 PUSH3 0x66A JUMP JUMPDEST SWAP3 POP POP PUSH1 0x1 DUP2 ADD SWAP1 POP PUSH3 0x6A1 JUMP JUMPDEST POP DUP6 SWAP4 POP POP POP POP SWAP3 SWAP2 POP POP JUMP JUMPDEST PUSH1 0x0 PUSH1 0x20 DUP3 ADD SWAP1 POP DUP2 DUP2 SUB PUSH1 0x0 DUP4 ADD MSTORE PUSH3 0x6FD DUP2 DUP5 PUSH3 0x677 JUMP JUMPDEST SWAP1 POP SWAP3 SWAP2 POP POP JUMP JUMPDEST PUSH1 0x0 DUP2 MLOAD SWAP1 POP SWAP2 SWAP1 POP JUMP JUMPDEST PUSH1 0x0 DUP3 DUP3 MSTORE PUSH1 0x20 DUP3 ADD SWAP1 POP SWAP3 SWAP2 POP POP JUMP JUMPDEST PUSH1 0x0 JUMPDEST DUP4 DUP2 LT ISZERO PUSH3 0x741 JUMPI DUP1 DUP3 ADD MLOAD DUP2 DUP5 ADD MSTORE PUSH1 0x20 DUP2 ADD SWAP1 POP PUSH3 0x724 JUMP JUMPDEST DUP4 DUP2 GT ISZERO PUSH3 0x751 JUMPI PUSH1 0x0 DUP5 DUP5 ADD MSTORE JUMPDEST POP POP POP POP JUMP JUMPDEST PUSH1 0x0 PUSH3 0x764 DUP3 PUSH3 0x705 JUMP JUMPDEST PUSH3 0x770 DUP2 DUP6 PUSH3 0x710 JUMP JUMPDEST SWAP4 POP PUSH3 0x782 DUP2 DUP6 PUSH1 0x20 DUP7 ADD PUSH3 0x721 JUMP JUMPDEST PUSH3 0x78D DUP2 PUSH3 0x42A JUMP JUMPDEST DUP5 ADD SWAP2 POP POP SWAP3 SWAP2 POP POP JUMP JUMPDEST PUSH3 0x7A3 DUP2 PUSH3 0x351 JUMP JUMPDEST DUP3 MSTORE POP POP JUMP JUMPDEST PUSH1 0x0 PUSH1 0xA0 DUP3 ADD SWAP1 POP DUP2 DUP2 SUB PUSH1 0x0 DUP4 ADD MSTORE PUSH3 0x7C5 DUP2 DUP9 PUSH3 0x757 JUMP JUMPDEST SWAP1 POP PUSH3 0x7D6 PUSH1 0x20 DUP4 ADD DUP8 PUSH3 0x798 JUMP JUMPDEST PUSH3 0x7E5 PUSH1 0x40 DUP4 ADD DUP7 PUSH3 0x798 JUMP JUMPDEST PUSH3 0x7F4 PUSH1 0x60 DUP4 ADD DUP6 PUSH3 0x798 JUMP JUMPDEST PUSH3 0x803 PUSH1 0x80 DUP4 ADD DUP5 PUSH3 0x3F2 JUMP JUMPDEST SWAP7 SWAP6 POP POP POP POP POP POP JUMP INVALID PUSH1 0x80 PUSH1 0x40 MSTORE CALLVALUE DUP1 ISZERO PUSH3 0x11 JUMPI PUSH1 0x0 DUP1 REVERT JUMPDEST POP PUSH1 0x40 MLOAD PUSH3 0x14D1 CODESIZE SUB DUP1 PUSH3 0x14D1 DUP4 CODECOPY DUP2 DUP2 ADD PUSH1 0x40 MSTORE DUP2 ADD SWAP1 PUSH3 0x37 SWAP2 SWAP1 PUSH3 0x39D JUMP JUMPDEST DUP1 PUSH1 0x0 DUP1 PUSH2 0x100 EXP DUP2 SLOAD DUP2 PUSH20 0xFFFFFFFFFFFFFFFFFFFFFFFFFFFFFFFFFFFFFFFF MUL NOT AND SWAP1 DUP4 PUSH20 0xFFFFFFFFFFFFFFFFFFFFFFFFFFFFFFFFFFFFFFFF AND MUL OR SWAP1 SSTORE POP DUP5 PUSH1 0x1 SWAP1 DUP1 MLOAD SWAP1 PUSH1 0x20 ADD SWAP1 PUSH3 0x8F SWAP3 SWAP2 SWAP1 PUSH3 0xB0 JUMP JUMPDEST POP DUP4 PUSH1 0x2 DUP2 SWAP1 SSTORE POP DUP3 PUSH1 0x3 DUP2 SWAP1 SSTORE POP DUP2 PUSH1 0x4 DUP2 SWAP1 SSTORE POP POP POP POP POP POP PUSH3 0x4A8 JUMP JUMPDEST DUP3 DUP1 SLOAD PUSH3 0xBE SWAP1 PUSH3 0x473 JUMP JUMPDEST SWAP1 PUSH1 0x0 MSTORE PUSH1 0x20 PUSH1 0x0 KECCAK256 SWAP1 PUSH1 0x1F ADD PUSH1 0x20 SWAP1 DIV DUP2 ADD SWAP3 DUP3 PUSH3 0xE2 JUMPI PUSH1 0x0 DUP6 SSTORE PUSH3 0x12E JUMP JUMPDEST DUP3 PUSH1 0x1F LT PUSH3 0xFD JUMPI DUP1 MLOAD PUSH1 0xFF NOT AND DUP4 DUP1 ADD OR DUP6 SSTORE PUSH3 0x12E JUMP JUMPDEST DUP3 DUP1 ADD PUSH1 0x1 ADD DUP6 SSTORE DUP3 ISZERO PUSH3 0x12E JUMPI SWAP2 DUP3 ADD JUMPDEST DUP3 DUP2 GT ISZERO PUSH3 0x12D JUMPI DUP3 MLOAD DUP3 SSTORE SWAP2 PUSH1 0x20 ADD SWAP2 SWAP1 PUSH1 0x1 ADD SWAP1 PUSH3 0x110 JUMP JUMPDEST JUMPDEST POP SWAP1 POP PUSH3 0x13D SWAP2 SWAP1 PUSH3 0x141 JUMP JUMPDEST POP SWAP1 JUMP JUMPDEST JUMPDEST DUP1 DUP3 GT ISZERO PUSH3 0x15C JUMPI PUSH1 0x0 DUP2 PUSH1 0x0 SWAP1 SSTORE POP PUSH1 0x1 ADD PUSH3 0x142 JUMP JUMPDEST POP SWAP1 JUMP JUMPDEST PUSH1 0x0 PUSH1 0x40 MLOAD SWAP1 POP SWAP1 JUMP JUMPDEST PUSH1 0x0 DUP1 REVERT JUMPDEST PUSH1 0x0 DUP1 REVERT JUMPDEST PUSH1 0x0 DUP1 REVERT JUMPDEST PUSH1 0x0 DUP1 REVERT JUMPDEST PUSH1 0x0 PUSH1 0x1F NOT PUSH1 0x1F DUP4 ADD AND SWAP1 POP SWAP2 SWAP1 POP JUMP JUMPDEST PUSH32 0x4E487B7100000000000000000000000000000000000000000000000000000000 PUSH1 0x0 MSTORE PUSH1 0x41 PUSH1 0x4 MSTORE PUSH1 0x24 PUSH1 0x0 REVERT JUMPDEST PUSH3 0x1C9 DUP3 PUSH3 0x17E JUMP JUMPDEST DUP2 ADD DUP2 DUP2 LT PUSH8 0xFFFFFFFFFFFFFFFF DUP3 GT OR ISZERO PUSH3 0x1EB JUMPI PUSH3 0x1EA PUSH3 0x18F JUMP JUMPDEST JUMPDEST DUP1 PUSH1 0x40 MSTORE POP POP POP JUMP JUMPDEST PUSH1 0x0 PUSH3 0x200 PUSH3 0x160 JUMP JUMPDEST SWAP1 POP PUSH3 0x20E DUP3 DUP3 PUSH3 0x1BE JUMP JUMPDEST SWAP2 SWAP1 POP JUMP JUMPDEST PUSH1 0x0 PUSH8 0xFFFFFFFFFFFFFFFF DUP3 GT ISZERO PUSH3 0x231 JUMPI PUSH3 0x230 PUSH3 0x18F JUMP JUMPDEST JUMPDEST PUSH3 0x23C DUP3 PUSH3 0x17E JUMP JUMPDEST SWAP1 POP PUSH1 0x20 DUP2 ADD SWAP1 POP SWAP2 SWAP1 POP JUMP JUMPDEST PUSH1 0x0 JUMPDEST DUP4 DUP2 LT ISZERO PUSH3 0x269 JUMPI DUP1 DUP3 ADD MLOAD DUP2 DUP5 ADD MSTORE PUSH1 0x20 DUP2 ADD SWAP1 POP PUSH3 0x24C JUMP JUMPDEST DUP4 DUP2 GT ISZERO PUSH3 0x279 JUMPI PUSH1 0x0 DUP5 DUP5 ADD MSTORE JUMPDEST POP POP POP POP JUMP JUMPDEST PUSH1 0x0 PUSH3 0x296 PUSH3 0x290 DUP5 PUSH3 0x213 JUMP JUMPDEST PUSH3 0x1F4 JUMP JUMPDEST SWAP1 POP DUP3 DUP2 MSTORE PUSH1 0x20 DUP2 ADD DUP5 DUP5 DUP5 ADD GT ISZERO PUSH3 0x2B5 JUMPI PUSH3 0x2B4 PUSH3 0x179 JUMP JUMPDEST JUMPDEST PUSH3 0x2C2 DUP5 DUP3 DUP6 PUSH3 0x249 JUMP JUMPDEST POP SWAP4 SWAP3 POP POP POP JUMP JUMPDEST PUSH1 0x0 DUP3 PUSH1 0x1F DUP4 ADD SLT PUSH3 0x2E2 JUMPI PUSH3 0x2E1 PUSH3 0x174 JUMP JUMPDEST JUMPDEST DUP2 MLOAD PUSH3 0x2F4 DUP5 DUP3 PUSH1 0x20 DUP7 ADD PUSH3 0x27F JUMP JUMPDEST SWAP2 POP POP SWAP3 SWAP2 POP POP JUMP JUMPDEST PUSH1 0x0 DUP2 SWAP1 POP SWAP2 SWAP1 POP JUMP JUMPDEST PUSH3 0x312 DUP2 PUSH3 0x2FD JUMP JUMPDEST DUP2 EQ PUSH3 0x31E JUMPI PUSH1 0x0 DUP1 REVERT JUMPDEST POP JUMP JUMPDEST PUSH1 0x0 DUP2 MLOAD SWAP1 POP PUSH3 0x332 DUP2 PUSH3 0x307 JUMP JUMPDEST SWAP3 SWAP2 POP POP JUMP JUMPDEST PUSH1 0x0 PUSH20 0xFFFFFFFFFFFFFFFFFFFFFFFFFFFFFFFFFFFFFFFF DUP3 AND SWAP1 POP SWAP2 SWAP1 POP JUMP JUMPDEST PUSH1 0x0 PUSH3 0x365 DUP3 PUSH3 0x338 JUMP JUMPDEST SWAP1 POP SWAP2 SWAP1 POP JUMP JUMPDEST PUSH3 0x377 DUP2 PUSH3 0x358 JUMP JUMPDEST DUP2 EQ PUSH3 0x383 JUMPI PUSH1 0x0 DUP1 REVERT JUMPDEST POP JUMP JUMPDEST PUSH1 0x0 DUP2 MLOAD SWAP1 POP PUSH3 0x397 DUP2 PUSH3 0x36C JUMP JUMPDEST SWAP3 SWAP2 POP POP JUMP JUMPDEST PUSH1 0x0 DUP1 PUSH1 0x0 DUP1 PUSH1 0x0 PUSH1 0xA0 DUP7 DUP9 SUB SLT ISZERO PUSH3 0x3BC JUMPI PUSH3 0x3BB PUSH3 0x16A JUMP JUMPDEST JUMPDEST PUSH1 0x0 DUP7 ADD MLOAD PUSH8 0xFFFFFFFFFFFFFFFF DUP2 GT ISZERO PUSH3 0x3DD JUMPI PUSH3 0x3DC PUSH3 0x16F JUMP JUMPDEST JUMPDEST PUSH3 0x3EB DUP9 DUP3 DUP10 ADD PUSH3 0x2CA JUMP JUMPDEST SWAP6 POP POP PUSH1 0x20 PUSH3 0x3FE DUP9 DUP3 DUP10 ADD PUSH3 0x321 JUMP JUMPDEST SWAP5 POP POP PUSH1 0x40 PUSH3 0x411 DUP9 DUP3 DUP10 ADD PUSH3 0x321 JUMP JUMPDEST SWAP4 POP POP PUSH1 0x60 PUSH3 0x424 DUP9 DUP3 DUP10 ADD PUSH3 0x321 JUMP JUMPDEST SWAP3 POP POP PUSH1 0x80 PUSH3 0x437 DUP9 DUP3 DUP10 ADD PUSH3 0x386 JUMP JUMPDEST SWAP2 POP POP SWAP3 SWAP6 POP SWAP3 SWAP6 SWAP1 SWAP4 POP JUMP JUMPDEST PUSH32 0x4E487B7100000000000000000000000000000000000000000000000000000000 PUSH1 0x0 MSTORE PUSH1 0x22 PUSH1 0x4 MSTORE PUSH1 0x24 PUSH1 0x0 REVERT JUMPDEST PUSH1 0x0 PUSH1 0x2 DUP3 DIV SWAP1 POP PUSH1 0x1 DUP3 AND DUP1 PUSH3 0x48C JUMPI PUSH1 0x7F DUP3 AND SWAP2 POP JUMPDEST PUSH1 0x20 DUP3 LT DUP2 SUB PUSH3 0x4A2 JUMPI PUSH3 0x4A1 PUSH3 0x444 JUMP JUMPDEST JUMPDEST POP SWAP2 SWAP1 POP JUMP JUMPDEST PUSH2 0x1019 DUP1 PUSH3 0x4B8 PUSH1 0x0 CODECOPY PUSH1 0x0 RETURN INVALID PUSH1 0x80 PUSH1 0x40 MSTORE PUSH1 0x4 CALLDATASIZE LT PUSH2 0xA7 JUMPI PUSH1 0x0 CALLDATALOAD PUSH1 0xE0 SHR DUP1 PUSH4 0x87D81789 GT PUSH2 0x64 JUMPI DUP1 PUSH4 0x87D81789 EQ PUSH2 0x1BE JUMPI DUP1 PUSH4 0x8DA5CB5B EQ PUSH2 0x1FF JUMPI DUP1 PUSH4 0xD2B8B867 EQ PUSH2 0x22A JUMPI DUP1 PUSH4 0xD7BB99BA EQ PUSH2 0x253 JUMPI DUP1 PUSH4 0xD7E64C00 EQ PUSH2 0x25D JUMPI DUP1 PUSH4 0xDE14C818 EQ PUSH2 0x288 JUMPI PUSH2 0xA7 JUMP JUMPDEST DUP1 PUSH4 0x3120D46 EQ PUSH2 0xAC JUMPI DUP1 PUSH4 0x3110235A EQ PUSH2 0xD5 JUMPI DUP1 PUSH4 0x40193883 EQ PUSH2 0x100 JUMPI DUP1 PUSH4 0x63FD9E38 EQ PUSH2 0x12B JUMPI DUP1 PUSH4 0x6F7BC9BE EQ PUSH2 0x156 JUMPI DUP1 PUSH4 0x7284E416 EQ PUSH2 0x193 JUMPI JUMPDEST PUSH1 0x0 DUP1 REVERT JUMPDEST CALLVALUE DUP1 ISZERO PUSH2 0xB8 JUMPI PUSH1 0x0 DUP1 REVERT JUMPDEST POP PUSH2 0xD3 PUSH1 0x4 DUP1 CALLDATASIZE SUB DUP2 ADD SWAP1 PUSH2 0xCE SWAP2 SWAP1 PUSH2 0xBE6 JUMP JUMPDEST PUSH2 0x2B1 JUMP JUMPDEST STOP JUMPDEST CALLVALUE DUP1 ISZERO PUSH2 0xE1 JUMPI PUSH1 0x0 DUP1 REVERT JUMPDEST POP PUSH2 0xEA PUSH2 0x3EA JUMP JUMPDEST PUSH1 0x40 MLOAD PUSH2 0xF7 SWAP2 SWAP1 PUSH2 0xC64 JUMP JUMPDEST PUSH1 0x40 MLOAD DUP1 SWAP2 SUB SWAP1 RETURN JUMPDEST CALLVALUE DUP1 ISZERO PUSH2 0x10C JUMPI PUSH1 0x0 DUP1 REVERT JUMPDEST POP PUSH2 0x115 PUSH2 0x3F0 JUMP JUMPDEST PUSH1 0x40 MLOAD PUSH2 0x122 SWAP2 SWAP1 PUSH2 0xC64 JUMP JUMPDEST PUSH1 0x40 MLOAD DUP1 SWAP2 SUB SWAP1 RETURN JUMPDEST CALLVALUE DUP1 ISZERO PUSH2 0x137 JUMPI PUSH1 0x0 DUP1 REVERT JUMPDEST POP PUSH2 0x140 PUSH2 0x3F6 JUMP JUMPDEST PUSH1 0x40 MLOAD PUSH2 0x14D SWAP2 SWAP1 PUSH2 0xC64 JUMP JUMPDEST PUSH1 0x40 MLOAD DUP1 SWAP2 SUB SWAP1 RETURN JUMPDEST CALLVALUE DUP1 ISZERO PUSH2 0x162 JUMPI PUSH1 0x0 DUP1 REVERT JUMPDEST POP PUSH2 0x17D PUSH1 0x4 DUP1 CALLDATASIZE SUB DUP2 ADD SWAP1 PUSH2 0x178 SWAP2 SWAP1 PUSH2 0xCBD JUMP JUMPDEST PUSH2 0x3FC JUMP JUMPDEST PUSH1 0x40 MLOAD PUSH2 0x18A SWAP2 SWAP1 PUSH2 0xC64 JUMP JUMPDEST PUSH1 0x40 MLOAD DUP1 SWAP2 SUB SWAP1 RETURN JUMPDEST CALLVALUE DUP1 ISZERO PUSH2 0x19F JUMPI PUSH1 0x0 DUP1 REVERT JUMPDEST POP PUSH2 0x1A8 PUSH2 0x414 JUMP JUMPDEST PUSH1 0x40 MLOAD PUSH2 0x1B5 SWAP2 SWAP1 PUSH2 0xD72 JUMP JUMPDEST PUSH1 0x40 MLOAD DUP1 SWAP2 SUB SWAP1 RETURN JUMPDEST CALLVALUE DUP1 ISZERO PUSH2 0x1CA JUMPI PUSH1 0x0 DUP1 REVERT JUMPDEST POP PUSH2 0x1E5 PUSH1 0x4 DUP1 CALLDATASIZE SUB DUP2 ADD SWAP1 PUSH2 0x1E0 SWAP2 SWAP1 PUSH2 0xD94 JUMP JUMPDEST PUSH2 0x4A2 JUMP JUMPDEST PUSH1 0x40 MLOAD PUSH2 0x1F6 SWAP6 SWAP5 SWAP4 SWAP3 SWAP2 SWAP1 PUSH2 0xDEB JUMP JUMPDEST PUSH1 0x40 MLOAD DUP1 SWAP2 SUB SWAP1 RETURN JUMPDEST CALLVALUE DUP1 ISZERO PUSH2 0x20B JUMPI PUSH1 0x0 DUP1 REVERT JUMPDEST POP PUSH2 0x214 PUSH2 0x59D JUMP JUMPDEST PUSH1 0x40 MLOAD PUSH2 0x221 SWAP2 SWAP1 PUSH2 0xE54 JUMP JUMPDEST PUSH1 0x40 MLOAD DUP1 SWAP2 SUB SWAP1 RETURN JUMPDEST CALLVALUE DUP1 ISZERO PUSH2 0x236 JUMPI PUSH1 0x0 DUP1 REVERT JUMPDEST POP PUSH2 0x251 PUSH1 0x4 DUP1 CALLDATASIZE SUB DUP2 ADD SWAP1 PUSH2 0x24C SWAP2 SWAP1 PUSH2 0xD94 JUMP JUMPDEST PUSH2 0x5C1 JUMP JUMPDEST STOP JUMPDEST PUSH2 0x25B PUSH2 0x772 JUMP JUMPDEST STOP JUMPDEST CALLVALUE DUP1 ISZERO PUSH2 0x269 JUMPI PUSH1 0x0 DUP1 REVERT JUMPDEST POP PUSH2 0x272 PUSH2 0x80A JUMP JUMPDEST PUSH1 0x40 MLOAD PUSH2 0x27F SWAP2 SWAP1 PUSH2 0xC64 JUMP JUMPDEST PUSH1 0x40 MLOAD DUP1 SWAP2 SUB SWAP1 RETURN JUMPDEST CALLVALUE DUP1 ISZERO PUSH2 0x294 JUMPI PUSH1 0x0 DUP1 REVERT JUMPDEST POP PUSH2 0x2AF PUSH1 0x4 DUP1 CALLDATASIZE SUB DUP2 ADD SWAP1 PUSH2 0x2AA SWAP2 SWAP1 PUSH2 0xD94 JUMP JUMPDEST PUSH2 0x810 JUMP JUMPDEST STOP JUMPDEST PUSH1 0x0 DUP1 SLOAD SWAP1 PUSH2 0x100 EXP SWAP1 DIV PUSH20 0xFFFFFFFFFFFFFFFFFFFFFFFFFFFFFFFFFFFFFFFF AND PUSH20 0xFFFFFFFFFFFFFFFFFFFFFFFFFFFFFFFFFFFFFFFF AND CALLER PUSH20 0xFFFFFFFFFFFFFFFFFFFFFFFFFFFFFFFFFFFFFFFF AND EQ PUSH2 0x309 JUMPI PUSH1 0x0 DUP1 REVERT JUMPDEST PUSH1 0x0 PUSH1 0x7 DUP1 SLOAD SWAP1 POP SWAP1 POP PUSH1 0x7 PUSH1 0x1 DUP2 PUSH1 0x1 DUP2 SLOAD ADD DUP1 DUP3 SSTORE DUP1 SWAP2 POP POP SUB SWAP1 PUSH1 0x0 MSTORE PUSH1 0x20 PUSH1 0x0 KECCAK256 SWAP1 POP POP PUSH1 0x0 PUSH1 0x7 DUP3 DUP2 SLOAD DUP2 LT PUSH2 0x347 JUMPI PUSH2 0x346 PUSH2 0xE6F JUMP JUMPDEST JUMPDEST SWAP1 PUSH1 0x0 MSTORE PUSH1 0x20 PUSH1 0x0 KECCAK256 SWAP1 PUSH1 0x5 MUL ADD SWAP1 POP DUP5 DUP2 PUSH1 0x0 ADD SWAP1 DUP1 MLOAD SWAP1 PUSH1 0x20 ADD SWAP1 PUSH2 0x36F SWAP3 SWAP2 SWAP1 PUSH2 0x955 JUMP JUMPDEST POP DUP4 DUP2 PUSH1 0x1 ADD DUP2 SWAP1 SSTORE POP DUP3 DUP2 PUSH1 0x2 ADD PUSH1 0x0 PUSH2 0x100 EXP DUP2 SLOAD DUP2 PUSH20 0xFFFFFFFFFFFFFFFFFFFFFFFFFFFFFFFFFFFFFFFF MUL NOT AND SWAP1 DUP4 PUSH20 0xFFFFFFFFFFFFFFFFFFFFFFFFFFFFFFFFFFFFFFFF AND MUL OR SWAP1 SSTORE POP PUSH1 0x0 DUP2 PUSH1 0x2 ADD PUSH1 0x14 PUSH2 0x100 EXP DUP2 SLOAD DUP2 PUSH1 0xFF MUL NOT AND SWAP1 DUP4 ISZERO ISZERO MUL OR SWAP1 SSTORE POP PUSH1 0x0 DUP2 PUSH1 0x4 ADD DUP2 SWAP1 SSTORE POP POP POP POP POP POP JUMP JUMPDEST PUSH1 0x3 SLOAD DUP2 JUMP JUMPDEST PUSH1 0x4 SLOAD DUP2 JUMP JUMPDEST PUSH1 0x2 SLOAD DUP2 JUMP JUMPDEST PUSH1 0x6 PUSH1 0x20 MSTORE DUP1 PUSH1 0x0 MSTORE PUSH1 0x40 PUSH1 0x0 KECCAK256 PUSH1 0x0 SWAP2 POP SWAP1 POP SLOAD DUP2 JUMP JUMPDEST PUSH1 0x1 DUP1 SLOAD PUSH2 0x421 SWAP1 PUSH2 0xECD JUMP JUMPDEST DUP1 PUSH1 0x1F ADD PUSH1 0x20 DUP1 SWAP2 DIV MUL PUSH1 0x20 ADD PUSH1 0x40 MLOAD SWAP1 DUP2 ADD PUSH1 0x40 MSTORE DUP1 SWAP3 SWAP2 SWAP1 DUP2 DUP2 MSTORE PUSH1 0x20 ADD DUP3 DUP1 SLOAD PUSH2 0x44D SWAP1 PUSH2 0xECD JUMP JUMPDEST DUP1 ISZERO PUSH2 0x49A JUMPI DUP1 PUSH1 0x1F LT PUSH2 0x46F JUMPI PUSH2 0x100 DUP1 DUP4 SLOAD DIV MUL DUP4 MSTORE SWAP2 PUSH1 0x20 ADD SWAP2 PUSH2 0x49A JUMP JUMPDEST DUP3 ADD SWAP2 SWAP1 PUSH1 0x0 MSTORE PUSH1 0x20 PUSH1 0x0 KECCAK256 SWAP1 JUMPDEST DUP2 SLOAD DUP2 MSTORE SWAP1 PUSH1 0x1 ADD SWAP1 PUSH1 0x20 ADD DUP1 DUP4 GT PUSH2 0x47D JUMPI DUP3 SWAP1 SUB PUSH1 0x1F AND DUP3 ADD SWAP2 JUMPDEST POP POP POP POP POP DUP2 JUMP JUMPDEST PUSH1 0x7 DUP2 DUP2 SLOAD DUP2 LT PUSH2 0x4B2 JUMPI PUSH1 0x0 DUP1 REVERT JUMPDEST SWAP1 PUSH1 0x0 MSTORE PUSH1 0x20 PUSH1 0x0 KECCAK256 SWAP1 PUSH1 0x5 MUL ADD PUSH1 0x0 SWAP2 POP SWAP1 POP DUP1 PUSH1 0x0 ADD DUP1 SLOAD PUSH2 0x4D5 SWAP1 PUSH2 0xECD JUMP JUMPDEST DUP1 PUSH1 0x1F ADD PUSH1 0x20 DUP1 SWAP2 DIV MUL PUSH1 0x20 ADD PUSH1 0x40 MLOAD SWAP1 DUP2 ADD PUSH1 0x40 MSTORE DUP1 SWAP3 SWAP2 SWAP1 DUP2 DUP2 MSTORE PUSH1 0x20 ADD DUP3 DUP1 SLOAD PUSH2 0x501 SWAP1 PUSH2 0xECD JUMP JUMPDEST DUP1 ISZERO PUSH2 0x54E JUMPI DUP1 PUSH1 0x1F LT PUSH2 0x523 JUMPI PUSH2 0x100 DUP1 DUP4 SLOAD DIV MUL DUP4 MSTORE SWAP2 PUSH1 0x20 ADD SWAP2 PUSH2 0x54E JUMP JUMPDEST DUP3 ADD SWAP2 SWAP1 PUSH1 0x0 MSTORE PUSH1 0x20 PUSH1 0x0 KECCAK256 SWAP1 JUMPDEST DUP2 SLOAD DUP2 MSTORE SWAP1 PUSH1 0x1 ADD SWAP1 PUSH1 0x20 ADD DUP1 DUP4 GT PUSH2 0x531 JUMPI DUP3 SWAP1 SUB PUSH1 0x1F AND DUP3 ADD SWAP2 JUMPDEST POP POP POP POP POP SWAP1 DUP1 PUSH1 0x1 ADD SLOAD SWAP1 DUP1 PUSH1 0x2 ADD PUSH1 0x0 SWAP1 SLOAD SWAP1 PUSH2 0x100 EXP SWAP1 DIV PUSH20 0xFFFFFFFFFFFFFFFFFFFFFFFFFFFFFFFFFFFFFFFF AND SWAP1 DUP1 PUSH1 0x2 ADD PUSH1 0x14 SWAP1 SLOAD SWAP1 PUSH2 0x100 EXP SWAP1 DIV PUSH1 0xFF AND SWAP1 DUP1 PUSH1 0x4 ADD SLOAD SWAP1 POP DUP6 JUMP JUMPDEST PUSH1 0x0 DUP1 SLOAD SWAP1 PUSH2 0x100 EXP SWAP1 DIV PUSH20 0xFFFFFFFFFFFFFFFFFFFFFFFFFFFFFFFFFFFFFFFF AND DUP2 JUMP JUMPDEST PUSH1 0x0 DUP1 SLOAD SWAP1 PUSH2 0x100 EXP SWAP1 DIV PUSH20 0xFFFFFFFFFFFFFFFFFFFFFFFFFFFFFFFFFFFFFFFF AND PUSH20 0xFFFFFFFFFFFFFFFFFFFFFFFFFFFFFFFFFFFFFFFF AND CALLER PUSH20 0xFFFFFFFFFFFFFFFFFFFFFFFFFFFFFFFFFFFFFFFF AND EQ PUSH2 0x619 JUMPI PUSH1 0x0 DUP1 REVERT JUMPDEST PUSH1 0x0 DUP1 SLOAD SWAP1 PUSH2 0x100 EXP SWAP1 DIV PUSH20 0xFFFFFFFFFFFFFFFFFFFFFFFFFFFFFFFFFFFFFFFF AND PUSH20 0xFFFFFFFFFFFFFFFFFFFFFFFFFFFFFFFFFFFFFFFF AND CALLER PUSH20 0xFFFFFFFFFFFFFFFFFFFFFFFFFFFFFFFFFFFFFFFF AND EQ PUSH2 0x671 JUMPI PUSH1 0x0 DUP1 REVERT JUMPDEST PUSH1 0x0 PUSH1 0x7 DUP3 DUP2 SLOAD DUP2 LT PUSH2 0x687 JUMPI PUSH2 0x686 PUSH2 0xE6F JUMP JUMPDEST JUMPDEST SWAP1 PUSH1 0x0 MSTORE PUSH1 0x20 PUSH1 0x0 KECCAK256 SWAP1 PUSH1 0x5 MUL ADD SWAP1 POP DUP1 PUSH1 0x2 ADD PUSH1 0x14 SWAP1 SLOAD SWAP1 PUSH2 0x100 EXP SWAP1 DIV PUSH1 0xFF AND ISZERO PUSH2 0x6B3 JUMPI PUSH1 0x0 DUP1 REVERT JUMPDEST DUP1 PUSH1 0x1 ADD SLOAD SELFBALANCE LT ISZERO PUSH2 0x6C4 JUMPI PUSH1 0x0 DUP1 REVERT JUMPDEST PUSH1 0x2 PUSH1 0x5 SLOAD PUSH2 0x6D3 SWAP2 SWAP1 PUSH2 0xF5C JUMP JUMPDEST DUP2 PUSH1 0x4 ADD SLOAD GT PUSH2 0x6E2 JUMPI PUSH1 0x0 DUP1 REVERT JUMPDEST DUP1 PUSH1 0x2 ADD PUSH1 0x0 SWAP1 SLOAD SWAP1 PUSH2 0x100 EXP SWAP1 DIV PUSH20 0xFFFFFFFFFFFFFFFFFFFFFFFFFFFFFFFFFFFFFFFF AND PUSH20 0xFFFFFFFFFFFFFFFFFFFFFFFFFFFFFFFFFFFFFFFF AND PUSH2 0x8FC DUP3 PUSH1 0x1 ADD SLOAD SWAP1 DUP2 ISZERO MUL SWAP1 PUSH1 0x40 MLOAD PUSH1 0x0 PUSH1 0x40 MLOAD DUP1 DUP4 SUB DUP2 DUP6 DUP9 DUP9 CALL SWAP4 POP POP POP POP ISZERO DUP1 ISZERO PUSH2 0x750 JUMPI RETURNDATASIZE PUSH1 0x0 DUP1 RETURNDATACOPY RETURNDATASIZE PUSH1 0x0 REVERT JUMPDEST POP PUSH1 0x1 DUP2 PUSH1 0x2 ADD PUSH1 0x14 PUSH2 0x100 EXP DUP2 SLOAD DUP2 PUSH1 0xFF MUL NOT AND SWAP1 DUP4 ISZERO ISZERO MUL OR SWAP1 SSTORE POP POP POP JUMP JUMPDEST PUSH1 0x2 SLOAD CALLVALUE LT ISZERO PUSH2 0x781 JUMPI PUSH1 0x0 DUP1 REVERT JUMPDEST PUSH1 0x3 SLOAD CALLVALUE GT ISZERO PUSH2 0x790 JUMPI PUSH1 0x0 DUP1 REVERT JUMPDEST PUSH1 0x4 SLOAD CALLVALUE SELFBALANCE PUSH2 0x79F SWAP2 SWAP1 PUSH2 0xF8D JUMP JUMPDEST GT ISZERO PUSH2 0x7AA JUMPI PUSH1 0x0 DUP1 REVERT JUMPDEST CALLVALUE PUSH1 0x6 PUSH1 0x0 CALLER PUSH20 0xFFFFFFFFFFFFFFFFFFFFFFFFFFFFFFFFFFFFFFFF AND PUSH20 0xFFFFFFFFFFFFFFFFFFFFFFFFFFFFFFFFFFFFFFFF AND DUP2 MSTORE PUSH1 0x20 ADD SWAP1 DUP2 MSTORE PUSH1 0x20 ADD PUSH1 0x0 KECCAK256 DUP2 SWAP1 SSTORE POP PUSH1 0x1 PUSH1 0x5 PUSH1 0x0 DUP3 DUP3 SLOAD PUSH2 0x801 SWAP2 SWAP1 PUSH2 0xF8D JUMP JUMPDEST SWAP3 POP POP DUP2 SWAP1 SSTORE POP JUMP JUMPDEST PUSH1 0x5 SLOAD DUP2 JUMP JUMPDEST PUSH1 0x0 PUSH1 0x7 DUP3 DUP2 SLOAD DUP2 LT PUSH2 0x826 JUMPI PUSH2 0x825 PUSH2 0xE6F JUMP JUMPDEST JUMPDEST SWAP1 PUSH1 0x0 MSTORE PUSH1 0x20 PUSH1 0x0 KECCAK256 SWAP1 PUSH1 0x5 MUL ADD SWAP1 POP PUSH1 0x0 PUSH1 0x6 PUSH1 0x0 CALLER PUSH20 0xFFFFFFFFFFFFFFFFFFFFFFFFFFFFFFFFFFFFFFFF AND PUSH20 0xFFFFFFFFFFFFFFFFFFFFFFFFFFFFFFFFFFFFFFFF AND DUP2 MSTORE PUSH1 0x20 ADD SWAP1 DUP2 MSTORE PUSH1 0x20 ADD PUSH1 0x0 KECCAK256 SLOAD GT PUSH2 0x882 JUMPI PUSH1 0x0 DUP1 REVERT JUMPDEST DUP1 PUSH1 0x3 ADD PUSH1 0x0 CALLER PUSH20 0xFFFFFFFFFFFFFFFFFFFFFFFFFFFFFFFFFFFFFFFF AND PUSH20 0xFFFFFFFFFFFFFFFFFFFFFFFFFFFFFFFFFFFFFFFF AND DUP2 MSTORE PUSH1 0x20 ADD SWAP1 DUP2 MSTORE PUSH1 0x20 ADD PUSH1 0x0 KECCAK256 PUSH1 0x0 SWAP1 SLOAD SWAP1 PUSH2 0x100 EXP SWAP1 DIV PUSH1 0xFF AND ISZERO PUSH2 0x8DB JUMPI PUSH1 0x0 DUP1 REVERT JUMPDEST PUSH1 0x1 DUP2 PUSH1 0x3 ADD PUSH1 0x0 CALLER PUSH20 0xFFFFFFFFFFFFFFFFFFFFFFFFFFFFFFFFFFFFFFFF AND PUSH20 0xFFFFFFFFFFFFFFFFFFFFFFFFFFFFFFFFFFFFFFFF AND DUP2 MSTORE PUSH1 0x20 ADD SWAP1 DUP2 MSTORE PUSH1 0x20 ADD PUSH1 0x0 KECCAK256 PUSH1 0x0 PUSH2 0x100 EXP DUP2 SLOAD DUP2 PUSH1 0xFF MUL NOT AND SWAP1 DUP4 ISZERO ISZERO MUL OR SWAP1 SSTORE POP PUSH1 0x1 DUP2 PUSH1 0x4 ADD PUSH1 0x0 DUP3 DUP3 SLOAD PUSH2 0x94A SWAP2 SWAP1 PUSH2 0xF8D JUMP JUMPDEST SWAP3 POP POP DUP2 SWAP1 SSTORE POP POP POP JUMP JUMPDEST DUP3 DUP1 SLOAD PUSH2 0x961 SWAP1 PUSH2 0xECD JUMP JUMPDEST SWAP1 PUSH1 0x0 MSTORE PUSH1 0x20 PUSH1 0x0 KECCAK256 SWAP1 PUSH1 0x1F ADD PUSH1 0x20 SWAP1 DIV DUP2 ADD SWAP3 DUP3 PUSH2 0x983 JUMPI PUSH1 0x0 DUP6 SSTORE PUSH2 0x9CA JUMP JUMPDEST DUP3 PUSH1 0x1F LT PUSH2 0x99C JUMPI DUP1 MLOAD PUSH1 0xFF NOT AND DUP4 DUP1 ADD OR DUP6 SSTORE PUSH2 0x9CA JUMP JUMPDEST DUP3 DUP1 ADD PUSH1 0x1 ADD DUP6 SSTORE DUP3 ISZERO PUSH2 0x9CA JUMPI SWAP2 DUP3 ADD JUMPDEST DUP3 DUP2 GT ISZERO PUSH2 0x9C9 JUMPI DUP3 MLOAD DUP3 SSTORE SWAP2 PUSH1 0x20 ADD SWAP2 SWAP1 PUSH1 0x1 ADD SWAP1 PUSH2 0x9AE JUMP JUMPDEST JUMPDEST POP SWAP1 POP PUSH2 0x9D7 SWAP2 SWAP1 PUSH2 0x9DB JUMP JUMPDEST POP SWAP1 JUMP JUMPDEST JUMPDEST DUP1 DUP3 GT ISZERO PUSH2 0x9F4 JUMPI PUSH1 0x0 DUP2 PUSH1 0x0 SWAP1 SSTORE POP PUSH1 0x1 ADD PUSH2 0x9DC JUMP JUMPDEST POP SWAP1 JUMP JUMPDEST PUSH1 0x0 PUSH1 0x40 MLOAD SWAP1 POP SWAP1 JUMP JUMPDEST PUSH1 0x0 DUP1 REVERT JUMPDEST PUSH1 0x0 DUP1 REVERT JUMPDEST PUSH1 0x0 DUP1 REVERT JUMPDEST PUSH1 0x0 DUP1 REVERT JUMPDEST PUSH1 0x0 PUSH1 0x1F NOT PUSH1 0x1F DUP4 ADD AND SWAP1 POP SWAP2 SWAP1 POP JUMP JUMPDEST PUSH32 0x4E487B7100000000000000000000000000000000000000000000000000000000 PUSH1 0x0 MSTORE PUSH1 0x41 PUSH1 0x4 MSTORE PUSH1 0x24 PUSH1 0x0 REVERT JUMPDEST PUSH2 0xA5F DUP3 PUSH2 0xA16 JUMP JUMPDEST DUP2 ADD DUP2 DUP2 LT PUSH8 0xFFFFFFFFFFFFFFFF DUP3 GT OR ISZERO PUSH2 0xA7E JUMPI PUSH2 0xA7D PUSH2 0xA27 JUMP JUMPDEST JUMPDEST DUP1 PUSH1 0x40 MSTORE POP POP POP JUMP JUMPDEST PUSH1 0x0 PUSH2 0xA91 PUSH2 0x9F8 JUMP JUMPDEST SWAP1 POP PUSH2 0xA9D DUP3 DUP3 PUSH2 0xA56 JUMP JUMPDEST SWAP2 SWAP1 POP JUMP JUMPDEST PUSH1 0x0 PUSH8 0xFFFFFFFFFFFFFFFF DUP3 GT ISZERO PUSH2 0xABD JUMPI PUSH2 0xABC PUSH2 0xA27 JUMP JUMPDEST JUMPDEST PUSH2 0xAC6 DUP3 PUSH2 0xA16 JUMP JUMPDEST SWAP1 POP PUSH1 0x20 DUP2 ADD SWAP1 POP SWAP2 SWAP1 POP JUMP JUMPDEST DUP3 DUP2 DUP4 CALLDATACOPY PUSH1 0x0 DUP4 DUP4 ADD MSTORE POP POP POP JUMP JUMPDEST PUSH1 0x0 PUSH2 0xAF5 PUSH2 0xAF0 DUP5 PUSH2 0xAA2 JUMP JUMPDEST PUSH2 0xA87 JUMP JUMPDEST SWAP1 POP DUP3 DUP2 MSTORE PUSH1 0x20 DUP2 ADD DUP5 DUP5 DUP5 ADD GT ISZERO PUSH2 0xB11 JUMPI PUSH2 0xB10 PUSH2 0xA11 JUMP JUMPDEST JUMPDEST PUSH2 0xB1C DUP5 DUP3 DUP6 PUSH2 0xAD3 JUMP JUMPDEST POP SWAP4 SWAP3 POP POP POP JUMP JUMPDEST PUSH1 0x0 DUP3 PUSH1 0x1F DUP4 ADD SLT PUSH2 0xB39 JUMPI PUSH2 0xB38 PUSH2 0xA0C JUMP JUMPDEST JUMPDEST DUP2 CALLDATALOAD PUSH2 0xB49 DUP5 DUP3 PUSH1 0x20 DUP7 ADD PUSH2 0xAE2 JUMP JUMPDEST SWAP2 POP POP SWAP3 SWAP2 POP POP JUMP JUMPDEST PUSH1 0x0 DUP2 SWAP1 POP SWAP2 SWAP1 POP JUMP JUMPDEST PUSH2 0xB65 DUP2 PUSH2 0xB52 JUMP JUMPDEST DUP2 EQ PUSH2 0xB70 JUMPI PUSH1 0x0 DUP1 REVERT JUMPDEST POP JUMP JUMPDEST PUSH1 0x0 DUP2 CALLDATALOAD SWAP1 POP PUSH2 0xB82 DUP2 PUSH2 0xB5C JUMP JUMPDEST SWAP3 SWAP2 POP POP JUMP JUMPDEST PUSH1 0x0 PUSH20 0xFFFFFFFFFFFFFFFFFFFFFFFFFFFFFFFFFFFFFFFF DUP3 AND SWAP1 POP SWAP2 SWAP1 POP JUMP JUMPDEST PUSH1 0x0 PUSH2 0xBB3 DUP3 PUSH2 0xB88 JUMP JUMPDEST SWAP1 POP SWAP2 SWAP1 POP JUMP JUMPDEST PUSH2 0xBC3 DUP2 PUSH2 0xBA8 JUMP JUMPDEST DUP2 EQ PUSH2 0xBCE JUMPI PUSH1 0x0 DUP1 REVERT JUMPDEST POP JUMP JUMPDEST PUSH1 0x0 DUP2 CALLDATALOAD SWAP1 POP PUSH2 0xBE0 DUP2 PUSH2 0xBBA JUMP JUMPDEST SWAP3 SWAP2 POP POP JUMP JUMPDEST PUSH1 0x0 DUP1 PUSH1 0x0 PUSH1 0x60 DUP5 DUP7 SUB SLT ISZERO PUSH2 0xBFF JUMPI PUSH2 0xBFE PUSH2 0xA02 JUMP JUMPDEST JUMPDEST PUSH1 0x0 DUP5 ADD CALLDATALOAD PUSH8 0xFFFFFFFFFFFFFFFF DUP2 GT ISZERO PUSH2 0xC1D JUMPI PUSH2 0xC1C PUSH2 0xA07 JUMP JUMPDEST JUMPDEST PUSH2 0xC29 DUP7 DUP3 DUP8 ADD PUSH2 0xB24 JUMP JUMPDEST SWAP4 POP POP PUSH1 0x20 PUSH2 0xC3A DUP7 DUP3 DUP8 ADD PUSH2 0xB73 JUMP JUMPDEST SWAP3 POP POP PUSH1 0x40 PUSH2 0xC4B DUP7 DUP3 DUP8 ADD PUSH2 0xBD1 JUMP JUMPDEST SWAP2 POP POP SWAP3 POP SWAP3 POP SWAP3 JUMP JUMPDEST PUSH2 0xC5E DUP2 PUSH2 0xB52 JUMP JUMPDEST DUP3 MSTORE POP POP JUMP JUMPDEST PUSH1 0x0 PUSH1 0x20 DUP3 ADD SWAP1 POP PUSH2 0xC79 PUSH1 0x0 DUP4 ADD DUP5 PUSH2 0xC55 JUMP JUMPDEST SWAP3 SWAP2 POP POP JUMP JUMPDEST PUSH1 0x0 PUSH2 0xC8A DUP3 PUSH2 0xB88 JUMP JUMPDEST SWAP1 POP SWAP2 SWAP1 POP JUMP JUMPDEST PUSH2 0xC9A DUP2 PUSH2 0xC7F JUMP JUMPDEST DUP2 EQ PUSH2 0xCA5 JUMPI PUSH1 0x0 DUP1 REVERT JUMPDEST POP JUMP JUMPDEST PUSH1 0x0 DUP2 CALLDATALOAD SWAP1 POP PUSH2 0xCB7 DUP2 PUSH2 0xC91 JUMP JUMPDEST SWAP3 SWAP2 POP POP JUMP JUMPDEST PUSH1 0x0 PUSH1 0x20 DUP3 DUP5 SUB SLT ISZERO PUSH2 0xCD3 JUMPI PUSH2 0xCD2 PUSH2 0xA02 JUMP JUMPDEST JUMPDEST PUSH1 0x0 PUSH2 0xCE1 DUP5 DUP3 DUP6 ADD PUSH2 0xCA8 JUMP JUMPDEST SWAP2 POP POP SWAP3 SWAP2 POP POP JUMP JUMPDEST PUSH1 0x0 DUP2 MLOAD SWAP1 POP SWAP2 SWAP1 POP JUMP JUMPDEST PUSH1 0x0 DUP3 DUP3 MSTORE PUSH1 0x20 DUP3 ADD SWAP1 POP SWAP3 SWAP2 POP POP JUMP JUMPDEST PUSH1 0x0 JUMPDEST DUP4 DUP2 LT ISZERO PUSH2 0xD24 JUMPI DUP1 DUP3 ADD MLOAD DUP2 DUP5 ADD MSTORE PUSH1 0x20 DUP2 ADD SWAP1 POP PUSH2 0xD09 JUMP JUMPDEST DUP4 DUP2 GT ISZERO PUSH2 0xD33 JUMPI PUSH1 0x0 DUP5 DUP5 ADD MSTORE JUMPDEST POP POP POP POP JUMP JUMPDEST PUSH1 0x0 PUSH2 0xD44 DUP3 PUSH2 0xCEA JUMP JUMPDEST PUSH2 0xD4E DUP2 DUP6 PUSH2 0xCF5 JUMP JUMPDEST SWAP4 POP PUSH2 0xD5E DUP2 DUP6 PUSH1 0x20 DUP7 ADD PUSH2 0xD06 JUMP JUMPDEST PUSH2 0xD67 DUP2 PUSH2 0xA16 JUMP JUMPDEST DUP5 ADD SWAP2 POP POP SWAP3 SWAP2 POP POP JUMP JUMPDEST PUSH1 0x0 PUSH1 0x20 DUP3 ADD SWAP1 POP DUP2 DUP2 SUB PUSH1 0x0 DUP4 ADD MSTORE PUSH2 0xD8C DUP2 DUP5 PUSH2 0xD39 JUMP JUMPDEST SWAP1 POP SWAP3 SWAP2 POP POP JUMP JUMPDEST PUSH1 0x0 PUSH1 0x20 DUP3 DUP5 SUB SLT ISZERO PUSH2 0xDAA JUMPI PUSH2 0xDA9 PUSH2 0xA02 JUMP JUMPDEST JUMPDEST PUSH1 0x0 PUSH2 0xDB8 DUP5 DUP3 DUP6 ADD PUSH2 0xB73 JUMP JUMPDEST SWAP2 POP POP SWAP3 SWAP2 POP POP JUMP JUMPDEST PUSH2 0xDCA DUP2 PUSH2 0xBA8 JUMP JUMPDEST DUP3 MSTORE POP POP JUMP JUMPDEST PUSH1 0x0 DUP2 ISZERO ISZERO SWAP1 POP SWAP2 SWAP1 POP JUMP JUMPDEST PUSH2 0xDE5 DUP2 PUSH2 0xDD0 JUMP JUMPDEST DUP3 MSTORE POP POP JUMP JUMPDEST PUSH1 0x0 PUSH1 0xA0 DUP3 ADD SWAP1 POP DUP2 DUP2 SUB PUSH1 0x0 DUP4 ADD MSTORE PUSH2 0xE05 DUP2 DUP9 PUSH2 0xD39 JUMP JUMPDEST SWAP1 POP PUSH2 0xE14 PUSH1 0x20 DUP4 ADD DUP8 PUSH2 0xC55 JUMP JUMPDEST PUSH2 0xE21 PUSH1 0x40 DUP4 ADD DUP7 PUSH2 0xDC1 JUMP JUMPDEST PUSH2 0xE2E PUSH1 0x60 DUP4 ADD DUP6 PUSH2 0xDDC JUMP JUMPDEST PUSH2 0xE3B PUSH1 0x80 DUP4 ADD DUP5 PUSH2 0xC55 JUMP JUMPDEST SWAP7 SWAP6 POP POP POP POP POP POP JUMP JUMPDEST PUSH2 0xE4E DUP2 PUSH2 0xC7F JUMP JUMPDEST DUP3 MSTORE POP POP JUMP JUMPDEST PUSH1 0x0 PUSH1 0x20 DUP3 ADD SWAP1 POP PUSH2 0xE69 PUSH1 0x0 DUP4 ADD DUP5 PUSH2 0xE45 JUMP JUMPDEST SWAP3 SWAP2 POP POP JUMP JUMPDEST PUSH32 0x4E487B7100000000000000000000000000000000000000000000000000000000 PUSH1 0x0 MSTORE PUSH1 0x32 PUSH1 0x4 MSTORE PUSH1 0x24 PUSH1 0x0 REVERT JUMPDEST PUSH32 0x4E487B7100000000000000000000000000000000000000000000000000000000 PUSH1 0x0 MSTORE PUSH1 0x22 PUSH1 0x4 MSTORE PUSH1 0x24 PUSH1 0x0 REVERT JUMPDEST PUSH1 0x0 PUSH1 0x2 DUP3 DIV SWAP1 POP PUSH1 0x1 DUP3 AND DUP1 PUSH2 0xEE5 JUMPI PUSH1 0x7F DUP3 AND SWAP2 POP JUMPDEST PUSH1 0x20 DUP3 LT DUP2 SUB PUSH2 0xEF8 JUMPI PUSH2 0xEF7 PUSH2 0xE9E JUMP JUMPDEST JUMPDEST POP SWAP2 SWAP1 POP JUMP JUMPDEST PUSH32 0x4E487B7100000000000000000000000000000000000000000000000000000000 PUSH1 0x0 MSTORE PUSH1 0x12 PUSH1 0x4 MSTORE PUSH1 0x24 PUSH1 0x0 REVERT JUMPDEST PUSH32 0x4E487B7100000000000000000000000000000000000000000000000000000000 PUSH1 0x0 MSTORE PUSH1 0x11 PUSH1 0x4 MSTORE PUSH1 0x24 PUSH1 0x0 REVERT JUMPDEST PUSH1 0x0 PUSH2 0xF67 DUP3 PUSH2 0xB52 JUMP JUMPDEST SWAP2 POP PUSH2 0xF72 DUP4 PUSH2 0xB52 JUMP JUMPDEST SWAP3 POP DUP3 PUSH2 0xF82 JUMPI PUSH2 0xF81 PUSH2 0xEFE JUMP JUMPDEST JUMPDEST DUP3 DUP3 DIV SWAP1 POP SWAP3 SWAP2 POP POP JUMP JUMPDEST PUSH1 0x0 PUSH2 0xF98 DUP3 PUSH2 0xB52 JUMP JUMPDEST SWAP2 POP PUSH2 0xFA3 DUP4 PUSH2 0xB52 JUMP JUMPDEST SWAP3 POP DUP3 PUSH32 0xFFFFFFFFFFFFFFFFFFFFFFFFFFFFFFFFFFFFFFFFFFFFFFFFFFFFFFFFFFFFFFFF SUB DUP3 GT ISZERO PUSH2 0xFD8 JUMPI PUSH2 0xFD7 PUSH2 0xF2D JUMP JUMPDEST JUMPDEST DUP3 DUP3 ADD SWAP1 POP SWAP3 SWAP2 POP POP JUMP INVALID LOG2 PUSH5 0x6970667358 0x22 SLT KECCAK256 0x28 0xC0 0xB0 SWAP5 DUP2 0xC8 0xAD SIGNEXTEND 0xD0 0x4D 0xE 0xEB 0xD7 0xC9 0xB6 PUSH26 0xBB639B281B05AB1ED01B1AAA8CB63EDE64736F6C634300080D00 CALLER LOG2 PUSH5 0x6970667358 0x22 SLT KECCAK256 0xC 0xBE MULMOD PUSH24 0x887B9968F0AC85E5473C08201DCEAA0BC06160AF681AFE9B LOG2 LOG0 PUSH2 0x8F64 PUSH20 0x6F6C634300080D00330000000000000000000000 "},"gasEstimates":{"creation":{"codeDepositCost":"1488800","executionCost":"1555","totalCost":"1490355"},"external":{"createProject(string,uint256,uint256,uint256)":"infinite","getLatestProject()":"2544","getProjects()":"infinite","latestProject()":"2514","projects(uint256)":"4934"}},"methodIdentifiers":{"createProject(string,uint256,uint256,uint256)":"610a6a2a","getLatestProject()":"5b7ce55a","getProjects()":"dcc60128","latestProject()":"24d2b0c6","projects(uint256)":"107046bd"}},"storageLayout":{"storage":[{"astId":333,"contract":"ProjectList.sol:ProjectList","label":"projects","offset":0,"slot":"0","type":"t_array(t_address)dyn_storage"},{"astId":335,"contract":"ProjectList.sol:ProjectList","label":"latestProject","offset":0,"slot":"1","type":"t_address"}],"types":{"t_address":{"encoding":"inplace","label":"address","numberOfBytes":"20"},"t_array(t_address)dyn_storage":{"base":"t_address","encoding":"dynamic_array","label":"address[]","numberOfBytes":"32"}}},"userdoc":{"kind":"user","methods":{},"version":1}}